:1020000060FF001061210000315A0000455A0000B5
:10201000595A00006D5A0000815A0000000000006B
:1020200000000000000000000000000081380000F7
:102030002521000000000000E138000025390000E3
:102040003121000031210000312100003121000048
:1020500031210000253A000031210000312100002B
:102060003121000031210000312100003121000028
:1020700031210000955A000031210000312100007B
:102080003121000031210000312100003121000008
:1020900031210000312100003121000031210000F8
:1020A00031210000312100003121000031210000E8
:1020B00031210000312100003121000031210000D8
:1020C00031210000312100003121000031210000C8
:1020D0003121000031210000994E00003121000023
:1020E000312100007CD50000800000105404000065
:1020F0007CD500000000002000000000D804001083
:10210000B02E00000000002000000000FEE700BF2D
:10211000FEE700BFFEE700BFFEE700BFFEE700BF2F
:10212000FEE700BFFEE700BFFEE700BFFEE700BF1F
:10213000FEE700BF10B4002304E004680C60043321
:10214000043004319342F8D310BC7047002303E0FD
:1021500000220260043304308B42F9D3704700BF81
:1021600010B50E4B07E003F10C049A685968186823
:10217000FFF7E0FF23460A4A9342F4D306E01C46E9
:10218000596854F8080BFFF7E1FF2346054A9342CC
:10219000F5D300F04DF904F00FFEFEE7E420000057
:1021A000FC2000000C2100009A4BD3F8043113F4FA
:1021B000807F4BD1974BD3F80C3113F0010F1BD11B
:1021C0009449D1F8042102F01F02934BB3FBF2F2C1
:1021D00092480260D1F8A82102F01F02B3FBF2F28C
:1021E0008F480260D1F8002102F001020132B3FBF6
:1021F000F2F38C4A1360A6E0864BD3F8A03113F0BB
:10220000400F07D10023854A1360854A1360854A31
:10221000136098E07F49D1F8042102F01F02824B3D
:10222000B3FBF2F27D480260D1F8A82102F01F0250
:10223000B3FBF2F27A480260D1F8002102F0010209
:102240000132B3FBF2F3774A13607CE0714BD3F8B1
:10225000883013F4807F07D10023704A1360704ADE
:102260001360704A13606EE06A4BD3F80C3113F0C0
:10227000010F2DD16748D0F8882002F01F02664B6D
:1022800002FB0331D0F8042102F01F02B1FBF2F28D
:1022900062490A60D0F8882002F01F0202FB033175
:1022A000D0F8A82102F01F02B1FBF2F25C490A60EB
:1022B000D0F8882002F01F0202FB0333D0F800217F
:1022C00002F001020132B3FBF2F3564A13603AE026
:1022D000504BD3F8A03113F0400F07D100234F4AE1
:1022E00013604F4A13604F4A13602CE04948D0F8FE
:1022F000882002F01F024C4B02FB0331D0F804216E
:1023000002F01F02B1FBF2F244490A60D0F88820C3
:1023100002F01F0202FB0331D0F8A82102F01F02D5
:10232000B1FBF2F23E490A60D0F8882002F01F02A9
:1023300002FB0333D0F8002102F001020132B3FBAB
:10234000F2F3384A1360334BD3F8083113F4807F2B
:1023500039D0304BD3F8083103F01F03042B06D0DB
:10236000062B04D05BBB0022304B1A607047294B10
:10237000D3F80C3113F0010F10D02649D1F8883072
:1023800003F01F02284B02FB0333D1F8082102F0AF
:102390001F02B3FBF2F3254A136070471D49D1F8C1
:1023A000883003F01F021C4B02FB0333D1F80821D5
:1023B00002F01F02B3FBF2F31C4A136070470022C5
:1023C0001A4B1A607047134BD3F8083113F4007F8F
:1023D0001BD0104BD3F80C3113F0010F0AD00D4B6A
:1023E000D3F8A83003F01F020F4B02FB03330F4A50
:1023F00013607047074BD3F8883003F01F02064B79
:1024000002FB0333094A136070470022074B1A602E
:10241000704700BF00C00F40001BB7008C000010C9
:102420008800001084000010002D31018000001091
:1024300031221C4BC3F8A0211A4BD3F8A03113F062
:10244000400FF9D0174B0122C3F80C210521C3F826
:102450008410C3F88020AA22C3F88C205522C3F828
:102460008C20104BD3F8883013F4806FF9D00D4BCB
:1024700040F20112C3F8042140F20122C3F80821FE
:102480000122C3F800210222C3F8A821064AC3F89A
:10249000C4204FF48072C3F8C82145F23A021A6092
:1024A000704700BF00C00F40DE872804074B23F0B1
:1024B0000703074A136000205060064A42F2087181
:1024C0005160106059601A60704700BFEC04001042
:1024D000D8040010F42B001070B5044600F018FA70
:1024E000224B1B6823B9FFF7E1FF01221F4B1A6043
:1024F00034B1083414F0070F02D024F00704083474
:10250000621E42F206739A4228D819490B6801E00C
:10251000194613465A68944202D91A68002AF7D11C
:10252000144A93421CD00D6808351A680A605A682C
:10253000121B102A0CD91E1972605C6074680C4959
:1025400000E011460A6850688442FAD832600E6092
:102550005968094A13685B1A136002E0002500E01D
:10256000002500F069FA284670BD00BFE0040010A5
:10257000D8040010F42B001090000010D0B170B5FA
:102580000546A0F1080600F0C3F955F8044C0A4AC4
:1025900000E01A46136859688C42FAD845F8083C9E
:1025A000166055F8043C054A11680B44136000F0AE
:1025B00043FA70BD704700BFD804001090000010AF
:1025C0000A4B1B681B680BB9012300E0002323B1F1
:1025D0004FF0FF32064B1A607047044B1B68DB68F4
:1025E000DB685A68024B1A60704700BF002C00106D
:1025F000F02C001010B50446006BFFF7BFFF20461B
:10260000FFF7BCFF10BD00BFF8B5074614460E46E5
:1026100021B98000FFF760FF054600E00D4665B177
:102620001CB96020FFF758FF04460CB1256305E094
:1026300026B92846FFF7A2FF00E0002424B1BA0023
:10264000A521206B05F082FA2046F8BD70B504463E
:102650001546002306E0C85CE21882F83400CA5C24
:1026600012B10133132BF6D9002384F84730072D1C
:1026700000D90725E562256500266665201D00F066
:1026800011FE04F1180000F00DFE2461C5F10805EB
:10269000A5616462A66584F85C6070BD38B50024ED
:1026A00007E004EB840293000E48184400F0EEFDAE
:1026B0000134072CF5D90C4D284600F0E7FD0B4CF2
:1026C000204600F0E3FD0A4800F0E0FD094800F074
:1026D000DDFD094800F0DAFD084B1D60084B1C6069
:1026E00038BD00BF242C0010F82C00100C2D001059
:1026F000D42C0010082C0010202D0010002C0010ED
:102700001C2C001038B504460D461D4B18680430CB
:1027100000F0F2FD50B91A4B1B68DA6A012303FA84
:1027200002F218490B6823EA02030B60B4F1FF3F81
:1027300007D135B1124B19680431134800F0B6FDCA
:1027400038BD124B1A6814440D4A126854601B6855
:102750009C4207D20E4B1868094B1968043100F0EF
:10276000B1FD38BD0B4B1868054B1968043100F0FA
:10277000A9FD094B1B689C4201D2074B1C6038BD68
:10278000D02C0010342D0010202D0010EC2C001047
:102790001C2C0010002C0010F02C00102DE9F0472C
:1027A00082B080468A46164699460B9F0D9A0C9930
:1027B0003046FFF729FF00284BD00446036B06F193
:1027C0008045013D03EB850525F0070500960E9B2E
:1027D0000A9A5146FFF73AFF4A464146284601F019
:1027E0003DF8206007B13C6001F05CF8254A1368B1
:1027F00001331360244B1B683BB9234B1C601368E7
:10280000012B0DD1FFF74AFF0AE0204B1B683BB9B3
:102810001D4B1B68DB6A0A9A9A4201D31A4B1C6053
:102820001B4A136801331360A364E36A012505FAA8
:1028300003F018490A6802430A6003EB83039A0015
:10284000211D1548104400F031FD01F03BF82846E9
:1028500001E04FF0FF30012810D10C4B1B686BB129
:10286000094B1B68DB6A0A9A9A4207D94FF08052DB
:102870000A4B1A60BFF34F8FBFF36F8F02B0BDE8F2
:10288000F08700BFCC2C0010D02C0010042C0010BE
:10289000F42C0010342D0010242C001004ED00E066
:1028A00000B587B00023049303930293124A019268
:1028B0000093802211491248FFF770FF012801D1CF
:1028C00000F09AFB012813D14FF0280383F31188FD
:1028D000BFF36F8FBFF34F8F4FF0FF32094B1A607A
:1028E0000122094B1A600022084B1A6001F046F8D9
:1028F00007B05DF804FB00BFE82C0010407F00002B
:10290000DD2B0000F02C0010042C0010EC2C00102B
:10291000024A136801331360704700BFC42C0010D3
:10292000014B1868704700BFEC2C0010F8B5374B0E
:102930001B68002B5DD1364B1A6801321A601F6884
:102940005FB9344A1168344B186810601960334A13
:10295000136801331360FFF733FE314B1B689F424E
:1029600003D200263AE0012600E00026294B1B682E
:102970001B680BB9012300E0002323B14FF0FF32A5
:10298000274B1A602AE0234B1B68DB68DC6863680E
:102990009F4202D2224A136020E0251D284600F003
:1029A000ABFCA36A1BB104F1180000F0A5FCE36ABC
:1029B000012202FA03F11B4802680A43026003EB9A
:1029C00083039A0029461848104400F06FFCE26A1D
:1029D000164B1B68DB6A9A42C5D2C7E7134B1B68CC
:1029E000DB6A03EB83039A000F4B9B58012B06D83D
:1029F00006E00F4A136801331360002600E0012649
:102A00000C4B1B6803B101263046F8BDC42C0010E6
:102A1000EC2C0010002C00101C2C0010FC2B0010C3
:102A2000F02C0010342D0010242C0010D02C00109D
:102A3000202C0010382D001038B500F033FF2F4B3C
:102A40001A68013A1A601B68002B50D12C4B1B6886
:102A500033BB00244EE02B4BDB68DC6804F118002C
:102A600000F04AFC251D284600F046FCE36A0122DE
:102A700002FA03F1244802680A43026003EB83036D
:102A80009A0029462148104400F010FCE26A204BCD
:102A90001B68DB6A9A4204D301221E4B1A6000E0D5
:102AA0000024184B1B68002BD5D10CB1FFF788FD13
:102AB000194B1B6853B90DE0FFF738FF10B1012225
:102AC000144B1A60144A1368013B1360124B1B68C5
:102AD000002BF1D10F4B1B685BB14FF080520F4BB5
:102AE0001A60BFF34F8FBFF36F8F012402E0002401
:102AF00000E0002400F0E6FE204638BDC42C0010A3
:102B0000CC2C0010D42C0010342D0010242C0010DC
:102B1000D02C0010382D0010202C001004ED00E007
:102B200038B505460C46FFF7F3FE154B18682A68C2
:102B30001319904205D29A4209D9984209D300222A
:102B40000CE09A4207D8984207D3002206E0002200
:102B500004E0012202E0012200E001222B601AB110
:102B60000021181AFFF7CEFDFFF766FF38B94FF0C6
:102B70008052044B1A60BFF34F8FBFF36F8F38BD85
:102B8000EC2C001004ED00E010B51BE0FFF7C0FED8
:102B90000F4B1C68FFF750FFA4B100F083FE0C4BF5
:102BA000DB68DC68201D00F0A7FB0A4A1368013BC4
:102BB0001360094A1368013B136000F083FE20464E
:102BC000FFF718FD044B1B68002BDFD110BD00BFC1
:102BD000082C0010CC2C0010C82C001008B5FFF7F2
:102BE000D3FF064B1B68012BF9D94FF08052044BE1
:102BF0001A60BFF34F8FBFF36F8FF0E7242C0010E4
:102C000004ED00E038B51E4B1B681BB101221D4BC3
:102C10001A6038BD00221B4B1A601B4B1A681268E1
:102C20001B681B6B9A4205D8174B1868196834311A
:102C300003F046F9154B1B68B3FA83F3DBB2C3F11B
:102C40001F03134D9900CA18900028444268546825
:102C5000446019448A0008322A44944205D16068CD
:102C600003EB83018A002A44506003EB83039A003C
:102C7000074B1A445368DA68034B1A6038BD00BF2B
:102C8000C42C0010382D0010D02C0010342D001052
:102C9000242C001010B50C46044B1968183100F0B4
:102CA00011FB01212046FFF72DFD10BDD02C001097
:102CB00038B50D461446064B1968183100F0F6FA7F
:102CC0000CB14FF0FF3521462846FFF71BFD38BDFC
:102CD000D02C001038B5C368DC6804F1180528460C
:102CE00000F00AFB134B1B68A3B9251D284600F012
:102CF00003FBE36A012202FA03F10F4802680A4368
:102D0000026003EB83039A0029460C48104400F04C
:102D1000CDFA03E029460A4800F0C8FAE26A094BF6
:102D20001B68DB6A9A4203D90120074B186038BD43
:102D3000002038BDC42C0010342D0010242C0010AD
:102D4000D42C0010D02C0010382D0010034B1B6821
:102D50000360034B1B684360704700BFFC2B0010EF
:102D6000EC2C001038B504460D4600F09BFD114BCD
:102D70001A682B68B3F1FF3F13D020680E49096829
:102D8000884202D061688A420DD26168501A83423B
:102D90000BD98A1A13442B602046FFF7D7FF002473
:102DA00004E0002402E0012400E0012400F08AFD98
:102DB000204638BDEC2C0010FC2B00100122014BEA
:102DC0001A607047382D0010054B1B6823B1054B66
:102DD0001B681BB902207047012070470020704714
:102DE000042C0010C42C001000284AD038B502462C
:102DF000C36A24490968C96A8B4241D281690029A2
:102E000005DB20490968C96AC1F10801816150697F
:102E100003EB830399001C4B1944884201D1012321
:102E200000E0002343B31446151D284600F064FA61
:102E300070B9E36A03EB83018A0013498A583AB9EF
:102E4000012202FA03F311490A6822EA03030B6024
:102E50000C4B1B68DB6AE362012202FA03F10B48A8
:102E600002680A43026003EB83039A00294606487E
:102E7000104400F01BFA38BD024B1B68DB6AD362BA
:102E800038BD7047D02C0010242C0010342D0010B9
:102E9000002834D038B50346426D013A4265C06A15
:102EA000196D88422DD072BB1C461D1D284600F0AE
:102EB00023FA70B9E36A03EB83018A0013498A5845
:102EC0003AB9012202FA03F311490A6822EA03031C
:102ED0000B60236DE362C3F10802A261012404FACE
:102EE00003F00B490A6802430A6003EB83039A006C
:102EF00029460648104400F0D9F9204638BD002084
:102F00007047002038BD002038BD00BF242C0010C1
:102F1000342D0010054B1B6823B1044B1A68536D08
:102F200001335365014B1868704700BFD02C001067
:102F3000064B1A681368B3FA83F35B09036013B98D
:102F4000D368186870470020704700BF3C2D001000
:102F500008B54160006191420AD8D21A83699A4249
:102F600011D2011D0A4B186800F0ACF9002008BD11
:102F70009A4201D2994208D2011D064B186800F00E
:102F8000A1F9002008BD012008BD012008BD00BF37
:102F9000702D00103C2D001030B583B000F082FC85
:102FA0000F4B1B68C3B90F4D284600F06FF90E4C4C
:102FB000204600F06BF90D4B1D600D4B1C6000228C
:102FC000009213460C21022000F090FA044B186086
:102FD00010B1084900F0F4FB00F074FC03B030BD00
:102FE0006C2D0010402D0010542D00103C2D0010B1
:102FF000702D0010487F000000B587B0FFF7CCFFB0
:10300000094B1B6863B1002304930393029301935C
:1030100002220092502205490548FFF7BFFB00E05D
:10302000002007B05DF804FB6C2D0010507F0000FD
:103030007532000030B585B0134C256805B31C46C9
:10304000019102920390052913DCFFF7BDFE0228CF
:1030500007D10023089A01A90B48006800F064FA20
:103060000FE000231A4601A90748006800F05CFA47
:1030700007E00023224601A9284600F0D3FA00E029
:10308000002005B030BD00BF6C2D001070B582B0BF
:103090001FE0DB681E68DC68251D284600F02CF95F
:1030A000636A20469847E369012B12D1A369334430
:1030B0009E4207D26360246129460C4B186800F0D9
:1030C00001F906E0002100910B4632462046FFF749
:1030D000B1FF064B1B681A68002ADAD1044A10684F
:1030E00002490860136002B070BD00BF3C2D0010A3
:1030F000702D001038B50546FFF712FC0446074B4B
:103100001B68984204D2FFF7C1FF01232B6001E046
:1031100000232B60014B1C60204638BD682D001039
:1031200070B582B005460E460E4B1B68DB68DC6846
:10313000201D00F0E1F8E369012B0ED1A1692B46B7
:10314000324629442046FFF703FF30B100210091A9
:103150000B462A462046FFF76DFF636A20469847D4
:1031600002B070BD3C2D001070B582B006460C4612
:10317000FFF7CEFB01A8FFF7BDFF019B1BBB054678
:1031800044B9B04206D3FFF757FC29463046FFF753
:10319000C7FF1AE02CB10E4B1B681C68B4FA84F40C
:1031A00064092246711B0B4B186800F01DFBFFF7EA
:1031B00043FC50B94FF08052074B1A60BFF34F8F5A
:1031C000BFF36F8F01E0FFF737FC02B070BD00BFA7
:1031D000702D00106C2D001004ED00E030B587B0AC
:1031E0003AE0039B002B37DB059C636913B1201D7C
:1031F00000F082F802A8FFF77DFF039B092B2BD874
:10320000DFE803F00505052A1E2705052A1E049997
:10321000A5690B46024629442046FFF799FED8B11E
:10322000636A20469847E369012B15D1A269002102
:1032300000910B46049802442046FFF7FBFE0BE08A
:103240000499A1610346024601442046FFF780FE2F
:1032500002E02046FFF792F900231A4603A904482A
:10326000006800F013FA0028BBD107B030BD00BFE2
:103270006C2D001000B583B001A8FFF759FE01992D
:10328000FFF772FFFFF7AAFFF6E700BF00F10803A0
:1032900043604FF0FF328260C3600361002303602C
:1032A000704700BF00230361704700BF43684B6055
:1032B0009A688A609A68516099600861036801336E
:1032C0000360704730B40D68B5F1FF3F01D102696A
:1032D00007E000F1080200E01A4653681C68A542A6
:1032E000FAD253684B6099608A6051600861036844
:1032F0000133036030BC70470369426881689160A4
:103300008268416851605A68904201D182685A606F
:1033100000220261186801381860704710B5044631
:1033200000F0C0FAA26BE36B9A4201D1012400E0E5
:10333000002400F0C7FA204610BD00BF10B50446B7
:1033400000F0B0FAA36B0BB9012400E0002400F0F8
:10335000B9FA204610BD00BF10B5144611B100FBEC
:1033600001F000E000205430FFF7B6F8034610B13A
:1033700000F154022260184610BD00BF38B5044663
:103380001546026C3AB903685BBB4068FFF780FDE5
:10339000002363602CE06DB9806804F061FBA268D3
:1033A000236C1344A360626893421CD32368A36018
:1033B00000201DE0C06804F053FB236C5B42E26810
:1033C0001A44E26021688A4202D262681344E360D0
:1033D000022D0AD1A36B53B1A36B013BA363002061
:1033E00006E0002004E0002002E0002000E00020D1
:1033F000A36B0133A36338BD026C72B110B5C3680F
:103400001344C3604468A34201D30368C3600C46FD
:10341000C168204604F024FB10BD704710B5044677
:1034200000F040FA0BE0636A63B104F12400FFF797
:1034300051FC08B1FFF7C2FCA36C013BA364A36C71
:10344000002BF0DC4FF0FF33A36400F03BFA00F0F8
:1034500029FA0BE0236963B104F11000FFF73AFC8D
:1034600008B1FFF7ABFC636C013B6364636C002B3A
:10347000F0DC4FF0FF33636400F024FA10BD00BFAE
:1034800038B504460D4600F00DFA2168E26B236C56
:1034900003FB021060600020A063A160013A02FB00
:1034A0000313E3604FF0FF336364A3647DB92369C2
:1034B000ABB104F11000FFF70DFC80B14FF080526A
:1034C000094B1A60BFF34F8FBFF36F8F07E004F112
:1034D0001000FFF7DBFE04F12400FFF7D7FE00F039
:1034E000F1F9012038BD00BF04ED00E070B582B0F5
:1034F00006460D4602AC44F8042D2246FFF72CFF89
:10350000044670B10DB9206001E0019B0360E663E1
:10351000256401212046FFF7B3FF9DF8183084F899
:103520005030204602B070BDF0B585B004460F465D
:1035300001921E46002500F0B5F9A26BE36B9A429A
:1035400001D3022E21D1324639462046FFF716FF1D
:10355000636A6BB104F12400FFF7BCFB88B14FF044
:1035600080522F4B1A60BFF34F8FBFF36F8F08E06D
:1035700038B14FF080522A4B1A60BFF34F8FBFF320
:103580006F8F00F09FF9012048E0019B1BB900F00C
:1035900099F9002042E01DB902A8FFF7D7FB0125E9
:1035A00000F090F9FFF7B4F900F07CF9636CB3F127
:1035B000FF3F01D100236364A36CB3F1FF3F01D14E
:1035C0000023A36400F07EF901A902A8FFF7CAFB5B
:1035D000F0B92046FFF7A2FEA0B1019904F1100056
:1035E000FFF758FB2046FFF719FFFFF725FA0028E1
:1035F000A1D14FF080520A4B1A60BFF34F8FBFF337
:103600006F8F98E72046FFF709FFFFF715FA92E75B
:103610002046FFF703FFFFF70FFA002005B0F0BDCB
:1036200004ED00E070B5EFF311854FF0280484F34A
:103630001188BFF36F8FBFF34F8F866BC46BA642A9
:1036400001D3022B18D1164604461A46FFF796FE00
:10365000A36CB3F1FF3F0AD1636A7BB104F124008C
:10366000FFF738FB60B16EB1012030600BE0A36C56
:103670000133A364012006E0002004E0012002E001
:10368000012000E0012085F3118870BDF0B585B000
:1036900004460F4601921E46002500F003F9A36B75
:1036A0008BB3E56839462046FFF7A6FEBEB9A36B8B
:1036B000013BA363236813B9FFF72CFC6060236907
:1036C000EBB104F11000FFF705FBC0B14FF08052E1
:1036D0003A4B1A60BFF34F8FBFF36F8F0FE0E56077
:1036E000636A63B104F12400FFF7F4FA38B14FF0D4
:1036F0008052324B1A60BFF34F8FBFF36F8F00F0D1
:10370000E1F8012057E0019B1BB900F0DBF8002035
:1037100051E01DB902A8FFF719FB012500F0D2F80E
:10372000FFF7F6F800F0BEF8636CB3F1FF3F01D18C
:1037300000236364A36CB3F1FF3F01D10023A364B2
:1037400000F0C0F801A902A8FFF70CFB38BB204627
:10375000FFF7F4FDE8B1236833B900F0A3F860681F
:10376000FFF742FB00F0AEF8019904F12400FFF7E7
:1037700091FA2046FFF752FEFFF75EF900288CD140
:103780004FF080520D4B1A60BFF34F8FBFF36F8F16
:1037900083E72046FFF742FEFFF74EF97DE720461C
:1037A000FFF73CFEFFF748F92046FFF7C7FD00286A
:1037B0003FF473AF002005B0F0BD00BF04ED00E0A2
:1037C00000230BE0074A52F8332032B9054A42F889
:1037D000331002EBC303586070470133092BF1D952
:1037E000704700BF9C2E001070B504460D4616466B
:1037F00000F058F8636CB3F1FF3F01D1002363641C
:10380000A36CB3F1FF3F01D10023A36400F05AF889
:10381000A36B2BB93246294604F12400FFF748FA7E
:103820002046FFF7FBFD70BD4FF0280383F311889E
:10383000BFF36F8FBFF34F8FFEE700BF06480068EE
:10384000006880F3088862B661B6BFF34F8FBFF39C
:103850006F8F00DF00BF000008ED00E04FF08073C5
:1038600040F8043C40F8081C034B40F80C3C40F87E
:10387000202C4038704700BF29380000FFFFFFFFB1
:10388000074B19680868B0E8F00F80F30988BFF3A8
:103890006F8F4FF0000080F311884EF00D0E7047CF
:1038A000D02C00104FF0280383F31188BFF36F8FE3
:1038B000BFF34F8F024A136801331360704700BF94
:1038C00094000010034A1368013B13600BB983F3A3
:1038D0001188704794000010FFFFFFFFFFFFFFFFFC
:1038E000EFF30980BFF36F8F0D4B1A6820E9F00FDB
:1038F00010602DE908404FF0280080F31188FFF791
:1039000081F94FF0000080F31188BDE80840196884
:103910000868B0E8F00F80F30988BFF36F8F704735
:10392000D02C001008B54FF0280383F31188BFF3A3
:103930006F8FBFF34F8FFEF7F9FF18B14FF0805232
:10394000024B1A60002383F3118808BD04ED00E0E8
:10395000064B1B68064AA2FB03239B09013B054A51
:1039600013600722044B1A60704700BF8C000010E0
:10397000D34D621014E000E010E000E008B5094B00
:103980001A6842F478021A601A6842F078421A60A3
:10399000FFF7DEFF0022044B1A60FFF74FFFFFF72F
:1039A00043FF00BF20ED00E09400001040B110B5CF
:1039B000054C064B1C60204602F052FA204610BD12
:1039C0000020024B186070471800000E04300010F1
:1039D00030B583B00446114850F824301B7802A952
:1039E00001F8013D04EB840293002833184401F0F0
:1039F00077FF20F07F4018B1094B186802F030FAC9
:103A0000231D064A02EB83035D682DB102F00AF81C
:103A10009DF807202146A84703B030BD802D001037
:103A20000430001008B50020FFF7D2FF08BD00BF2A
:103A3000F8B50546FFF7BAFF0446384B1860002872
:103A400069D1FEF7B1FB2B1D354A02EB830300223F
:103A50005A6065B905EB85039800283001230A22D6
:103A600030492F4E304401F02DFF032000E00020AC
:103A7000002D4AD12A4B2C4A1A6002F5003234211B
:103A800011605160294FD7F8C460E91C012202FA85
:103A900001F13143C7F8C41025490968254EA6FB3A
:103AA000016153F825703E7B46F080063E7353F863
:103AB0002560C1F30757377053F82560090F31713E
:103AC00053F82510C0B2087353F825104A6053F814
:103AD00025100A7253F82510802081F83000691DE6
:103AE000C9B248B2400901F01F0102FA01F1124EB9
:103AF00046F8201002FA05F593F88C20154383F858
:103B00008C500022054B1A6005E00C4C034B1C60E6
:103B1000204602F0A5F92046F8BD00BF0430001091
:103B2000802D0010742D001000C0004000C00F4018
:103B300088000010C5B3A29100E100E01800000E5B
:103B400070B506460D46FFF731FF20B13046FFF74E
:103B50002DFF04461AE004460D4B93F88C003146C5
:103B6000304110F0010F06D10A4C0B4B1C6020466F
:103B700002F076F90AE0064B53F821301A7D12F074
:103B8000400FF8D01D700022034B1A60204670BD14
:103B9000802D00101500000E0430001038B50446CA
:103BA0000D46FFF703FF18B12046FFF7FFFE38BDB3
:103BB000FFF778FE04EB8404A00028302946044B6C
:103BC000184401F0B7FE0446FFF77CFE204638BDDE
:103BD000802D0010054B93F88C20012303FA00F090
:103BE000024214BF18460020704700BF802D00100D
:103BF000012803D80020064B1860704710B5054C0B
:103C0000034B1C60204602F02BF9204610BD00BF7C
:103C1000043000100100000208B5064818230322F2
:103C200000F10801503001F04DFE0020024B1860F9
:103C300008BD00BF102E00100430001010B504465F
:103C4000FFF7D6FF20B12046FFF7D2FF034603E07F
:103C500003460021014A1160184610BD04300010CF
:103C600010B50446FFF7C4FF20B12046FFF7C0FFA0
:103C7000034603E003460021014A1160184610BDC7
:103C80000430001010B50446FFF7B2FF20B1204603
:103C9000FFF7AEFFC0B210BD0020014B186010BD91
:103CA0000430001008B5024801F044FE08BD00BF12
:103CB000602E00100020014B186070470430001087
:103CC000064AB2F96430002B03DD1B1AA2F86430F7
:103CD00070470022014BA3F864207047102E00109B
:103CE00030B5174900208861164B1B68164AA2FBA5
:103CF0000342D20B013A4A61C3EB0312520A134C3E
:103D0000A4FB0225C3EBC302C3EBC202520AA4FB0D
:103D100002E2D209120242EAD51203EB8303C3EB9B
:103D2000C3035B0AA4FB0343DB0942EA03430B61C1
:103D30004FF0A053C1F8683F054B186030BD00BF7D
:103D4000800020008C000010819F5E16834B0400D1
:103D5000043000105318B3F57C6F03DD2348244B67
:103D600018607047F0B516460F464FF08054214B4F
:103D7000C3F8684F02F03F0300222BE01D4C4FF0C8
:103D80008065C4F8685F03252560B518656010F884
:103D900002E0C4F808E00133DBB23F2B02D87C1EFE
:103DA000A24215D1134BD3F8603F13F0806FF9D0C6
:103DB000104B5D6006241C600E4BD3F8603F13F07F
:103DC000805FF9D04FF080540A4BC3F8684F00234E
:103DD000013292B28A42D1D34FF0A052054BC3F8C0
:103DE000682F0020024B1860F0BD00BF0B000016CA
:103DF00004300010800020005318B3F57C6F03DD01
:103E00001548164B1860704710B4154B5A604FF0A8
:103E10008062C3F8682F002212E00024104B1C605F
:103E20000F4BD3F8603F13F0806FF9D00C4BDC6878
:103E300004704FF08064C3F8684F013292B20130D1
:103E40008A42EAD34FF0A052054BC3F8682F0020F6
:103E5000024B186010BC70470B00001604300010B5
:103E60008000200070B582B0164B0230988000248C
:103E70005C801C8001264FF6FF751BE02244023A4D
:103E800092B202210DF10600FFF7B6FFBDF8061051
:103E900061B18D4202D90B4B5C800D468E4202D23D
:103EA000084B1C800E46084800F086FA054B9B889C
:103EB0001C44A4B2034B9A88C2F57C639C42DDDDAE
:103EC00002B070BD802E0010587F00003B4BB3F94C
:103ED00000209B881A4492B211B20B44B3F57C6F58
:103EE00000DD0021354BB3F90230994203D134484B
:103EF000344B1860704730B583B00446023A92B232
:103F000002210DF10600FFF777FFBDF8063023B15F
:103F10002A4B99881A880A441A80284AB2F9003034
:103F200091880B44B3F57C6F02DD0022234B1A808D
:103F30000239224B1A8889B22046FFF70BFFBDF8E1
:103F400006204FF6FF739A4222D11AE02244023A29
:103F500092B2022101A8FFF74FFFBDF804301BB158
:103F600003F6C173ADF80430144DAA882244023A16
:103F700092B2022101A8FFF7EDFEAB881C44A4B267
:103F800000E000240D4B9A88C2F57C639C42DDDD85
:103F9000BDF80630013302A820F8023D074AB2F905
:103FA000003092881A44023A92B20221FFF7D2FE00
:103FB0000020044B186003B030BD00BF802E0010FD
:103FC000120000160430001010B582B00446002321
:103FD0008DF80730244AB2F9023092881A44023A26
:103FE00092B2022101A8FFF707FFBDF804301BB908
:103FF0001E481F4B186035E03CB11B4B99880239B5
:104000005A8889B22046FFF7F7FE0023ADF8043046
:104010000EE0154BB3F902301A4492B201210DF1B2
:104020000700FFF797FEBDF804300133ADF8043008
:104030000D4B9B88BDF804209342EAD80A4AB2F996
:104040000010B2F90220914209D01A4412B2064976
:104050004A801344B3F57C6F01DD00224A800020C2
:10406000034B186002B010BD802E00101700001620
:104070000430001030B583B004460D46214AB2F931
:10408000003092881A44023A92B202210DF10600E1
:10409000FFF7B2FEBDF806301BB91B481B4B18607A
:1040A0002DE0184BB3F90020ADF8065018E0154983
:1040B000B1F902108A4203D11548144B18601EE072
:1040C00010498988521A12B2002A06DA4FF47C622B
:1040D00092FBF1F201FB02F212B2013BADF80630A5
:1040E000BDF80630002BE2D1064B9988023992B216
:1040F00089B22046FFF780FE0020044B186003B011
:1041000030BD00BF802E00101700001604300010D4
:104110001200001610B582B00024019407E0A2003E
:1041200092B204210DEB0100FFF714FE0134B4F547
:104130007C7FF4D3024B00221A805A8002B010BD5B
:10414000802E001008B528B1026811700268013293
:10415000026008BD084600F035FF08BD2DE9F041BA
:1041600007460E46151E05DC4FF0200814E001310D
:10417000013201E00A46002110780028F7D1A94257
:1041800001DA6D1A00E0002513F0020F02D14FF0A2
:10419000200801E04FF0300813F0010F08D0002490
:1041A0000FE041463846FFF7CDFF0134013D00E006
:1041B0000024002DF5DC04E03846FFF7C3FF01348E
:1041C000013631780029F7D105E041463846FFF73E
:1041D000B9FF0134013D002DF7DC2046BDE8F08138
:1041E000F0B585B005460C9E59B930238DF80430E2
:1041F00000238DF805300B9B0A9A01A9FFF7AEFF4B
:1042000040E0084633B10A2A06D1002906DA4842BE
:10421000012704E0002702E0002700E0002704ACAB
:10422000002304F8013D0DE0B0FBF2F302FB1303A1
:10423000092B02DDA6F13A010B44303304F8013DAD
:10424000B0FBF2F00028EFD1A7B10A9B63B10B9B42
:1042500013F0020F08D02D212846FFF773FF0A9BA9
:10426000013B0A93012606E02D2304F8013C013CA2
:10427000002600E000260B9B0A9A21462846FFF7FD
:104280006DFF304405B0F0BDF0B587B006460C4672
:104290001F46002583E0252B7BD1621C6378002B11
:1042A00000F08180252B73D02D2B02D1A21C01237D
:1042B00000E00023144602E0013443F002032278B8
:1042C000302AF9D0002205E002EB8202500030399A
:1042D000421801342178A1F13000C0B20928F3D985
:1042E000732908D13968043701B932493046FFF7DC
:1042F00035FF054452E0642901D069290CD13968A1
:104300000437612002900193009201230A22304673
:10431000FFF766FF054441E078290CD1396804377E
:104320006120029001930092002310223046FFF793
:1043300057FF054432E058290CD139680437412031
:10434000029001930092002310223046FFF748FFAD
:10435000054423E075290CD13968043761200290A7
:104360000193009200230A223046FFF739FF0544EB
:1043700014E0632912D1397804378DF81410002124
:104380008DF8151005A93046FFF7E8FE054405E055
:10439000144621783046FFF7D5FE013501342378E5
:1043A000002B7FF478AF16B1336800221A702846CC
:1043B00007B0F0BD647F00000FB400B583B004AB5C
:1043C00053F8041B01934FF0FF320020FFF75CFF0E
:1043D00003B05DF804EB04B0704700BF70B4002375
:1043E00010E0D0F8305103EB4306B4002E192C5BDB
:1043F0008C4206D1F47814F0C00F08D1B4789442FE
:1044000005D00133B0F83441A342EAD30026304648
:1044100070BC704730B587B09DF8284000250195E5
:104420000395049505958DF800204A788DF80120B4
:104430008A788DF80220CA788DF80320027E02F572
:10444000B062029208228DF80C2053B916E01A1DB2
:10445000E95C0DF1180E724402F8181C0133DBB24E
:1044600001E01D460023A342F1D307E01A1D06A96F
:104470000A44002102F8181C0133DBB2032BF5D9E2
:10448000694690F85C01FFF7FDFB07B030BD00BF47
:1044900000B587B0002303930493059380238DF820
:1044A00000304B788DF801308B788DF80230CB7866
:1044B0008DF803308DF80420C2F307238DF8053002
:1044C000C2F307438DF80630120E8DF80720037EE5
:1044D0008033029308238DF80C30694690F85C0114
:1044E000FFF7D0FB07B05DF804FB00BF10B582B04A
:1044F000019283788B420AD30B464468C07800F05F
:104500003F00024601A900FB034003F0A9FA02B0F4
:1045100010BD00BF83788B420DD310B582B04468C4
:10452000C37803F03F031A4603FB014101A803F0DF
:1045300097FA019801E00020704702B010BD00BF5B
:104540002DE9F04385B006460C464F7891F802906D
:1045500007EB092194F80380424689B2FFF73EFF3A
:1045600028B97C4A21463046FFF792FFEEE0054627
:104570002378402B3AD1037A13F0010F05D1764A04
:1045800021463046FFF784FFE0E0C27812F0C00F0A
:1045900024D0B8F1000F18D0837898450FD808F1CF
:1045A000FF3189B2FFF7B6FF04AB43F8040D0422D4
:1045B0000092422221463046FFF72CFFC6E0654AB2
:1045C00021463046FFF764FFC0E001230093831CBF
:1045D000422221463046FFF71DFFB7E043680092B4
:1045E000422221463046FFF715FFAFE02F2B06D0C1
:1045F0002B2B04D0232B02D0222B40F0A2802B7A2D
:1046000013F0020F00F0978007EB092741F2030334
:104610009F422BD1B8F1000F28D196F86831B6F837
:104620006421D6F8601106F5B07001F04BF9002353
:104630008DF80C3007E06B68002199549DF80C3020
:1046400001338DF80C309DF80C20A978EB7803F03D
:104650003F0303FB01F39A42EDDB0123009303AB1D
:10466000602221463046FFF7D5FE6FE0EB7813F06D
:10467000C00F1CD0B8F1000F04D008F1FF33AA78A6
:10468000934205DB354A21463046FFF701FF5DE0E6
:1046900008F1FF31626889B22846FFF727FF0AE078
:1046A0006A68191D615CD1540133DBB200E000235C
:1046B000EA789342F4D300230093602221463046E7
:1046C000FFF7A8FE6378A27803EB022341F2100201
:1046D000934213D1E378012B10D16B681A78732AB7
:1046E0000CD15A78612A09D19A78762A06D1DA78DB
:1046F000652A03D100221A6001F01AFB6378A278C0
:1047000003EB022341F2110293421FD1E378012B04
:104710001CD16B681A786C2A18D15A786F2A15D177
:104720009A78612A12D1DA78642A0FD100221A60AD
:1047300001F032FB0AE00A4A21463046FFF7A8FEA4
:1047400004E0084A21463046FFF7A2FE05B0BDE866
:10475000F08300BF00000206010001060000010610
:10476000020001060100040500B583B0C27802F022
:104770003F02416801A803F073F9019803B05DF8A6
:1047800004FB00BF30B587B0044618460B9DC4F843
:104790003011A4F834217F2384F838310A9BC4F8FF
:1047A0003C31C4F8405184F85C0100234FF0FF32E3
:1047B0001946FFF755FA00234FF0FF32217E94F897
:1047C0005C01FFF74DFA00234FF0FF324FF4C06158
:1047D00094F85C01FFF744FA217E00234FF0FF328A
:1047E00001F5C06194F85C01FFF73AFA3DB100238E
:1047F0006FF0FF02802194F85C01FFF731FA00238B
:104800004FF0FF32D4F8E01094F85C01FFF728FA7B
:1048100000234FF0FF32D4F8E81094F85C01FFF762
:104820001FFA04231A4604F1080104F5B07001F0E0
:1048300049F80025A560E560256165612571A38CB7
:10484000C4F8743100950195039504950595237E70
:1048500003F5E063029301238DF80C30694694F868
:104860005C01FFF70FFA024B1D60284607B030BD10
:104870000430001080F838110020014B1860704798
:104880000430001090F83831042B03D10020B44BD1
:10489000186070472DE9F04F8BB08946054604A992
:1048A00090F85C01FFF7FEF9AD4B1860002840F06E
:1048B000BE80297E069A02F07F03994201D0002B28
:1048C00073D122F07F03802B4BD0B3F5C06F02D0A1
:1048D000002B6AD10CE09DF81C30072B65D995F8A8
:1048E0003831042B61D004A92846FFF729FE5CE08B
:1048F0009DF811302A7E934201D0002B55D19DF8AE
:104900001030802B14D004D8012B07D0022B0AD0F2
:104910004BE0812B11D0822B13D046E00521284695
:10492000FFF7A8FF41E004212846FFF7A3FF3CE082
:104930007F212846FFF79EFF37E0002000F018FD9A
:1049400033E095F85C31B5F83421D5F84011019188
:10495000D5F83C110091D5F830112846FFF712FF29
:1049600023E095F83831042B1FD0D5F84041E4B14D
:104970009DF81C30082B18D102F07F0285F84421E5
:10498000BDF81030A5F84631BDF81230A5F8483111
:10499000BDF81430A5F84A31BDF81630A5F84C31F1
:1049A00001F040F805F5A271A04795F83831052BC4
:1049B0003DD139E0A6B2002206F5A0512846FFF706
:1049C0000DFD70B30021FFF7A5FD069B984228D18D
:1049D000002206F5B0512846FFF700FD804630B3AF
:1049E000002634461AE021464046FFF793FDF0B119
:1049F000C0F3C40A5FFA8AF7C0F30722010C284605
:104A0000FFF7ECFC98B1D8F80410524631444068E6
:104A100003F026F83E44F6B20134E4B2072CE2D9A2
:104A200005E00134E4B200E00024012CC2D9D5F83D
:104A30007431994505D8C9EB0303C5F874310023D7
:104A400004E04FF0FF33C5F874310123EBB195F862
:104A500038112A7E02F5E062002304930593079340
:104A6000089309938DF81010069201238DF81C30DD
:104A700095F85C01FFF71EF920B904A995F85C01CF
:104A8000FFF700F9AB8CC5F8743195F83831052B78
:104A900000F08D800020324B18608FE03E4607EB1F
:104AA000870305EB83035B6C002B7DDB069307EB31
:104AB000870305EB83039B6CFF2B75D107EB870303
:104AC00005EB83031A6D4A441A655B6D9A426BD3FA
:104AD00007EB870205EB8202002313651C469A460A
:104AE00058E0D0460AEBC603203335F8231039B915
:104AF0000AEBC603203305EB83039B78002B4CD0D5
:104B000008EBC603203305EB830393F802B05A4643
:104B10002846FFF763FC18B92320114B18604DE0BD
:104B2000C27812F0C00F06D00BF1FF3189B2FFF747
:104B3000F1FC039002E0FFF717FE039008EBC603B9
:104B4000203305EB8303DB782344082B06DD08EBD9
:104B5000C603203305EB83030022DA7000220DE048
:104B600004300010631C0AA9114411F81C1C0AA887
:104B7000044404F8181C0132D2B2DCB208EBC603BC
:104B8000203305EB8303DB789A42EBD30AF1010A69
:104B90005FFA8AFABAF1070FA3D98DF81C4004A96D
:104BA00095F85C01FFF76EF80137FFB200E00027CF
:104BB000022F7FF673AF0020024B18600BB0BDE8E8
:104BC000F08F00BF04300010064AD2F8C43043F41E
:104BD0000073C2F8C430044B01221A7200221A6416
:104BE000704700BF00C00F4000400240094B93F8DF
:104BF0002820027193F82420427193F820208271BA
:104C00009A8F028093F83820827093F82C30C3700A
:104C1000704700BF004002400B4B00221A7282799D
:104C200083F82020427983F82420027983F8282011
:104C3000C27883F82C20827883F8382002889A87FB
:104C400001221A72704700BF0040024070B582B066
:104C50008D4B0121C3F80011D3F8C42042F4006247
:104C6000C3F8C42041F21002C3F8DC21874C216054
:104C70000026A660A3F55023D3F8400140F201229C
:104C80001043C3F84001D3F844011043C3F8440172
:104C9000D3F848011043C3F84801D3F8500110433A
:104CA000C3F85001D3F860011043C3F86001D3F892
:104CB00070011043C3F87001D3F874011043C3F8B6
:104CC0007401D3F880011043C3F88001D3F8840144
:104CD0001043C3F88401D3F888011043C3F8880156
:104CE000D3F88C011043C3F88C01D3F89001104322
:104CF000C3F89001D3F894011043C3F89401D3F89A
:104D000098011043C3F89801D3F89C011043C3F8ED
:104D10009C01D3F8A0011043C3F8A001D3F8A4016B
:104D20001043C3F8A401D3F8A8011043C3F8A801A5
:104D3000D3F8AC011043C3F8AC01D3F8B001104371
:104D4000C3F8B001D3F8B4011043C3F8B401D3F8E9
:104D5000B8011043C3F8B801D3F8BC011043C3F83D
:104D6000BC01D3F800021043C3F80002D3F80402D8
:104D70001043C3F80402D3F808021043C3F8080232
:104D8000D3F80C021043C3F80C02D3F810021043FE
:104D9000C3F81002D3F814021043C3F81402D3F876
:104DA00018021043C3F81802D3F81C021043C3F8CA
:104DB0001C02D3F820021043C3F82002D3F82402C7
:104DC0001043C3F82402D3F828021043C3F8280282
:104DD000D3F82C021043C3F82C02D3F8340210434A
:104DE000C3F83402D3F838021043C3F83802D3F8BA
:104DF00064020243C3F86422A1624FF42073C4F832
:104E0000003140F20333C4F8043103232363062145
:104E100061630A22A2630520E063216402256564C0
:104E20000821A164E16422656565A365642000F042
:104E3000ADFD40F283132362C82000F0A7FD40F2CD
:104E4000031323626562019602E0019B0133019323
:104E5000019B7F2BF9D90D4B36225A6283221A62AD
:104E60000B4A12680092009A00241C62D3F80021B9
:104E700042F40022C3F80021642000F087FD054BB6
:104E80001C60204602B070BD00C00F4000C0092069
:104E9000009801A00430001070B5002615E0214BE9
:104EA0009B680124B440234203D11E4B5B681C4223
:104EB0000AD01D4B1D683DB100F0B4FDF1B2A8470A
:104EC000184AD3681C43D4600136164B9B68002BEC
:104ED000E5D1144B5B68002BE1D1002517E0114BA5
:104EE0009B6A0124AC40234203D10E4B5B6A1C42F7
:104EF0000CD00D4B1E684EB100F094FD05F1400141
:104F0000C9B2B047074AD36A1C43D4620135054B86
:104F10009B6A002BE3D1034B5B6A002BDFD100BF00
:104F200000BF70BD80800240882E001038B51E4B37
:104F3000D3F8C42042F02002C3F8C420D3F8A8312B
:104F40001BB90122184BC3F8A821184A0321C2F843
:104F50008810174C0025E561E36C43F40073E364AB
:104F6000C2F88C102562E36C43F48063E36402238F
:104F700063614FF47A73A3617F2323650D4B186837
:104F800002F030FB0C4902F039FC0C4902F036FC0F
:104F900002F046FDE0602567636843F00903636043
:104FA000074B1D60284638BD00C00F4000C00240BE
:104FB000004001408C00001000007A4400401C4674
:104FC00004300010084B1B785BB110B5044600207C
:104FD000FEF700FE18B1E1B20020FEF7B1FD01209E
:104FE00010BD0120704700BF982E001070B5064616
:104FF0000D46002403E0305DFFF7E4FF0134AC42CE
:10500000F9D370BDF0B4049E0F460FE00A4C25683A
:105010004FF4486404FB015404EB8004002502E0D3
:105020002660013504349542FAD30131FC18A142BF
:10503000ECD3F0BC704700BF9800001010B584B0EE
:10504000424B40F20722C3F80021C3F80821C3F8FD
:105050001021C3F80C21C3F814211A615A61C3F856
:105060007022C3F87422C3F81821C3F81C21C3F8B6
:105070002021C3F824219A6140F28731D961C3F815
:10508000D020C3F8D420C3F8D820C3F8DC20C3F85C
:10509000E020C3F8E42019625962C3F83021C3F854
:1050A0003421C3F8E820C3F8EC20C3F8F020C3F89B
:1050B000F420274B1B689B09264AA2FB0323DB0A2B
:1050C000254AC2F8B831D2F8C43043F00103C2F81F
:1050D000C430224B4FF020421A61214A1A60214A03
:1050E0005A60214A9A600922DA6040F62A129A61CF
:1050F0000023ADF80E300EE0BDF80E309BB28033C9
:105100000021164A42F82310BDF80E309BB201333D
:105110009BB2ADF80E30BDF80E309BB2FF2BEBD931
:105120000E4A936943F001039361002400944FF405
:10513000F0734FF4487221462046FFF763FF00F0FA
:1051400031F90A4B1C60204604B010BD00C002407B
:105150008C0000102FE3BE0000C00F40008008202C
:10516000C42F2757DF090D2000381F070430001017
:105170002DE9F04F83B00746894690461D460C9CAA
:105180000D9E00962346FFF73DFF07EB080004EB5A
:10519000090AC4EB050B00965B4622465146001BEC
:1051A000FFF730FF00965B46224651463846FFF730
:1051B00029FF09EB0501009623464246091B3846A4
:1051C000FFF720FF03B0BDE8F08F00BF2DE9F843E3
:1051D00007460E46644BDA6D22F08702DA65DA6D17
:1051E00042F00102DA655A6E22F087025A665A6E60
:1051F00042F001025A66DA6D42F01002DA655A6E28
:1052000042F010025A664FF4C0709866574A11680F
:1052100041F080611160516921F08061516118662F
:10522000136843F080731360536923F080735361F4
:105230006421012000F062F9C82800F391804A4CF3
:10524000E36D23F08703E365E36D43F00103E3655A
:10525000636E23F087036366636E43F00103636646
:105260004FF4C078C4F86880404D2B6843F08063E9
:105270002B606B6943F080636B61C4F860802B68BE
:1052800043F080732B606B6923F080736B610A219C
:10529000012000F033F98146236E23F08703236653
:1052A000236E43F001032366A36E23F4803323F0BF
:1052B0008703A366A36E43F00103A366236E43F046
:1052C00010032366A36E43F01003A366C4F85C804A
:1052D0002B6843F400032B606B6923F400036B61BC
:1052E000C4F864802B6843F000732B606B6943F053
:1052F00000736B610A21022000F000F9A7F800900A
:105300003080E36D23F08703E365E36D43F0010331
:10531000E365636E23F087036366636E43F0010306
:105320006366E36D43F01003E365636E43F01003BF
:105330006366C4F868802B6843F080632B606B69F8
:1053400023F080636B61C4F860802B6843F0807346
:105350002B606B6923F080736B610120BDE8F883DB
:105360000020BDE8F88300BF00C002400080092093
:1053700058B9BFF34F8F0549CA6802F4E062044B85
:105380001343CB60BFF34F8FFEE7704700ED00E0A3
:105390000400FA05024BD3F88001C0B2704700BF89
:1053A00000C00F4008B5384BDA6D22F08702DA658D
:1053B000DA6D42F00102DA651A6E22F087021A668F
:1053C0001A6E42F001021A665A6E22F087025A667D
:1053D0005A6E42F001025A669A6E22F4803222F02E
:1053E00087029A669A6E42F001029A66D3F8F82014
:1053F00022F08702C3F8F820D3F8F82042F0030225
:10540000C3F8F820D3F8FC2022F08702C3F8FC2070
:10541000D3F8FC2042F00302C3F8FC201A6B22F000
:1054200087021A631A6B42F003021A635A6B22F066
:1054300087025A635A6B42F003025A63134AD2F846
:10544000C43043F48053C2F8C430FCF7ADFE1049B9
:105450000868104B1A68104BA3FB02231B0D013385
:105460001B029BB203430B600B6823F480330B6079
:105470000B6823F0E0630B600B6843F400130B60D0
:105480000020064B186008BD00C0024000C00F405D
:10549000004003408C000010819F5E160430001015
:1054A00008B5431E184205D0124800F0D9FC4FF051
:1054B000FF3008BD104B1A6822F0FF021A601A680C
:1054C000104318601A6822F0E0621A601A6842F00D
:1054D00080721A60084B1B6B13F4803FFAD0064AA7
:1054E0005368C3F30263043352F82300C0F30B1074
:1054F00008BD00BF0400000100400340F8B50746A6
:105500000E460024254604E03846FFF7C9FF05444F
:105510000134B442F8D3B5FBF6F0F8BD08B5044B3E
:105520001A68044B19680448FEF746FF08BD00BF1F
:10553000A00000109C0000106C7F000070B51E469B
:10554000002412E0184B1B6825012B445968306871
:1055500002F04AFB40B9144B1B681D44AA686968F5
:105560001248FEF729FF70BD01340F4B1B799C4296
:10557000E8DB002412E00E4B03EB04135D682946C0
:10558000306802F031FB40B9094B03EB0414A26808
:1055900029460648FEF710FF70BD0134062CEAD9F3
:1055A0000448FEF709FF70BDEC2E0010807F00005C
:1055B000A4830000907F000010B51C4612B90020A3
:1055C000FFF7D6FE23681BB10120FFF7D1FE10BD07
:1055D0000020FFF7CDFE10BD08B500F0A9FB10B903
:1055E0000148FEF7E9FE08BDBC7F000008B500F0E9
:1055F000B9FB10B90148FEF7DFFE08BDC47F00000B
:1056000010B542B11C46188800F01EFC2168054800
:10561000FEF7D2FE10BD00F01FFC01460148FEF768
:10562000CBFE10BDCCC5000008B5074B1860197142
:1056300000225A719A71054B1A68054B1968054882
:10564000FEF7BAFE08BD00BFEC2E0010A00000104F
:105650009C000010D07F0000014B1879704700BFFC
:10566000EC2E001010B50F48FEF7A6FE002407E050
:105670000D4B03EB041359680C48FEF79DFE0134F3
:10568000062CF5D9002408E0094B1B6803EB041332
:1056900059680648FEF790FE0134FFF7DDFF8442AB
:1056A000F2DB10BDE87F0000A4830000E47F00006F
:1056B000EC2E00102DE9F04182B0744B1B683BB911
:1056C000734C744B1C60204600F0CAFB2046DAE0A5
:1056D0000DF107010020FEF761FA002840F0D080AC
:1056E0006A4B5B79C72B0AD90022684B5A716A4C06
:1056F000684B1C60204600F0B3FB2046C3E001214C
:105700000DF10700FFF772FC9DF807301B2B07D146
:1057100006216248FFF76AFC00225C4B5A71D7E70A
:10572000082B07D1594B5B79002BD1D0013B574A4D
:105730005371CDE70D2B02D00A2B40F09A805848C8
:10574000FEF73AFE514B5B791BB95648FEF734FE23
:10575000BEE74E4A134400249C71254626463DE090
:10576000F4B14A4B23449B79222B19D1A5B9631E6E
:10577000464A13449B799BB913190021997106F18C
:10578000190102EBC10302201871631C1344063394
:1057900042F83130012503E03C4B234400259D7144
:1057A000DDB93A4B23449B79202B16D1374B234448
:1057B00000229A71082E10DC344F06F11A0807EB0C
:1057C000C80301221A71A01838440022114606307D
:1057D00002F0AAFB47F83800013601342B4B5B7905
:1057E0009C42BDDB0024294B5C7118E0274850F82F
:1057F000063B25012B44596802F0F6F970B9234B9A
:105800001B682B44DC6884B100F00CF91F4B53F883
:10581000D01B3246495BA047012507E00134FFF762
:105820001BFF8442E2DB002500E00125EDB90024E6
:1058300014E01D4B03EB041359681C4802F0D4F923
:1058400058B9194D24012B19DF6800F0EBF8184BFB
:105850003246295BB847012502E00134062CE8D91D
:105860001DB912491348FEF7A7FD0E48FEF7A4FD27
:105870002EE706494A79501C48710A44937127E77C
:105880000020044B186002B0BDE8F081EC2E00103F
:105890001500000B043000101200000BEC7F00001C
:1058A000E87F0000F4CC0000A4830000F22E00107A
:1058B000BC2F0010F47F0000014B1860704700BF40
:1058C0008C2E0010016082800022C2800372016170
:1058D000C160024B1A601046704700BF04300010D0
:1058E000C28883889A420CD31048114B18607047C5
:1058F000C268CC5C1470C2680132C2600133DBB292
:1059000001E010B40023027A9342F1D3C468016825
:10591000838802FB0312944200D1C160C388013323
:10592000C3800020024B186010BC70471200000FAB
:105930000430001010B4C3881BB91248124B186011
:105940001DE049B90CE002691278CA5402690132BB
:1059500002610133DBB200E00023027A9342F2D30A
:10596000016902688388047A04FB0323994200D109
:105970000261C388013BC3800020034B186010BC48
:10598000704700BF1700000F0430001082B0ADF860
:10599000060016E00023009303E000BF009B0133E4
:1059A00000930B4B1B680B4AA2FB0323009AB2EB3C
:1059B000133FF2D3BDF806309BB2013B9BB2ADF86A
:1059C0000630BDF806309BB2002BE3D102B0704721
:1059D0008C00001073B2E7451F2914D8002806DA9E
:1059E00000F00F00C900C9B20B4B195407E0C90001
:1059F000C9B200F1604000F5614080F8001300205A
:105A0000064B1860704710B5054C044B1C602046CF
:105A100000F026FA204610BD14ED00E0043000101E
:105A20001600000F014B1868704700BF8C2E001045
:105A300008B50348FEF7C0FC6420FFF7A7FF08BDC8
:105A40002C84000008B50348FEF7B6FC6420FFF77D
:105A50009DFF08BD3484000008B50348FEF7ACFC88
:105A60006420FFF793FF08BD4484000008B5034895
:105A7000FEF7A2FC6420FFF789FF08BD54840000F4
:105A800008B50348FEF798FC6420FFF77FFF08BDC8
:105A90006484000008B50348FEF78EFC6420FFF71D
:105AA00075FF08BD7484000010B4002314E0441C8A
:105AB000027883EA0223082213F4004F05D041F252
:105AC000210080EA43039BB201E05B009BB2013AF4
:105AD00012F0FF02F0D120460139E8D5184610BC7B
:105AE000704700BF70B50E1A0436164B1860164B7F
:105AF000196004464FF48052002304E012F8015B61
:105B000004F8015B0133B342F8DBC368B3F1AA3F89
:105B100007D00E4C0E4B1C60204600F0A1F9204629
:105B200070BD0B68B3F1AA3F07D00A4C084B1C604C
:105B3000204600F095F9204670BD0020044B186007
:105B400070BD00BF902E0010942E00100D000008B4
:105B5000043000100E0000082DE9F0478AB080469E
:105B60000C461646FCF720FB72B6B4F5007F0AD04F
:105B700003D8B4F5807F5ED105E0B4F5806F02D024
:105B8000B4F5805F57D1B6F5803F06D3F70B0E37DB
:105B9000A519013DED0B0E3503E0370BA519013DAD
:105BA0002D0B322305930697079501A905A8244BD1
:105BB0009847019B1BB162B69DF804003CE034237A
:105BC0000593069707951F4B1B681F4AA2FB0323EB
:105BD0009B09089301A905A8194B9847019B1BB184
:105BE00062B69DF8040027E03223059306970795D7
:105BF00001A905A8124B9847019B1BB162B69DF8FD
:105C0000040019E0332305930696CDF81C80089410
:105C10000C4B1B680C4AA2FB03239B09099301A9A7
:105C200005A8074B984762B621460848FEF7C4FB13
:105C30009DF8040000E00C200AB0BDE8F08700BF2A
:105C4000F11FFF1F8C000010D34D621080840000F4
:105C5000F8B52F4B18602F4B19600B1A043307D57A
:105C60002D4C2E4B1C60204600F0FAF82046F8BD63
:105C700004460D46B3F5004F07DD294C274B1C6049
:105C8000204600F0EDF82046F8BDB3F5805F0BDC50
:105C9000B3F5806F0BDCB3F5007F0BDCB3F5807FD1
:105CA0000BDD4FF400770AE04FF4004707E04FF4B4
:105CB000805704E04FF4806701E04FF480774FF0A5
:105CC000AA33E360174B1E68266023893BB9304630
:105CD00002F068F801463046FFF7E6FE2081124BDD
:105CE0001B6863604FF0AA332B604FF48052394633
:105CF0002046FFF731FF10B9084B1860F8BD0B4C78
:105D0000064B1C60204600F0ABF82046F8BD00BFF3
:105D1000902E0010942E00100A000008043000108D
:105D20000B0000089C000010A00000100C000008F0
:105D300010B5084B186838B9074C084B1C60204652
:105D400000F08EF8204610BD054B1968FFF780FF64
:105D500010BD00BF902E00100C0000080430001091
:105D6000942E001010B5084B186838B9074C084B32
:105D70001C60204600F074F8204610BD054B1968E1
:105D8000FFF7B0FE10BD00BF902E00100C00000801
:105D900004300010942E001010B5254B186838B947
:105DA000244C254B1C60204600F05AF8204610BDBC
:105DB0000022C260214B1B681A601B1A043307D5EE
:105DC0001F4C1D4B1C60204600F04AF8204610BDB9
:105DD000B3F5805F07DD1B4C174B1C60204600F0BD
:105DE0003FF8204610BDB3F5806F08DCB3F5007FA7
:105DF00008DCB3F5807F08DD4FF4007107E04FF455
:105E0000805104E04FF4806101E04FF480714FF461
:105E10008052FFF7A1FE10B9074B186010BD054C6A
:105E2000054B1C60204600F01BF8204610BD00BF4B
:105E3000902E00100C00000804300010942E00106A
:105E40000A0000080B000008024B1B6803B1188110
:105E5000704700BF902E001041F208031888704769
:105E600068B110B520F07F44020E21460448FEF7C9
:105E7000A3FA282C02D90348FEF79EFA10BD7047FA
:105E8000C08400000485000010B582B00446FCF711
:105E900047FD02AB43F8040D21461846FCF740FECF
:105EA00002B010BD08B50122044B1A700220FDF7A4
:105EB00007FF0220FFF7E8FFF8E700BF982E001069
:105EC00008B50C460848094B1860FFF7C9FF214682
:105ED0000748FEF771FA4FF0280383F31188BFF3E8
:105EE0006F8FBFF34F8FFEE71900001304300010CF
:105EF000288F000000B587B0FFF7DEFCFFF752FAED
:105F00000020FDF795FDFDF787FEFFF797F8FFF7F7
:105F10000DF8FDF7E5FEFEF799FEFEF755FE0023AE
:105F200004930393029301934FF6FF720092802231
:105F300003490448FCF732FC07B05DF804FB00BFDE
:105F4000348F0000A55E000010B40023038043805E
:105F50008360C36001240474447441610383C2619B
:105F60004FF4487383804FF4F073C38010BC7047C4
:105F700030B585B004460D4603A90DF10E00FFF7BC
:105F800025F9AAB201A9204600F032F905B030BDCA
:105F90002DE9F04F83B045888368002B38D05C88AA
:105FA0009B68002B32D05E889B686BB35F889B68D0
:105FB00043B3B3F802809B6813B3B3F802909B68B5
:105FC000DBB1B3F802A09B68A3B1B3F802B09B6841
:105FD0006BB15A880192986828B1FFF7D9FF019AEE
:105FE000024493B20193019B9B441FFA8BFBDA445A
:105FF0001FFA8AFAD1441FFA89F9C8441FFA88F8AF
:106000004744BFB23E44B6B23444A4B22544ADB214
:10601000284603B0BDE8F08F2DE9F04F83B0058826
:106020008368002B38D01C889B68002B32D01E88D8
:106030009B686BB31F889B6843B3B3F800809B6871
:1060400013B3B3F800909B68DBB1B3F800A09B6872
:10605000A3B1B3F800B09B686BB11A88019298683D
:1060600028B1FFF7D9FF019A024493B20193019B33
:106070009B441FFA8BFBDA441FFA8AFAD1441FFAB9
:1060800089F9C8441FFA88F84744BFB23E44B6B203
:106090003444A4B22544ADB2284603B0BDE8F08F25
:1060A0002DE9F04F85B0044607888568EDB12E884C
:1060B000AB68C3B1B3F800809B6893B1B3F800A09C
:1060C0009B685BB1B3F80090986820B1FFF7A4FF1C
:1060D00048441FFA80F9D1441FFA89FAD0441FFAC4
:1060E00088F84644B6B23E44B7B2B8466788DDB1D8
:1060F0006E88AB68B3B15D889B688BB1B3F802A0C2
:106100009B685BB1B3F80290986820B1FFF740FF3D
:1061100048441FFA80F9D1441FFA89FA5544ADB2B8
:106120002E44B6B23E44B7B2A288E388E16909685A
:10613000009139464046FEF765FFE7693E7A002E3A
:1061400053D0B4F80090A56815B3B5F80080AB68DB
:10615000DBB1B3F800A09B68A3B1B3F800B09B68B3
:106160006BB11A880392986828B1FFF755FF039A1C
:10617000024493B20393039B9B441FFA8BFBDA44C4
:106180001FFA8AFAD0441FFA88F8C1441FFA89F925
:10619000CDF80C90B4F80290F5B1B5F80280AB6878
:1061A000BBB15D889B688BB1B3F802B09B685BB1F3
:1061B000B3F802A0986820B1FFF7EAFE50441FFA36
:1061C00080FAD3441FFA8BFB5D44ADB2A8441FFA9A
:1061D00088F8C1441FFA89F9A288E3887968019197
:1061E000009649460398FEF7C3FF05B0BDE8F08F5F
:1061F0002DE9F04105460E461746437C9BB1FFF75B
:106200004FFF00230AE06A6952F82320916809B120
:1062100001204874012151740B449BB22A8B934294
:10622000F1D300236B74002411E06B694FEA8408FA
:1062300053F82400037C1BB1C3683A4631469847A3
:106240006B6953F8083000225A740134A4B22B8BC6
:106250009C42EAD3BDE8F0812DE9F04F83B0058878
:106260008368002B38D01C889B68002B32D01E8896
:106270009B686BB31F889B6843B3B3F800809B682F
:1062800013B3B3F800909B68DBB1B3F800A09B6830
:10629000A3B1B3F800B09B686BB11A8801929868FB
:1062A00028B1FFF7D9FF019A024493B20193019BF1
:1062B0009B441FFA8BFBDA441FFA8AFAD1441FFA77
:1062C00089F9C8441FFA88F84744BFB23E44B6B2C1
:1062D0003444A4B22544ADB2284603B0BDE8F08FE3
:1062E0002DE9F04F83B045888368002B38D05C8857
:1062F0009B68002B32D05E889B686BB35F889B687D
:1063000043B3B3F802809B6813B3B3F802909B6861
:10631000DBB1B3F802A09B68A3B1B3F802B09B68ED
:106320006BB15A880192986828B1FFF7D9FF019A9A
:10633000024493B20193019B9B441FFA8BFBDA4406
:106340001FFA8AFAD1441FFA89F9C8441FFA88F85B
:106350004744BFB23E44B6B23444A4B22544ADB2C1
:10636000284603B0BDE8F08F2DE9F04F89B00790C3
:10637000059116460493DDF848A0139801F012FD2C
:1063800080B20022012307E01399895C0A2901D118
:1063900001339BB2013292B28242F5D3049A12F0D9
:1063A000100F0FD0B6F9062002FB03F303EBD373F3
:1063B000059AA2EB630212B200E0002200230393CD
:1063C0005746BFE0049A12F0200FF6D0B6F9062027
:1063D000059902FB13131AB2F0E701339BB201E0F7
:1063E000039B1398C418C15C0A29F6D00D29F4D078
:1063F0000393A2460294BDF91C4093B20693059AFA
:10640000D5182DB24FF00008C1460DE01AF808303B
:106410000A2B0ED00D2B0CD009F101091FFA89F9B6
:1064200008F101081FFA88F8504601F0BBFC8045CE
:10643000ECD34A46CDF80490049B13F0020F09D028
:10644000B6F9043003FB02F303EBD373A4EB63044C
:1064500024B209E0049B13F0040F05D0B6F9043010
:10646000019A03FB124424B20023009350E0029BE4
:10647000009A13F80280B6F90620B6F9043003FB3F
:1064800002F39C46002B01DA03F1070C13F007031B
:1064900018BF012303EBEC031FFA83FC002189469C
:1064A00029E033684FEAD10B01F007000CFB0833F9
:1064B00013F80BB0012383400BEA030303410BD015
:1064C000A64405EB0A00244BD3F800B04FF4486310
:1064D00003FB00B343F82E70013189B2013292B24E
:1064E00000E000229646B6F904309A42D9DB09F161
:1064F00001091FFA89F9CA46B6F906309945F0DB59
:10650000B6F904301C4424B2009B01339BB20093C3
:10651000019B009A9342AAD8B6F90620069B134421
:106520001AB2039B139801E001339BB2C15C0A29A4
:1065300005D00D2905D00029F6D1039302E003937D
:1065400000E00393139B03995B5C002B7FF448AF3F
:1065500009B0BDE8F08F00BF98000010437C002B0D
:106560006ED02DE9F04782B0044606888568EDB10B
:106570002F88AB68C3B1B3F800809B6893B1B3F8C0
:1065800000A09B685BB1B3F80090986820B1FFF75A
:1065900063FE48441FFA80F9D1441FFA89FAD044B7
:1065A0001FFA88F84744BFB23E44B6B26788EDB1DF
:1065B000B5F80280AB68BBB15D889B688BB1B3F85E
:1065C00002A09B685BB1B3F80290986820B1FFF716
:1065D00087FE48441FFA80F9D1441FFA89FA5544CE
:1065E000ADB2A8441FFA88F84744BFB294F82030EF
:1065F00013F0020F04D0A28806EB5206B6B205E0F3
:1066000013F0040F02D0A2881644B6B213F0100F94
:1066100004D0E28807EB5207BFB205E013F0200F69
:1066200002D0E2881744BFB26269E1690191A169B1
:10663000009139463046FFF797FE02B0BDE8F0877B
:10664000704700BF08B50248FDF7B6FE08BD00BFA1
:106650005CC3000008B511461A4600F5C670FFF786
:10666000F1FF08BD08B511461A4600F5D270FFF7D4
:10667000E9FF08BD08B511461A4600F50170FFF79D
:10668000E1FF08BD08B511461A4600F50770FFF78F
:10669000D9FF08BD08B511461A4600F5DE70FFF7B0
:1066A000D1FF08BD08B511461A4600F5F670FFF790
:1066B000C9FF08BD08B511461A4600F5EA70FFF794
:1066C000C1FF08BD08B511461A4600F50D70FFF769
:1066D000B9FF08BD08B511461A4600F51370FFF75B
:1066E000B1FF08BD0020704710B400230EE003EB9B
:1066F00043018A0008498A58824205D103EB4304CA
:10670000A3000846184404E001339BB2012BEED9E4
:10671000002010BC704700BFB8C3000000B585B0B2
:10672000002300930193029103906846FEF75EFAFE
:106730006846FDF7CBFB28B10020FDF745FC684615
:10674000FDF7C4FB05B05DF804FB00BF08B5FDF71D
:1067500091FCB0FA80F0400908BD00BF08B5FDF714
:10676000D9FC08BD70B582B0012A03D81048FDF7E6
:1067700023FE1AE01E6806F120469D6829460D4852
:10678000FDF71AFE0C48FDF717FE002408E0335D04
:106790008DF807309DF807100848FDF70DFE01340D
:1067A000A542F4D80648FDF707FE02B070BD00BF51
:1067B00040C5000054C5000068C5000070C5000059
:1067C000E87F000010B504460548FDF7F5FDD4F854
:1067D00070320BB101225A74012384F8793210BD52
:1067E00078C5000070B5022A03D80A48FDF7E4FD19
:1067F00070BD1C6804F120449D681E7C2A46314609
:10680000204601F0A3F92346324629460248FDF707
:10681000D3FD70BD94C50000A8C50000F8B500AF59
:106820006D46022A03D80E48FDF7C6FD16E01E8805
:106830001C89E21D22F00702ADEB020D2246197CF5
:10684000684601F083F9324621466846FDF782FA30
:1068500020F07F410348FDF7AFFDAD46BD46F8BDD2
:10686000D4C50000F0C500002DE9F04100AFE846B6
:10687000012A03D81148FDF79FFD1CE01D89EA1D80
:1068800022F00702ADEB020D6E461A8829466846D3
:10689000FDF7B2FA0A48FDF78FFD002405E0315DEF
:1068A0000848FDF789FD0134A4B2AC42F7D306488D
:1068B000FDF782FDC546BD46BDE8F08140C500003C
:1068C00068C5000000C60000E87F00002DE9F04127
:1068D00082B0042A03D82B48FDF76EFD4FE01C461A
:1068E000052A35D92849986A01F07EF980BB2068CD
:1068F0004FF4487700FB07F000F078FE234900F0E2
:106900007DFF01F08DF80546A368C3EB0313580122
:1069100000F06CFE1D4900F071FF01F081F80646A1
:10692000206900FB07F000F061FE184900F066FFE7
:1069300001F076F80746A369C3EB0313580100F092
:1069400055FE124900F05AFF01F06AF8804604E053
:106950002568A6682769D4F81880236A0193CDF8C2
:1069600000803B46324629460948FDF725FD236A4B
:10697000009343463A4631462846FEF743FB02B0B1
:10698000BDE8F08104C6000020C600000000C84237
:1069900024C600002DE9F04184B0052A03D836480A
:1069A000FDF70AFD64E01C46062A46D93349186BF8
:1069B00001F01AF9002840D120684FF4487707FB0E
:1069C00000F000F013FE2E4900F018FF01F028F847
:1069D0000546A368C3EB0313580100F007FE2849DE
:1069E00000F00CFF01F01CF80646206907FB00F0E0
:1069F00000F0FCFD224900F001FF0746284600F0A8
:106A0000F1FD0146384600F03BFD01F009F807466C
:106A1000A369C3EB0313580100F0E8FD184900F027
:106A2000EDFE8046304600F0DDFD0146404600F0B8
:106A300027FD00F0F5FF804604E02568A668276979
:106A4000D4F81880A36A226A02920193CDF80080DC
:106A50003B46324629460B48FDF7AEFC236AA26A44
:106A60000192009343463A4631462846FEF780FBA2
:106A700004B0BDE8F08100BF04C6000020C60000DD
:106A80000000C84260C6000038B51AB105461A7940
:106A9000012A03D00848FDF78FFC38BD1C88642C00
:106AA00000D9642421460548FDF786FCE1B228465A
:106AB00000F074FA38BD00BFACC60000CCC60000C0
:106AC00008B5FFF74BFE0248FDF776FC08BD00BF96
:106AD000F4C6000070B51AB90D48FDF76DFC70BD25
:106AE0001D46022A01D92E8A00E00126002405E075
:106AF000A9682868FFF712FE0134A4B2A642F7D8AD
:106B00003346AA6829680348FDF756FC70BD00BFEC
:106B100004C7000018C70000F0B58BB00024214660
:106B200006A8FFF713FE50B30998FFF7DDFD0546F1
:106B3000BDF818209DF81AE09DF81B109DF81C0068
:106B40009DF81D609DF81E706B6804930397029674
:106B500001900091734621460A48FDF72DFCA86874
:106B600001F020F928B1089AA9680748FDF724FC2C
:106B700002E00648FDF720FC0134A4B2CFE70BB0D9
:106B8000F0BD00BF38C7000054C70000E87F000018
:106B900008B51AB90648FDF70FFC08BD19680329A6
:106BA00004DCC9B200F55C7000F016FB08BD00BF44
:106BB00004C7000010B5044642B11968B1F57A7FE8
:106BC00004DC89B200F55C7000F09EFB04F55C709B
:106BD00000F0A0FB01460248FDF7EEFB10BD00BF30
:106BE00060C7000030B587B01AB904A8FDF7FEFFF2
:106BF0001EE0052A03D81848FDF7DEFB2AE01A68D4
:106C0000ADF810209A688DF812201A698DF81320BB
:106C10009A698DF814201A6A8DF815209B6A8DF8F0
:106C2000163004A8FDF7F8FF01210846FFF776FDAE
:106C3000BDF810109DF812209DF813309DF8140037
:106C40009DF815409DF81650029501940090034858
:106C5000FDF7B2FB07B030BD70C7000084C700006D
:106C60001720704710B50446FEF724FD14210020BC
:106C7000FCF7E4FF14216018FDF704FE142104F56D
:106C80005C7000F0BFF92368132B03D9143B236019
:106C9000002303E04FF0FF33236001233BB1064A9A
:106CA000536903F1004353614FF47A732360142056
:106CB000FFF7EAF8D8E700BF40800920F0B583B0BD
:106CC00005461F214FF0FF30FEF786FE1E210520EE
:106CD000FEF782FE314A0024C2F87C41304B19682D
:106CE00041F000411960596921F000415961D464B3
:106CF000403B196841F400211960596921F40021D1
:106D0000596114641A6842F480321A605A6942F474
:106D100080325A61FFF7E6FC01940094234682B268
:106D2000204905F11400FDF72DFDFFF799FF0146FD
:106D30001D48FEF779FC1D4B1C60203B7F221A6525
:106D40001B4E1C490C601A6534601020FDF78AF850
:106D50002C1D05F55F7739462046FEF7C3FE3060EF
:106D600050B1284600F010F905F55C7000F032F9DA
:106D700039462046FEF76CFF284600F0A7F805F5D7
:106D80005C7000F023F94FF47A732B60FEF702FB7E
:106D900001460020FFF7C2FC03B0F0BD00C0024076
:106DA000408009207CC30000D0C300002040014087
:106DB000043000101C40014030B587B00E4D28460D
:106DC000FFF798F82846FFF779FF0024049403940E
:106DD00002940194032300932B464FF480720749D9
:106DE0000748FBF7DBFC0748FDF7E6FAFBF758FD21
:106DF000204607B030BD00BF0830001050D300005F
:106E0000656C00005CD3000070B50446B4F8640201
:106E1000B4F86652401B42F21073984203DC254BD3
:106E2000984203DB03E042F2107000E0214800F0DA
:106E3000DDFB214900F02EFC0646284600F0D6FB7B
:106E4000314600F01FFB00F0EBFD80B2A4F86602B3
:106E500000F0C8FB194900F0D1FC194900F01AFCF8
:106E60000146174800F00CFB00F0DAFD85B2284619
:106E700000F0BCFB124900F0BFFD08B14FF47A7579
:106E8000284600F0B3FB01460D4800F0F9FA00F087
:106E9000C7FD0C4B18607F22203B1A6500220A4B6D
:106EA0001A60142104F51A70FFF762F81420FEF737
:106EB000EBFFABE7F0D8FFFFCDCCCC3D00FF7F4729
:106EC00000007A442040014004300010F0B587B043
:106ED00004460026A0F8666200F51A75264F3A4669
:106EE00000F522712846FFF72FF804F52C72A4F85C
:106EF0009062A4F89262012384F8A03284F8A1324F
:106F0000C4F8A422A4F8A862C4F8AC7204F52471F1
:106F10004FF44873A4F894324FF4D873A4F896321F
:106F2000C4F89852154BC4F89C3215B1012384F86B
:106F30007932D4F87C22B4F88032581CA4F880024C
:106F400042F8231004F52E7000F0E6F9294604F506
:106F5000417000F03BFA00230493039302930193E2
:106F60000223009323464FF4007205490548FBF7BE
:106F700015FC07B0F0BD00BF3C8F0000F1610000C0
:106F800068D30000096E000010B5044600F51970C2
:106F9000FFF79CFF6423A4F8643210BD10B50446CB
:106FA000642900D96421084600F020FB054900F05F
:106FB00025FC054900F06EFB00F032FDA4F86402E8
:106FC00010BD00BF0000C84200FF7F470023837050
:106FD000704700BF10B50446FFF7F8FF4FF47A730F
:106FE000238010BD002383704FF47A71034A11602F
:106FF0007F211C3A1165024A136070471C40014012
:107000000430001038B504468378022B4BD0032B94
:1070100000F09580012B40F0D6804368994203D858
:10702000591A4160002303E04FF0FF33436001230E
:10703000002B00F0C880A36813F0010F0CD020884B
:1070400000F0D0FA604900F0D9FB604900F022FB63
:1070500000F0E6FC85B200E00025284600F0C6FA04
:107060005A4900F0C9FC08B14FF47A75284600F07F
:10707000BDFA0146554800F003FA00F0D1FC544B2C
:1070800018607F221C3B1A650022524B1A60A368CD
:107090000133A360032B03D12046FFF7A3FF38BDC4
:1070A0003223636038BD4368994203D8591A41605E
:1070B000002303E04FF0FF3343600123002B00F077
:1070C0008280A36813F0010F0CD0208800F08AFAA8
:1070D0003D4900F093FB3D4900F0DCFA00F0A0FCD4
:1070E00085B200E00025284600F080FA374900F01C
:1070F00083FC08B14FF47A75284600F077FA014610
:10710000324800F0BDF900F08BFC314B18607F2253
:107110001C3B1A6500222F4B1A60A3680133A36041
:10712000052B03D12046FFF75DFF38BD13F0010F9B
:1071300001D0FA2301E04FF4FA73636038BD43686D
:10714000994203D8591A4160002303E04FF0FF33FE
:1071500043600123002B36D0A36813F0010F0CD03D
:10716000208800F03FFA184900F048FB174900F06A
:1071700091FA00F055FC85B200E00025284600F0A9
:1071800035FA124900F038FC08B14FF47A752846F8
:1071900000F02CFA01460D4800F072F900F040FCB6
:1071A0000B4B18607F221C3B1A650022094B1A60AA
:1071B000A3680133A36013F0010F01D0962301E00F
:1071C0004FF49673636038BD0000FA4400007A44BF
:1071D0001C4001400430001010B5817002292FD0EE
:1071E000032959D0012940F08380322343600023D2
:1071F0008360008800F0F6F93F4900F0FFFA3F494C
:1072000000F048FA00F00CFC84B2204600F0EEF9E1
:107210003A4900F0F1FB08B14FF47A74204600F0CF
:10722000E5F90146354800F02BF900F0F9FB344B45
:1072300018607F221C3B1A650022324B1A6010BD79
:107240004FF4FA73436000238360008800F0CAF9AA
:10725000294900F0D3FA294900F01CFA00F0E0FBBC
:1072600084B2204600F0C2F9244900F0C5FB08B101
:107270004FF47A74204600F0B9F901461F4800F037
:10728000FFF800F0CDFB1E4B18607F221C3B1A65F7
:1072900000221C4B1A6010BD4FF49673436000230C
:1072A0008360008800F09EF9134900F0A7FA1349A3
:1072B00000F0F0F900F0B4FB84B2204600F096F93B
:1072C0000E4900F099FB08B14FF47A74204600F0A3
:1072D0008DF90146094800F0D3F800F0A1FB084BF6
:1072E00018607F221C3B1A650022064B1A6010BDF5
:1072F000FFF778FE10BD00BF0000FA4400007A449A
:107300001C40014004300010B1F57A7F00D80180A4
:10731000704700BF0088704730B400F1200400239C
:10732000038043808380C3808360C3600122027432
:10733000427444610383204BC3618A88CB88828076
:10734000C38081601D4BC36009B101234B740122CE
:1073500042744C690B8B9D180D8344F82300002365
:10736000038543858385C3850363436380F83820A1
:1073700080F83920124BC363124B4364122380F808
:1073800048304FF47F03036400F128048A88CB88D7
:107390008285C38501630C4B436309B101234B74A0
:1073A000012380F839304A690B8B581C088342F856
:1073B000234030BC704700BF3C8F0000F1610000EB
:1073C000548F00006CD300005D65000030B400F104
:1073D0002004002303800122027442744461038369
:1073E000204BC3614FF4D87343804FF448738380BC
:1073F0003023C38081601C4BC36001B14A740123F8
:1074000043744C690A8BD5180D8344F8220000227E
:10741000A0F84A2080F8583080F85930134BC365E3
:10742000134B4366142380F868306FF07F43036684
:1074300000F1480183886E3BC288A0F8483064237D
:10744000A0F84C30A0F84E2000650A4B436508B107
:10745000012343744269038B5C1C048342F82310AC
:1074600030BC7047488F0000F1610000548F00006D
:107470006CD400005D65000080F0004002E000BFB9
:1074800081F0004142001FBF5FEA410392EA030F0F
:107490007FEA226C7FEA236C6AD04FEA1262D2EB59
:1074A0001363C1BFD218414048404140B8BF5B425E
:1074B000192B88BF704710F0004F40F4000020F0F7
:1074C0007F4018BF404211F0004F41F4000121F00D
:1074D0007F4118BF494292EA030F3FD0A2F1010257
:1074E00041FA03FC10EB0C00C3F1200301FA03F195
:1074F00000F0004302D5494260EB4000B0F5000FB8
:1075000013D3B0F1807F06D340084FEA310102F176
:107510000102FE2A51D2B1F1004F40EBC25008BF28
:1075200020F0010040EA03007047490040EB0000F2
:1075300010F4000FA2F10102EDD1B0FA80FCACF121
:10754000080CB2EB0C0200FA0CF0AABF00EBC25020
:1075500052421843BCBFD0401843704792F0000F0E
:1075600081F4000106BF80F400000132013BB5E761
:107570004FEA41037FEA226C18BF7FEA236C21D0D7
:1075800092EA030F04D092F0000F08BF084670473C
:1075900090EA010F1CBF0020704712F07F4F04D10A
:1075A000400028BF40F00040704712F100723CBF1D
:1075B00000F50000704700F0004343F0FE4040F447
:1075C000000070477FEA226216BF08467FEA236305
:1075D0000146420206BF5FEA412390EA010F40F4F0
:1075E000800070474FF0000304E000BF10F000433C
:1075F00048BF40425FEA000C08BF704743F0964323
:1076000001464FF000001CE050EA010208BF70473D
:107610004FF000030AE000BF50EA010208BF7047C4
:1076200011F0004302D5404261EB41015FEA010CD9
:1076300002BF84460146002043F0B64308BFA3F1D1
:107640008053A3F50003BCFA8CF2083AA3EBC253B3
:1076500010DB01FA02FC634400FA02FCC2F12002D2
:10766000BCF1004F20FA02F243EB020008BF20F009
:107670000100704702F1200201FA02FCC2F120026F
:1076800050EA4C0021FA02F243EB020008BF20EA64
:10769000DC7070474FF0FF0C1CEAD0521EBF1CEA92
:1076A000D15392EA0C0F93EA0C0F6FD01A4480EA80
:1076B000010C400218BF5FEA41211ED04FF0006369
:1076C00043EA501043EA5111A0FB01310CF0004095
:1076D000B1F5000F3EBF490041EAD3715B0040EABB
:1076E000010062F17F02FD2A1DD8B3F1004F40EB8B
:1076F000C25008BF20F00100704790F0000F0CF05E
:10770000004C08BF49024CEA502040EA51207F3A21
:10771000C2BFD2F1FF0340EAC250704740F40000FC
:107720004FF00003013A5DDC12F1190FDCBF00F0ED
:1077300000407047C2F10002410021FA02F1C2F19B
:10774000200200FA02FC5FEA310040F1000053EA37
:107750004C0308BF20EADC70704792F0000F00F085
:10776000004C02BF400010F4000F013AF9D040EA8B
:107770000C0093F0000F01F0004C02BF490011F41F
:10778000000F013BF9D041EA0C018FE70CEAD1531D
:1077900092EA0C0F18BF93EA0C0F0AD030F0004C9D
:1077A00018BF31F0004CD8D180EA010000F0004051
:1077B000704790F0000F17BF90F0004F084691F00F
:1077C000000F91F0004F14D092EA0C0F01D1420249
:1077D0000FD193EA0C0F03D14B0218BF084608D112
:1077E00080EA010000F0004040F0FE4040F400005C
:1077F000704740F0FE4040F4400070474FF0FF0CEF
:107800001CEAD0521EBF1CEAD15392EA0C0F93EA35
:107810000C0F69D0A2EB030280EA010C49024FEA87
:10782000402037D04FF0805343EA111143EA101340
:107830000CF000408B4238BF5B0042F17D024FF4F8
:10784000000C8B4224BF5B1A40EA0C00B3EB510FD3
:1078500024BFA3EB510340EA5C00B3EB910F24BFBC
:10786000A3EB910340EA9C00B3EBD10F24BFA3EB41
:10787000D10340EADC001B0118BF5FEA1C1CE0D109
:10788000FD2A3FF650AF8B4240EBC25008BF20F0BC
:10789000010070470CF0004C4CEA50207F32C2BF10
:1078A000D2F1FF0340EAC250704740F400004FF0AD
:1078B0000003013A37E792F0000F00F0004C02BFDE
:1078C000400010F4000F013AF9D040EA0C0093F0A8
:1078D000000F01F0004C02BF490011F4000F013B02
:1078E000F9D041EA0C0195E70CEAD15392EA0C0F6A
:1078F00008D142027FF47DAF93EA0C0F7FF470AFA2
:10790000084676E793EA0C0F04D14B023FF44CAFE4
:1079100008466EE730F0004C18BF31F0004CCAD179
:1079200030F000427FF45CAF31F000437FF43CAFB5
:107930005FE700BF4FF0FF3C06E000BF4FF0010CD7
:1079400002E000BF4FF0010C4DF804CD4FEA4002B9
:107950004FEA41037FEA226C18BF7FEA236C11D003
:1079600001B052EA530C18BF90EA010F58BFB2EBB6
:10797000030088BFC81738BF6FEAE17018BF40F036
:10798000010070477FEA226C02D15FEA402C05D1EA
:107990007FEA236CE4D15FEA412CE1D05DF8040B6F
:1079A000704700BF844608466146FFE70FB5FFF702
:1079B000C9FF002848BF10F1000F0FBD4DF808EDBA
:1079C000FFF7F4FF0CBF012000205DF808FB00BFAB
:1079D0004DF808EDFFF7EAFF34BF012000205DF805
:1079E00008FB00BF4DF808EDFFF7E0FF94BF012052
:1079F00000205DF808FB00BF4DF808EDFFF7D2FF4F
:107A000094BF012000205DF808FB00BF4DF808ED91
:107A1000FFF7C8FF34BF012000205DF808FB00BF5E
:107A200042000ED2B2F1FE4F0BD34FF09E03B3EBE8
:107A3000126209D44FEA002343F0004323FA02F014
:107A400070474FF00000704712F1610F01D1420200
:107A500002D14FF0FF3070474FF00000704700BF79
:107A6000844641EA000313F0030349D1403A23D38B
:107A70000B6803604B6843608B688360CB68C360AE
:107A80000B6903614B6943618B698361CB69C36196
:107A90000B6A03624B6A43628B6A8362CB6AC3627E
:107AA0000B6B03634B6B43638B6B8363CB6BC36366
:107AB00040304031403ADBD230320BD30B680360A8
:107AC0004B6843608B688360CB68C36010301031B3
:107AD000103AF3D20C3205D351F8043B40F8043B82
