:1020000060FF001061210000695900007D59000047
:1020100091590000A5590000B959000000000000C6
:10202000000000000000000000000000B1380000C7
:102030002521000000000000113900005539000082
:102040003121000031210000312100003121000048
:1020500031210000553A00003121000031210000FB
:102060003121000031210000312100003121000028
:1020700031210000CD590000312100003121000044
:102080003121000031210000312100003121000008
:1020900031210000312100003121000031210000F8
:1020A00031210000312100003121000031210000E8
:1020B00031210000312100003121000031210000D8
:1020C00031210000312100003121000031210000C8
:1020D0003121000031210000C94E000031210000F3
:1020E0003121000038040100800000105404000079
:1020F000380401000000002000000000D804001097
:10210000902F00000000002000000000FEE700BF4C
:10211000FEE700BFFEE700BFFEE700BFFEE700BF2F
:10212000FEE700BFFEE700BFFEE700BFFEE700BF1F
:10213000FEE700BF10B4002304E004680C60043321
:10214000043004319342F8D310BC7047002303E0FD
:1021500000220260043304308B42F9D3704700BF81
:1021600010B50E4B07E003F10C049A685968186823
:10217000FFF7E0FF23460A4A9342F4D306E01C46E9
:10218000596854F8080BFFF7E1FF2346054A9342CC
:10219000F5D300F04DF905F0A7FEFEE7E4200000BE
:1021A000FC2000000C2100009A4BD3F8043113F4FA
:1021B000807F4BD1974BD3F80C3113F0010F1BD11B
:1021C0009449D1F8042102F01F02934BB3FBF2F2C1
:1021D00092480260D1F8A82102F01F02B3FBF2F28C
:1021E0008F480260D1F8002102F001020132B3FBF6
:1021F000F2F38C4A1360A6E0864BD3F8A03113F0BB
:10220000400F07D10023854A1360854A1360854A31
:10221000136098E07F49D1F8042102F01F02824B3D
:10222000B3FBF2F27D480260D1F8A82102F01F0250
:10223000B3FBF2F27A480260D1F8002102F0010209
:102240000132B3FBF2F3774A13607CE0714BD3F8B1
:10225000883013F4807F07D10023704A1360704ADE
:102260001360704A13606EE06A4BD3F80C3113F0C0
:10227000010F2DD16748D0F8882002F01F02664B6D
:1022800002FB0331D0F8042102F01F02B1FBF2F28D
:1022900062490A60D0F8882002F01F0202FB033175
:1022A000D0F8A82102F01F02B1FBF2F25C490A60EB
:1022B000D0F8882002F01F0202FB0333D0F800217F
:1022C00002F001020132B3FBF2F3564A13603AE026
:1022D000504BD3F8A03113F0400F07D100234F4AE1
:1022E00013604F4A13604F4A13602CE04948D0F8FE
:1022F000882002F01F024C4B02FB0331D0F804216E
:1023000002F01F02B1FBF2F244490A60D0F88820C3
:1023100002F01F0202FB0331D0F8A82102F01F02D5
:10232000B1FBF2F23E490A60D0F8882002F01F02A9
:1023300002FB0333D0F8002102F001020132B3FBAB
:10234000F2F3384A1360334BD3F8083113F4807F2B
:1023500039D0304BD3F8083103F01F03042B06D0DB
:10236000062B04D05BBB0022304B1A607047294B10
:10237000D3F80C3113F0010F10D02649D1F8883072
:1023800003F01F02284B02FB0333D1F8082102F0AF
:102390001F02B3FBF2F3254A136070471D49D1F8C1
:1023A000883003F01F021C4B02FB0333D1F80821D5
:1023B00002F01F02B3FBF2F31C4A136070470022C5
:1023C0001A4B1A607047134BD3F8083113F4007F8F
:1023D0001BD0104BD3F80C3113F0010F0AD00D4B6A
:1023E000D3F8A83003F01F020F4B02FB03330F4A50
:1023F00013607047074BD3F8883003F01F02064B79
:1024000002FB0333094A136070470022074B1A602E
:10241000704700BF00C00F40001BB7008C000010C9
:102420008800001084000010002D31018000001091
:1024300031221C4BC3F8A0211A4BD3F8A03113F062
:10244000400FF9D0174B0122C3F80C210521C3F826
:102450008410C3F88020AA22C3F88C205522C3F828
:102460008C20104BD3F8883013F4806FF9D00D4BCB
:1024700040F20112C3F8042140F20122C3F80821FE
:102480000122C3F800210222C3F8A821064AC3F89A
:10249000C4204FF48072C3F8C82145F23A021A6092
:1024A000704700BF00C00F40DE872804074B23F0B1
:1024B0000703074A136000205060064A42F2087181
:1024C0005160106059601A60704700BFEC04001042
:1024D000D8040010F42B001070B5044600F018FA70
:1024E000224B1B6823B9FFF7E1FF01221F4B1A6043
:1024F00034B1083414F0070F02D024F00704083474
:10250000621E42F206739A4228D819490B6801E00C
:10251000194613465A68944202D91A68002AF7D11C
:10252000144A93421CD00D6808351A680A605A682C
:10253000121B102A0CD91E1972605C6074680C4959
:1025400000E011460A6850688442FAD832600E6092
:102550005968094A13685B1A136002E0002500E01D
:10256000002500F069FA284670BD00BFE0040010A5
:10257000D8040010F42B001090000010D0B170B5FA
:102580000546A0F1080600F0C3F955F8044C0A4AC4
:1025900000E01A46136859688C42FAD845F8083C9E
:1025A000166055F8043C054A11680B44136000F0AE
:1025B00043FA70BD704700BFD804001090000010AF
:1025C0000A4B1B681B680BB9012300E0002323B1F1
:1025D0004FF0FF32064B1A607047044B1B68DB68F4
:1025E000DB685A68024B1A60704700BF002C00106D
:1025F000F02C001010B50446006BFFF7BFFF20461B
:10260000FFF7BCFF10BD00BFF8B5074614460E46E5
:1026100021B98000FFF760FF054600E00D4665B177
:102620001CB96020FFF758FF04460CB1256305E094
:1026300026B92846FFF7A2FF00E0002424B1BA0023
:10264000A521206B07F02EFC2046F8BD70B504468E
:102650001546002306E0C85CE21882F83400CA5C24
:1026600012B10133132BF6D9002384F84730072D1C
:1026700000D90725E562256500266665201D00F066
:1026800011FE04F1180000F00DFE2461C5F10805EB
:10269000A5616462A66584F85C6070BD38B50024ED
:1026A00007E004EB840293000E48184400F0EEFDAE
:1026B0000134072CF5D90C4D284600F0E7FD0B4CF2
:1026C000204600F0E3FD0A4800F0E0FD094800F074
:1026D000DDFD094800F0DAFD084B1D60084B1C6069
:1026E00038BD00BF242C0010F82C00100C2D001059
:1026F000D42C0010082C0010202D0010002C0010ED
:102700001C2C001038B504460D461D4B18680430CB
:1027100000F0F2FD50B91A4B1B68DA6A012303FA84
:1027200002F218490B6823EA02030B60B4F1FF3F81
:1027300007D135B1124B19680431134800F0B6FDCA
:1027400038BD124B1A6814440D4A126854601B6855
:102750009C4207D20E4B1868094B1968043100F0EF
:10276000B1FD38BD0B4B1868054B1968043100F0FA
:10277000A9FD094B1B689C4201D2074B1C6038BD68
:10278000D02C0010342D0010202D0010EC2C001047
:102790001C2C0010002C0010F02C00102DE9F0472C
:1027A00082B080468A46164699460B9F0D9A0C9930
:1027B0003046FFF729FF00284BD00446036B06F193
:1027C0008045013D03EB850525F0070500960E9B2E
:1027D0000A9A5146FFF73AFF4A464146284601F019
:1027E00053F8206007B13C6001F074F8254A136883
:1027F00001331360244B1B683BB9234B1C601368E7
:10280000012B0DD1FFF74AFF0AE0204B1B683BB9B3
:102810001D4B1B68DB6A0A9A9A4201D31A4B1C6053
:102820001B4A136801331360A364E36A012505FAA8
:1028300003F018490A6802430A6003EB83039A0015
:10284000211D1548104400F031FD01F053F82846D1
:1028500001E04FF0FF30012810D10C4B1B686BB129
:10286000094B1B68DB6A0A9A9A4207D94FF08052DB
:102870000A4B1A60BFF34F8FBFF36F8F02B0BDE8F2
:10288000F08700BFCC2C0010D02C0010042C0010BE
:10289000F42C0010342D0010242C001004ED00E066
:1028A00000B587B00023049303930293124A019268
:1028B0000093802211491248FFF770FF012801D1CF
:1028C00000F09AFB012813D14FF0280383F31188FD
:1028D000BFF36F8FBFF34F8F4FF0FF32094B1A607A
:1028E0000122094B1A600022084B1A6001F05EF8C1
:1028F00007B05DF804FB00BFE82C001080A30000C7
:10290000DD2B0000F02C0010042C0010EC2C00102B
:10291000024A136801331360704700BFC42C0010D3
:10292000014B1868704700BFEC2C0010F8B5374B0E
:102930001B68002B5DD1364B1A6801321A601F6884
:102940005FB9344A1168344B186810601960334A13
:10295000136801331360FFF733FE314B1B689F424E
:1029600003D200263AE0012600E00026294B1B682E
:102970001B680BB9012300E0002323B14FF0FF32A5
:10298000274B1A602AE0234B1B68DB68DC6863680E
:102990009F4202D2224A136020E0251D284600F003
:1029A000ABFCA36A1BB104F1180000F0A5FCE36ABC
:1029B000012202FA03F11B4802680A43026003EB9A
:1029C00083039A0029461848104400F06FFCE26A1D
:1029D000164B1B68DB6A9A42C5D2C7E7134B1B68CC
:1029E000DB6A03EB83039A000F4B9B58012B06D83D
:1029F00006E00F4A136801331360002600E0012649
:102A00000C4B1B6803B101263046F8BDC42C0010E6
:102A1000EC2C0010002C00101C2C0010FC2B0010C3
:102A2000F02C0010342D0010242C0010D02C00109D
:102A3000202C0010382D001038B500F04BFF2F4B24
:102A40001A68013A1A601B68002B50D12C4B1B6886
:102A500033BB00244EE02B4BDB68DC6804F118002C
:102A600000F04AFC251D284600F046FCE36A0122DE
:102A700002FA03F1244802680A43026003EB83036D
:102A80009A0029462148104400F010FCE26A204BCD
:102A90001B68DB6A9A4204D301221E4B1A6000E0D5
:102AA0000024184B1B68002BD5D10CB1FFF788FD13
:102AB000194B1B6853B90DE0FFF738FF10B1012225
:102AC000144B1A60144A1368013B1360124B1B68C5
:102AD000002BF1D10F4B1B685BB14FF080520F4BB5
:102AE0001A60BFF34F8FBFF36F8F012402E0002401
:102AF00000E0002400F0FEFE204638BDC42C00108B
:102B0000CC2C0010D42C0010342D0010242C0010DC
:102B1000D02C0010382D0010202C001004ED00E007
:102B200038B505460C46FFF7F3FE154B18682A68C2
:102B30001319904205D29A4209D9984209D300222A
:102B40000CE09A4207D8984207D3002206E0002200
:102B500004E0012202E0012200E001222B601AB110
:102B60000021181AFFF7CEFDFFF766FF38B94FF0C6
:102B70008052044B1A60BFF34F8FBFF36F8F38BD85
:102B8000EC2C001004ED00E010B51BE0FFF7C0FED8
:102B90000F4B1C68FFF750FFA4B100F09BFE0C4BDD
:102BA000DB68DC68201D00F0A7FB0A4A1368013BC4
:102BB0001360094A1368013B136000F09BFE204636
:102BC000FFF718FD044B1B68002BDFD110BD00BFC1
:102BD000082C0010CC2C0010C82C001008B5FFF7F2
:102BE000D3FF064B1B68012BF9D94FF08052044BE1
:102BF0001A60BFF34F8FBFF36F8FF0E7242C0010E4
:102C000004ED00E038B51E4B1B681BB101221D4BC3
:102C10001A6038BD00221B4B1A601B4B1A681268E1
:102C20001B681B6B9A4205D8174B1868196834311A
:102C300003F0CCF8154B1B68B3FA83F3DBB2C3F196
:102C40001F03134D9900CA18900028444268546825
:102C5000446019448A0008322A44944205D16068CD
:102C600003EB83018A002A44506003EB83039A003C
:102C7000074B1A445368DA68034B1A6038BD00BF2B
:102C8000C42C0010382D0010D02C0010342D001052
:102C9000242C001010B50C46044B1968183100F0B4
:102CA00011FB01212046FFF72DFD10BDD02C001097
:102CB00038B50D461446064B1968183100F0F6FA7F
:102CC0000CB14FF0FF3521462846FFF71BFD38BDFC
:102CD000D02C001038B5C368DC6804F1180528460C
:102CE00000F00AFB134B1B68A3B9251D284600F012
:102CF00003FBE36A012202FA03F10F4802680A4368
:102D0000026003EB83039A0029460C48104400F04C
:102D1000CDFA03E029460A4800F0C8FAE26A094BF6
:102D20001B68DB6A9A4203D90120074B186038BD43
:102D3000002038BDC42C0010342D0010242C0010AD
:102D4000D42C0010D02C0010382D0010034B1B6821
:102D50000360034B1B684360704700BFFC2B0010EF
:102D6000EC2C001038B504460D4600F0B3FD114BB5
:102D70001A682B68B3F1FF3F13D020680E49096829
:102D8000884202D061688A420DD26168501A83423B
:102D90000BD98A1A13442B602046FFF7D7FF002473
:102DA00004E0002402E0012400E0012400F0A2FD80
:102DB000204638BDEC2C0010FC2B00100122014BEA
:102DC0001A607047382D0010054B1B6823B1054B66
:102DD0001B681BB902207047012070470020704714
:102DE000042C0010C42C001000284AD038B502462C
:102DF000C36A24490968C96A8B4241D281690029A2
:102E000005DB20490968C96AC1F10801816150697F
:102E100003EB830399001C4B1944884201D1012321
:102E200000E0002343B31446151D284600F064FA61
:102E300070B9E36A03EB83018A0013498A583AB9EF
:102E4000012202FA03F311490A6822EA03030B6024
:102E50000C4B1B68DB6AE362012202FA03F10B48A8
:102E600002680A43026003EB83039A00294606487E
:102E7000104400F01BFA38BD024B1B68DB6AD362BA
:102E800038BD7047D02C0010242C0010342D0010B9
:102E9000002834D038B50346426D013A4265C06A15
:102EA000196D88422DD072BB1C461D1D284600F0AE
:102EB00023FA70B9E36A03EB83018A0013498A5845
:102EC0003AB9012202FA03F311490A6822EA03031C
:102ED0000B60236DE362C3F10802A261012404FACE
:102EE00003F00B490A6802430A6003EB83039A006C
:102EF00029460648104400F0D9F9204638BD002084
:102F00007047002038BD002038BD00BF242C0010C1
:102F1000342D0010054B1B6823B1044B1A68536D08
:102F200001335365014B1868704700BFD02C001067
:102F3000064B1A681368B3FA83F35B09036013B98D
:102F4000D368186870470020704700BF3C2D001000
:102F500008B54160006191420AD8D21A83699A4249
:102F600011D2011D0A4B186800F0ACF9002008BD11
:102F70009A4201D2994208D2011D064B186800F00E
:102F8000A1F9002008BD012008BD012008BD00BF37
:102F9000702D00103C2D001030B583B000F09AFC6D
:102FA0000F4B1B68C3B90F4D284600F06FF90E4C4C
:102FB000204600F06BF90D4B1D600D4B1C6000228C
:102FC000009213460C21022000F090FA044B186086
:102FD00010B1084900F00AFC00F08CFC03B030BDD1
:102FE0006C2D0010402D0010542D00103C2D0010B1
:102FF000702D001088A3000000B587B0FFF7CCFF4C
:10300000094B1B6863B1002304930393029301935C
:1030100002220092502205490548FFF7BFFB00E05D
:10302000002007B05DF804FB6C2D001090A3000099
:103030007532000030B585B0134C256805B31C46C9
:10304000019102920390052913DCFFF7BDFE0228CF
:1030500007D10023089A01A90B48006800F064FA20
:103060000FE000231A4601A90748006800F05CFA47
:1030700007E00023224601A9284600F0E9FA00E013
:10308000002005B030BD00BF6C2D001070B582B0BF
:103090001FE0DB681E68DC68251D284600F02CF95F
:1030A000636A20469847E369012B12D1A369334430
:1030B0009E4207D26360246129460C4B186800F0D9
:1030C00001F906E0002100910B4632462046FFF749
:1030D000B1FF064B1B681A68002ADAD1044A10684F
:1030E00002490860136002B070BD00BF3C2D0010A3
:1030F000702D001038B50546FFF712FC0446074B4B
:103100001B68984204D2FFF7C1FF01232B6001E046
:1031100000232B60014B1C60204638BD682D001039
:1031200070B582B005460E460E4B1B68DB68DC6846
:10313000201D00F0E1F8E369012B0ED1A1692B46B7
:10314000324629442046FFF703FF30B100210091A9
:103150000B462A462046FFF76DFF636A20469847D4
:1031600002B070BD3C2D001070B582B006460C4612
:10317000FFF7CEFB01A8FFF7BDFF019B1BBB054678
:1031800044B9B04206D3FFF757FC29463046FFF753
:10319000C7FF1AE02CB10E4B1B681C68B4FA84F40C
:1031A00064092246711B0B4B186800F033FBFFF7D4
:1031B00043FC50B94FF08052074B1A60BFF34F8F5A
:1031C000BFF36F8F01E0FFF737FC02B070BD00BFA7
:1031D000702D00106C2D001004ED00E030B587B0AC
:1031E0003AE0039B002B37DB059C636913B1201D7C
:1031F00000F082F802A8FFF77DFF039B092B2BD874
:10320000DFE803F00505052A1E2705052A1E049997
:10321000A5690B46024629442046FFF799FED8B11E
:10322000636A20469847E369012B15D1A269002102
:1032300000910B46049802442046FFF7FBFE0BE08A
:103240000499A1610346024601442046FFF780FE2F
:1032500002E02046FFF792F900231A4603A904482A
:10326000006800F029FA0028BBD107B030BD00BFCC
:103270006C2D001000B583B001A8FFF759FE01992D
:10328000FFF772FFFFF7AAFFF6E700BF00F10803A0
:1032900043604FF0FF328260C3600361002303602C
:1032A000704700BF00230361704700BF43684B6055
:1032B0009A688A609A68516099600861036801336E
:1032C0000360704730B40D68B5F1FF3F01D102696A
:1032D00007E000F1080200E01A4653681C68A542A6
:1032E000FAD253684B6099608A6051600861036844
:1032F0000133036030BC70470369426881689160A4
:103300008268416851605A68904201D182685A606F
:1033100000220261186801381860704710B5044631
:1033200000F0D8FAA26BE36B9A4201D1012400E0CD
:10333000002400F0DFFA204610BD00BF10B504469F
:1033400000F0C8FAA36B0BB9012400E0002400F0E0
:10335000D1FA204610BD00BF10B5144611B100FBD4
:1033600001F000E000205430FFF7B6F8034610B13A
:1033700000F154022260184610BD00BF38B5044663
:103380001546026C3AB903685BBB4068FFF780FDE5
:10339000002363602CE06DB9806806F0A9FCA26888
:1033A000236C1344A360626893421CD32368A36018
:1033B00000201DE0C06806F09BFC236C5B42E268C5
:1033C0001A44E26021688A4202D262681344E360D0
:1033D000022D0AD1A36B53B1A36B013BA363002061
:1033E00006E0002004E0002002E0002000E00020D1
:1033F000A36B0133A36338BD026C72B110B5C3680F
:103400001344C3604468A34201D30368C3600C46FD
:10341000C168204606F06CFC10BD704710B504462C
:1034200000F058FA0BE0636A63B104F12400FFF77F
:1034300051FC08B1FFF7C2FCA36C013BA364A36C71
:10344000002BF0DC4FF0FF33A36400F053FA00F0E0
:1034500041FA0BE0236963B104F11000FFF73AFC75
:1034600008B1FFF7ABFC636C013B6364636C002B3A
:10347000F0DC4FF0FF33636400F03CFA10BD00BF96
:1034800038B504460D4600F025FA2168E26B236C3E
:1034900003FB021060600020A063A160013A02FB00
:1034A0000313E3604FF0FF336364A3647DB92369C2
:1034B000ABB104F11000FFF70DFC80B14FF080526A
:1034C000094B1A60BFF34F8FBFF36F8F07E004F112
:1034D0001000FFF7DBFE04F12400FFF7D7FE00F039
:1034E00009FA012038BD00BF04ED00E070B582B0DC
:1034F00006460D4602AC44F8042D2246FFF72CFF89
:10350000044670B10DB9206001E0019B0360E663E1
:10351000256401212046FFF7B3FF9DF8183084F899
:103520005030204602B070BDF0B585B004460F465D
:1035300001921E46002500F0CDF9A26BE36B9A4282
:1035400001D3022E21D1324639462046FFF716FF1D
:10355000636A6BB104F12400FFF7BCFB88B14FF044
:1035600080522F4B1A60BFF34F8FBFF36F8F08E06D
:1035700038B14FF080522A4B1A60BFF34F8FBFF320
:103580006F8F00F0B7F9012048E0019B1BB900F0F4
:10359000B1F9002042E01DB902A8FFF7D7FB0125D1
:1035A00000F0A8F9FFF7B4F900F094F9636CB3F1F7
:1035B000FF3F01D100236364A36CB3F1FF3F01D14E
:1035C0000023A36400F096F901A902A8FFF7CAFB43
:1035D000F0B92046FFF7A2FEA0B1019904F1100056
:1035E000FFF758FB2046FFF719FFFFF725FA0028E1
:1035F000A1D14FF080520A4B1A60BFF34F8FBFF337
:103600006F8F98E72046FFF709FFFFF715FA92E75B
:103610002046FFF703FFFFF70FFA002005B0F0BDCB
:1036200004ED00E010B582B000900B460022114678
:103630000120FFF75BFF044638B1002141600160C3
:10364000C1600B460A46FFF76FFF204602B010BD6F
:1036500070B5EFF311854FF0280484F31188BFF3A0
:103660006F8FBFF34F8F866BC46BA64201D3022BC3
:1036700018D1164604461A46FFF780FEA36CB3F134
:10368000FF3F0AD1636A7BB104F12400FFF722FBFC
:1036900060B16EB1012030600BE0A36C0133A36414
:1036A000012006E0002004E0012002E0012000E00B
:1036B000012085F3118870BDF0B585B004460F4632
:1036C00001921E46002500F005F9A36B8BB3E56857
:1036D00039462046FFF790FEBEB9A36B013BA363BA
:1036E000236813B9FFF716FC60602369EBB104F19E
:1036F0001000FFF7EFFAC0B14FF080523A4B1A605A
:10370000BFF34F8FBFF36F8F0FE0E560636A63B164
:1037100004F12400FFF7DEFA38B14FF08052324B4B
:103720001A60BFF34F8FBFF36F8F00F0E3F80120F3
:1037300057E0019B1BB900F0DDF8002051E01DB9F6
:1037400002A8FFF703FB012500F0D4F8FFF7E0F82B
:1037500000F0C0F8636CB3F1FF3F01D10023636454
:10376000A36CB3F1FF3F01D10023A36400F0C2F8C2
:1037700001A902A8FFF7F6FA38BB2046FFF7DEFDE5
:10378000E8B1236833B900F0A5F86068FFF72CFBB7
:1037900000F0B0F8019904F12400FFF77BFA20460D
:1037A000FFF73CFEFFF748F900288CD14FF080521C
:1037B0000D4B1A60BFF34F8FBFF36F8F83E7204627
:1037C000FFF72CFEFFF738F97DE72046FFF726FECE
:1037D000FFF732F92046FFF7B1FD00283FF473AF41
:1037E000002005B0F0BD00BF04ED00E000230BE0B9
:1037F000074A52F8332032B9054A42F8331002EB37
:10380000C303586070470133092BF1D9704700BFDB
:103810009C2E001070B504460D46164600F05AF86E
:10382000636CB3F1FF3F01D100236364A36CB3F178
:10383000FF3F01D10023A36400F05CF8A36B2BB918
:103840003246294604F12400FFF732FA2046FFF7FA
:10385000E5FD70BD4FF0280383F31188BFF36F8F30
:10386000BFF34F8FFEE700BF06480068006880F393
:10387000088862B661B6BFF34F8FBFF36F8F00DF6A
:1038800000BF000008ED00E04FF0807340F8043CFA
:1038900040F8081C034B40F80C3C40F8202C403802
:1038A000704700BF55380000FFFFFFFFFFFFFFFF1D
:1038B000074B19680868B0E8F00F80F30988BFF378
:1038C0006F8F4FF0000080F311884EF00D0E70479F
:1038D000D02C00104FF0280383F31188BFF36F8FB3
:1038E000BFF34F8F024A136801331360704700BF64
:1038F00094000010034A1368013B13600BB983F373
:103900001188704794000010FFFFFFFFFFFFFFFFCB
:10391000EFF30980BFF36F8F0D4B1A6820E9F00FAA
:1039200010602DE908404FF0280080F31188FFF760
:1039300069F94FF0000080F31188BDE8084019686C
:103940000868B0E8F00F80F30988BFF36F8F704705
:10395000D02C001008B54FF0280383F31188BFF373
:103960006F8FBFF34F8FFEF7E1FF18B14FF080521A
:10397000024B1A60002383F3118808BD04ED00E0B8
:10398000064B1B68064AA2FB03239B09013B054A21
:1039900013600722044B1A60704700BF8C000010B0
:1039A000D34D621014E000E010E000E008B5094BD0
:1039B0001A6842F478021A601A6842F078421A6073
:1039C000FFF7DEFF0022044B1A60FFF74DFFFFF701
:1039D00041FF00BF20ED00E09400001040B110B5A1
:1039E000054C064B1C60204602F0C0F9204610BD75
:1039F0000020024B186070471800000E04300010C1
:103A000030B583B00446114850F824301B7802A921
:103A100001F8013D04EB840293002833184401F0BF
:103A2000BFFE20F07F4018B1094B186802F09EF9E4
:103A3000231D064A02EB83035D682DB101F08EFF62
:103A40009DF807202146A84703B030BD802D001007
:103A50000430001008B50020FFF7D2FF08BD00BFFA
:103A6000F8B50546FFF7BAFF0446384B1860002842
:103A700069D1FEF799FB2B1D354A02EB8303002227
:103A80005A6065B905EB85039800283001230A22A6
:103A900030492F4E304401F075FE032000E0002035
:103AA000002D4AD12A4B2C4A1A6002F500323421EB
:103AB00011605160294FD7F8C460E91C012202FA55
:103AC00001F13143C7F8C41025490968254EA6FB0A
:103AD000016153F825703E7B46F080063E7353F833
:103AE0002560C1F30757377053F82560090F31710E
:103AF00053F82510C0B2087353F825104A6053F8E4
:103B000025100A7253F82510802081F83000691DB5
:103B1000C9B248B2400901F01F0102FA01F1124E88
:103B200046F8201002FA05F593F88C20154383F827
:103B30008C500022054B1A6005E00C4C034B1C60B6
:103B4000204602F013F92046F8BD00BF04300010F3
:103B5000802D0010742D001000C0004000C00F40E8
:103B600088000010C5B3A29100E100E01800000E2B
:103B700070B506460D46FFF731FF20B13046FFF71E
:103B80002DFF04461AE004460D4B93F88C00314695
:103B9000304110F0010F06D10A4C0B4B1C6020463F
:103BA00002F0E4F80AE0064B53F821301A7D12F0D7
:103BB000400FF8D01D700022034B1A60204670BDE4
:103BC000802D00101500000E0430001038B504469A
:103BD0000D46FFF703FF18B12046FFF7FFFE38BD83
:103BE000FFF778FE04EB8404A00028302946044B3C
:103BF000184401F0FFFD0446FFF77CFE204638BD67
:103C0000802D0010054B93F88C20012303FA00F05F
:103C1000024214BF18460020704700BF802D0010DC
:103C2000012803D80020064B1860704710B5054CDA
:103C3000034B1C60204602F099F8204610BD00BFDF
:103C4000043000100100000208B5064818230322C2
:103C500000F10801503001F095FD0020024B186082
:103C600008BD00BF102E00100430001010B504462F
:103C7000FFF7D6FF20B12046FFF7D2FF034603E04F
:103C800003460021014A1160184610BD043000109F
:103C900010B50446FFF7C4FF20B12046FFF7C0FF70
:103CA000034603E003460021014A1160184610BD97
:103CB0000430001010B50446FFF7B2FF20B12046D3
:103CC000FFF7AEFFC0B210BD0020014B186010BD61
:103CD0000430001008B5024801F08CFD08BD00BF9B
:103CE000602E00100020014B186070470430001057
:103CF000064AB2F96430002B03DD1B1AA2F86430C7
:103D000070470022014BA3F864207047102E00106A
:103D100030B5174900208861164B1B68164AA2FB74
:103D20000342D20B013A4A61C3EB0312520A134C0D
:103D3000A4FB0225C3EBC302C3EBC202520AA4FBDD
:103D400002E2D209120242EAD51203EB8303C3EB6B
:103D5000C3035B0AA4FB0343DB0942EA03430B6191
:103D60004FF0A053C1F8683F054B186030BD00BF4D
:103D7000800020008C000010819F5E16834B0400A1
:103D8000043000105318B3F57C6F03DD2348244B37
:103D900018607047F0B516460F464FF08054214B1F
:103DA000C3F8684F02F03F0300222BE01D4C4FF098
:103DB0008065C4F8685F03252560B518656010F854
:103DC00002E0C4F808E00133DBB23F2B02D87C1ECE
:103DD000A24215D1134BD3F8603F13F0806FF9D096
:103DE000104B5D6006241C600E4BD3F8603F13F04F
:103DF000805FF9D04FF080540A4BC3F8684F00231E
:103E0000013292B28A42D1D34FF0A052054BC3F88F
:103E1000682F0020024B1860F0BD00BF0B00001699
:103E200004300010800020005318B3F57C6F03DDD0
:103E30001548164B1860704710B4154B5A604FF078
:103E40008062C3F8682F002212E00024104B1C602F
:103E50000F4BD3F8603F13F0806FF9D00C4BDC6848
:103E600004704FF08064C3F8684F013292B20130A1
:103E70008A42EAD34FF0A052054BC3F8682F0020C6
:103E8000024B186010BC70470B0000160430001085
:103E90008000200070B582B0174B0230988000245B
:103EA0005C801C8001264FF6FF751BE02244023A1D
:103EB00092B202210DF10600FFF7B6FFBDF8061021
:103EC00061B18D4202D90C4B5C800D468E4202D20C
:103ED000094B1C800E46094800F074FA064B9B887B
:103EE0001C44A4B2044B9A88C2F57B630C339C42F9
:103EF000DCDD02B070BD00BF802E001098A3000072
:103F000030B583B03B4BB3F900209B881A4492B282
:103F100011B20B4440F6BC74A34200DD0021354BC6
:103F2000B3F90230994203D13348344B18605FE053
:103F30000446023A92B202210DF10600FFF774FF27
:103F4000BDF8063023B12B4B99881A880A441A8091
:103F5000284AB2F9003091880B4440F6BC72934273
:103F600002DD0022234B1A800239224B1A8889B2C3
:103F70002046FFF707FFBDF806204FF6FF739A4271
:103F800023D11AE02244023A92B2022101A8FFF79B
:103F90004BFFBDF804301BB103F6BD73ADF8043020
:103FA000144DAA882244023A92B2022101A8FFF7D6
:103FB000E9FEAB881C44A4B200E000240D4B9A88B3
:103FC000C2F57B630C339C42DCDDBDF80630013367
:103FD00002A820F8023D074AB2F9003092881A443C
:103FE000023A92B20221FFF7CDFE0020034B186087
:103FF00003B030BD802E00101200001604300010F7
:1040000010B582B0044600238DF80730254AB2F976
:10401000023092881A44023A92B2022101A8FFF7B4
:1040200003FFBDF804301BB91F48204B186036E071
:104030003CB11C4B998802395A8889B22046FFF757
:10404000F3FE0023ADF804300EE0164BB3F9023056
:104050001A4492B201210DF10700FFF793FEBDF85B
:1040600004300133ADF804300E4B9B88BDF80420BA
:104070009342EAD80B4AB2F90010B2F902209142F9
:104080000AD01A4412B207494A80134440F6BC725F
:10409000934201DD00224A800020044B186002B0E8
:1040A00010BD00BF802E0010170000160430001055
:1040B00030B583B004460D46214AB2F900309288EB
:1040C0001A44023A92B202210DF10600FFF7ACFE4B
:1040D000BDF806301BB91B481B4B18602EE0184B6F
:1040E000B3F90020ADF8065019E0154BB3F90230D2
:1040F0009A4203D11548144B18601FE0104B988862
:10410000121A12B2002A07DA40F6BC7393FBF0F2DF
:1041100000FB12329A1A12B20139ADF80610BDF83E
:1041200006100029E1D1064B9988023992B289B272
:104130002046FFF779FE0020034B186003B030BD26
:10414000802E001017000016043000101200001618
:1041500008B528B10268117002680132026008BD1A
:10416000084600F047FF08BD2DE9F04107460E461E
:10417000151E05DC4FF0200814E00131013201E08A
:104180000A46002110780028F7D1A94201DA6D1AF9
:1041900000E0002513F0020F02D14FF0200801E0EB
:1041A0004FF0300813F0010F08D000240FE0414613
:1041B0003846FFF7CDFF0134013D00E00024002D1B
:1041C000F5DC04E03846FFF7C3FF013401363178EF
:1041D0000029F7D105E041463846FFF7B9FF013421
:1041E000013D002DF7DC2046BDE8F081F0B585B03B
:1041F00005460C9E59B930238DF8043000238DF804
:1042000005300B9B0A9A01A9FFF7AEFF40E0084674
:1042100033B10A2A06D1002906DA4842012704E010
:10422000002702E0002700E0002704AC002304F888
:10423000013D0DE0B0FBF2F302FB1303092B02DD9D
:10424000A6F13A010B44303304F8013DB0FBF2F023
:104250000028EFD1A7B10A9B63B10B9B13F0020FAB
:1042600008D02D212846FFF773FF0A9B013B0A93D4
:10427000012606E02D2304F8013C013C002600E065
:1042800000260B9B0A9A21462846FFF76DFF304413
:1042900005B0F0BDF0B587B006460C461F460025B8
:1042A00083E0252B7BD1621C6378002B00F081809A
:1042B000252B73D02D2B02D1A21C012300E000235B
:1042C000144602E0013443F002032278302AF9D088
:1042D000002205E002EB820250003039421801341E
:1042E0002178A1F13000C0B20928F3D9732908D18F
:1042F0003968043701B932493046FFF735FF0544C4
:1043000052E0642901D069290CD139680437612051
:1043100002900193009201230A223046FFF766FFC4
:10432000054441E078290CD13968043761200290B6
:1043300001930092002310223046FFF757FF0544F7
:1043400032E058290CD1396804374120029001939A
:104350000092002310223046FFF748FF054423E077
:1043600075290CD1396804376120029001930092BD
:1043700000230A223046FFF739FF054414E0632981
:1043800012D1397804378DF8141000218DF81510EA
:1043900005A93046FFF7E8FE054405E014462178FC
:1043A0003046FFF7D5FE013501342378002B7FF42A
:1043B00078AF16B1336800221A70284607B0F0BDF6
:1043C000A4A300000FB400B583B004AB53F8041BE2
:1043D00001934FF0FF320020FFF75CFF03B05DF860
:1043E00004EB04B0704700BF0CB400B585B0019079
:1043F00006AB53F8040B03930A46014601A8FFF7E6
:1044000049FF05B05DF804EB02B0704770B40023BB
:1044100010E0D0F8305103EB4306B4002E192C5BAA
:104420008C4206D1F47814F0C00F08D1B4789442CD
:1044300005D00133B0F83441A342EAD30026304618
:1044400070BC704730B587B09DF8284000250195B5
:104450000395049505958DF800204A788DF8012084
:104460008A788DF80220CA788DF80320027E02F542
:10447000B062029208228DF80C2053B916E01A1D82
:10448000E95C0DF1180E724402F8181C0133DBB21E
:1044900001E01D460023A342F1D307E01A1D06A93F
:1044A0000A44002102F8181C0133DBB2032BF5D9B2
:1044B000694690F85C01FFF7FDFB07B030BD00BF17
:1044C00000B587B0002303930493059380238DF8F0
:1044D00000304B788DF801308B788DF80230CB7836
:1044E0008DF803308DF80420C2F307238DF80530D2
:1044F000C2F307438DF80630120E8DF80720037EB5
:104500008033029308238DF80C30694690F85C01E3
:10451000FFF7D0FB07B05DF804FB00BF10B582B019
:10452000019283788B420AD30B464468C07800F02E
:104530003F00024601A900FB034005F0D9FB02B091
:1045400010BD00BF83788B420DD310B582B0446894
:10455000C37803F03F031A4603FB014101A805F0AD
:10456000C7FB019801E00020704702B010BD00BFFA
:104570002DE9F04385B006460C464F7891F802903D
:1045800007EB092194F80380424689B2FFF73EFF0A
:1045900028B97C4A21463046FFF792FFEEE00546F7
:1045A0002378402B3AD1037A13F0010F05D1764AD4
:1045B00021463046FFF784FFE0E0C27812F0C00FDA
:1045C00024D0B8F1000F18D0837898450FD808F19F
:1045D000FF3189B2FFF7B6FF04AB43F8040D0422A4
:1045E0000092422221463046FFF72CFFC6E0654A82
:1045F00021463046FFF764FFC0E001230093831C8F
:10460000422221463046FFF71DFFB7E04368009283
:10461000422221463046FFF715FFAFE02F2B06D090
:104620002B2B04D0232B02D0222B40F0A2802B7AFC
:1046300013F0020F00F0978007EB092741F2030304
:104640009F422BD1B8F1000F28D196F86831B6F807
:104650006421D6F8601106F5B07001F093F80023DC
:104660008DF80C3007E06B68002199549DF80C30F0
:1046700001338DF80C309DF80C20A978EB7803F00D
:104680003F0303FB01F39A42EDDB0123009303ABED
:10469000602221463046FFF7D5FE6FE0EB7813F03D
:1046A000C00F1CD0B8F1000F04D008F1FF33AA7876
:1046B000934205DB354A21463046FFF701FF5DE0B6
:1046C00008F1FF31626889B22846FFF727FF0AE048
:1046D0006A68191D615CD1540133DBB200E000232C
:1046E000EA789342F4D300230093602221463046B7
:1046F000FFF7A8FE6378A27803EB022341F21002D1
:10470000934213D1E378012B10D16B681A78732A86
:104710000CD15A78612A09D19A78762A06D1DA78AA
:10472000652A03D100221A6001F0A2FA6378A27808
:1047300003EB022341F2110293421FD1E378012BD4
:104740001CD16B681A786C2A18D15A786F2A15D147
:104750009A78612A12D1DA78642A0FD100221A607D
:1047600001F0A0FA0AE00A4A21463046FFF7A8FE07
:1047700004E0084A21463046FFF7A2FE05B0BDE836
:10478000F08300BF000002060100010600000106E0
:10479000020001060100040500B583B0C27802F0F2
:1047A0003F02416801A805F0A3FA019803B05DF843
:1047B00004FB00BF30B587B0044618460B9DC4F813
:1047C0003011A4F834217F2384F838310A9BC4F8CF
:1047D0003C31C4F8405184F85C0100234FF0FF32B3
:1047E0001946FFF755FA00234FF0FF32217E94F867
:1047F0005C01FFF74DFA00234FF0FF324FF4C06128
:1048000094F85C01FFF744FA217E00234FF0FF3259
:1048100001F5C06194F85C01FFF73AFA3DB100235D
:104820006FF0FF02802194F85C01FFF731FA00235A
:104830004FF0FF32D4F8E01094F85C01FFF728FA4B
:1048400000234FF0FF32D4F8E81094F85C01FFF732
:104850001FFA04231A4604F1080104F5B07000F0B1
:1048600091FF0025A560E560256165612571A38C38
:10487000C4F8743100950195039504950595237E40
:1048800003F5E063029301238DF80C30694694F838
:104890005C01FFF70FFA024B1D60284607B030BDE0
:1048A0000430001080F838110020014B1860704768
:1048B0000430001090F83831042B03D10020B44BA1
:1048C000186070472DE9F04F8BB08946054604A962
:1048D00090F85C01FFF7FEF9AD4B1860002840F03E
:1048E000BE80297E069A02F07F03994201D0002BF8
:1048F00073D122F07F03802B4BD0B3F5C06F02D071
:10490000002B6AD10CE09DF81C30072B65D995F877
:104910003831042B61D004A92846FFF729FE5CE05A
:104920009DF811302A7E934201D0002B55D19DF87D
:104930001030802B14D004D8012B07D0022B0AD0C2
:104940004BE0812B11D0822B13D046E00521284665
:10495000FFF7A8FF41E004212846FFF7A3FF3CE052
:104960007F212846FFF79EFF37E0002000F09EFCE5
:1049700033E095F85C31B5F83421D5F84011019158
:10498000D5F83C110091D5F830112846FFF712FFF9
:1049900023E095F83831042B1FD0D5F84041E4B11D
:1049A0009DF81C30082B18D102F07F0285F84421B5
:1049B000BDF81030A5F84631BDF81230A5F84831E1
:1049C000BDF81430A5F84A31BDF81630A5F84C31C1
:1049D00000F0C4FF05F5A271A04795F83831052B0A
:1049E0003DD139E0A6B2002206F5A0512846FFF7D6
:1049F0000DFD70B30021FFF7A5FD069B984228D15D
:104A0000002206F5B0512846FFF700FD804630B37E
:104A1000002634461AE021464046FFF793FDF0B1E8
:104A2000C0F3C40A5FFA8AF7C0F30722010C2846D4
:104A3000FFF7ECFC98B1D8F80410524631444068B6
:104A400005F056F93E44F6B20134E4B2072CE2D93F
:104A500005E00134E4B200E00024012CC2D9D5F80D
:104A60007431994505D8C9EB0303C5F874310023A7
:104A700004E04FF0FF33C5F874310123EBB195F832
:104A800038112A7E02F5E062002304930593079310
:104A9000089309938DF81010069201238DF81C30AD
:104AA00095F85C01FFF71EF920B904A995F85C019F
:104AB000FFF700F9AB8CC5F8743195F83831052B48
:104AC00000F08D800020324B18608FE03E4607EBEF
:104AD000870305EB83035B6C002B7DDB069307EB01
:104AE000870305EB83039B6CFF2B75D107EB8703D3
:104AF00005EB83031A6D4A441A655B6D9A426BD3CA
:104B000007EB870205EB8202002313651C469A46D9
:104B100058E0D0460AEBC603203335F8231039B9E4
:104B20000AEBC603203305EB83039B78002B4CD0A4
:104B300008EBC603203305EB830393F802B05A4613
:104B40002846FFF763FC18B92320114B18604DE08D
:104B5000C27812F0C00F06D00BF1FF3189B2FFF717
:104B6000F1FC039002E0FFF717FE039008EBC60389
:104B7000203305EB8303DB782344082B06DD08EBA9
:104B8000C603203305EB83030022DA7000220DE018
:104B900004300010631C0AA9114411F81C1C0AA857
:104BA000044404F8181C0132D2B2DCB208EBC6038C
:104BB000203305EB8303DB789A42EBD30AF1010A39
:104BC0005FFA8AFABAF1070FA3D98DF81C4004A93D
:104BD00095F85C01FFF76EF80137FFB200E000279F
:104BE000022F7FF673AF0020024B18600BB0BDE8B8
:104BF000F08F00BF04300010064AD2F8C43043F4EE
:104C00000073C2F8C430044B01221A7200221A64E5
:104C1000704700BF00C00F4000400240094B93F8AE
:104C20002820027193F82420427193F82020827189
:104C30009A8F028093F83820827093F82C30C370DA
:104C4000704700BF004002400B4B00221A7282796D
:104C500083F82020427983F82420027983F82820E1
:104C6000C27883F82C20827883F8382002889A87CB
:104C700001221A72704700BF0040024070B582B036
:104C80008D4B0025C3F80051D3F8C42042F40062D4
:104C9000C3F8C42041F21002C3F8DC21874C012084
:104CA0002060A560A3F55023D3F8401140F2012203
:104CB0001143C3F84011D3F844111143C3F8441110
:104CC000D3F848111143C3F84811D3F850111143D8
:104CD000C3F85011D3F860111143C3F86011D3F831
:104CE00070111143C3F87011D3F874111143C3F854
:104CF0007411D3F880111143C3F88011D3F88411D3
:104D00001143C3F88411D3F888111143C3F88811F3
:104D1000D3F88C111143C3F88C11D3F890111143BF
:104D2000C3F89011D3F894111143C3F89411D3F838
:104D300098111143C3F89811D3F89C111143C3F88B
:104D40009C11D3F8A0111143C3F8A011D3F8A411FA
:104D50001143C3F8A411D3F8A8111143C3F8A81143
:104D6000D3F8AC111143C3F8AC11D3F8B01111430F
:104D7000C3F8B011D3F8B4111143C3F8B411D3F888
:104D8000B8111143C3F8B811D3F8BC111143C3F8DB
:104D9000BC11D3F800121143C3F80012D3F8041267
:104DA0001143C3F80412D3F808121143C3F80812D0
:104DB000D3F80C121143C3F80C12D3F8101211439C
:104DC000C3F81012D3F814121143C3F81412D3F815
:104DD00018121143C3F81812D3F81C121143C3F868
:104DE0001C12D3F820121143C3F82012D3F8241256
:104DF0001143C3F82412D3F828121143C3F8281220
:104E0000D3F82C121143C3F82C12D3F834121143E7
:104E1000C3F83412D3F838121143C3F83812D3F858
:104E200064120A43C3F86422A0624FF42073C4F8EA
:104E3000003140F20333C4F8043103232363062115
:104E400061630A22A2630520E0632164022666648E
:104E50000821A164E16422656665A365642000F011
:104E600031FD40F283132362C82000F02BFD40F295
:104E7000031323626662019502E0019B01330193F3
:104E8000019B7F2BF9D90D4B36225A6283221A627D
:104E90000B4A12680092009A00241C62D3F8002189
:104EA00042F40022C3F80021642000F00BFD054B02
:104EB0001C60204602B070BD00C00F4000C0092039
:104EC000009801A00430001070B5002615E0214BB9
:104ED0009B680124B440234203D11E4B5B681C42F3
:104EE0000AD01D4B1D683DB100F038FDF1B2A84756
:104EF000184AD3681C43D4600136164B9B68002BBC
:104F0000E5D1144B5B68002BE1D1002517E0114B74
:104F10009B6A0124AC40234203D10E4B5B6A1C42C6
:104F20000CD00D4B1E684EB100F018FD05F140018C
:104F3000C9B2B047074AD36A1C43D4620135054B56
:104F40009B6A002BE3D1034B5B6A002BDFD100BFD0
:104F500000BF70BD80800240882E001038B51E4B07
:104F6000D3F8C42042F02002C3F8C420D3F8A831FB
:104F70001BB90122184BC3F8A821184A0321C2F813
:104F80008810174C0025E561E36C43F40073E3647B
:104F9000C2F88C102562E36C43F48063E36402235F
:104FA00063614FF47A73A3617F2323650D4B186807
:104FB00004F020FC0C4904F029FD0C4904F026FD06
:104FC00004F05CFEE0602567636843F009036360FA
:104FD000074B1D60284638BD00C00F4000C002408E
:104FE000004001408C00001000007A4400401C4644
:104FF00004300010084B1B785BB110B5044600204C
:10500000FEF700FE18B1E1B20020FEF7B1FD01206D
:1050100010BD0120704700BF982E001070B50646E5
:105020000D46002403E0305DFFF7E4FF0134AC429D
:10503000F9D370BD10B584B00C46039000230293E1
:10504000C0F3074004F0DAFB214604F02BFC04F027
:10505000EFFDFF2802DC002803DA01E0FF2000E07A
:1050600000208DF80A009DF80D0004F0C7FB2146D2
:1050700004F018FC04F0DCFDFF2802DC002803DA51
:1050800001E0FF2000E000208DF809009DF80C00F1
:1050900004F0B4FB214604F005FC04F0C9FDFF2830
:1050A00002DC002803DA01E0FF2000E000208DF898
:1050B0000800029804B010BDF0B4049D002800DA86
:1050C0000020002900DA0021B0F5487F24DCB1F58A
:1050D000F07F21DC8418B4F5487F01D9C0F548720F
:1050E0000F46CC18B4F5F07F01D9C1F5F0733E46F8
:1050F0000FE00A490C684FF4486101FB064101EBDF
:105100008001002402E00D6001340431A242FAD88B
:105110000136D9198E42ECD3F0BC704798000010CC
:1051200010B584B0414B40F20722C3F80021C3F808
:105130000821C3F81021C3F80C21C3F814211A6107
:105140005A61C3F87022C3F87422C3F81821C3F857
:105150001C21C3F82021C3F824219A6140F2873131
:10516000D961C3F8D020C3F8D420C3F8D820C3F83D
:10517000DC20C3F8E020C3F8E42019625962C3F8C8
:105180003021C3F83421C3F8E820C3F8EC20C3F879
:10519000F020C3F8F420264B1B689B09254AA2FB8C
:1051A0000323DB0A244AC2F8B831D2F8C43043F0F2
:1051B0000103C2F8C430214B4FF020421A61204A4B
:1051C0001A60204A5A60204A9A600922DA6040F642
:1051D0002A129A610023ADF80E300EE0BDF80E30B1
:1051E0009BB280330021154A42F82310BDF80E30DF
:1051F0009BB201339BB2ADF80E30BDF80E309BB2BE
:10520000FF2BEBD90D4A936943F00103936100240E
:1052100000944FF4F0734FF4487221462046FFF794
:105220004BFF0A4B1C60204604B010BD00C002407A
:105230008C0000102FE3BE0000C00F40008008204B
:10524000C42F2757DF090D2000381F070430001036
:105250002DE9F04F83B00746894690461D460C9CC9
:105260000D9E00962346FFF727FF07EB080004EB8F
:10527000090AC4EB050B00965B4622465146001B0B
:10528000FFF71AFF00965B46224651463846FFF765
:1052900013FF09EB0501009623464246091B3846D9
:1052A000FFF70AFF03B0BDE8F08F00BF58B9BFF3A6
:1052B0004F8F0549CA6802F4E062044B1343CB6088
:1052C000BFF34F8FFEE7704700ED00E00400FA05E2
:1052D000024BD3F88001C0B2704700BF00C00F403E
:1052E00008B5384BDA6D22F08702DA65DA6D42F0E4
:1052F0000102DA651A6E22F087021A661A6E42F00F
:1053000001021A665A6E22F087025A665A6E42F0FD
:1053100001025A669A6E22F4803222F087029A665F
:105320009A6E42F001029A66D3F8F82022F08702C2
:10533000C3F8F820D3F8F82042F00302C3F8F820AD
:10534000D3F8FC2022F08702C3F8FC20D3F8FC201D
:1053500042F00302C3F8FC201A6B22F087021A63A2
:105360001A6B42F003021A635A6B22F087025A63E7
:105370005A6B42F003025A63134AD2F8C43043F422
:105380008053C2F8C430FCF70FFF10490868104B77
:105390001A68104BA3FB02231B0D01331B029BB2A7
:1053A00003430B600B6823F480330B600B6823F01E
:1053B000E0630B600B6843F400130B600020064BA6
:1053C000186008BD00C0024000C00F40004003400C
:1053D0008C000010819F5E160430001008B5044B4D
:1053E0001A68044B19680448FEF7ECFF08BD00BFBB
:1053F000A00000109C000010ACA3000070B51E4679
:10540000002412E0184B1B6825012B4459683068B2
:1054100004F096FD40B9144B1B681D44AA686968E6
:105420001248FEF7CFFF70BD01340F4B1B799C4231
:10543000E8DB002412E00E4B03EB04135D68294601
:10544000306804F07DFD40B9094B03EB0414A268F9
:1054500029460648FEF7B6FF70BD0134062CEAD98E
:105460000448FEF7AFFF70BDEC2E0010C0A3000093
:10547000E4A70000D0A3000010B51C4612B900201C
:10548000FFF714FF23681BB10120FFF70FFF10BDCA
:105490000020FFF70BFF10BD08B500F0E9FB10B9C5
:1054A0000148FEF78FFF08BDFCA3000008B500F01F
:1054B000F9FB10B90148FEF785FF08BD04A4000000
:1054C00010B542B11C46188800F044FC216805481C
:1054D000FEF778FF10BD00F045FC01460148FEF7DD
:1054E00071FF10BDE4F8000008B5074B1860197192
:1054F00000225A719A71054B1A68054B19680548C4
:10550000FEF760FF08BD00BFEC2E0010A0000010E9
:105510009C00001010A40000014B1879704700BFD8
:10552000EC2E001010B50F48FEF74CFF002407E0EA
:105530000D4B03EB041359680C48FEF743FF01348D
:10554000062CF5D9002408E0094B1B6803EB041373
:1055500059680648FEF736FF0134FFF7DDFF844245
:10556000F2DB10BD28A40000E4A7000024A4000082
:10557000EC2E00102DE9F04182B0744B1B683BB952
:10558000734C744B1C60204600F0F0FB2046DAE0C0
:105590000DF107010020FEF719FB002840F0D08034
:1055A0006A4B5B79C72B0AD90022684B5A716A4C47
:1055B000684B1C60204600F0D9FB2046C3E0012167
:1055C0000DF10700FFF72AFD9DF807301B2B07D1CF
:1055D00006216248FFF722FD00225C4B5A71D7E793
:1055E000082B07D1594B5B79002BD1D0013B574A8F
:1055F0005371CDE70D2B02D00A2B40F09A8058480A
:10560000FEF7E0FE514B5B791BB95648FEF7DAFE18
:10561000BEE74E4A134400249C71254626463DE0D1
:10562000F4B14A4B23449B79222B19D1A5B9631EAF
:10563000464A13449B799BB913190021997106F1CD
:10564000190102EBC10302201871631C13440633D5
:1056500042F83130012503E03C4B234400259D7185
:10566000DDB93A4B23449B79202B16D1374B234489
:1056700000229A71082E10DC344F06F11A0807EB4D
:10568000C80301221A71A0183844002211460630BE
:1056900004F02AFE47F83800013601342B4B5B79C1
:1056A0009C42BDDB0024294B5C7118E0274850F870
:1056B000063B25012B44596804F042FC70B9234B8A
:1056C0001B682B44DC6884B100F048F91F4B53F889
:1056D000D01B3246495BA047012507E00134FFF7A4
:1056E0001BFF8442E2DB002500E00125EDB9002428
:1056F00014E01D4B03EB041359681C4804F020FC14
:1057000058B9194D24012B19DF6800F027F9184BFF
:105710003246295BB847012502E00134062CE8D95E
:105720001DB912491348FEF74DFE0E48FEF74AFE1A
:105730002EE706494A79501C48710A44937127E7BD
:105740000020044B186002B0BDE8F081EC2E001080
:105750001500000B043000101200000B2CA40000F8
:1057600028A4000000FC0000E4A70000F22E0010B6
:10577000BC2F001034A40000014B1860704700BF1C
:105780008C2E0010016082800022C28003720161B1
:10579000C160024B1A601046704700BF0430001011
:1057A000C28883889A420CD31048114B1860704706
:1057B000C268CC5C1470C2680132C2600133DBB2D3
:1057C00001E010B40023027A9342F1D3C468016867
:1057D000838802FB0312944200D1C160C388013365
:1057E000C3800020024B186010BC70471200000FED
:1057F0000430001010B4C3881BB91248124B186053
:105800001DE049B90CE002691278CA5402690132FC
:1058100002610133DBB200E00023027A9342F2D34B
:10582000016902688388047A04FB0323994200D14A
:105830000261C388013BC3800020034B186010BC89
:10584000704700BF1700000F0430001038B5C38840
:105850008288934203D30948094B186038BD044637
:1058600005680089024600FB035004F041FAE38812
:105870000133E3800020024B186038BD1200000F96
:1058800004300010C3888B4203D80C480C4B1860BE
:10589000704770B504460568028902FB01F01618CE
:1058A000591A01FB02F2A919284404F097FAE38877
:1058B000013BE3800020024B186070BD2900000FFF
:1058C0000430001082B0ADF8060016E0002300930B
:1058D00003E000BF009B013300930B4B1B680B4A96
:1058E000A2FB0323009AB2EB133FF2D3BDF80630BC
:1058F0009BB2013B9BB2ADF80630BDF806309BB2BF
:10590000002BE3D102B070478C00001073B2E74562
:105910001F2914D8002806DA00F00F00C900C9B208
:105920000B4B195407E0C900C9B200F1604000F503
:10593000614080F800130020064B1860704710B5D6
:10594000054C044B1C60204600F010FA204610BDA8
:1059500014ED00E0043000101600000F014B186831
:10596000704700BF8C2E001008B50348FEF72AFDD3
:105970006420FFF7A7FF08BD6CA8000008B5034826
:10598000FEF720FD6420FFF79DFF08BD74A800000E
:1059900008B50348FEF716FD6420FFF793FF08BD26
:1059A00084A8000008B50348FEF70CFD6420FFF74B
:1059B00089FF08BD94A8000008B50348FEF702FD62
:1059C0006420FFF77FFF08BDA4A8000008B50348C6
:1059D000FEF7F8FC6420FFF775FF08BDB4A80000CF
:1059E00010B4002314E0441C027883EA0223082246
:1059F00013F4004F05D041F2210080EA43039BB22B
:105A000001E05B009BB2013A12F0FF02F0D12046A8
:105A10000139E8D5184610BC704700BF70B50E1AA2
:105A20000436164B1860164B196004464FF480522A
:105A3000002304E012F8015B04F8015B0133B34278
:105A4000F8DBC368B3F1AA3F07D00E4C0E4B1C60C5
:105A5000204600F08BF9204670BD0B68B3F1AA3FD9
:105A600007D00A4C084B1C60204600F07FF9204606
:105A700070BD0020044B186070BD00BF902E001058
:105A8000942E00100D000008043000100E000008D5
:105A90002DE9F0478AB080460C461646FCF784FB99
:105AA00072B6B4F5007F0AD003D8B4F5807F5ED11A
:105AB00005E0B4F5806F02D0B4F5805F57D1B6F53C
:105AC000803F06D3F70B0E37A519013DED0B0E35C0
:105AD00003E0370BA519013D2D0B322305930697E3
:105AE000079501A905A8244B9847019B1BB162B6F5
:105AF0009DF804003CE034230593069707951F4B5F
:105B00001B681F4AA2FB03239B09089301A905A850
:105B1000194B9847019B1BB162B69DF8040027E022
:105B2000322305930697079501A905A8124B9847BC
:105B3000019B1BB162B69DF8040019E03323059365
:105B40000696CDF81C8008940C4B1B680C4AA2FBEF
:105B500003239B09099301A905A8074B984762B63F
:105B600021460848FEF72EFC9DF8040000E00C20BA
:105B70000AB0BDE8F08700BFF11FFF1F8C000010C6
:105B8000D34D6210C0A80000F8B5314B1860314BFE
:105B900019600B1A043307D52F4C304B1C6020467C
:105BA00000F0E4F82046F8BD04460D46B3F5004F7A
:105BB00007DD2B4C294B1C60204600F0D7F820460F
:105BC000F8BDB3F5805F0BDCB3F5806F0BDCB3F58C
:105BD000007F0BDCB3F5807F0BDD4FF400770AE02C
:105BE0004FF4004707E04FF4805704E04FF480671C
:105BF00001E04FF480774FF0AA33E360194B1E6841
:105C000026602389013B9BB24FF6FD72934207D970
:105C1000304604F073FA01463046FFF7E1FE20817A
:105C2000114B1B6863604FF0AA332B604FF4805216
:105C300039462046FFF72CFF10B9084B1860F8BD15
:105C40000A4C064B1C60204600F090F82046F8BD38
:105C5000902E0010942E00100A000008043000104E
:105C60000B0000089C000010A00000100C000008B1
:105C700010B5084B186838B9074C084B1C60204613
:105C800000F074F8204610BD054B1968FFF77CFF43
:105C900010BD00BF902E00100C0000080430001052
:105CA000942E001010B5254B186838B9244C254B9C
:105CB0001C60204600F05AF8204610BD0022C26049
:105CC000214B1B681A601B1A043307D51F4C1D4B50
:105CD0001C60204600F04AF8204610BDB3F5805FF6
:105CE00007DD1B4C174B1C60204600F03FF8204698
:105CF00010BDB3F5806F08DCB3F5007F08DCB3F5A9
:105D0000807F08DD4FF4007107E04FF4805104E01C
:105D10004FF4806101E04FF480714FF48052FFF73F
:105D2000B7FE10B9074B186010BD054C054B1C6041
:105D3000204600F01BF8204610BD00BF902E00103A
:105D40000C00000804300010942E00100A00000817
:105D50000B000008024B1B6803B11881704700BF9D
:105D6000902E001041F208031888704768B110B5F2
:105D700020F07F44020E21460448FEF723FB282C26
:105D800002D90348FEF71EFB10BD704700A90000B2
:105D900044A9000010B582B00446FCF7C1FD02AB77
:105DA00043F8040D21461846FCF7BAFE02B010BDB8
:105DB00008B50122044B1A700220FDF799FF02205A
:105DC000FFF7E8FFF8E700BF982E001008B50C4673
:105DD0000848094B1860FFF7C9FF21460748FEF73E
:105DE000F1FA4FF0280383F31188BFF36F8FBFF3ED
:105DF0004F8FFEE7190000130430001068B3000055
:105E000000B587B0FFF7B8FCFFF76AFA0020FDF78E
:105E100027FEFDF719FFFEF731FFFFF79FF8FDF7AB
:105E200077FFFFF77DF9FEF7E7FE00230493039366
:105E3000029301934FF6FF720092802203490448B7
:105E4000FCF7ACFC07B05DF804FB00BF74B30000C6
:105E5000B15D00002DE9F04F83B005888368002B09
:105E600038D01C889B68002B32D01E889B686BB38F
:105E70001F889B6843B3B3F800809B6813B3B3F8E3
:105E800000909B68DBB1B3F800A09B68A3B1B3F8A6
:105E900000B09B686BB11A880192986828B1FFF72F
:105EA000D9FF019A024493B20193019B9B441FFACC
:105EB0008BFBDA441FFA8AFAD1441FFA89F9C844E5
:105EC0001FFA88F84744BFB23E44B6B23444A4B285
:105ED0002544ADB2284603B0BDE8F08F2DE9F04F60
:105EE00083B045888368002B38D05C889B68002B82
:105EF00032D05E889B686BB35F889B6843B3B3F80E
:105F000002809B6813B3B3F802909B68DBB1B3F8CF
:105F100002A09B68A3B1B3F802B09B686BB15A882A
:105F20000192986828B1FFF7D9FF019A024493B211
:105F30000193019B9B441FFA8BFBDA441FFA8AFAF8
:105F4000D1441FFA89F9C8441FFA88F84744BFB200
:105F50003E44B6B23444A4B22544ADB2284603B0A0
:105F6000BDE8F08F2DE9F04F85B004460B78042B87
:105F700004D1012101764369984708E0022B04D13E
:105F8000022101764369984701E000230376637C90
:105F9000002B00F00781237E13B94FF0010801E0C8
:105FA0004FF002082788A568EDB12E88AB68C3B111
:105FB000B3F800909B6893B1B3F800A09B685BB105
:105FC000B3F800B0986820B1FFF744FF58441FFAB7
:105FD00080FBDA441FFA8AFAD1441FFA89F94E4449
:105FE000B6B23E44B7B2B9466788DDB16E88AB68D9
:105FF000B3B15D889B688BB1B3F802A09B685BB1BD
:10600000B3F802B0986820B1FFF768FF58441FFA50
:1060100080FBDA441FFA8AFA5544ADB22E44B6B278
:106020003E44B7B2A588E688236AD3F800A040466C
:1060300003F0E0FB01464FF07E5003F0E7FC8046A2
:1060400001465046FEF7F6FF009033462A46394691
:106050004846FFF731F82788A568EDB12E88AB6870
:10606000C3B1B3F800909B6893B1B3F800A09B68EC
:106070005BB1B3F800B0986820B1FFF7EBFE58446D
:106080001FFA80FBDA441FFA8AFAD1441FFA89F911
:106090004E44B6B23E44B7B2B9466788DDB16E88A9
:1060A000AB68B3B15D889B688BB1B3F802A09B6805
:1060B0005BB1B3F802B0986820B1FFF70FFF584406
:1060C0001FFA80FBDA441FFA8AFA5544ADB22E4417
:1060D000B6B23E44B7B2A588E688236A93F808A012
:1060E00041465868FEF7A6FF0190CDF800A0334660
:1060F0002A4639464846FFF7ABF82588A768EFB12E
:106100003E88BB68C3B1B3F800809B6893B1B3F815
:1061100000A09B685BB1B3F80090986820B1FFF7CE
:1061200099FE48441FFA80F9CA441FFA8AFAD044FB
:106130001FFA88F84644B6B23544ADB2A68805EBDE
:106140005605AEB26588EFB1B7F80280BB68BBB147
:106150005F889B688BB1B3F802A09B685BB1B3F812
:106160000290986820B1FFF7B9FE48441FFA80F901
:10617000D1441FFA89FA5744BFB2B8441FFA88F8CD
:106180004544ADB2E188236A1A6905EB5101E06923
:10619000029018680190DB680093122389B23046A0
:1061A00000F0C6FF05B0BDE8F08F00BF2DE9F04F4D
:1061B00083B045888368002B38D05C889B68002BAF
:1061C00032D05E889B686BB35F889B6843B3B3F83B
:1061D00002809B6813B3B3F802909B68DBB1B3F8FD
:1061E00002A09B68A3B1B3F802B09B686BB15A8858
:1061F0000192986828B1FFF7D9FF019A024493B23F
:106200000193019B9B441FFA8BFBDA441FFA8AFA25
:10621000D1441FFA89F9C8441FFA88F84744BFB22D
:106220003E44B6B23444A4B22544ADB2284603B0CD
:10623000BDE8F08F2DE9F04F83B005888368002B0F
:1062400038D01C889B68002B32D01E889B686BB3AB
:106250001F889B6843B3B3F800809B6813B3B3F8FF
:1062600000909B68DBB1B3F800A09B68A3B1B3F8C2
:1062700000B09B686BB11A880192986828B1FFF74B
:10628000D9FF019A024493B20193019B9B441FFAE8
:106290008BFBDA441FFA8AFAD1441FFA89F9C84401
:1062A0001FFA88F84744BFB23E44B6B23444A4B2A1
:1062B0002544ADB2284603B0BDE8F08F2DE9F04F7C
:1062C0008FB00446C37E002B00F02181C288066A8D
:1062D000B6F90E309A4200DAC38023880493A56889
:1062E000002D4FD02F88AB68002B47D0B3F800802B
:1062F0009B68002B40D0B3F800909B68002B38D0EF
:10630000B3F800A09B68002B30D0B3F800B09B68B6
:10631000002B28D01A8805929B6803B31A8806922E
:106320009B68BBB11A8807929B6873B11A88089260
:10633000986828B1FFF77EFF089A024493B2089349
:10634000079B089A13449BB20793069B079A134432
:106350009BB20693059B069A13449BB20593059B3B
:106360009B441FFA8BFBDA441FFA8AFAD1441FFAC6
:1063700089F9C8441FFA88F84744BFB2049B3B44DC
:106380009BB20493BDF910906788002D4FD0B5F8EB
:106390000280AB68002B48D05D889B68002B41D001
:1063A000B3F802A09B68002B3AD0B3F802B09B6808
:1063B000002B32D05A8805929B68002B29D05A882E
:1063C00006929B6803B35A8807929B68BBB15A88B0
:1063D00008929B6873B15A880992986828B1FFF7B0
:1063E000E5FE099A024493B20993089B099A134463
:1063F0009BB20893079B089A13449BB20793069B92
:10640000079A13449BB20693059B069A13449BB2CA
:106410000593059B9B441FFA8BFBDA441FFA8AFA0B
:106420005544ADB2A8441FFA88F84744BFB20FFAEA
:1064300087FAB4F90480B6F90E50336800932B46FE
:10644000424651464846FEF737FE236A1A7B9B6850
:10645000019300922B46424651464846FEF7F8FE0D
:10646000B4F91800B4F91420B4F916309A420AD0DD
:10647000801A4FF47A7101FB00F09B1A90FBF3F045
:1064800003F0BCF900E0002003F0D2FB00B2A388C7
:10649000266AB6F910B0CBEB030303FB00F38A487E
:1064A00080FB0320DB17C3EBA01003F0A7F903F078
:1064B000BFFB00B2317B73680093A5EB4103C1EBD6
:1064C0000B0251444844FEF7F7FDA37E002B00F079
:1064D00040810BAE0A223146B4F9180003F006FCE5
:1064E000236A9A6905EBD57507EB650508EBD87843
:1064F000049901EB680002964FF0FF3101915B694E
:1065000000931223A9B280B200F012FE21E182882A
:10651000066AB6F90E309A4200DA83802388049323
:10652000A568002D4FD02F88AB68002B47D0B3F85B
:1065300000809B68002B40D0B3F800909B68002B34
:1065400038D0B3F800A09B68002B30D0B3F800B06F
:106550009B68002B28D01A8805929B6803B31A8881
:1065600006929B68BBB11A8807929B6873B11A8820
:106570000892986828B1FFF75DFE089A024493B22A
:106580000893079B089A13449BB20793069B079AAC
:1065900013449BB20693059B069A13449BB2059342
:1065A000059B9B441FFA8BFBDA441FFA8AFAD144FD
:1065B0001FFA89F9C8441FFA88F84744BFB2049B00
:1065C0003B449BB20493BDF910906788002D4FD0D7
:1065D000B5F80280AB68002B48D05D889B68002B23
:1065E00041D0B3F802A09B68002B3AD0B3F802B0B8
:1065F0009B68002B32D05A8805929B68002B29D0CB
:106600005A8806929B6803B35A8807929B68BBB16D
:106610005A8808929B6873B15A880992986828B181
:10662000FFF7C4FD099A024493B20993089B099AA3
:1066300013449BB20893079B089A13449BB2079399
:10664000069B079A13449BB20693059B069A134434
:106650009BB20593059B9B441FFA8BFBDA441FFA00
:106660008AFA5544ADB2A8441FFA88F84744BFB22D
:106670000FFA87FAB6F90E50B4F906803368009322
:1066800043462A4651464846FEF716FD236A1A7BC2
:106690009B680193009243462A4651464846FEF7BE
:1066A000D7FDB4F91800B4F91420B4F916309A42A1
:1066B0000CD0801A4FF47A7101FB00F09B1A90FB0A
:1066C000F3F003F09BF802E0D34D6210002003F0DA
:1066D000AFFA00B2E388266AB6F910B0CBEB030339
:1066E000C0F57A7000FB03F31B4880FB0320DB1727
:1066F000C3EBA01003F082F803F09AFA01B2307BEA
:1067000073680093C0EB0B03A5EB4002514448446F
:10671000FEF7D2FCA37EE3B10BAE0A223146B4F9F8
:10672000180003F0E3FA236A9A6908EBD87807EBBC
:10673000680105EBD575049800EB650502964FF0EE
:10674000FF3001905B690093122389B2A8B200F078
:10675000EFFC0FB0BDE8F08FD34D621008B5437C5D
:106760001BB1037C0BB1FFF7A9FD08BD10B40023DA
:10677000038043808360C3600124047444744161D6
:106780000383C2614FF4487383804FF4F073C38076
:1067900010BC704700B583B08AB2694600F034F986
:1067A00003B05DF804FB00BF2DE9F04F83B04588CE
:1067B0008368002B38D05C889B68002B32D05E88C1
:1067C0009B686BB35F889B6843B3B3F802809B6898
:1067D00013B3B3F802909B68DBB1B3F802A09B68D7
:1067E000A3B1B3F802B09B686BB15A880192986864
:1067F00028B1FFF7D9FF019A024493B20193019B9C
:106800009B441FFA8BFBDA441FFA8AFAD1441FFA21
:1068100089F9C8441FFA88F84744BFB23E44B6B26B
:106820003444A4B22544ADB2284603B0BDE8F08F8D
:106830002DE9F04F83B005888368002B38D01C8881
:106840009B68002B32D01E889B686BB31F889B68A7
:1068500043B3B3F800809B6813B3B3F800909B6810
:10686000DBB1B3F800A09B68A3B1B3F800B09B689C
:106870006BB11A880192986828B1FFF7D9FF019A85
:10688000024493B20193019B9B441FFA8BFBDA44B1
:106890001FFA8AFAD1441FFA89F9C8441FFA88F806
:1068A0004744BFB23E44B6B23444A4B22544ADB26C
:1068B000284603B0BDE8F08F2DE9F04F85B00446BF
:1068C00007888568EDB12E88AB68C3B1B3F8008046
:1068D0009B6893B1B3F800A09B685BB1B3F80090DC
:1068E000986820B1FFF7A4FF48441FFA80F9D1440B
:1068F0001FFA89FAD0441FFA88F84644B6B23E44DB
:10690000B7B2B8466788DDB16E88AB68B3B15D8851
:106910009B688BB1B3F802A09B685BB1B3F802909F
:10692000986820B1FFF740FF48441FFA80F9D1442E
:106930001FFA89FA5544ADB22E44B6B23E44B7B2FE
:10694000A288E388E1690968009139464046FEF76C
:10695000B3FBE7693E7A002E53D0B4F80090A568E7
:1069600015B3B5F80080AB68DBB1B3F800A09B6845
:10697000A3B1B3F800B09B686BB11A880392986812
:1069800028B1FFF755FF039A024493B20393039B88
:106990009B441FFA8BFBDA441FFA8AFAD0441FFA91
:1069A00088F8C1441FFA89F9CDF80C90B4F8029028
:1069B000F5B1B5F80280AB68BBB15D889B688BB15F
:1069C000B3F802B09B685BB1B3F802A0986820B13D
:1069D000FFF7EAFE50441FFA80FAD3441FFA8BFBFC
:1069E0005D44ADB2A8441FFA88F8C1441FFA89F982
:1069F000A288E38879680191009649460398FEF7DA
:106A000027FC05B0BDE8F08F2DE9F04105460E46A4
:106A10001746437C9BB1FFF74FFF00230AE06A69EA
:106A200052F82320916809B1012048740121517462
:106A30000B449BB22A8B9342F1D300236B74002446
:106A400011E06B694FEA840853F82400037C1BB102
:106A5000C3683A46314698476B6953F808300022BC
:106A60005A740134A4B22B8B9C42EAD3BDE8F08166
:106A70002DE9F04F83B005888368002B38D01C883F
:106A80009B68002B32D01E889B686BB31F889B6865
:106A900043B3B3F800809B6813B3B3F800909B68CE
:106AA000DBB1B3F800A09B68A3B1B3F800B09B685A
:106AB0006BB11A880192986828B1FFF7D9FF019A43
:106AC000024493B20193019B9B441FFA8BFBDA446F
:106AD0001FFA8AFAD1441FFA89F9C8441FFA88F8C4
:106AE0004744BFB23E44B6B23444A4B22544ADB22A
:106AF000284603B0BDE8F08F2DE9F04F83B04588FC
:106B00008368002B38D05C889B68002B32D05E886D
:106B10009B686BB35F889B6843B3B3F802809B6844
:106B200013B3B3F802909B68DBB1B3F802A09B6883
:106B3000A3B1B3F802B09B686BB15A880192986810
:106B400028B1FFF7D9FF019A024493B20193019B48
:106B50009B441FFA8BFBDA441FFA8AFAD1441FFACE
:106B600089F9C8441FFA88F84744BFB23E44B6B218
:106B70003444A4B22544ADB2284603B0BDE8F08F3A
:106B80002DE9F04F89B08246038805938468DCB113
:106B90002588A368A3B11E889B687BB1B3F80080E9
:106BA0009B684BB11F88986818B1FFF761FF3844A4
:106BB00087B247441FFA87F84644B6B23544ADB2AF
:106BC000059B2B449BB20593BDF914300793BAF88B
:106BD0000260CCB16588A368A3B15C889B687BB177
:106BE000B3F802809B684BB15F88986818B1FFF7D3
:106BF00083FF384487B2B8441FFA88F84444A4B2EB
:106C00002544ADB23544AEB20FFA86F8DAF8243036
:106C10005B69B3F9063003EB43031FFA83F94FF0C6
:106C2000000B70E0BAF80640BAF80260DAF80830F3
:106C3000FBB15D889B68D3B15F889B68ABB15A8814
:106C400004929B6873B15A880692986828B1FFF73E
:106C500053FF069A024493B20693049B069A134488
:106C60009BB20493049B1F44BFB23D44ADB22E447B
:106C7000B6B23444474609EB08039C4247DBDAF8D6
:106C800024301D68BAF920205C465A4500D15D6861
:106C9000BAF8042000954B463946079E3046FEF769
:106CA0000BFABAF80420DAF82430197B9B680193B8
:106CB00000914B4639463046FEF7CAFABAF804004E
:106CC0001FFA88F8DAF82430DAF81460BAF81C20D1
:106CD00004FB02F45A6908EB5901059F07EB5000C9
:106CE0003459029401951B690093122389B280B232
:106CF00000F01EFAC84408F1FF380FFA88F80BF1CB
:106D0000010B1FFA8BFBBAF81A309B458AD309B0E6
:106D1000BDE8F08F10B4C488418B436A5B69B3F956
:106D2000063003FB01F202EB4202944200DAC28019
:106D300010BC704708B5437C0BB1FFF721FF08BDBD
:106D40002DE9F04F8DB004461D461B6800934FF4AB
:106D5000F0734FF4487200210846FEF7ADF9029433
:106D60002B6801932B6900930A23AA6900214FF431
:106D7000C87000F0DDF94FF000084FF0770BC14606
:106D800046464446F4E0CDF818B06B6800934823BB
:106D9000422259464846FEF78FF9EB6801930123DA
:106DA00000934923432259464846FEF751FA8C4B3B
:106DB00013F808308DF82C3000238DF82D301FFA91
:106DC00089F7584602F0B2FBCDE904010022854B59
:106DD00002F060FA02F038FC1FFA80FA07F1210095
:106DE0000BAB02936B6801932B6900931223EA6942
:106DF000514680B200F09CF907F142090FFA89F977
:106E00000136F6B224BB784B1B5D9E4220D36B68E3
:106E100000934823842206994846FEF74DF9EB6813
:106E20000193012300934923842206994846FEF7E3
:106E30000FFA07F184006D4B02936B6801932B6985
:106E400000931223EA69514680B200F071F978E0AC
:106E5000012C50D1644B1B5D9E424CD36B68009358
:106E600091236322069F39464846FEF725F9EB68D1
:106E70000193012300939123632239464846FEF78C
:106E8000E7F9A9F11F070022594BDDE9040102F0DF
:106E900001FACDE906010022564B02F0FBF902F09F
:106EA000ABFB6B6800934723212201463846FEF76F
:106EB00003F9484602F03AFB47A3D3E9002302F066
:106EC000E9F9CDE90801D5F81CA0DDE9060102F0D9
:106ED000BBFB87B2DDE9080102F0B6FB464B02932B
:106EE0006B6801932B69009312235246394680B296
:106EF00000F01EF925E0032C23D13B4B1B5D9E4285
:106F00001FD36B6800934823842206994846FEF7F6
:106F1000D3F8EB6801930123009349238422069957
:106F20004846FEF795F907F18400344B02936B68ED
:106F300001932B6900931223EA69514680B200F055
:106F4000F7F8294B1B5D9E420ED30134E4B204EBEB
:106F500044190022264BDDE9040102F09BF902F0FE
:106F60004BFB0FFA80FB002608F101080FFA88F8A6
:106F70001B4803F0C3F88045FFF405AF6B6800932E
:106F800048234FF4207259465020FEF795F8EB68DD
:106F900001930123009348234FF420725946502057
:106FA000FEF756F9584602F0C1FA00220D4B02F0E6
:106FB00071F9EC6902F048FB114B02936B68019385
:106FC0002B6900931223224681B24FF4C87000F05F
:106FD000AFF80DB0BDE8F08F0000000000C04840E1
:106FE00020F60000000042406CF6000048F6000069
:106FF000000052400000F03F54F600005CF6000034
:1070000064F6000008B5FFF79BFE4FF08052034B7B
:107010001A60BFF34F8FBFF36F8FF6E704ED00E008
:107020002DE9F04F83B005888368002B38D01C8889
:107030009B68002B32D01E889B686BB31F889B68AF
:1070400043B3B3F800809B6813B3B3F800909B6818
:10705000DBB1B3F800A09B68A3B1B3F800B09B68A4
:107060006BB11A880192986828B1FFF7D9FF019A8D
:10707000024493B20193019B9B441FFA8BFBDA44B9
:107080001FFA8AFAD1441FFA89F9C8441FFA88F80E
:107090004744BFB23E44B6B23444A4B22544ADB274
:1070A000284603B0BDE8F08F2DE9F04F83B0458846
:1070B0008368002B38D05C889B68002B32D05E88B8
:1070C0009B686BB35F889B6843B3B3F802809B688F
:1070D00013B3B3F802909B68DBB1B3F802A09B68CE
:1070E000A3B1B3F802B09B686BB15A88019298685B
:1070F00028B1FFF7D9FF019A024493B20193019B93
:107100009B441FFA8BFBDA441FFA8AFAD1441FFA18
:1071100089F9C8441FFA88F84744BFB23E44B6B262
:107120003444A4B22544ADB2284603B0BDE8F08F84
:107130002DE9F04F8DB00A900B9193460893DDF83E
:107140005CA0189802F0DAFF80B20022012307E069
:107150001899895C0A2901D101339BB2013292B29C
:107160008242F5D3089A12F0100F0DD05B42BBF9A2
:10717000062003FB02F202EBD27242F34F0200E060
:10718000002200230793E8E0089A12F0200FF7D0BE
:107190005B42BBF9062003FB02F212B2F1E70133B6
:1071A0009BB201E0079B1898C418C15C0A29F6D06D
:1071B0000D29F4D0079326460694BDF9289093B282
:1071C00009930B9A13440FFA83F80024254608E02C
:1071D000335D0A2B0AD00D2B08D00135ADB2013436
:1071E000A4B2304602F08AFF8442F1D30595089B91
:1071F00013F0020F0AD0BBF9043003FB05F303EBD5
:10720000D373A9EB63030FFA83F90AE0089B13F029
:10721000040F06D0BBF90430059A03FB12930FFA52
:1072200083F9002304937DE0069B049A9B5C019301
:10723000BBF9042012F0070318BF01231146002AEE
:1072400000DAD11D03EBE1039BB21A460293BBF9AE
:10725000063003FB02F39BB203934FF0000C53E0A4
:10726000DBF80070029B0CFB03F6019B039A02FB08
:107270000366002001463EE0C30800F00704BD1984
:10728000ED5C0123A3402B40234116D00EEB0803F5
:1072900019EB02022BD4002B29DBB2F5487F26DC48
:1072A000B3F5F07F23DC314C24684FF4486505FBCF
:1072B0000343169C43F8224019E00AF07F43B3F1E0
:1072C0007F4F14D00EEB080312EB09020FD4002BF2
:1072D0000DDBB2F5487F0ADCB3F5F07F07DC234C09
:1072E00024684FF4486505FB034343F822A00130AE
:1072F00080B2013189B20A46BBF904309942BBDB46
:107300000CF1010C1FFA8CFCE646BBF906309C45DB
:10731000A6DBBBF9043099440FFA89F9049B0133C9
:107320009BB20493059B049A93423FF67DAFBBF951
:107330000620099B13441AB2079B189801E00133F9
:107340009BB2C15C0A2905D00D2905D00029F6D1D0
:10735000079302E0079300E00793189B07995B5C93
:10736000002B7FF41FAF0DB0BDE8F08F9800001028
:10737000437C002B00F019812DE9F04F8DB00446BD
:1073800005888668002E6BD03788B368002B65D0DF
:10739000B3F800809B68002B5ED0B3F800909B6828
:1073A000002B56D0B3F800A09B68002B4ED0B3F84A
:1073B00000B09B68002B46D01A8805929B68002B72
:1073C0003DD01A8806929B68002B33D01A8807920A
:1073D0009B68002B29D01A8808929B6803B31A88EF
:1073E00009929B68BBB11A880A929B6873B11A888C
:1073F0000B92986828B1FFF713FE0B9A024493B2E0
:107400000B930A9B0B9A13449BB20A93099B0A9A0B
:1074100013449BB20993089B099A13449BB20893A7
:10742000079B089A13449BB20793069B079A134441
:107430009BB20693059B069A13449BB20593059B4A
:107440009B441FFA8BFBDA441FFA8AFAD1441FFAD5
:1074500089F9C8441FFA88F84744BFB23D44ADB229
:107460006788002E6BD0B6F80280B368002B64D01A
:107470005E889B68002B5DD0B3F802909B68002B60
:1074800056D0B3F802A09B68002B4ED0B3F802B0E0
:107490009B68002B46D05A8805929B68002B3DD0F4
:1074A0005A8806929B68002B33D05A8807929B68B3
:1074B000002B29D05A8808929B6803B35A880992F6
:1074C0009B68BBB15A880A929B6873B15A880B9229
:1074D000986828B1FFF7E8FD0B9A024493B20B932A
:1074E0000A9B0B9A13449BB20A93099B0A9A134472
:1074F0009BB20993089B099A13449BB20893079B7C
:10750000089A13449BB20793069B079A13449BB2B5
:107510000693059B069A13449BB20593059B9B44D7
:107520001FFA8BFBDA441FFA8AFAD1441FFA89F951
:107530004E44B6B2B0441FFA88F84744BFB294F83C
:10754000243013F0020F04D0A28805EB5205ADB22F
:1075500005E013F0040F02D0A2881544ADB213F079
:10756000100F04D0E38807EB5307BFB205E013F018
:10757000200F02D0E3881F44BFB2A288E388E169EC
:10758000009139462846FDF797FD94F8243062694A
:10759000216A0291E1690191A16900913946284669
:1075A000FFF7C6FD0DB0BDE8F08F704700207047B3
:1075B00010B400230EE003EB43018A0008498A5807
:1075C000824205D103EB4304A3000846184404E0BB
:1075D00001339BB2052BEED9002010BC704700BFD1
:1075E00000F7000000B585B00023009301930291DD
:1075F00003906846FDF712FB6846FCF781FC28B152
:107600000020FCF7FDFC6846FCF77AFC05B05DF84D
:1076100004FB00BF08B5FCF74BFDB0FA80F0400951
:1076200008BD00BF10B582B000248DF8074006E009
:10763000A2B201210DF10700FCF7A4FB013440F6D2
:10764000BB739C42F4DD02B010BD00BF70B582B0C8
:10765000012A03D81048FCF7B5FE1AE01E6806F1AF
:1076600020469D6829460D48FCF7ACFE0C48FCF707
:10767000A9FE002408E0335D8DF807309DF807105F
:107680000848FCF79FFE0134A542F4D80648FCF7F1
:1076900099FE02B070BD00BF58F800006CF8000001
:1076A00080F8000088F8000028A4000008B506480B
:1076B000FCF788FE054BDB680BB101225A740122EE
:1076C000024B5A7508BD00BF90F800003C32001014
:1076D00070B5022A03D80A48FCF774FE70BD1C6816
:1076E00004F120449D681E7C2A463146204602F063
:1076F000D9FB2346324629460248FCF763FE70BD9B
:10770000ACF80000C0F80000F8B500AF6D46022AE2
:1077100003D80E48FCF756FE16E01E881C89E21DB1
:1077200022F00702ADEB020D2246197C684602F0FA
:10773000B9FB324621466846FCF724FB20F07F4126
:107740000348FCF73FFEAD46BD46F8BDECF800002F
:1077500008F900002DE9F04100AFE846012A03D8FE
:107760001148FCF72FFE1CE01D89EA1D22F00702DC
:10777000ADEB020D6E461A8829466846FCF754FBAD
:107780000A48FCF71FFE002405E0315D0848FCF7BD
:1077900019FE0134A4B2AC42F7D30648FCF712FE3E
:1077A000C546BD46BDE8F08158F8000080F80000ED
:1077B00018F9000028A4000038B50446012A12D99F
:1077C0001D460B49986802F0BBFB48B92B68204660
:1077D00020F8043F40F6BC720221FCF7D3FA02E025
:1077E0000448FCF7EFFDA1880348FCF7EBFD38BD2A
:1077F0001CF9000028F900003CF900002DE9F041D7
:1078000082B0042A03D82B48FCF7DCFD4FE01C466D
:10781000052A35D92849986A02F092FB80BB206876
:1078200001F0ECFF254902F0F1F8254902F03AF8A1
:1078300002F024FA0546A06801F0E0FF1F4902F0BB
:10784000E5F8204902F02EF802F018FA0646206901
:1078500001F0D4FF194902F0D9F8194902F022F8D1
:1078600002F00CFA0746A06901F0C8FF134902F0C4
:10787000CDF8144902F016F802F000FA804604E050
:107880002568A6682769D4F81880236A0193CDF883
:1078900000803B46324629460B48FCF793FD236A9D
:1078A000009343463A4631462846FDF705FC02B0B0
:1078B000BDE8F08148F9000064F900000000C8420A
:1078C000000048440000F04368F900002DE9F04151
:1078D00084B0052A03D83648FCF774FD64E01C46E2
:1078E000062A46D93349186B02F02AFB002840D1FA
:1078F000206801F083FF304902F088F82F4901F039
:10790000D1FF02F0BBF90546A06801F077FF2A49D4
:1079100002F07CF82A4901F0C5FF02F0AFF90646F3
:10792000206901F06BFF244902F070F8234901F04F
:10793000B9FF0746284601F05DFF0146384601F0D1
:10794000A7FE02F09BF90746A06901F057FF1A490C
:1079500002F05CF81A4901F0A5FF8046304601F0BC
:1079600049FF0146404601F093FE02F087F9804648
:1079700004E02568A6682769D4F81880A36A226AFB
:1079800002920193CDF800803B46324629460D48CD
:10799000FCF718FD236AA26A0192009343463A4617
:1079A00031462846FDF754FC04B0BDE8F08100BF25
:1079B00048F9000064F900000000C8420000484493
:1079C0000000F043A4F9000010B51C8842B11B79F7
:1079D000012B05D1642C00D96424E0B200F022FB15
:1079E00021460248FCF7EEFC10BD00BFF0F9000094
:1079F00008B5FFF717FE0248FCF7E4FC08BD00BF1E
:107A000000FA000070B51AB90D48FCF7DBFC70BD38
:107A10001D46022A01D92E8A00E00126002405E035
:107A2000A9682868FFF7DEFD0134A4B2A642F7D8A2
:107A30003346AA6829680348FCF7C4FC70BD00BF40
:107A400010FA000024FA0000F0B58BB000242146A3
:107A500006A8FFF7DFFD50B30998FFF7A9FD05461B
:107A6000BDF818209DF81AE09DF81B109DF81C0029
:107A70009DF81D609DF81E706B6804930397029635
:107A800001900091734621460A48FCF79BFCA868C8
:107A900002F034FB28B1089AA9680748FCF792FC69
:107AA00002E00648FCF78EFC0134A4B2CFE70BB02D
:107AB000F0BD00BF44FA000060FA000028A40000F6
:107AC00008B51AB90648FCF77DFC08BD19680329FA
:107AD00004DCC9B200F5C87000F0B6FC08BD00BFF8
