:1020000060FF001061210000A9500000BD500000D9
:10201000D1500000E5500000F95000000000000021
:10202000000000000000000000000000C15100009E
:102030002521000000000000215200006552000030
:102040003121000031210000312100003121000048
:1020500031210000654D00003121000031210000D8
:102060003121000031210000312100003121000028
:10207000312100000D51000031210000312100000C
:102080003121000031210000312100003121000008
:1020900031210000312100003121000031210000F8
:1020A00031210000312100003121000031210000E8
:1020B00031210000312100003121000031210000D8
:1020C00031210000312100003121000031210000C8
:1020D0003121000031210000B14100003121000018
:1020E00031210000B8C20000800000108400000010
:1020F000B8C200000000002000000000080100102D
:10210000C02E00000000002000000000FEE700BF1D
:10211000FEE700BFFEE700BFFEE700BFFEE700BF2F
:10212000FEE700BFFEE700BFFEE700BFFEE700BF1F
:10213000FEE700BF10B4002304E004680C60043321
:10214000043004319342F8D310BC7047002303E0FD
:1021500000220260043304308B42F9D3704700BF81
:1021600010B50E4B07E003F10C049A685968186823
:10217000FFF7E0FF23460A4A9342F4D306E01C46E9
:10218000596854F8080BFFF7E1FF2346054A9342CC
:10219000F5D304F0ADFB00F095FBFEE7E420000072
:1021A000FC2000000C21000030B400F120040023CA
:1021B000038043808380C3808360224AC2600374AB
:1021C00001224274446103831F4BC3618C88CB8816
:1021D0008480C3808160027401B14A740122427418
:1021E0004C690B8B9D180D8344F82300174BC36378
:1021F000174B4364122380F848304FF47F03036485
:102200000023038543858385C3850363114C4463A1
:1022100080F8383080F8392000F128048D88CB8888
:102220008585C385016380F8382001B14A74012394
:1022300080F839304A690B8B581C088342F82340D8
:1022400030BC7047AD30000070B20000687E000006
:10225000C07000009D2B000008B589B200F026FF79
:1022600008BD00BF30B400F1200400220280234BDF
:10227000C3600123437444610283214AC2614FF465
:10228000D87242804FF4487282803022C2808160CE
:10229000037401B14B74012343744C690A8BD51844
:1022A0000D8344F82200174AC265174A4266142279
:1022B00080F868206FF07F4202660022A0F84A2072
:1022C000124A426580F8593000F1480182886E3A1E
:1022D000C488A0F848206422A0F84C20A0F84E4002
:1022E000006580F8583000B143744269038B5C1C70
:1022F000048342F8231030BC704700BFAD300000AB
:102300007CB20000687E0000C07100009D2B0000C0
:1023100008B589B200F0CAFE08BD00BF00207047B2
:1023200070B582B01AB9134801F028F820E01146C0
:102330001D6805F12055AD00022A01D19E6800E01C
:1023400001260A4631460C4801F018F80B4801F006
:1023500015F8002407E055F8243001930199084846
:1023600001F00CF80134A642F5DC064801F006F84D
:1023700002B070BDD8720000EC7200000073000063
:10238000087300009CBD000010B50446054800F02D
:10239000F5FFD4F870320BB101225A74012384F88E
:1023A000793210BD1073000070B5012A03D80D48B2
:1023B00000F0E4FF70BD1E689C6804F12054A40086
:1023C000032A01D11D6900E00125AA0031462046FB
:1023D00004F0CBFD234632462946034800F0CEFFE9
:1023E00070BD00BF2C73000048730000F8B500AF4B
:1023F0006D46012A03D8114800F0C0FF1BE01968A0
:102400001E89022A01D91C8A00E00124E31D23F061
:102410000703ADEB030D2246C9B2684604F0A5FDE3
:1024200032462146684601F091FC20F07F41044885
:1024300000F0A4FFAD46BD46F8BD00BF2C73000000
:1024400074730000F8B500AF1C46012A02D810488A
:1024500000F094FF2589EB1D23F00703ADEB030D7E
:102460006E4622882946684601F03AFC094800F089
:1024700085FF002405E0315D074800F07FFF01344F
:10248000A4B2AC42F7D3054800F078FFBD46F8BDD2
:102490008473000000730000987300009CBD00006E
:1024A0002DE9F04182B0042A03D82B4800F066FFE2
:1024B0004FE01C46052A35D92849986A04F05DFD8D
:1024C00080BB20684FF4487700FB07F004F008FB5E
:1024D000234904F00DFC04F01DFD0546A368C3EB81
:1024E0000313580104F0FCFA1D4904F001FC04F048
:1024F00011FD0646206900FB07F004F0F1FA1849C7
:1025000004F0F6FB04F006FD0746A369C3EB0313D2
:10251000580104F0E5FA124904F0EAFB04F0FAFC71
:10252000804604E02568A6682769D4F81880236AE5
:102530000193CDF800803B4632462946094800F019
:102540001DFF236A009343463A463146284601F070
:10255000BDFE02B0BDE8F0819C730000B8730000BE
:102560000000C842BC7300002DE9F04184B0052A88
:1025700003D8364800F002FF64E01C46062A46D91C
:102580003349186B04F0F9FC002840D120684FF45F
:10259000487707FB00F004F0A3FA2E4904F0A8FBEB
:1025A00004F0B8FC0546A368C3EB0313580104F01C
:1025B00097FA284904F09CFB04F0ACFC064620691D
:1025C00007FB00F004F08CFA224904F091FB074667
:1025D000284604F081FA0146384604F0CBF904F0AD
:1025E00099FC0746A369C3EB0313580104F078FA7A
:1025F000184904F07DFB8046304604F06DFA014630
:10260000404604F0B7F904F085FC804604E02568F4
:10261000A6682769D4F81880A36A226A02920193F7
:10262000CDF800803B46324629460B4800F0A6FE16
:10263000236AA26A0192009343463A4631462846ED
:1026400001F0F8FE04B0BDE8F08100BF9C7300000B
:10265000B87300000000C842F873000038B51AB122
:1026600005461A79012A03D0084800F087FE38BDD4
:102670001C88642C00D964242146054800F07EFEA5
:10268000E1B2284600F0C6F838BD00BF447400002F
:102690006474000011207047F8B504460026A0F8C5
:1026A000666200F51A751E4F3A4600F522712846FB
:1026B00000F0CEF904F52C72A4F89062A4F89262AE
:1026C000184BC4F89C32012384F8A132C4F8A42228
:1026D000A4F8A862C4F8AC7204F524714FF44872EF
:1026E000A4F894224FF4D872A4F89622C4F8985211
:1026F00084F8A0320DB184F87932D4F87C22B4F891
:102700008032581CA4F8800242F8231004F52E7081
:10271000FFF74AFD294604F54170FFF7A3FDF8BD18
:1027200070B20000AD30000010B5044600F519701D
:10273000FFF7B2FF6423A4F8643210BD70B50446FD
:10274000B4F86402B4F86652401B42F21073984227
:1027500003DC2A4B984203DB03E042F2107000E0F6
:10276000264804F0BDF9264904F00EFA064628462C
:1027700004F0B6F9314604F0FFF804F0CBFB80B268
:10278000A4F8660204F0A8F91E4904F0B1FA1E4943
:1027900004F0FAF901461C4804F0ECF804F0BAFB26
:1027A00085B2284604F09CF9174904F09FFB08B154
:1027B0004FF47A75284604F093F90146124804F064
:1027C000D9F804F0A7FB114B18607F22203B1A6553
:1027D00000220F4B1A60142104F51A7000F050F912
:1027E000142104F52E70FFF737FD142104F5417014
:1027F000FFF78EFD142002F091F8A1E7F0D8FFFF5B
:10280000CDCCCC3D00FF7F4700007A442040014002
:102810005C2E001010B50446642900D964210846D6
:1028200004F05EF9054904F063FA054904F0ACF9D7
:1028300004F070FBA4F8640210BD00BF0000C842A1
:1028400000FF7F4710B5044602F048F9142100202C
:1028500000F0DEFD1421601801F06AF82368132BE4
:1028600003D9143B2360002303E04FF0FF332360C0
:1028700001232BB1044801F07DFC4FF47A732360EF
:10288000142002F04BF8DFE71F00004070B504464B
:10289000051D00F55C763146284601F02BFE084BFD
:1028A000186030B12046FFF73FFF3146284601F05F
:1028B000D1FE2046FFF7F0FE4FF47A73236070BD1F
:1028C0005C2E001030B587B01F214FF0FF3002F0B2
:1028D000BFFB1E21052002F0BBFB0021294801F0AF
:1028E000CFFC01F0B7FF0024274B1C607F22203B68
:1028F0001A65264B1C6001F0BDF9204602F038FA3B
:1029000001F0A6FA01F0FEFCFFF7C4FE01462048E4
:1029100002F0ACF81F4D284602F00AFB204600F0FA
:1029200053FDFFF7FBFC01940094234682B21A4941
:1029300005F1140000F07EFF2846FFF7A7FF04947E
:10294000039402940194022300932B464FF4807267
:102950001249134803F010F904940394029401946B
:10296000012300932B464FF400720E490E4803F0EA
:1029700003F90E4800F002FD03F080F9204607B08D
:1029800030BD00BF1F000040204001405C2E001001
:10299000C8710000E82A0010C87100002C7E0000F9
:1029A00045280000387E00003D2700003C7E0000E6
:1029B00008B5024800F0E2FC08BD00BF487E0000F8
:1029C00008B511461A4600F5C670FFF7F1FF08BDBD
:1029D00008B511461A4600F5D270FFF7E9FF08BDA9
:1029E00008B511461A4600F50170FFF7E1FF08BD72
:1029F00008B511461A4600F50770FFF7D9FF08BD64
:102A000008B511461A4600F5DE70FFF7D1FF08BD84
:102A100008B511461A4600F5F670FFF7C9FF08BD64
:102A200008B511461A4600F5EA70FFF7C1FF08BD68
:102A300008B511461A4600F50D70FFF7B9FF08BD3D
:102A400008B511461A4600F51370FFF7B1FF08BD2F
:102A500010B40023038043808360084CC460037477
:102A60000124447441610383C2614FF4487383803D
:102A70004FF4F073C38010BC704700BFAD3000004E
:102A800008B589B200F012FB08BD00BF2DE9F04F78
:102A900083B005888368002B38D01C889B68002B86
:102AA00032D01E889B686BB31F889B6843B3B3F812
:102AB00000809B6813B3B3F800909B68DBB1B3F858
:102AC00000A09B68A3B1B3F800B09B686BB11A88F3
:102AD0000192986828B1FFF7D9FF019A024493B296
:102AE0000193019B9B441FFA8BFBDA441FFA8AFA7D
:102AF000D1441FFA89F9C8441FFA88F84744BFB285
:102B00003E44B6B23444A4B22544ADB2284603B024
:102B1000BDE8F08F2DE9F04F83B045888368002B26
:102B200038D05C889B68002B32D05E889B686BB382
:102B30005F889B6843B3B3F802809B6813B3B3F814
:102B400002909B68DBB1B3F802A09B68A3B1B3F815
:102B500002B09B686BB15A880192986828B1FFF760
:102B6000D9FF019A024493B20193019B9B441FFA3F
:102B70008BFBDA441FFA8AFAD1441FFA89F9C84458
:102B80001FFA88F84744BFB23E44B6B23444A4B2F8
:102B90002544ADB2284603B0BDE8F08F437C002B3E
:102BA00000F050812DE9F04F87B004460390C069D2
:102BB00004F0EDF980B20022012307E0E169895CAD
:102BC0000A2901D101339BB2013292B28242F5D37C
:102BD000039C6069B0F9062002FB03F292B2E1881F
:102BE0008A4200D9E280039C94F8202012F0100F52
:102BF00011D06188E788B0F9062002FB03F303EBEC
:102C0000D37301EB5707A7EB63031FB200E0002764
:102C1000002304930CE112F0200FF8D0039C61888C
:102C2000E288B0F906700A4407FB13231FB2EFE7EE
:102C300001339BB200E0049BD018D15C0A29F7D085
:102C40000D29F5D004930290039A15889668EEB189
:102C5000B6F80080B368BBB1B3F800909B6883B14D
:102C6000B3F800A09B684BB11C88986818B1FFF7B7
:102C70000DFF204484B2A2441FFA8AFAD1441FFAFD
:102C800089F9C8441FFA88F84544ADB22DB2039BB8
:102C9000B3F80280E6B1B6F80290B368ABB15E88D3
:102CA0009B687BB1B3F802A09B684BB15C889868C5
:102CB00018B1FFF72FFF204484B2A2441FFA8AFA0A
:102CC0005644B6B2B1441FFA89F9C8441FFA88F8CD
:102CD000BBB2059303EB080636B2039AB2F8049030
:102CE0005469976992F820A04FF00008DDF808B009
:102CF000009646460BE01BF808300A2B0CD00D2B33
:102D00000AD00136B6B208F101081FFA88F8584611
:102D100004F03DF98045EED332460196009E1AF04C
:102D2000020F0BD0B4F9043003FB02F303EBD373AF
:102D300005EB5905A5EB63031DB209E01AF0040F7A
:102D400006D0B4F904304D44019A03FB12552DB25C
:102D50000023009350E0029B009A13F80280B4F91C
:102D60000620B4F9043003FB02F39C46002B01DA81
:102D700003F1070C13F0070318BF012303EBEC0367
:102D80001FFA83FC0021894629E023684FEAD10B12
:102D900001F007000CFB083313F80BB0012383404C
:102DA0000BEA030303410BD0AE4406EB0A00264BAB
:102DB000D3F800B04FF4486303FB00B343F82E7020
:102DC000013189B2013292B200E000229646B4F994
:102DD00004309A42D9DB09F101091FFA89F9CA4680
:102DE000B4F906309945F0DBB4F904301D442DB236
:102DF000009B01339BB20093019B009A9342AAD897
:102E000003994B69B3F90670059B3B441FB2049BC1
:102E100001E001339BB2CA69D25C0A2A05D00D2AAF
:102E200005D0002AF5D1049302E0049300E0049356
:102E3000039BDA69049BD35C002B7FF4FCAE07B0E4
:102E4000BDE8F08F704700BF800000102DE9F04F03
:102E500083B045888368002B38D05C889B68002B42
:102E600032D05E889B686BB35F889B6843B3B3F8CE
:102E700002809B6813B3B3F802909B68DBB1B3F890
:102E800002A09B68A3B1B3F802B09B686BB15A88EB
:102E90000192986828B1FFF7D9FF019A024493B2D2
:102EA0000193019B9B441FFA8BFBDA441FFA8AFAB9
:102EB000D1441FFA89F9C8441FFA88F84744BFB2C1
:102EC0003E44B6B23444A4B22544ADB2284603B061
:102ED000BDE8F08F2DE9F04F83B005888368002BA3
:102EE00038D01C889B68002B32D01E889B686BB33F
:102EF0001F889B6843B3B3F800809B6813B3B3F893
:102F000000909B68DBB1B3F800A09B68A3B1B3F855
:102F100000B09B686BB11A880192986828B1FFF7DE
:102F2000D9FF019A024493B20193019B9B441FFA7B
:102F30008BFBDA441FFA8AFAD1441FFA89F9C84494
:102F40001FFA88F84744BFB23E44B6B23444A4B234
:102F50002544ADB2284603B0BDE8F08F2DE9F04F0F
:102F600085B0044607888568EDB12E88AB68C3B18B
:102F7000B3F800809B6893B1B3F800A09B685BB185
:102F8000B3F80090986820B1FFF7A4FF48441FFAF7
:102F900080F9D1441FFA89FAD0441FFA88F84644D0
:102FA000B6B23E44B7B2B8466788DDB16E88AB684A
:102FB000B3B15D889B688BB1B3F802A09B685BB12D
:102FC000B3F80290986820B1FFF740FF48441FFA19
:102FD00080F9D1441FFA89FA5544ADB22E44B6B2F5
:102FE0003E44B7B2A288E388E16909680091394696
:102FF000404601F06BF9E7693E7A002E53D0B4F8F1
:103000000090A56815B3B5F80080AB68DBB1B3F8E4
:1030100000A09B68A3B1B3F800B09B686BB11A889D
:103020000392986828B1FFF755FF039A024493B2C0
:103030000393039B9B441FFA8BFBDA441FFA8AFA23
:10304000D0441FFA88F8C1441FFA89F9CDF80C90D2
:10305000B4F80290F5B1B5F80280AB68BBB15D88F9
:103060009B688BB1B3F802B09B685BB1B3F802A068
:10307000986820B1FFF7EAFE50441FFA80FAD34463
:103080001FFA8BFB5D44ADB2A8441FFA88F8C14417
:103090001FFA89F9A288E388796801910096494668
:1030A000039801F0C7F905B0BDE8F08FF8B5054603
:1030B0000E46437C9BB1FFF751FF00230AE06A698B
:1030C00052F82320916809B10120487401215174FC
:1030D0000B449BB22A8B9342F1D300236B740024E0
:1030E0000EE06B69A70053F82400037C13B1C3689A
:1030F000314698476B69DB5900225A740134A4B2F7
:103100002B8B9C42EDD3F8BD08B528B10268117035
:1031100002680132026008BD084601F029FC08BDC2
:103120002DE9F04107460E46151E05DC4FF020083C
:1031300014E00131013201E00A4600211078002834
:10314000F7D1A94201DA6D1A00E0002513F0020F51
:1031500002D14FF0200801E04FF0300813F0010FCA
:1031600008D000240FE041463846FFF7CDFF013478
:10317000013D00E00024002DF5DC04E03846FFF7B7
:10318000C3FF0134013631780029F7D105E041460B
:103190003846FFF7B9FF0134013D002DF7DC20462A
:1031A000BDE8F081F0B585B005460C9E59B93023D5
:1031B0008DF8043000238DF805300B9B0A9A01A985
:1031C000FFF7AEFF40E0084633B10A2A06D10029D6
:1031D00006DA4842012704E0002702E0002700E069
:1031E000002704AC002304F8013D0DE0B0FBF2F32E
:1031F00002FB1303092B02DDA6F13A010B44303325
:1032000004F8013DB0FBF2F00028EFD1A7B10A9B12
:1032100063B10B9B13F0020F08D02D212846FFF756
:1032200073FF0A9B013B0A93012606E02D2304F855
:10323000013C013C002600E000260B9B0A9A214637
:103240002846FFF76DFF304405B0F0BDF0B587B0FC
:1032500006460C461F46002583E0252B7BD1621CC9
:103260006378002B00F08180252B73D02D2B02D1A9
:10327000A21C012300E00023144602E0013443F0C5
:1032800002032278302AF9D0002205E002EB820204
:1032900050003039421801342178A1F13000C0B219
:1032A0000928F3D9732908D13968043701B932499B
:1032B0003046FFF735FF054452E0642901D0692903
:1032C0000CD13968043761200290019300920123E8
:1032D0000A223046FFF766FF054441E078290CD109
:1032E0003968043761200290019300920023102274
:1032F0003046FFF757FF054432E058290CD13968B2
:10330000043741200290019300920023102230469E
:10331000FFF748FF054423E075290CD139680437CD
:10332000612002900193009200230A223046FFF7A9
:1033300039FF054414E0632912D1397804378DF838
:10334000141000218DF8151005A93046FFF7E8FE8E
:10335000054405E0144621783046FFF7D5FE0135D7
:1033600001342378002B7FF478AF16B13368002244
:103370001A70284607B0F0BD88B200000FB400B53F
:1033800083B004AB53F8041B01934FF0FF320020CD
:10339000FFF75CFF03B05DF804EB04B0704700BFBB
:1033A000012803D80020064B1860704710B5054C63
:1033B000034B1C60204600F071FE204610BD00BF8C
:1033C0005C2E00100100000238B50446FFF7E8FF4C
:1033D00020B12046FFF7E4FF054613E005460A4CFE
:1033E00010230322214604F1300001F0A7FD102331
:1033F000032204F1480104F1780001F09FFD00224E
:10340000024B1A60284638BD080100105C2E0010DF
:1034100010B50446FFF7C4FF20B12046FFF7C0FFF8
:10342000034603E003460021014A1160184610BD1F
:103430005C2E001010B50446FFF7B2FF20B1204605
:10344000FFF7AEFF034603E003460021014A116087
:10345000184610BD5C2E001010B50446FFF7A0FF03
:1034600020B12046FFF79CFF034603E003460021FE
:10347000014A1160184610BD5C2E001008B50248C4
:1034800001F094FD08BD00BF380100100020014B81
:10349000186070475C2E001070B4002310E0D0F864
:1034A000305103EB4306B4002E192C5B8C4206D13D
:1034B000F47814F0C00F08D1B478944205D00133E9
:1034C000B0F83441A342EAD30026304670BC7047BE
:1034D00030B585B09DF820400025019503958DF805
:1034E00000204A788DF801208A788DF80220CA7869
:1034F0008DF80320027E02F5B062029208228DF858
:103500000C2053B916E01A1DE95C0DF1100E72443F
:1035100002F8101C0133DBB201E01D460023A34278
:10352000F1D307E01A1D04A90A44002102F8101C77
:103530000133DBB2032BF5D9694690F85C01FFF744
:103540008BFF05B030BD00BF00B585B080238DF87E
:1035500000304B788DF801308B788DF80230CB78C5
:103560008DF803308DF80420C2F307238DF8053061
:10357000C2F307438DF80630120E8DF80720037E44
:103580008033029308238DF80C30694690F85C0173
:10359000FFF762FF05B05DF804FB00BF10B582B015
:1035A000019283788B420AD30B464468C07800F0BE
:1035B0003F00024601A900FB034003F0CBFC02B030
:1035C00010BD00BF83788B420DD310B582B0446824
:1035D000C37803F03F031A4603FB014101A803F03F
:1035E000B9FC019801E00020704702B010BD00BF97
:1035F0002DE9F04385B006460C464F7891F80290CD
:1036000007EB092194F80380424689B2FFF744FF93
:1036100028B97C4A21463046FFF796FFEEE0054682
:103620002378402B3AD1037A13F0010F05D1764A63
:1036300021463046FFF788FFE0E0C27812F0C00F65
:1036400024D0B8F1000F18D0837898450FD808F12E
:10365000FF3189B2FFF7B6FF04AB43F8040D042233
:103660000092422221463046FFF732FFC6E0654A0B
:1036700021463046FFF768FFC0E001230093831C1A
:10368000422221463046FFF723FFB7E0436800920D
:10369000422221463046FFF71BFFAFE02F2B06D01A
:1036A0002B2B04D0232B02D0222B40F0A2802B7A8C
:1036B00013F0020F00F0978007EB092741F2030394
:1036C0009F422BD1B8F1000F28D196F86831B6F897
:1036D0006421D6F8601106F5B07001F02FFC0023CC
:1036E0008DF80C3007E06B68002199549DF80C3080
:1036F00001338DF80C309DF80C20A978EB7803F09D
:103700003F0303FB01F39A42EDDB0123009303AB7C
:10371000602221463046FFF7DBFE6FE0EB7813F0C6
:10372000C00F1CD0B8F1000F04D008F1FF33AA7805
:10373000934205DB354A21463046FFF705FF5DE041
:1037400008F1FF31626889B22846FFF727FF0AE0D7
:103750006A68191D615CD1540133DBB200E00023BB
:10376000EA789342F4D30023009360222146304646
:10377000FFF7AEFE6378A27803EB022341F210025A
:10378000934213D1E378012B10D16B681A78732A16
:103790000CD15A78612A09D19A78762A06D1DA783A
:1037A000652A03D100221A6000F0C8FF6378A2786E
:1037B00003EB022341F2110293421FD1E378012B64
:1037C0001CD16B681A786C2A18D15A786F2A15D1D7
:1037D0009A78612A12D1DA78642A0FD100221A600D
:1037E00000F0E0FF0AE00A4A21463046FFF7ACFE4F
:1037F00004E0084A21463046FFF7A6FE05B0BDE8C2
:10380000F08300BF0000020601000106000001066F
:10381000020001060100040500B583B0C27802F081
:103820003F02416801A803F095FB019803B05DF8E1
:1038300004FB00BF30B585B004461846099DC4F8A6
:103840003011A4F834217F2384F83831089BC4F860
:103850003C31C4F8405184F85C0100234FF0FF3242
:103860001946FFF7E7FD00234FF0FF32217E94F861
:103870005C01FFF7DFFD00234FF0FF324FF4C06122
:1038800094F85C01FFF7D6FD217E00234FF0FF3254
:1038900001F5C06194F85C01FFF7CCFD3DB1002358
:1038A0006FF0FF02802194F85C01FFF7C3FD002355
:1038B0004FF0FF32D4F8E01094F85C01FFF7BAFD46
:1038C00000234FF0FF32D4F8E81094F85C01FFF7C2
:1038D000B1FD04231A4604F1080104F5B07001F0AB
:1038E0002DFB0025A560E560256165612571A38C30
:1038F000C4F87431009501950395237E03F5E063C8
:10390000029301238DF80C30694694F85C01FFF7AF
:10391000A3FD024B1D60284605B030BD5C2E001093
:1039200080F838110020014B186070475C2E0010A1
:1039300090F83831042B03D10020B44B1860704745
:103940002DE9F04F89B08946054604A990F85C013D
:10395000FFF794FDAD4B1860002840F0BE80297E33
:10396000069A02F07F03994201D0002B73D122F016
:103970007F03802B4BD0B3F5C06F02D0002B6AD1F0
:103980000CE09DF81C30072B65D995F83831042BD5
:1039900061D004A92846FFF72BFE5CE09DF81130AA
:1039A0002A7E934201D0002B55D19DF81030802BF8
:1039B00014D004D8012B07D0022B0AD04BE0812B66
:1039C00011D0822B13D046E005212846FFF7A8FF2F
:1039D00041E004212846FFF7A3FF3CE07F21284671
:1039E000FFF79EFF37E0002000F080FF33E095F8FE
:1039F0005C31B5F83421D5F840110191D5F83C116E
:103A00000091D5F830112846FFF714FF23E095F810
:103A10003831042B1FD0D5F84041E4B19DF81C305B
:103A2000082B18D102F07F0285F84421BDF8103030
:103A3000A5F84631BDF81230A5F84831BDF814306C
:103A4000A5F84A31BDF81630A5F84C3101F026FB37
:103A500005F5A271A04795F83831052B3DD139E025
:103A6000A6B2002206F5A0512846FFF715FD70B357
:103A70000021FFF7A7FD069B984228D1002206F5FA
:103A8000B0512846FFF708FD804630B30026344683
:103A90001AE021464046FFF795FDF0B1C0F3C40A95
:103AA0005FFA8AF7C0F30722010C2846FFF7F4FCFF
:103AB00098B1D8F8041052463144406803F04AFAED
:103AC0003E44F6B20134E4B2072CE2D905E00134F9
:103AD000E4B200E00024012CC2D9D5F87431994534
:103AE00005D8C9EB0303C5F87431002304E04FF097
:103AF000FF33C5F874310123E3B195F838112B7EFB
:103B000003F5E06300220492059207928DF81010ED
:103B1000069301238DF81C3095F85C01FFF7B6FC85
:103B2000052804D104A995F85C01FFF795FCAB8C3E
:103B3000C5F8743195F83831052B00F08E800020DF
:103B4000324B186090E03E4607EB870305EB83039A
:103B50005B6C002B7EDB069307EB870305EB83038F
:103B60009B6CFF2B76D107EB870305EB83031A6D64
:103B70004A441A655B6D9A426CD307EB870205EBEA
:103B80008202002313651C469A4659E0D0460AEB90
:103B9000C603203335F8231039B90AEBC6032033A6
:103BA00005EB83039B78002B4DD008EBC603203335
:103BB00005EB830393F802B05A462846FFF76CFCE6
:103BC00018B92320114B18604EE0C27812F0C00FD4
:103BD00006D00BF1FF3189B2FFF7F4FC039002E04D
:103BE000FFF71AFE039008EBC603203305EB8303AF
:103BF000DB782344082B06DD08EBC603203305EBF6
:103C000083030022DA7000220EE000BF5C2E001059
:103C1000631C08A9114411F8141C08A8044404F8F2
:103C2000101C0132D2B2DCB208EBC603203305EB24
:103C30008303DB789A42EBD30AF1010A5FFA8AFA2E
:103C4000BAF1070FA2D98DF81C4004A995F85C01C0
:103C5000FFF702FC0137FFB200E00027022F7FF6DA
:103C600072AF0020024B186009B0BDE8F08F00BFB2
:103C70005C2E001030B5154900208861144B1B687C
:103C8000144AA2FB0342D20B013A4A61C3EB03126E
:103C9000520A114CA4FB0225C3EBC302C3EBC202C0
:103CA000520AA4FB02E2D209120242EAD51203EB45
:103CB0008303C3EBC3035B0AA4FB0343DB0942EAB0
:103CC00003430B61054B186030BD00BF800020002E
:103CD00098000010819F5E16834B04005C2E00103C
:103CE0005318B3F57C6F03DD1548164B1860704709
:103CF00010B4154B5A60D3F8682F42F08062C3F8B5
:103D0000682F002214E000240F4B1C600E4BD3F8E8
:103D1000603F13F0806FF9D00B4BDC680470D3F870
:103D2000684F44F08064C3F8684F013292B20130AA
:103D30008A42E8D30020034B186010BC704700BFD4
:103D40000B0000165C2E0010800020002DE9F04FC3
:103D500083B000AF79605318B3F57C6F03DB39484B
:103D6000394B186069E090460D460646DFF8DCB036
:103D7000DBF8683F43F08053CBF8683F02F03F0424
:103D8000E31D23F00703ADEB030DEA461FFA84F9A8
:103D90003A60C9EB020292B249466846FFF7A0FFBB
:103DA000DBF8683F43F08063CBF8683F0323CBF830
:103DB00000303A68131BCBF80430002305E01AF8F2
:103DC0000310224A916001339BB24B45F7D3002286
:103DD0002EE01E4BD3F8681F41F08061C3F8681FC6
:103DE0000321196008EB02015960B15C996001344C
:103DF000E4B23F2C03D87B68013B9A4216D1134BA7
:103E0000D3F8603F13F0806FF9D006210F4B196093
:103E10000E4BD3F8603F13F0805FF9D00B49D1F817
:103E2000683F43F08053C1F8683F0024013292B2EA
:103E3000AA42CED30020044B18600C37BD46BDE823
:103E4000F08F00BF0B0000165C2E001080002000D9
:103E500070B582B08D4B0025C3F80051D3F8C42053
:103E600042F40062C3F8C42041F21002C3F8DC211E
:103E7000874C01202060A560A3F55023D3F84011A2
:103E800040F201221143C3F84011D3F84411114309
:103E9000C3F84411D3F848111143C3F84811D3F8BB
:103EA00050111143C3F85011D3F860111143C3F8F6
:103EB0006011D3F870111143C3F87011D3F8741165
:103EC0001143C3F87411D3F880111143C3F8801162
:103ED000D3F884111143C3F88411D3F88811114326
:103EE000C3F88811D3F88C111143C3F88C11D3F89F
:103EF00090111143C3F89011D3F894111143C3F8F2
:103F00009411D3F898111143C3F89811D3F89C1168
:103F10001143C3F89C11D3F8A0111143C3F8A011A9
:103F2000D3F8A4111143C3F8A411D3F8A811114375
:103F3000C3F8A811D3F8AC111143C3F8AC11D3F8EE
:103F4000B0111143C3F8B011D3F8B4111143C3F841
:103F5000B411D3F8B8111143C3F8B811D3F8BC1198
:103F60001143C3F8BC11D3F800121143C3F8001277
:103F7000D3F804121143C3F80412D3F80812114302
:103F8000C3F80812D3F80C121143C3F80C12D3F87B
:103F900010121143C3F81012D3F814121143C3F8CE
:103FA0001412D3F818121143C3F81812D3F81C12C4
:103FB0001143C3F81C12D3F820121143C3F8201286
:103FC000D3F824121143C3F82412D3F82812114352
:103FD000C3F82812D3F82C121143C3F82C12D3F8CB
:103FE00034121143C3F83412D3F838121143C3F812
:103FF0003812D3F864120A43C3F86422A0624FF463
:104000002073C4F8003140F20333C4F804310323B1
:104010002363062161630A22A2630520E063216411
:10402000022666640821A164E16422656665A365D1
:10403000642000F0E7FF40F283132362C82000F001
:10404000E1FF40F2031323626662019502E0019BE7
:1040500001330193019B7F2BF9D90D4B36225A6214
:1040600083221A620B4A12680092009A00241C6292
:10407000D3F8002142F40022C3F80021642000F0AC
:10408000C1FF054B1C60204602B070BD00C00F4050
:1040900000C00920009801A05C2E001068B110B586
:1040A00020F07F44020E21460448FFF767F9272CD1
:1040B00002D90348FFF762F910BD704790B20000C3
:1040C000D4B2000000F06040B0F1804F11D004D8AD
:1040D00068B1B0F1005F16D013E0B0F1004F0CD022
:1040E000B0F1204F0BD0B0F1C04F0AD103E0074828
:1040F00070470748704707487047074870470748A8
:104100007047002070470648704700BF00800920B4
:10411000408009206080092080800920A08009203B
:104120002080092038B504460D46FFF7CBFF38B98B
:104130000E4C0F4B1C602046FFF7B0FF204638BDE9
:1041400045B1826924F06044012101FA04F414436A
:10415000846107E0C26924F06044012101FA04F49B
:104160001443C4610020024B186038BD01000006F2
:104170005C2E001010B50446FFF7A4FF38B90A4CB6
:104180000A4B1C602046FFF789FF204610BD43699B
:1041900024F06044012202FA04F45C4044610020EF
:1041A000024B186010BD00BF010000065C2E00101D
:1041B00070B5002615E0214B9B680124B4402342D2
:1041C00003D11E4B5B681C420AD01D4B1D683DB1DC
:1041D00000F064FF3146A847184AD3681C43D460F6
:1041E0000136164B9B68002BE5D1144B5B68002B06
:1041F000E1D1002516E0114B9B6A0124AC4023421B
:1042000003D10E4B5B6A1C420BD00D4B1E6846B1AE
:1042100000F044FF05F18041B047084AD36A1C43CF
:10422000D4620135054B9B6A002BE4D1034B5B6ADA
:10423000002BE0D100BF00BF70BD00BF80800240F6
:10424000A0010010064B984203D0064B984204D0C0
:1042500001E005487047002070470448704700BFE0
:10426000030000201F0000408CC002407CC10240BF
:1042700010B521F48074A4B2FFF7E4FF046010BD10
:1042800038B504460D460021FFF7F2FF2046FFF740
:1042900019FF38B90B4C0C4B1C602046FFF7FEFE93
:1042A000204638BD0146026824F060400123834067
:1042B00013430B6029462046FFF734FF0020024BD2
:1042C000186038BD010000065C2E0010F0B4049E9A
:1042D0000F460FE00A4C25684FF4486404FB015474
:1042E00004EB8004002502E0266001350434954289
:1042F000FAD30131FC18A142ECD3F0BC704700BFE7
:104300008000001010B584B0414B40F20722C3F882
:104310000021C3F80821C3F81021C3F80C21C3F809
:1043200014211A615A61C3F87022C3F87422C3F8C9
:104330001821C3F81C21C3F82021C3F824219A6155
:1043400040F28731D961C3F8D020C3F8D420C3F834
:10435000D820C3F8DC20C3F8E020C3F8E4201962B9
:104360005962C3F83021C3F83421C3F8E820C3F8F8
:10437000EC20C3F8F020C3F8F420264B1B689B09FF
:10438000254AA2FB0323DB0A244AC2F8B831D2F83B
:10439000C43043F00103C2F8C430214B4FF0204237
:1043A0001A61204A1A60204A5A60204A9A600922FB
:1043B000DA6040F62A129A610023ADF80E300EE062
:1043C000BDF80E309BB280330021154A42F823100D
:1043D000BDF80E309BB201339BB2ADF80E30BDF884
:1043E0000E309BB2FF2BEBD90D4A936943F00103CA
:1043F0009361002400944FF4F0734FF44872214607
:104400002046FFF763FF0A4B1C60204604B010BD36
:1044100000C00240980000102FE3BE0000C00F4013
:1044200000800820C42F2757DF090D2000381F0700
:104430005C2E00102DE9F04F83B007468946904668
:104440001D460C9C0D9E00962346FFF73FFF07EB91
:10445000080004EB090AC4EB050B00965B462246F4
:104460005146001BFFF732FF00965B46224651463D
:104470003846FFF72BFF09EB05010096234642461D
:10448000091B3846FFF722FF03B0BDE8F08F00BFDD
:1044900010B4002314E0441C027883EA02230822AB
:1044A00013F4004F05D041F2210080EA43039BB290
:1044B00001E05B009BB2013A12F0FF02F0D120460E
:1044C0000139E8D5184610BC704700BF00B58BB065
:1044D0000648FEF753FF72B63923059301A905A8D4
:1044E000034B98470BB05DF804FB00BFE8BC00002D
:1044F000F11FFF1F70B50E1A0436164B1860164BCD
:10450000196004464FF48052002304E012F8015B66
:1045100004F8015B0133B342F8DBC368B3F1AA3F8F
:1045200007D00E4C0E4B1C602046FFF7B7FD20460F
:1045300070BD0B68B3F1AA3F07D00A4C084B1C6052
:104540002046FFF7ABFD204670BD0020044B1860ED
:1045500070BD00BFA4010010A80100100D000008EC
:104560005C2E00100E0000082DE9F0478AB080464E
:104570000C46164602F078F872B6B4F5007F0AD001
:1045800003D8B4F5807F5AD105E0B4F5806F02D02E
:10459000B4F5805F53D1B6F5803F06D3F70B0E37E5
:1045A000A519013DED0B0E3503E0370BA519013DB3
:1045B0002D0B322305930697079501A905A8224BD9
:1045C0009847019B1BB162B69DF8040038E0342384
:1045D0000593069707951D4B1B681D4AA2FB0323F5
:1045E0009B09089301A905A8174B9847019B1BB18C
:1045F00062B69DF8040023E03223059306970795E1
:1046000001A905A8104B9847019B1BB162B69DF804
:10461000040015E0332305930696CDF81C8008941A
:104620000A4B1B680A4AA2FB03239B09099301A9B1
:1046300005A8054B984762B69DF8040000E00C20E1
:104640000AB0BDE8F08700BFF11FFF1F98000010FF
:10465000D34D62102DE9F0412F4B18602F4B19609C
:104660000B1A043308D52E4C2E4B1C602046FFF746
:1046700015FD2046BDE8F08104460D46B3F5004F18
:1046800008DD294C274B1C602046FFF707FD20461C
:10469000BDE8F081B3F5805F0BDCB3F5806F0BDC18
:1046A000B3F5007F0BDCB3F5807F0BDD4FF40078B2
:1046B0000AE04FF4004807E04FF4805804E04FF45C
:1046C000806801E04FF480784FF0AA37E760174E1A
:1046D0002660304602F05BFC01463046FFF7D8FE0C
:1046E0002081134B63602F604FF480524146204677
:1046F000FFF73AFF014618B90A4B1860BDE8F08190
:104700000C48FEF73BFE0C4C064B1C602046FFF7A6
:10471000C5FC2046BDE8F081A4010010A8010010EE
:104720000A0000085C2E00100B000008FCBC000012
:1047300010BD000028BD00000C00000810B5084B9B
:10474000186838B9074C084B1C602046FFF7A6FCD8
:10475000204610BD054B1968FFF77CFF10BD00BF58
:10476000A40100100C0000085C2E0010A80100102D
:1047700010B5084B186838B9074C084B1C60204628
:10478000FFF78CFC204610BD054B1968FFF7B2FE01
:1047900010BD00BFA40100100C0000085C2E00102A
:1047A000A801001010B5254B186838B9244C254BCA
:1047B0001C602046FFF772FC204610BD0022C2603C
:1047C000214B1B681A601B1A043307D51F4C1D4B65
:1047D0001C602046FFF762FC204610BDB3F5805FE9
:1047E00007DD1B4C174B1C602046FFF757FC20468B
:1047F00010BDB3F5806F08DCB3F5007F08DCB3F5BE
:10480000807F08DD4FF4007107E04FF4805104E031
:104810004FF4806101E04FF480714FF48052FFF754
:10482000A3FE10B9074B186010BD054C054B1C606A
:104830002046FFF733FC204610BD00BFA401001046
:104840000C0000085C2E0010A80100100A000008EF
:104850000B00000838B51E4BD3F8C42042F02002EC
:10486000C3F8C420D3F8A8311BB90122184BC3F8F0
:10487000A821184A0321C2F88810174C0025E561C9
:10488000E36C43F40073E364C2F88C102562E36CBC
:1048900043F48063E364022363614FF47A73A3619A
:1048A0007F2323650D4B186802F016F90C4902F0BE
:1048B0001FFA0C4902F01CFA02F02CFBE06025679D
:1048C000636843F009036360074B1D60284638BDE9
:1048D00000C00F4000C0024000400140980000109E
:1048E00000007A4400401C465C2E001008B528B138
:1048F000012000F015FC00F02DFC08BDBFF34F8F28
:104900000449CA6802F4E062034B1343CB60BFF36F
:104910004F8FFEE700ED00E00400FA0510B582B00D
:10492000044601F0EBF902AB43F8040D21461846AA
:1049300001F0E4FA02B010BD08B50C460848094B76
:104940001860FFF7ABFB21460748FEF717FD4FF055
:10495000280383F31188BFF36F8FBFF34F8FFEE7F8
:10496000190000135C2E00103CBD0000704700BF12
:1049700010B50446002000F0CDFA18B1E1B20020D5
:1049800000F07EFA012010BD70B506460D460024E9
:1049900003E0305DFFF7ECFF0134AC42F9D370BDAA
:1049A00070B51E46002412E0184B1B6825012B44ED
:1049B0005968306802F0E1FA40B9144B1B681D4495
:1049C000AA6869681248FEF7D9FC70BD01340F4B24
:1049D0001B799C42E8DB002412E00E4B03EB04132E
:1049E0005D682946306802F0C8FA40B9094B03EB0C
:1049F0000414A26829460648FEF7C0FC70BD0134C5
:104A0000052CEAD90448FEF7B9FC70BD602E0010F1
:104A100048BD000080C0000058BD000008B5FFF789
:104A200055FD08BD10B51C4612B90020FFF75EFF0A
:104A300023681BB10120FFF759FF10BD0020FFF7CD
:104A400055FF10BD08B5FFF779FE10B90148FEF714
:104A500095FC08BD84BD000008B5FFF789FE10B9BC
:104A60000148FEF78BFC08BD8CBD0000034B1860AD
:104A7000197100225A719A71704700BF602E0010A0
:104A8000014B1879704700BF602E001010B50F4819
:104A9000FEF774FC002407E00D4B03EB0413596888
:104AA0000C48FEF76BFC0134052CF5D9002408E016
:104AB000094B1B6803EB041359680648FEF75EFCBC
:104AC0000134FFF7DDFF8442F2DB10BD9CBD000026
:104AD00080C0000098BD0000602E00102DE9F0415C
:104AE00082B0774B1B683BB9764C774B1C602046F5
:104AF000FFF7D4FA2046DFE00DF10701002000F0B7
:104B0000EDF9044610B90120FFF730FF002C40F00A
:104B1000D0806B4B5B79C72B0AD90022684B5A7146
:104B20006A4C694B1C602046FFF7B8FA2046C3E088
:104B300001210DF10700FFF727FF9DF807301B2B20
:104B400007D106216248FFF71FFF00225C4B5A7114
:104B5000D2E7082B07D15A4B5B79002BCCD0013B15
:104B6000574A5371C8E70D2B02D00A2B40F09A80A8
:104B70005848FEF703FC524B5B791BB95648FEF7C9
:104B8000FDFBB9E74E4A134400249C712546264696
:104B90003DE0F4B14A4B23449B79222B19D1A5B9AE
:104BA000631E474A13449B799BB9131900219971DD
:104BB00006F1190102EBC10302201871631C1344B2
:104BC000063342F83130012503E03D4B23440025F4
:104BD0009D71DDB93A4B23449B79202B16D1384B7C
:104BE000234400229A71082E10DC354F06F11A0872
:104BF00007EBC80301221A71A0183844002211469D
:104C0000063002F053FA47F83800013601342C4BD5
:104C10005B799C42BDDB0024294B5C7118E028487D
:104C200050F8063B25012B44596802F0A6F970B9EB
:104C3000234B1B682B44DC6884B100F02FFA204B17
:104C400053F8D01B3246495BA047012507E00134E9
:104C5000FFF716FF8442E2DB002500E00125EDB9F5
:104C6000002414E01D4B03EB041359681C4802F0A8
:104C700084F958B9194D24012B19DF6800F00EFA98
:104C8000184B3246295BB847012502E00134052C58
:104C9000E8D91DB912491448FEF770FB0E48FEF71B
:104CA0006DFB29E706494A79501C48710A44937103
:104CB00022E70020044B186002B0BDE8F08100BF7D
:104CC000602E00101500000B5C2E00101200000B6F
:104CD000A0BD00009CBD0000E879000080C000007D
:104CE000662E0010302F0010A8BD000040B110B596
:104CF000054C064B1C602046FFF7D0F9204610BD3E
:104D00000020024B186070471800000E5C2E001047
:104D100030B583B00446114850F824301B7802A9FE
:104D200001F8013D04EB840293002833184400F09D
:104D300013F920F07F4018B1094B1868FFF7AEF95E
:104D4000231D064A02EB83035D682DB100F0A6F92E
:104D50009DF807202146A84703B030BDB8010010D8
:104D60005C2E001008B50020FFF7D2FF08BD00BF81
:104D7000F8B50546FFF7BAFF0446384B186000281F
:104D800069D101F071FC2B1D354A02EB830300222F
:104D90005A6065B905EB85039800283001230A2283
:104DA00030492F4E304400F0C9F8032000E00020C5
:104DB000002D4AD12A4B2C4A1A6002F500323421C8
:104DC00011605160294FD7F8C460E91C012202FA32
:104DD00001F13143C7F8C41025490968254EA6FBE7
:104DE000016153F825703E7B46F080063E7353F810
:104DF0002560C1F30757377053F82560090F3171EB
:104E000053F82510C0B2087353F825104A6053F8C0
:104E100025100A7253F82510802081F83000691D92
:104E2000C9B248B2400901F01F0102FA01F1124E65
:104E300046F8201002FA05F593F88C20154383F804
:104E40008C500022054B1A6005E00C4C034B1C6093
:104E50002046FFF723F92046F8BD00BF5C2E001066
:104E6000B8010010AC01001000C0004000C00F40AD
:104E700094000010C5B3A29100E100E01800000EFC
:104E800070B506460D46FFF731FF20B13046FFF7FB
:104E90002DFF04461AE004460D4B93F88C00314672
:104EA000304110F0010F06D10A4C0B4B1C6020461C
:104EB000FFF7F4F80AE0064B53F821301A7D12F0A0
:104EC000400FF8D01D700022034B1A60204670BDC1
:104ED000B80100101500000E5C2E001038B5044615
:104EE0000D46FFF703FF18B12046FFF7FFFE38BD60
:104EF00000F078F904EB8404A00028302946044B24
:104F0000184400F053F8044600F07CF9204638BD00
:104F1000B8010010054B93F88C20012303FA00F030
:104F2000024214BF18460020704700BFB8010010AD
:104F3000014B1860704700BF48020010016082807A
:104F40000022C28003720161C160024B1A601046E8
:104F5000704700BF5C2E0010C28883889A420CD331
:104F60001048114B18607047C268CC5C1470C2685E
:104F70000132C2600133DBB201E010B40023027AD7
:104F80009342F1D3C4680168838802FB0312944200
:104F900000D1C160C3880133C3800020024B186078
:104FA00010BC70471200000F5C2E001010B4C388B4
:104FB0001BB91248124B18601DE049B90CE0026998
:104FC0001278CA540269013202610133DBB200E097
:104FD0000023027A9342F2D3016902688388047A3B
:104FE00004FB0323994200D10261C388013BC380C3
:104FF0000020034B186010BC704700BF1700000F63
:105000005C2E001082B0ADF8060016E0002300937D
:1050100003E000BF009B013300930B4B1B680B4A5E
:10502000A2FB0323009AB2EB133FF2D3BDF8063084
:105030009BB2013B9BB2ADF80630BDF806309BB287
:10504000002BE3D102B070479800001073B2E7451F
:105050001F2914D8002806DA00F00F00C900C9B2D1
:105060000B4B195407E0C900C9B200F1604000F5CC
:10507000614080F800130020064B1860704710B59F
:10508000054C044B1C602046FFF708F8204610BD75
:1050900014ED00E05C2E00101600000F014B1868A4
:1050A000704700BF4802001008B50348FEF766F9D4
:1050B0006420FFF7A7FF08BD48C1000008B50348FA
:1050C000FEF75CF96420FFF79DFF08BD50C10000AA
:1050D00008B50348FEF752F96420FFF793FF08BDB7
:1050E00060C1000008B50348FEF748F96420FFF7E7
:1050F00089FF08BD70C1000008B50348FEF73EF9FE
:105100006420FFF77FFF08BD80C1000008B5034899
:10511000FEF734F96420FFF775FF08BD90C1000069
:1051200010B5044601F0A0FA094800FB04F0B0F104
:10513000807F01D36FF07F404FF08043586003229F
:105140001A7072B6AA221A7255221A7262B610BD6D
:1051500048E8010072B64FF0804303221A70AA217A
:1051600019721A7062B670474FF0280383F31188E2
:10517000BFF36F8FBFF34F8FFEE700BF0648006895
:10518000006880F3088862B661B6BFF34F8FBFF343
:105190006F8F00DF00BF000008ED00E04FF080736C
:1051A00040F8043C40F8081C034B40F80C3C40F825
:1051B000202C4038704700BF69510000FFFFFFFFFF
:1051C000074B19680868B0E8F00F80F30988BFF34F
:1051D0006F8F4FF0000080F311884EF00D0E704776
:1051E000442A00104FF0280383F31188BFF36F8F18
:1051F000BFF34F8F024A136801331360704700BF3B
:1052000084000010034A1368013B13600BB983F359
:105210001188704784000010FFFFFFFFFFFFFFFFB2
:10522000EFF30980BFF36F8F0D4B1A6820E9F00F81
:1052300010602DE908404FF0280080F3118800F03D
:10524000CFFE4FF0000080F31188BDE808401968D8
:105250000868B0E8F00F80F30988BFF36F8F7047DC
:10526000442A001008B54FF0280383F31188BFF3D8
:105270006F8FBFF34F8F00F047FD18B14FF0805292
:10528000024B1A60002383F3118808BD04ED00E08F
:10529000064B1B68064AA2FB03239B09013B054AF8
:1052A00013600722044B1A60704700BF980000107B
:1052B000D34D621014E000E010E000E008B5094BA7
:1052C0001A6842F478021A601A6842F078421A604A
:1052D000FFF7DEFF0022044B1A60FFF74FFFFFF7D6
:1052E00043FF00BF20ED00E084000010074B23F0D7
:1052F0000703074A136000205060064A42F2087113
:105300005160106059601A60704700BF6002001061
:105310004C0200106829001070B5044600F0E6FC4D
:10532000224B1B6823B9FFF7E1FF01221F4B1A60D4
:1053300034B1083414F0070F02D024F00704083405
:10534000621E42F206739A4228D819490B6801E09E
:10535000194613465A68944202D91A68002AF7D1AE
:10536000144A93421CD00D6808351A680A605A68BE
:10537000121B102A0CD91E1972605C6074680C49EB
:1053800000E011460A6850688442FAD832600E6024
:105390005968094A13685B1A136002E0002500E0AF
:1053A000002500F037FD284670BD00BF54020010F4
:1053B0004C0200106829001088000010D0B170B5B0
:1053C0000546A0F1080600F091FC55F8044C0A4A85
:1053D00000E01A46136859688C42FAD845F8083C30
:1053E000166055F8043C054A11680B44136000F040
:1053F00011FD70BD704700BF4C0200108800001006
:1054000000F1080343604FF0FF328260C360036124
:1054100000230360704700BF00230361704700BF93
:1054200043684B609A688A609A6851609960086125
:10543000036801330360704730B40D68B5F1FF3F76
:1054400001D1026907E000F1080200E01A46536842
:105450001C68A542FAD253684B6099608A6051601B
:10546000086103680133036030BC70470369426818
:10547000816891608268416851605A68904201D1A8
:1054800082685A600022026118680138186070470B
:1054900010B50446FFF7A6FEA26BE36B9A4201D15A
:1054A000012400E00024FFF7ADFE204610BD00BF40
:1054B00010B50446FFF796FEA36B0BB9012400E07C
:1054C0000024FFF79FFE204610BD00BF10B5144614
:1054D00011B100FB01F000E000205430FFF71CFF89
:1054E000034610B100F154022260184610BD00BFFF
:1054F00038B504461546026C3AB903685BBB406890
:1055000000F0B4FE002363602CE06DB9806801F008
:1055100021FDA268236C1344A360626893421CD3EC
:105520002368A36000201DE0C06801F013FD236C18
:105530005B42E2681A44E26021688A4202D26268F1
:105540001344E360022D0AD1A36B53B1A36B013B5B
:10555000A363002006E0002004E0002002E0002019
:1055600000E00020A36B0133A36338BD026C72B16D
:1055700010B5C3681344C3604468A34201D30368F1
:10558000C3600C46C168204601F0E4FC10BD7047C2
:1055900010B50446FFF726FE0BE0636A63B104F121
:1055A000240000F085FD08B100F0F6FDA36C013B7E
:1055B000A364A36C002BF0DC4FF0FF33A364FFF770
:1055C00021FEFFF70FFE0BE0236963B104F1100029
:1055D00000F06EFD08B100F0DFFD636C013B636419
:1055E000636C002BF0DC4FF0FF336364FFF70AFEBF
:1055F00010BD00BF38B504460D46FFF7F3FD216826
:10560000E26B236C03FB021060600020A063A160CA
:10561000013A02FB0313E3604FF0FF336364A364BA
:105620007DB92369ABB104F1100000F041FD80B1F8
:105630004FF08052094B1A60BFF34F8FBFF36F8F4B
:1056400007E004F11000FFF7DBFE04F12400FFF790
:10565000D7FEFFF7D7FD012038BD00BF04ED00E005
:1056600070B582B006460D4602AC44F8042D2246C1
:10567000FFF72CFF044670B10DB9206001E0019BDB
:105680000360E663256401212046FFF7B3FF9DF820
:10569000183084F85030204602B070BDF0B585B0A7
:1056A00004460F4601921E460025FFF79BFDA26BA4
:1056B000E36B9A4201D3022E21D13246394620466D
:1056C000FFF716FF636A6BB104F1240000F0F0FCF1
:1056D00088B14FF080522F4B1A60BFF34F8FBFF34A
:1056E0006F8F08E038B14FF080522A4B1A60BFF339
:1056F0004F8FBFF36F8FFFF785FD012048E0019BBF
:105700001BB9FFF77FFD002042E01DB902A800F0A1
:105710000BFD0125FFF776FD00F0E8FAFFF762FDCB
:10572000636CB3F1FF3F01D100236364A36CB3F159
:10573000FF3F01D10023A364FFF764FD01A902A884
:1057400000F0FEFCF0B92046FFF7A2FEA0B10199DF
:1057500004F1100000F08CFC2046FFF719FF00F068
:1057600059FB0028A1D14FF080520A4B1A60BFF3B9
:105770004F8FBFF36F8F98E72046FFF709FF00F0C8
:1057800049FB92E72046FFF703FF00F043FB0020B0
:1057900005B0F0BD04ED00E070B5EFF311854FF0FA
:1057A000280484F31188BFF36F8FBFF34F8F866B8C
:1057B000C46BA64201D3022B18D1164604461A46E2
:1057C000FFF796FEA36CB3F1FF3F0AD1636A7BB18A
:1057D00004F1240000F06CFC60B16EB10120306077
:1057E0000BE0A36C0133A364012006E0002004E079
:1057F000012002E0012000E0012085F3118870BD46
:10580000F0B585B004460F4601921E460025FFF70D
:10581000E9FCA36B8BB3E56839462046FFF7A6FE8B
:10582000BEB9A36B013BA363236813B900F060FD0D
:1058300060602369EBB104F1100000F039FCC0B1E5
:105840004FF080523A4B1A60BFF34F8FBFF36F8F08
:105850000FE0E560636A63B104F1240000F028FC06
:1058600038B14FF08052324B1A60BFF34F8FBFF305
:105870006F8FFFF7C7FC012057E0019B1BB9FFF7B3
:10588000C1FC002051E01DB902A800F04DFC01252B
:10589000FFF7B8FC00F02AFAFFF7A4FC636CB3F141
:1058A000FF3F01D100236364A36CB3F1FF3F01D13B
:1058B0000023A364FFF7A6FC01A902A800F040FCA6
:1058C00038BB2046FFF7F4FDE8B1236833B9FFF792
:1058D00089FC606800F076FCFFF794FC019904F104
:1058E000240000F0C5FB2046FFF752FE00F092FABC
:1058F00000288CD14FF080520D4B1A60BFF34F8FB0
:10590000BFF36F8F83E72046FFF742FE00F082FA75
:105910007DE72046FFF73CFE00F07CFA2046FFF7CB
:10592000C7FD00283FF473AF002005B0F0BD00BFF5
:1059300004ED00E000230BE0074A52F8332032B9AF
:10594000054A42F8331002EBC30358607047013335
:10595000092BF1D9704700BF782F001070B50446AD
:105960000D461646FFF73EFC636CB3F1FF3F01D1D5
:1059700000236364A36CB3F1FF3F01D10023A36450
:10598000FFF740FCA36B2BB93246294604F12400F3
:1059900000F07CFB2046FFF7FBFD70BD0A4B1B6847
:1059A0001B680BB9012300E0002323B14FF0FF3245
:1059B000064B1A607047044B1B68DB68DB685A684B
:1059C000024B1A60704700BF74290010642A00104F
:1059D00010B50446006BFFF7F1FC2046FFF7EEFC24
:1059E00010BD00BFF8B5074614460E4621B9800029
:1059F000FFF792FC054600E00D4665B11CB960203A
:105A0000FFF78AFC04460CB1256305E026B9284659
:105A1000FFF7D4FC00E0002424B1BA00A521206BDC
:105A200001F0A3FA2046F8BD70B5044615460023E0
:105A300006E0C85CE21882F83400CA5C12B1013397
:105A4000132BF6D9002384F84730072D00D90725FA
:105A5000E562256500266665201DFFF7DDFC04F183
:105A60001800FFF7D9FC2461C5F10805A56164623F
:105A7000A66584F85C6070BD38B5002407E004EBCF
:105A8000840293000E481844FFF7BAFC0134072C37
:105A9000F5D90C4D2846FFF7B3FC0B4C2046FFF719
:105AA000AFFC0A48FFF7ACFC0948FFF7A9FC09481E
:105AB000FFF7A6FC084B1D60084B1C6038BD00BFFB
:105AC000982900106C2A0010802A0010482A001023
:105AD0007C290010942A00107429001090290010CD
:105AE00038B504460D461D4B18680430FFF7BEFC60
:105AF00050B91A4B1B68DA6A012303FA02F21849FB
:105B00000B6823EA02030B60B4F1FF3F07D135B104
:105B1000124B196804311348FFF782FC38BD124B51
:105B20001A6814440D4A126854601B689C4207D2DC
:105B30000E4B1868094B19680431FFF77DFC38BD1E
:105B40000B4B1868054B19680431FFF775FC094BBE
:105B50001B689C4201D2074B1C6038BD442A0010D0
:105B6000A82A0010942A0010602A00109029001022
:105B700074290010642A00102DE9F04782B0804695
:105B80008A46164699460B9F0D9A0C993046FFF7A8
:105B900029FF00284BD00446036B06F18045013DE8
:105BA00003EB850525F0070500960E9B0A9A5146E2
:105BB000FFF73AFF4A4641462846FFF7EFFA2060D2
:105BC00007B13C60FFF70EFB254A136801331360F1
:105BD000244B1B683BB9234B1C601368012B0DD170
:105BE000FFF74AFF0AE0204B1B683BB91D4B1B68BF
:105BF000DB6A0A9A9A4201D31A4B1C601B4A13684B
:105C000001331360A364E36A012505FA03F0184920
:105C10000A6802430A6003EB83039A00211D1548BA
:105C20001044FFF7FDFBFFF7EDFA284601E04FF0C7
:105C3000FF30012810D10C4B1B686BB1094B1B685E
:105C4000DB6A0A9A9A4207D94FF080520A4B1A60CF
:105C5000BFF34F8FBFF36F8F02B0BDE8F08700BF77
:105C6000402A0010442A001078290010682A0010E9
:105C7000A82A00109829001004ED00E000B587B0B4
:105C80000023049303930293124A0192009380220B
:105C900011491248FFF770FF012801D100F09AFB6B
:105CA000012813D14FF0280383F31188BFF36F8FBE
:105CB000BFF34F8F4FF0FF32094B1A600122094B9F
:105CC0001A600022084B1A60FFF7F8FA07B05DF877
:105CD00004FB00BF5C2A00109CC10000B95F0000FB
:105CE000642A001078290010602A0010024A136804
:105CF00001331360704700BF382A0010014B186849
:105D0000704700BF602A0010F8B5374B1B68002BA6
:105D10005DD1364B1A6801321A601F685FB9344A88
:105D20001168344B186810601960334A13680133E6
:105D30001360FFF733FE314B1B689F4203D20026EE
:105D40003AE0012600E00026294B1B681B680BB9CE
:105D5000012300E0002323B14FF0FF32274B1A60EC
:105D60002AE0234B1B68DB68DC6863689F4202D231
:105D7000224A136020E0251D2846FFF777FBA36A1F
:105D80001BB104F11800FFF771FBE36A012202FA6C
:105D900003F11B4802680A43026003EB83039A0085
:105DA000294618481044FFF73BFBE26A164B1B6874
:105DB000DB6A9A42C5D2C7E7134B1B68DB6A03EB69
:105DC00083039A000F4B9B58012B06D806E00F4A1D
:105DD000136801331360002600E001260C4B1B689A
:105DE00003B101263046F8BD382A0010602A0010A1
:105DF000742900109029001070290010642A0010E6
:105E0000A82A001098290010442A00109429001094
:105E1000AC2A001038B5FFF7E5F92F4B1A68013AA4
:105E20001A601B68002B50D12C4B1B6833BB00241D
:105E30004EE02B4BDB68DC6804F11800FFF716FB23
:105E4000251D2846FFF712FBE36A012202FA03F13F
:105E5000244802680A43026003EB83039A00294640
:105E600021481044FFF7DCFAE26A204B1B68DB6A2A
:105E70009A4204D301221E4B1A6000E00024184B02
:105E80001B68002BD5D10CB1FFF788FD194B1B689F
:105E900053B90DE0FFF738FF10B10122144B1A601F
:105EA000144A1368013B1360124B1B68002BF1D19D
:105EB0000F4B1B685BB14FF080520F4B1A60BFF362
:105EC0004F8FBFF36F8F012402E0002400E0002415
:105ED000FFF798F9204638BD382A0010402A0010F4
:105EE000482A0010A82A001098290010442A0010FF
:105EF000AC2A00109429001004ED00E038B50546E6
:105F00000C46FFF7F3FE154B18682A6813199042E8
:105F100005D29A4209D9984209D300220CE09A424C
:105F200007D8984207D3002206E0002204E00122AD
:105F300002E0012200E001222B601AB10021181AB0
:105F4000FFF7CEFDFFF766FF38B94FF08052044BE4
:105F50001A60BFF34F8FBFF36F8F38BD602A0010F8
:105F600004ED00E010B51BE0FFF7C0FE0F4B1C680E
:105F7000FFF750FFA4B1FFF735F90C4BDB68DC6885
:105F8000201DFFF773FA0A4A1368013B1360094AA0
:105F90001368013B1360FFF735F92046FFF718FD42
:105FA000044B1B68002BDFD110BD00BF7C29001003
:105FB000402A00103C2A001008B5FFF7D3FF064B1B
:105FC0001B68012BF9D94FF08052044B1A60BFF3C4
:105FD0004F8FBFF36F8FF0E79829001004ED00E0BA
:105FE00038B51E4B1B681BB101221D4B1A6038BD12
:105FF00000221B4B1A601B4B1A6812681B681B6B34
:106000009A4205D8174B186819683431FEF794FC8A
:10601000154B1B68B3FA83F3DBB2C3F11F03134DB7
:106020009900CA1890002844426854684460194492
:106030008A0008322A44944205D1606803EB830148
:106040008A002A44506003EB83039A00074B1A44EA
:106050005368DA68034B1A6038BD00BF382A001055
:10606000AC2A0010442A0010A82A00109829001019
:1060700010B50C46044B19681831FFF7DDF9012102
:106080002046FFF72DFD10BD442A001038B50D46FF
:106090001446064B19681831FFF7C2F90CB14FF0DE
:1060A000FF3521462846FFF71BFD38BD442A001066
:1060B00038B5C368DC6804F118052846FFF7D6F93F
:1060C000134B1B68A3B9251D2846FFF7CFF9E36AD8
:1060D000012202FA03F10F4802680A43026003EB4F
:1060E00083039A0029460C481044FFF799F903E00E
:1060F00029460A48FFF794F9E26A094B1B68DB6AF4
:106100009A4203D90120074B186038BD002038BDE2
:10611000382A0010A82A001098290010482A0010D8
:10612000442A0010AC2A0010034B1B680360034B89
:106130001B684360704700BF70290010602A001080
:1061400038B504460D46FFF74DF8114B1A682B6819
:10615000B3F1FF3F13D020680E490968884202D08E
:1061600061688A420DD26168501A83420BD98A1A3B
:1061700013442B602046FFF7D7FF002404E00024DF
:1061800002E0012400E00124FFF73CF8204638BD7E
:10619000602A0010702900100122014B1A6070471C
:1061A000AC2A0010054B1B6823B1054B1B681BB9BB
:1061B00002207047012070470020704778290010A6
:1061C000382A001000284AD038B50246C36A24494C
:1061D0000968C96A8B4241D28169002905DB2049DF
:1061E0000968C96AC1F108018161506903EB830341
:1061F00099001C4B1944884201D1012300E000237F
:1062000043B31446151D2846FFF730F970B9E36A09
:1062100003EB83018A0013498A583AB9012202FA32
:1062200003F311490A6822EA03030B600C4B1B6855
:10623000DB6AE362012202FA03F10B4802680A43B7
:10624000026003EB83039A00294606481044FFF7D7
:10625000E7F838BD024B1B68DB6AD36238BD704774
:10626000442A001098290010A82A0010002834D0D1
:1062700038B50346426D013A4265C06A196D8842DD
:106280002DD072BB1C461D1D2846FFF7EFF870B9D4
:10629000E36A03EB83018A0013498A583AB9012261
:1062A00002FA03F311490A6822EA03030B60236D23
:1062B000E362C3F10802A261012404FA03F00B496E
:1062C0000A6802430A6003EB83039A0029460648E2
:1062D0001044FFF7A5F8204638BD00207047002085
:1062E00038BD002038BD00BF98290010A82A001032
:1062F000054B1B6823B1044B1A68536D013353657A
:10630000014B1868704700BF442A0010064B1A68FA
:106310001368B3FA83F35B09036013B9D368186891
:1063200070470020704700BFB02A001008B54160D8
:10633000006191420AD8D21A83699A4211D2011D92
:106340000A4B1868FFF778F8002008BD9A4201D27E
:10635000994208D2011D064B1868FFF76DF800201E
:1063600008BD012008BD012008BD00BFE42A0010BF
:10637000B02A001030B583B0FEF734FF0F4B1B6816
:10638000C3B90F4D2846FFF73BF80E4C2046FFF7E8
:1063900037F80D4B1D600D4B1C6000220092134618
:1063A0000C210220FFF75CF9044B186010B108497A
:1063B000FFF7C0FAFEF726FF03B030BDE02A001059
:1063C000B42A0010C82A0010B02A0010E42A0010D5
:1063D000A4C1000000B587B0FFF7CCFF094B1B68D4
:1063E00063B100230493039302930193022200926A
:1063F000502205490548FFF7BFFB00E0002007B029
:106400005DF804FBE02A0010ACC1000051660000FA
:1064100030B585B0134C256805B31C460191029236
:106420000390052913DCFFF7BDFE022807D10023E6
:10643000089A01A90B480068FFF730F90FE0002324
:106440001A4601A907480068FFF728F907E000236A
:10645000224601A92846FFF79FF900E0002005B079
:1064600030BD00BFE02A001070B582B01FE0DB68CD
:106470001E68DC68251D2846FEF7F8FF636A204683
:106480009847E369012B12D1A36933449E4207D296
:106490006360246129460C4B1868FEF7CDFF06E0C7
:1064A000002100910B4632462046FFF7B1FF064B14
:1064B0001B681A68002ADAD1044A10680249086089
:1064C000136002B070BD00BFB02A0010E42A0010B3
:1064D00038B50546FFF712FC0446074B1B68984287
:1064E00004D2FFF7C1FF01232B6001E000232B60E2
:1064F000014B1C60204638BDDC2A001070B582B00C
:1065000005460E460E4B1B68DB68DC68201DFEF757
:10651000ADFFE369012B0ED1A1692B463246294418
:106520002046FFF703FF30B1002100910B462A46B9
:106530002046FFF76DFF636A2046984702B070BDA2
:10654000B02A001070B582B006460C46FFF7CEFBAD
:1065500001A8FFF7BDFF019B1BBB054644B9B04234
:1065600006D3FFF757FC29463046FFF7C7FF1AE06E
:106570002CB10E4B1B681C68B4FA84F464092246E3
:10658000711B0B4B1868FFF7E9F9FFF743FC50B993
:106590004FF08052074B1A60BFF34F8FBFF36F8FDE
:1065A00001E0FFF737FC02B070BD00BFE42A001025
:1065B000E02A001004ED00E030B587B03AE0039B1C
:1065C000002B37DB059C636913B1201DFEF74EFFDE
:1065D00002A8FFF77DFF039B092B2BD8DFE803F010
:1065E0000505052A1E2705052A1E0499A5690B46DF
:1065F000024629442046FFF799FED8B1636A204637
:106600009847E369012B15D1A269002100910B463F
:10661000049802442046FFF7FBFE0BE00499A161B9
:106620000346024601442046FFF780FE02E0204672
:10663000FEF7C4FE00231A4603A904480068FFF7CA
:10664000DFF80028BBD107B030BD00BFE02A001042
:1066500000B583B001A8FFF759FE0199FFF772FF5B
:10666000FFF7AAFFF6E700BF9A4BD3F8043113F403
:10667000807F4BD1974BD3F80C3113F0010F1BD116
:106680009449D1F8042102F01F02934BB3FBF2F2BC
:1066900092480260D1F8A82102F01F02B3FBF2F287
:1066A0008F480260D1F8002102F001020132B3FBF1
:1066B000F2F38C4A1360A6E0864BD3F8A03113F0B6
:1066C000400F07D10023854A1360854A1360854A2D
:1066D000136098E07F49D1F8042102F01F02824B39
:1066E000B3FBF2F27D480260D1F8A82102F01F024C
:1066F000B3FBF2F27A480260D1F8002102F0010205
:106700000132B3FBF2F3774A13607CE0714BD3F8AC
:10671000883013F4807F07D10023704A1360704AD9
:106720001360704A13606EE06A4BD3F80C3113F0BB
:10673000010F2DD16748D0F8882002F01F02664B68
:1067400002FB0331D0F8042102F01F02B1FBF2F288
:1067500062490A60D0F8882002F01F0202FB033170
:10676000D0F8A82102F01F02B1FBF2F25C490A60E6
:10677000D0F8882002F01F0202FB0333D0F800217A
:1067800002F001020132B3FBF2F3564A13603AE021
:10679000504BD3F8A03113F0400F07D100234F4ADC
:1067A00013604F4A13604F4A13602CE04948D0F8F9
:1067B000882002F01F024C4B02FB0331D0F8042169
:1067C00002F01F02B1FBF2F244490A60D0F88820BF
:1067D00002F01F0202FB0331D0F8A82102F01F02D1
:1067E000B1FBF2F23E490A60D0F8882002F01F02A5
:1067F00002FB0333D0F8002102F001020132B3FBA7
:10680000F2F3384A1360334BD3F8083113F4807F26
:1068100039D0304BD3F8083103F01F03042B06D0D6
:10682000062B04D05BBB0022304B1A607047294B0B
:10683000D3F80C3113F0010F10D02649D1F888306D
:1068400003F01F02284B02FB0333D1F8082102F0AA
:106850001F02B3FBF2F3254A136070471D49D1F8BC
:10686000883003F01F021C4B02FB0333D1F80821D0
:1068700002F01F02B3FBF2F31C4A136070470022C0
:106880001A4B1A607047134BD3F8083113F4007F8A
:106890001BD0104BD3F80C3113F0010F0AD00D4B65
:1068A000D3F8A83003F01F020F4B02FB03330F4A4B
:1068B00013607047074BD3F8883003F01F02064B74
:1068C00002FB0333094A136070470022074B1A602A
:1068D000704700BF00C00F40001BB70098000010B9
:1068E0009400001090000010002D31018C00001069
:1068F00031221C4BC3F8A0211A4BD3F8A03113F05E
:10690000400FF9D0174B0122C3F80C210521C3F821
:106910008410C3F88020AA22C3F88C205522C3F823
:106920008C20104BD3F8883013F4806FF9D00D4BC6
:1069300040F20112C3F8042140F20122C3F80821F9
:106940000122C3F800210222C3F8A821064AC3F895
:10695000C4204FF48072C3F8C82145F23A021A608D
:10696000704700BF00C00F40DE87280480F0004061
:1069700002E000BF81F0004142001FBF5FEA410317
:1069800092EA030F7FEA226C7FEA236C6AD04FEA17
:106990001262D2EB1363C1BFD2184140484041405C
:1069A000B8BF5B42192B88BF704710F0004F40F40E
:1069B000000020F07F4018BF404211F0004F41F42A
:1069C000000121F07F4118BF494292EA030F3FD0F6
:1069D000A2F1010241FA03FC10EB0C00C3F1200309
:1069E00001FA03F100F0004302D5494260EB400098
:1069F000B0F5000F13D3B0F1807F06D340084FEA03
:106A0000310102F10102FE2A51D2B1F1004F40EBF7
:106A1000C25008BF20F0010040EA0300704749005F
:106A200040EB000010F4000FA2F10102EDD1B0FA2A
:106A300080FCACF1080CB2EB0C0200FA0CF0AABF1F
:106A400000EBC25052421843BCBFD04018437047BD
:106A500092F0000F81F4000106BF80F400000132C3
:106A6000013BB5E74FEA41037FEA226C18BF7FEA9A
:106A7000236C21D092EA030F04D092F0000F08BFDC
:106A80000846704790EA010F1CBF0020704712F0C3
:106A90007F4F04D1400028BF40F00040704712F102
:106AA00000723CBF00F50000704700F0004343F067
:106AB000FE4040F4000070477FEA226216BF08469D
:106AC0007FEA23630146420206BF5FEA412390EA60
:106AD000010F40F4800070474FF0000304E000BF56
:106AE00010F0004348BF40425FEA000C08BF704707
:106AF00043F0964301464FF000001CE050EA0102CB
:106B000008BF70474FF000030AE000BF50EA0102DF
:106B100008BF704711F0004302D5404261EB4101CC
:106B20005FEA010C02BF84460146002043F0B643F1
:106B300008BFA3F18053A3F50003BCFA8CF2083A16
:106B4000A3EBC25310DB01FA02FC634400FA02FC1F
:106B5000C2F12002BCF1004F20FA02F243EB020026
:106B600008BF20F00100704702F1200201FA02FC88
:106B7000C2F1200250EA4C0021FA02F243EB02007B
:106B800008BF20EADC7070474FF0FF0C1CEAD052BF
:106B90001EBF1CEAD15392EA0C0F93EA0C0F6FD080
:106BA0001A4480EA010C400218BF5FEA41211ED05E
:106BB0004FF0006343EA501043EA5111A0FB01314A
:106BC0000CF00040B1F5000F3EBF490041EAD3711F
:106BD0005B0040EA010062F17F02FD2A1DD8B3F19B
:106BE000004F40EBC25008BF20F00100704790F00A
:106BF000000F0CF0004C08BF49024CEA502040EA5C
:106C000051207F3AC2BFD2F1FF0340EAC250704721
:106C100040F400004FF00003013A5DDC12F1190F5F
:106C2000DCBF00F000407047C2F10002410021FAD1
:106C300002F1C2F1200200FA02FC5FEA310040F1E9
:106C4000000053EA4C0308BF20EADC70704792F062
:106C5000000F00F0004C02BF400010F4000F013A9A
:106C6000F9D040EA0C0093F0000F01F0004C02BF95
:106C7000490011F4000F013BF9D041EA0C018FE704
:106C80000CEAD15392EA0C0F18BF93EA0C0F0AD00A
:106C900030F0004C18BF31F0004CD8D180EA010030
:106CA00000F00040704790F0000F17BF90F0004FC9
:106CB000084691F0000F91F0004F14D092EA0C0FAB
:106CC00001D142020FD193EA0C0F03D14B0218BF3E
:106CD000084608D180EA010000F0004040F0FE4084
:106CE00040F40000704740F0FE4040F44000704720
:106CF0004FF0FF0C1CEAD0521EBF1CEAD15392EA9F
:106D00000C0F93EA0C0F69D0A2EB030280EA010C8E
:106D100049024FEA402037D04FF0805343EA111127
:106D200043EA10130CF000408B4238BF5B0042F185
:106D30007D024FF4000C8B4224BF5B1A40EA0C002A
:106D4000B3EB510F24BFA3EB510340EA5C00B3EB5C
:106D5000910F24BFA3EB910340EA9C00B3EBD10F4A
:106D600024BFA3EBD10340EADC001B0118BF5FEA9C
:106D70001C1CE0D1FD2A3FF650AF8B4240EBC250C5
:106D800008BF20F0010070470CF0004C4CEA502086
:106D90007F32C2BFD2F1FF0340EAC250704740F4D5
:106DA00000004FF00003013A37E792F0000F00F0C7
:106DB000004C02BF400010F4000F013AF9D040EA45
:106DC0000C0093F0000F01F0004C02BF490011F4D9
:106DD000000F013BF9D041EA0C0195E70CEAD153D1
:106DE00092EA0C0F08D142027FF47DAF93EA0C0FB8
:106DF0007FF470AF084676E793EA0C0F04D14B029C
:106E00003FF44CAF08466EE730F0004C18BF31F04D
:106E1000004CCAD130F000427FF45CAF31F0004347
:106E20007FF43CAF5FE700BF4FF0FF3C06E000BFE0
:106E30004FF0010C02E000BF4FF0010C4DF804CD03
:106E40004FEA40024FEA41037FEA226C18BF7FEA13
:106E5000236C11D001B052EA530C18BF90EA010F15
:106E600058BFB2EB030088BFC81738BF6FEAE170A4
:106E700018BF40F0010070477FEA226C02D15FEA40
:106E8000402C05D17FEA236CE4D15FEA412CE1D0AC
:106E90005DF8040B704700BF844608466146FFE773
:106EA0000FB5FFF7C9FF002848BF10F1000F0FBD55
:106EB0004DF808EDFFF7F4FF0CBF012000205DF84E
:106EC00008FB00BF4DF808EDFFF7EAFF34BF0120D3
:106ED00000205DF808FB00BF4DF808EDFFF7E0FF6C
:106EE00094BF012000205DF808FB00BF4DF808EDBD
:106EF000FFF7D2FF94BF012000205DF808FB00BF20
:106F00004DF808EDFFF7C8FF34BF012000205DF801
:106F100008FB00BF42000ED2B2F1FE4F0BD34FF080
:106F20009E03B3EB126209D44FEA002343F00043FF
:106F300023FA02F070474FF00000704712F1610F22
:106F400001D1420202D14FF0FF3070474FF00000F4
:106F5000704700BF10B5431E0A44914204D011F897
:106F6000014B03F8014FF8E710BD0346024493427A
:106F700002D003F8011BFAE7704710F8012B11F853
:106F8000013B012A28BF9A42F7D0D01A7047034626
:106F900013F8012B002AFBD1181A01387047FFFFA4
:106FA0002DE9F0470F4680463F48D0F800903D4617
:106FB00015F8014B09EB0400407800F0080000F0E0
:106FC000FF0608B12F46F2E72D2C03D1BD1C7C78BB
:106FD000012603E02B2C04BF7C78BD1C13B1102BC1
:106FE0000AD15BE0302C57D1287800F0DF00582818
:106FF0004DD16C7810230235002E14BF4FF0004C99
:107000006FF0004CBCFBF3FA0027384603FB1ACCA8
:1070100009EB040E9EF801E01EF0040F01D0303C95
:107020000BE01EF0030E1BD0BEF1010F0CBF4FF0A2
:10703000370E4FF0570ECEEB0404A34210DDB7F12C
:10704000FF3F0AD0504506D801D1644503DC03FB5D
:107050000040012701E04FF0FF3715F8014BD7E75B
:107060007B1C0CD1002E4FF0220314BF4FF00040C8
:107070006FF00040C8F800302AB9BDE8F08706B1CB
:10708000404272B107B1691E1160BDE8F08730243B
:10709000002BB1D10823AFE70A23ADE7302CA3D0F2
:1070A000AAE7BDE8F08700BF9C00001013460A461F
:1070B000014602480068FFF773BF00BF00010010DF
:1070C0004E846B79796B9468846E2084846B6B94A6
:1070D0007365740A6E7974206F696B65696E0A4C0A
:1070E000617A7920646F67206A756D706564206FBE
:1070F0007665722061206772657920666F780A4C28
:10710000617A7920646F67206A756D706564206F9D
:107110007665722061206772657920666F780A4C07
:10712000617A7920646F67206A756D706564206F7D
:107130007665722061206772657920666F780A4CE7
:10714000617A7920646F67206A756D706564206F5D
:107150007665722061206772657920666F780A4CC7
:10716000617A7920646F67206A756D706564206F3D
:107170007665722061206772657920666F780A4CA7
:10718000617A7920646F67206A756D706564206F1D
:107190007665722061206772657920666F780A4C87
:1071A000617A7920646F67206A756D706564206FFD
:1071B0007665722061206772657920666F780A00B3
:1071C00031323A303000FFFF000000008C740000C4
:1071D00094740000C1290000010000002C7500001B
:1071E00034750000D129000002000000CC750000B9
:1071F000D8750000E1290000030000007C76000043
:1072000088760000F1290000040000002C770000BF
:1072100034770000012A000005000000CC77000050
:10722000D8770000112A00000600000078780000DE
:1072300084780000212A000007000000287900005F
:1072400038790000312A000008000000EC790000C5
:10725000F4790000412A000009000000947A00003F
:10726000A07A0000A92300000A000000E87A0000CC
:10727000F07A0000212300000B000000307B0000AA
:107280003C7B0000ED2300000C0000007C7B000034
:10729000887B0000452400000D000000C47B000036
:1072A000D07B0000A12400000E000000B07C000094
:1072B000BC7C0000692500000F000000A07D0000DC
:1072C000AC7D00005D26000010000000FC7D000089
:1072D000047E000089230000476976652031206123
:1072E0007267756D656E740A0D0000006C656E3A0C
:1072F0002025752C20617267733A2025750A0D00D0
:10730000646174613A200000307825782000000024
:1073100052656672657368696E672074686520647B
:107320006973706C61790A0D000000004769766529
:10733000206174206C6561737420322061726775FE
:107340006D656E74730A0D0077726F746520257514
:10735000206279746573206F6620307825782074F8
:107360006F206164647265737320307825780A0D2C
:107370000000000052657475726E3A2025750A0D82
:107380000000000047697665203220617267756DE4
:10739000656E74730A0D00002578200047697665D4
:1073A000206174206C65617374203520617267758B
:1073B0006D656E74730A0D002500000064726177BC
:1073C000696E672072656374616E676C65206672B2
:1073D0006F6D202825752C2025752920746F202895
:1073E00025752C20257529207769746820636F6CBA
:1073F0006F722025780A0D0064726177696E6720CC
:107400006672616D652066726F6D202825752C206F
:1074100025752920746F202825752C202575292095
:107420007769746820636F6C6F7220257820616EB5
:107430006420626F72646572206F662025750A0D84
:10744000000000004769766520617267756D656EA2
:1074500074206265747765656E20302E2E2E313073
:10746000300A0D0053657474696E67206261636B46
:107470006C696768742050574D20746F2025752003
:1074800070657263656E740A0D0000006D7362634F
:107490006F6E6600436F6E6669677572657320551F
:1074A0007365776F6F64204D534220736574746900
:1074B0006E67732E204769766520776974686F75EB
:1074C0007420616E7920617267756D656E74730AE0
:1074D0000D746F20646973706C6179207468652025
:1074E00073657474696E677320776974686F7574F7
:1074F000206D6F64696679696E67207468656D2EAA
:107500002055736167653A0A0D6D7362636F6E662D
:10751000203C656E61626C65206F6E2F6F66663E03
:10752000203C6E6F64655F69643E00006373626354
:107530006F6E6600436F6E6669677572657320557E
:107540007365776F6F642043534220736574746969
:107550006E67732E204769766520776974686F754A
:107560007420616E7920617267756D656E74730A3F
:107570000D746F20646973706C6179207468652084
:1075800073657474696E677320776974686F757456
:10759000206D6F64696679696E67207468656D2E09
:1075A0002055736167653A0A0D637362636F6E6697
:1075B000203C656E61626C65206F6E2F6F66663E63
:1075C000203C6E6F64655F69643E00006C6B65799A
:1075D00070636F6E66000000436F6E666967757258
:1075E000657320557365766F6C74204C65667420E6
:1075F0006B65797061642073657474696E67732E4E
:10760000204769766520776974686F757420616EAC
:107610007920617267756D656E74730A0D746F20E1
:10762000646973706C617920746865207365747423
:10763000696E677320776974686F7574206D6F6405
:10764000696679696E67207468656D2E205573616F
:1076500067653A0A0D6C6B657970636F6E66203CE6
:10766000656E61626C65206F6E2F6F66663E203CB2
:107670006E6F64655F69643E00000000726B65793F
:1076800070636F6E66000000436F6E6669677572A7
:10769000657320557365766F6C74205269676874E2
:1076A000206B65797061642073657474696E6773AB
:1076B0002E204769766520776974686F757420613C
:1076C0006E7920617267756D656E74730A0D746FE3
:1076D00020646973706C61792074686520736574C7
:1076E00074696E677320776974686F7574206D6F45
:1076F00064696679696E67207468656D2E205573BC
:107700006167653A0A0D726B657970636F6E66200A
:107710003C656E61626C65206F6E2F6F66663E2001
:107720003C6E6F64655F69643E000000656375636D
:107730006F6E6600436F6E6669677572657320527F
:107740006578726F74682045435520736574746959
:107750006E67732E204769766520776974686F7548
:107760007420616E7920617267756D656E74730A3D
:107770000D746F20646973706C6179207468652082
:1077800073657474696E677320776974686F757454
:10779000206D6F64696679696E67207468656D2E07
:1077A0002055736167653A0A0D656375636F6E6690
:1077B000203C656E61626C65206F6E2F6F66663E61
:1077C000203C6E6F64655F69643E000070656461B3
:1077D0006C636F6E66000000436F6E66696775725A
:1077E00065732074686520647269766520706564CD
:1077F000616C2073657474696E67732E20476976B7
:107800006520776974686F757420616E7920617284
:1078100067756D656E74730A0D746F20646973709B
:107820006C6179207468652073657474696E677320
:1078300020776974686F7574206D6F646966796903
:107840006E67207468656D2E2055736167653A0A0E
:107850000D706564616C636F6E66203C656E61627D
:107860006C65206F6E2F6F66663E203C6E6F6465A0
:107870005F69643E00000000757731383173636FD3
:107880006E660000436F6E6669677572657320559A
:107890007365776F6F6420555731383153206563B6
:1078A000752073657474696E67732E2047697665F9
:1078B00020776974686F757420616E7920617267D2
:1078C000756D656E74730A0D746F20646973706CE6
:1078D0006179207468652073657474696E677320BC
:1078E000776974686F7574206D6F64696679696E05
:1078F00067207468656D2E2055736167653A0A0DBF
:10790000757731383173636F6E66203C656E6162E6
:107910006C65206F6E2F6F66663E203C6E6F6465EF
:107920005F69643E000000007577313831736D6225
:10793000636F6E6600000000436F6E666967757264
:10794000657320557365776F6F64205557313831F3
:1079500053206D6561737572656D656E7420646525
:10796000766963652073657474696E67732E20474A
:1079700069766520776974686F757420616E792007
:10798000617267756D656E74730A0D746F2064693A
:1079900073706C6179207468652073657474696EA6
:1079A000677320776974686F7574206D6F6469669A
:1079B00079696E67207468656D2E205573616765FF
:1079C0003A0A0D7577313831736D62636F6E6620D8
:1079D0003C656E61626C65206F6E2F6F66663E203F
:1079E0003C6E6F64655F69643E00000067736D63A1
:1079F0006F6E6600436F6E666967757265732055BA
:107A00007365766F6C742047534D20626F617264AA
:107A10002073657474696E67732E204769766520DC
:107A2000776974686F757420616E7920617267750B
:107A30006D656E74730A0D746F20646973706C6188
:107A400079207468652073657474696E6773207734
:107A50006974686F7574206D6F64696679696E67A3
:107A6000207468656D2E2055736167653A0A0D674D
:107A7000736D636F6E66203C656E61626C65206F2E
:107A80006E2F6F66663E203C6E6F64655F69643E74
:107A900000000000656D6377726974650000000086
:107AA0005772697465206461746120746F20657415
:107AB00065726E616C20534452414D2E0A0D557310
:107AC0006167653A20656D637772697465203C76FD
:107AD000616C75653E203C616464723E203C636F5E
