:1020000060FF001089210000155D00002D5D0000BB
:10201000455D00005D5D0000755D00000000000092
:10202000000000000000000000000000A15E0000B1
:102030003122000000000000915F0000E15F00001D
:1020400049220000492200004922000049220000E4
:1020500049220000415700004922000049220000A7
:1020600049220000492200004922000049220000C4
:10207000492200008D5D0000492200004922000035
:1020800049220000492200004922000049220000A4
:102090004922000049220000492200004922000094
:1020A0004922000049220000492200004922000084
:1020B0004922000049220000492200004922000074
:1020C0004922000049220000492200004922000064
:1020D0004922000049220000D545000049220000A5
:1020E00049220000249C0000000000102400000091
:1020F000249C0000000000200000000028000010C8
:102100006C2D0000000000200000000080B489B0A9
:1021100000AFF860B9607A60BB68FB61FB68BB61C7
:1021200000237B610AE0FB691A1DFA61BA69111D7F
:10213000B96112681A607B6904337B617A697B68D4
:102140009A42F0D32437BD465DF8047B704700BF48
:1021500080B485B000AF786039607B68FB60002395
:10216000BB6007E0FB681A1DFA6000221A60BB68BA
:102170000433BB60BA683B689A42F3D31437BD4658
:102180005DF8047B704700BF80B584B000AF194B89
:10219000FB6013E0FB681A1DFA601B68BB60FB68FC
:1021A0001A1DFA601B687B60FB681A1DFA601B68C9
:1021B0003B60B86879683A68FFF7A8FFFB680E4A89
:1021C0009342E7D30DE0FB681A1DFA601B687B6041
:1021D000FB681A1DFA601B683B6078683968FFF776
:1021E000B7FFFB68054A9342EDD305F06BFF05F09E
:1021F000BFFFFEE7E4200000FC2000000C210000EF
:1022000080B400AFFEE700BF80B400AFFEE700BFC0
:1022100080B400AFFEE700BF80B400AFFEE700BFB0
:1022200080B400AFFEE700BF80B400AFFEE700BFA0
:1022300080B400AFFEE700BF80B400AFFEE700BF90
:1022400080B400AFFEE700BF80B400AFFEE700BF80
:10225000FFFFFFFFFFFFFFFFFFFFFFFFFFFFFFFF8E
:10226000FFFFFFFFFFFFFFFFFFFFFFFFFFFFFFFF7E
:10227000FFFFFFFFFFFFFFFFFFFFFFFFFFFFFFFF6E
:10228000FFFFFFFFFFFFFFFFFFFFFFFFFFFFFFFF5E
:10229000FFFFFFFFFFFFFFFFFFFFFFFFFFFFFFFF4E
:1022A000FFFFFFFFFFFFFFFFFFFFFFFFFFFFFFFF3E
:1022B000FFFFFFFFFFFFFFFFFFFFFFFFFFFFFFFF2E
:1022C000FFFFFFFFFFFFFFFFFFFFFFFFFFFFFFFF1E
:1022D000FFFFFFFFFFFFFFFFFFFFFFFFFFFFFFFF0E
:1022E000FFFFFFFFFFFFFFFFFFFFFFFFFFFFFFFFFE
:1022F000FFFFFFFFFFFFFFFFFFFFFFFFFFFFFFFFEE
:1023000080B400AF00231846BD465DF8047B7047DB
:1023100080B400AF024B1846BD465DF8047B7047A1
:102320006C8A000080B400AF0D231846BD465DF8EE
:10233000047B70470CB480B586B000AF786039601C
:102340003B6A012B03D8194800F01CFD27E007F178
:102350002403BB60BB681A1DBA601B683B61BB6885
:102360001A1DBA601B6803F120539B00FB60012318
:102370007B613B6A032B04D1BB681A1DBA601B68E2
:102380007B613A697B699B00F86811461A4605F043
:10239000EDFE074879693A69FB6800F0F3FC1837ED
:1023A000BD46BDE8804002B0704700BFC089000054
:1023B000DC8900000CB480B588B000AF786039606B
:1023C000BB6A002B03D11F4800F0DCFC34E007F1AE
:1023D0002C033B613B691A1D3A611B6803F12053D2
:1023E0009B007B610123FB61BB6A022B04D13B692B
:1023F0001A1D3A611B68FB611348F969BA6A00F05B
:10240000C1FC124800F0BEFC0023BB610DE0BB69BB
:102410009B007A6913441B68FB60FB680C481946F3
:1024200000F0B0FCBB690133BB61BA69FB699A4239
:10243000EDDB084800F0A6FC2037BD46BDE8804033
:1024400002B07047088A00001C8A0000308A000031
:10245000388A0000408A00000CB42DE9F04188B0B1
:1024600000AF7860396069468846B96B012904D8A5
:102470002B4800F087FC00234AE007F13C01B960DB
:10248000B968081DB86009687977B968081DB8602F
:10249000096879830121F983B96B022904D9B968E4
:1024A000081DB8600968F983FE8B314601397961EE
:1024B000B0B24FF00001CD0045EA5075C400B0B293
:1024C0004FF00001CB0043EA5073C200334607339C
:1024D000DB08DB00ADEB030D6B4600333B61396974
:1024E0007A7FFB8B084611461A4605F03FFE396994
:1024F000FA8B7B8B084611461A4601F051FCF860B6
:10250000FB6823F07F430748194600F03BFC01239A
:10251000C546012B2037BD46BDE8F04102B07047EB
:10252000C0890000448A00000CB42DE9F04389B052
:1025300000AF786039606B461E463B6C012B02D8B9
:10254000294800F01FFC07F14403FB60FB681A1DDB
:10255000FA601B68BB83FB681A1DFA601B687B83EB
:10256000798B0B46013B7B618AB24FF000034FEA47
:10257000C30949EA52794FEAC2088AB24FF0000310
:10258000DD0045EA5275D4000B460733DB08DB005B
:10259000ADEB030D6B4600333B6139697A8BBB8B26
:1025A000084611461A4601F0B9FC104800F0EAFB53
:1025B0000023FB8309E0FB8B3A69D35C0C48194686
:1025C00000F0E0FBFB8B0133FB83FA8B7B8B9A42A1
:1025D000F1D3084800F0D6FBB5462437BD46BDE828
:1025E000F04302B0704700BF548A0000308A0000F8
:1025F000688A0000408A000080B483B000AF786031
:1026000039607A683B681A600C37BD465DF8047B18
:10261000704700BF80B483B000AF786039603B681A
:102620001B681A467B689A4209D33B681B681A46A6
:102630007B68D31A1A463B681A60002304E03B68A3
:102640004FF0FF321A60012318460C37BD465DF883
:10265000047B704780B58AB006AFF860B9607A60D5
:102660003B607B689AB2BB690093FB6901930023CE
:1026700002930023039300230493F868B9683B682E
:1026800004F066FA1037BD4680BD00BF80B500AFCC
:1026900004F058FB80BD00BF80B582B000AF786009
:1026A0007B681A1D7B6803F519731046194602F002
:1026B0007DFA02460B4B1A600A4B1B68002B08D0B0
:1026C0007B681A1D7B6803F519731046194602F0E2
:1026D000C7F97B684FF47A701946FFF78DFF08370A
:1026E000BD4680BD402D001080B584B000AF78603D
:1026F0001423FB6002F01EFDFB680020194600F069
:1027000021FC7B6803F11402FB681046194600F0B7
:102710005BFEFA687B6810461946FFF77BFF0346AD
:10272000002B08D0064801F017FF7B684FF47A7041
:102730001946FFF761FFFB68184602F02BFCD7E74C
:102740001F00004080B483B000AF786039600C3760
:10275000BD465DF8047B704790B583B002AF4FF083
:10276000FF301F2103F0A4FA05201E2103F0A0FA78
:10277000234801F01FFF2348002101F071FE224889
:10278000012101F06DFE01F0C1FA002002F0FEFF10
:1027900001F018FC02F01EF8FFF7BAFD0446FFF73F
:1027A000C1FD03462046194602F08CFC174803F091
:1027B0007BF9002000F094FBFFF7A2FD03469AB2DC
:1027C000002300930023019311481249002300F0D5
:1027D00035FD0E48FFF760FF0123009300230193AE
:1027E0000D480E498022094BFFF734FF0C4800F0DA
:1027F000C9FAFFF74BFF002318460437BD4690BDCA
:10280000452700001F00004003000020D82A0010C8
:10281000EC2A001088820000E92600003C8B0000B2
:10282000488B000080B584B000AFF860B9607A6072
:10283000024800F0A7FA1037BD4680BD548B000057
:102840000CB480B584B000AF7860396007F11C0328
:10285000FB607B6803F5C6731846B969FA68FFF731
:10286000E1FF1037BD46BDE8804002B0704700BFB1
:102870000CB480B584B000AF7860396007F11C03F8
:10288000FB607B6803F5D2731846B969FA68FFF7F5
:10289000C9FF1037BD46BDE8804002B0704700BF99
:1028A0000CB480B584B000AF7860396007F11C03C8
:1028B000FB607B6803F501731846B969FA68FFF796
:1028C000B1FF1037BD46BDE8804002B0704700BF81
:1028D0000CB480B584B000AF7860396007F11C0398
:1028E000FB607B6803F507731846B969FA68FFF760
:1028F00099FF1037BD46BDE8804002B0704700BF69
:102900000CB480B584B000AF7860396007F11C0367
:10291000FB607B6803F5DE731846B969FA68FFF758
:1029200081FF1037BD46BDE8804002B0704700BF50
:102930000CB480B584B000AF7860396007F11C0337
:10294000FB607B6803F5F6731846B969FA68FFF710
:1029500069FF1037BD46BDE8804002B0704700BF38
:102960000CB480B584B000AF7860396007F11C0307
:10297000FB607B6803F5EA731846B969FA68FFF7EC
:1029800051FF1037BD46BDE8804002B0704700BF20
:102990000CB480B584B000AF7860396007F11C03D7
:1029A000FB607B6803F50D731846B969FA68FFF799
:1029B00039FF1037BD46BDE8804002B0704700BF08
:1029C0000CB480B584B000AF7860396007F11C03A7
:1029D000FB607B6803F513731846B969FA68FFF763
:1029E00021FF1037BD46BDE8804002B0704700BFF0
:1029F00080B582B000AF786039607B68002B0AD068
:102A00007B681B683A68D2B21A707B681B685A1CD4
:102A10007B681A6002E0386802F000FB0837BD46A8
:102A200080BD00BF2DE9F04184B000AFF860B9600F
:102A30007A603B6000244FF020087B68002B17DD94
:102A40000025BE6801E0013501363378002BFAD14C
:102A50007B689D4202DB00237B6002E07B685B1B9E
:102A60007B603B6803F00203002B01D04FF030087D
:102A70003B6803F00103002B0BD107E0F8684146E7
:102A8000FFF7B6FF01347B68013B7B607B68002B5E
:102A9000F4DC09E0BB681B78F8681946FFF7A8FF6B
:102AA0000134BB680133BB60BB681B78002BF1D1DC
:102AB00007E0F8684146FFF79BFF01347B68013B64
:102AC0007B607B68002BF4DC234618461037BD463C
:102AD000BDE8F0812DE9F04389B000AFF860B9603E
:102AE0007A603B604FF000090026BD68BB68002B90
:102AF0000DD130233B7500237B7507F11403F86873
:102B000019463A6C7B6CFFF78DFF03464AE03B6841
:102B1000002B0AD07B680A2B07D1BB68002B04DA94
:102B20004FF00109BB685B421D4607F114040B34EA
:102B30000023237015E07B68B5FBF3F203FB02F37F
:102B4000EB1A9846B8F1090F02DDBB6C3A3B98448A
:102B5000013C5FFA88F33033DBB223707B68B5FB4E
:102B6000F3F5002DE7D1B9F1000F13D03B6C002B2A
:102B70000DD07B6C03F00203002B08D0F8682D21E8
:102B8000FFF736FF01363B6C013B3B6402E0013C42
:102B90002D232370F86821463A6C7B6CFFF742FFC7
:102BA0000346334418462437BD46BDE8F08300BFD2
:102BB0002DE9F0418AB004AFF860B9607A603B60FB
:102BC0000024CBE0BB681B78252B40F0BD80BB68A0
:102BD0000133BB6000263546BB681B78002B00D153
:102BE000C1E0BB681B78252B00D1ADE0BB681B782A
:102BF0002D2B03D1BB680133BB60012604E0BB6809
:102C00000133BB6046F00206BB681B78302BF6D060
:102C10000BE02B469B002B445B001D46BB681B78DA
:102C2000303B1D44BB680133BB60BB681B782F2B56
:102C300003D9BB681B78392BEBD9BB681B78732B86
:102C400013D13B681A1D3A601B689846B8F1000F13
:102C500001D0434600E04A4BF86819462A463346FD
:102C6000FFF7E0FE03461C4475E0BB681B78642B4D
:102C700003D0BB681B78692B10D13B681A1D3A60E2
:102C80001A680095019661230293F86811460A229A
:102C90000123FFF71FFF03461C445CE0BB681B7861
:102CA000782B10D13B681A1D3A601A68009501967E
:102CB00061230293F868114610220023FFF70AFFF0
:102CC00003461C4447E0BB681B78582B10D13B6877
:102CD0001A1D3A601A680095019641230293F8681C
:102CE000114610220023FFF7F5FE03461C4432E094
:102CF000BB681B78752B10D13B681A1D3A601A68A7
:102D00000095019661230293F86811460A22002378
:102D1000FFF7E0FE03461C441DE0BB681B78632BF5
:102D200019D13B681A1D3A601B68DBB23B75002362
:102D30007B7507F11403F86819462A463346FFF7F6
:102D400071FE03461C4406E0BB681B78F868194610
:102D5000FFF74EFE0134BB680133BB60BB681B78D4
:102D6000002B7FF42FAFFB68002B03D0FB681B68A0
:102D700000221A70234618461837BD46BDE8F08178
:102D8000748B00000FB480B582B000AF07F114035C
:102D90007B60002039694FF0FF327B68FFF708FF46
:102DA000034618460837BD46BDE8804004B070476A
:102DB00080B584B000AF78600A23FB7301237B7376
:102DC0000023BB607B681B782D2B04D1FF237B7312
:102DD0007B6801337B607868294905F012FA034665
:102DE000002B05D01023FB737B6802337B600BE064
:102DF0007868244905F005FA0346002B04D0022325
:102E0000FB737B6802337B6027E07B681B78803331
:102E10001D4AD35C03F02003002B05D07B681B7890
:102E2000303BDBB2BB730CE07B681B78373BDBB21B
:102E3000BB7397F90E300F2B03DDBB7B203BDBB25E
:102E4000BB7397F90F30BA6802FB03F297F90E30A3
:102E50001344BB607B6801337B607B681B788033E5
:102E6000094AD35C03F0A003002BCED197F90D30B3
:102E7000BA6802FB03F318461037BD4680BD00BF99
:102E80007C8B0000808B0000A49A000080B582B08B
:102E900000AF7860786801F0A1FA0837BD4680BDC0
:102EA00080B582B000AF0346FB71FB79012B05D8DA
:102EB000094B00221A60084B1B6808E0064B074AC2
:102EC0001A60054B1B681846FFF7E0FF034B1846D6
:102ED0000837BD4680BD00BF402D00100100000234
:102EE00080B582B000AF0346FB71FB791846FFF74F
:102EF000D7FF0346002B05D0FB791846FFF7D0FF1C
:102F0000034610E00A480B490322102302F0DAFDC1
:102F100009480A490322102302F0D4FD084B00227D
:102F20001A60074B1B6818460837BD4680BD00BFB6
:102F30005800001028000010A000001070000010C1
:102F4000402D001080B582B000AF03463960FB71A0
:102F5000FB791846FFF7A4FF0346002B05D0FB7949
:102F60001846FFF79DFF034604E0044B00221A6059
:102F7000024B1B6818460837BD4680BD402D001027
:102F800080B584B000AFB9607A603B600346FB73E4
:102F9000FB7B1846FFF784FF0346002B05D0FB7B25
:102FA0001846FFF77DFF034604E0044B00221A6039
:102FB000024B1B6818461037BD4680BD402D0010DF
:102FC00080B582B000AF03463960FB71FB791846CB
:102FD000FFF766FF0346002B05D0FB791846FFF785
:102FE0005FFF034604E0044B00221A60024B1B689B
:102FF00018460837BD4680BD402D001080B582B010
:1030000000AF03463960FB710448396802F0D6FD11
:10301000034618460837BD4680BD00BF5800001063
:1030200080B483B000AF0346FB71054B00221A60E9
:10303000002318460C37BD465DF8047B704700BF7F
:10304000402D001080B483B000AF786039607A689A
:103050003B681A600C37BD465DF8047B704700BFC3
:1030600080B483B000AF786039603B681B681A4653
:103070007B689A4209D33B681B681A467B68D31A5F
:103080001A463B681A60002304E03B684FF0FF32A9
:103090001A60012318460C37BD465DF8047B704763
:1030A00080B582B000AF78607B6819687B689A88C9
:1030B0007B681B7A786802F005FD034618460837DE
:1030C000BD4680BD80B485B000AF78600B467B8084
:1030D00013467B700023FB603EE07B68D3F8301121
:1030E000FA6813465B0013449B000B441B887A88E4
:1030F0009A422ED17B68D3F83011FA6813465B00F0
:1031000013449B000B44DB7803F0C003002B09D071
:103110007B68D3F83011FA6813465B0013449B00B8
:103120000B4421E07B68D3F83011FA6813465B004A
:1031300013449B000B449B787A789A4209D17B68B0
:10314000D3F83011FA6813465B0013449B000B441C
:103150000AE0FB680133FB607B68B3F834311A4640
:10316000FB689A42B9D8002318461437BD465DF86B
:10317000047B704780B584B000AFF8600B467A607E
:103180007B81FB689B789BB27A899A4200D913E0D5
:10319000FB685B68FA68D27802F03F02798901FB2C
:1031A00002F29918FB68DB7803F03F033A1D0846EA
:1031B00011461A4604F0D8FF1037BD4680BD00BF47
:1031C00080B584B000AF78600B467B807B689B78CD
:1031D0009BB27A889A4201D9002315E07B685B682C
:1031E0007A68D27802F03F02798801FB02F21A4431
:1031F0007B68DB7803F03F0307F10C0108461146BA
:103200001A4604F0B1FFFB6818461037BD4680BD72
:1032100080B584B000AF78607B685A687B68DB78E3
:1032200003F03F0307F10C01084611461A4604F06B
:103230009BFFFB6818461037BD4680BD80B588B03F
:1032400000AFF860B96011461A460B46FB80134682
:103250007B71FB68BA68C3F83021FB68FA88A3F871
:103260003421FB687F2283F83821FB68BA6AC3F8EF
:103270003C21FB68FA6AC3F84021FB687A7983F83D
:103280005C21FB6893F85C31184600214FF0FF3257
:103290000023FFF775FEFB6893F85C21FB681B7E3B
:1032A000104619464FF0FF320023FFF769FEFB6816
:1032B00093F85C3118464FF4C0614FF0FF320023A1
:1032C000FFF75EFEFB6893F85C21FB681B7E03F54D
:1032D000C063104619464FF0FF320023FFF750FE3F
:1032E000FB6A002B09D0FB6893F85C3118468021FB
:1032F0006FF0FF020023FFF743FEFB6893F85C21A9
:10330000FB68D3F8E030104619464FF0FF32002337
:10331000FFF736FEFB6893F85C21FB68D3F8E830D2
:10332000104619464FF0FF320023FFF729FEFB68D5
:1033300003F5B072FB6808331046194604220423D3
:1033400002F0C0FBFB6800229A60FB680022DA6092
:10335000FB6800221A61FB6800225A61FB680022A8
:103360001A71FB689B8C1A46FB6803F5BA7310460A
:103370001946FFF767FE07F1100300221A600433B5
:1033800000221A60043300221A60043300221A60FB
:103390000433FB681B7E03F5E063BB6101233B77CD
:1033A000FB6893F85C2107F1100310461946FFF7FC
:1033B00007FE044B00221A60024B1B681846203798
:1033C000BD4680BD402D001090B58DB000AF786037
:1033D00039607B6893F83831042B05D1A74B002264
:1033E0001A60A64B1B688BE17B6893F85C2107F1A0
:1033F000100310461946FFF701FE02469F4B1A6064
:103400009E4B1B68002B6ED17B681B7E1A46BB69E6
:1034100003F07F039A4204D0BB6903F07F03002BC3
:1034200056D1BB6923F07F03802B1DD0B3F5C06F4D
:1034300002D0002B11D04BE03B7F072B00D847E098
:103440007B6893F83831042B00D141E007F1100379
:103450007868194600F01CFA3AE007F11003786822
:10346000194600F007FC33E07B6893F83831042BF1
:1034700000D12DE07B68D3F84031002B27D03B7F73
:10348000082B24D1BB69DBB203F07F03DAB27B687F
:1034900083F844213A8A7B68A3F846217A8A7B68BC
:1034A000A3F84821BA8A7B68A3F84A21FA8A7B6884
:1034B000A3F84C217B68D3F8404102F01FFC024680
:1034C0007B6803F5A27310461946A047FFE700BFCB
:1034D0007B6893F83831052B05D107F11003786824
:1034E000194600F051FB7B6803F5BA73386819463A
:1034F000FFF7B6FD0346002B36D07B6893F8380102
:103500007B681B7E03F5E063194607F11003002278
:103510001A60043300221A60043300221A60043354
:1035200000221A60043303463B74B96101233B77E0
:103530007B6893F85C311846FFF772FD0346052B54
:1035400008D17B6893F85C2107F1100310461946F7
:10355000FFF736FD7B689B8C1A467B6803F5BA73D0
:1035600010461946FFF76EFD7B6893F83831052B3E
:1035700005D0424B00221A60404B1B68C0E000237C
:1035800087F82F30B2E097F82F2013469B001344A2
:103590009B0040337A6813440433BB62BB6A1B68E8
:1035A000002BC0F29E80BB6A1B68BB61BB6A5B6874
:1035B000FF2B00D095E0BB6ADA683B681A44BB6A0F
:1035C000DA60BB6ADA68BB6A1B699A4209D3BB6AD4
:1035D0000022DA60002387F82D30002387F82E3090
:1035E0006FE07EE097F82F2097F82E30D20013443A
:1035F00020339B007A6813447B627B6A1B88002B14
:1036000003D17B6A9B78002B5FD07B6A1A887B6A28
:103610009B78786811461A46FFF754FD38623B6A7A
:10362000002B05D1154B23221A60144B1B6867E051
:103630003B6ADB7803F0C003002B0BD07B6A9B78DE
:103640009BB2013B9BB2386A1946FFF7B9FD0346AE
:10365000FB6004E0386AFFF7DBFD0346FB6097F888
:103660002D307A6AD2781344082B02DD7B6A00225F
:10367000DA70002387F82C3018E000BF402D0010CE
:1036800097F82D305A1C87F82D20194697F82C30C2
:1036900007F10C0213441A7807F130030B4403F8C6
:1036A000202C97F82C30013387F82C307B6ADB789C
:1036B00097F82C209A42E3D397F82E30013387F8FD
:1036C0002E3097F82E30072B8CD997F82D303B777A
:1036D0007B6893F85C2107F1100310461946FFF749
:1036E0006FFC97F82F30013387F82F3097F82F3081
:1036F000022B7FF648AF044B00221A60024B1B6876
:1037000018463437BD4690BD402D001080B483B0BC
:1037100000AF78600B46FB707B68FA7883F838213D
:10372000054B00221A60044B1B6818460C37BD4637
:103730005DF8047B704700BF402D001080B588B055
:1037400000AFF860B9607A6080233B74BB685B7837
:103750007B74BB685B781A46BB689B781B0213447A
:103760001B12DBB2BB74BB68DB78FB747B68DBB21B
:103770003B757B681B0ADBB27B757B681B0CDBB27D
:10378000BB757B681B0EDBB2FB75FB681B7E803351
:10379000BB6108233B77FB6893F85C2107F11003BA
:1037A00010461946FFF70CFC2037BD4680BD00BF10
:1037B00080B58AB000AFF860B9603B601346FB711A
:1037C00007F1100300221A60043300221A60043348
:1037D00000221A60043300221A600433FB793B7420
:1037E000BB685B787B74BB685B781A46BB689B7868
:1037F0001B0213441B12DBB2BB74BB68DB78FB7487
:10380000FB681B7E03F5B063BB6108233B77002395
:1038100087F827303B68002B1BD0002387F8273020
:1038200011E097F82730043397F8272039680A44C5
:10383000127807F128010B4403F8182C97F8273069
:10384000013387F8273097F8272097F830309A42CD
:10385000E7D30DE097F82730043307F1280213442B
:10386000002203F8182C97F82730013387F8273007
:1038700097F82730032BEDD9FB6893F85C2107F10B
:10388000100310461946FFF79BFB2837BD4680BD45
:1038900090B589B002AF786039603B685B789AB2C6
:1038A0003B689B789BB21B029BB213449AB23B6865
:1038B000DB78786811461A46FFF704FC38613B69EB
:1038C000002B05D178683968A24AFFF737FF53E12A
:1038D0003B681B78402B4ED13B691B7A03F00103F8
:1038E000002B05D1786839689B4AFFF727FF43E131
:1038F0003B69DB7803F0C003002B30D03B68DB78FA
:10390000002B21D03B68DA783B699B789A4215D826
:103910003B68DB789BB2013B9BB238691946FFF7E5
:103920004FFC0346FB6007F10C0404230093786806
:10393000396842222346FFF73BFF1DE1786839686A
:10394000844AFFF7FBFE17E13B699C1C01230093AF
:103950007868396842222346FFF72AFF0CE13B6969
:103960005C683B69DB7800937868396842222346BB
:10397000FFF71EFF00E13B681B782F2B0CD03B6844
:103980001B782B2B08D03B681B78232B04D03B687B
:103990001B78222B40F0EB803B691B7A03F002037B
:1039A000002B00F0DD803B685B781A463B689B7813
:1039B0001B02134441F2030293422FD13B68DB7890
:1039C000002B2BD17B6803F5B0731846FFF768FB1B
:1039D0000023FB7209E03B695B68FA7A134400221A
:1039E0001A70FB7A0133DBB2FB72FB7A1A463B6931
:1039F0009B7819463B69DB7803F03F0303FB01F337
:103A00009A42E8DB07F10B040123009378683968D8
:103A100060222346FFF7CCFE00BFADE03B69DB78B8
:103A200003F0C003002B1DD03B68DB78002B06D0D1
:103A30003B68DB78013B3A699278934205DB786812
:103A40003968464AFFF77AFE96E03B68DB789BB21E
:103A5000013B9AB23B685B68386911461A46FFF72A
:103A600089FB15E00023FB750BE03B695A68FB7D81
:103A70001344FA7D043239688A5C1A70FB7D013385
:103A8000FB753B69DB78FA7D9A42EED30023FB7528
:103A9000002300937868396860220023FFF788FECE
:103AA0003B685B781A463B689B781B02134441F2E3
:103AB0001002934220D13B68DB78012B1CD13B697B
:103AC0005B681B78732B17D13B695B6801331B78EC
:103AD000612B11D13B695B6802331B78762B0BD1CC
:103AE0003B695B6803331B78652B05D13B695B68D9
:103AF00000221A6001F058F93B685B781A463B686F
:103B00009B781B02134441F2110293422ED13B6871
:103B1000DB78012B2AD13B695B681B786C2B25D1A4
:103B20003B695B6801331B786F2B1FD13B695B6876
:103B300002331B78612B19D13B695B6803331B7817
:103B4000642B13D13B695B6800221A6001F074F9A1
:103B500012E000BF0000020601000106000001069D
:103B600078683968064AFFF7E9FD05E004E07868FF
:103B70003968044AFFF7E2FD1C37BD4690BD00BF1F
:103B8000020001060100040580B588B000AF78602E
:103B900039600023FB7766E0FB7F9BB203F5A053FF
:103BA0009BB2786819460022FFF78CFAB861BB69AE
:103BB000002B55D0B8690021FFF702FB02463B6895
:103BC0009B689A424CD1FB7F9BB203F5B0539BB2EA
:103BD000786819460022FFF775FAB861BB69002BB7
:103BE00000D143E000237B770023BB7734E0BB7F29
:103BF0009BB2B8691946FFF7E3FA78617B69002B3D
:103C000026D07B691B0C7B827B691B0A7B747B69DA
:103C1000DBB2DB083B747A8A7B7C786811461A46F3
:103C2000FFF750FAF860FB68002B00D117E0FB6843
:103C30005968BB695A687B7F1A443B7C0846114629
:103C40001A4604F091FA7A7F3B7C13447B7700E0BC
:103C500005E0BB7F0133BB77BB7F072BC7D905E0EE
:103C6000FB7F0133FB77FB7F012B95D92037BD46C6
:103C700080BD00BFB0B584B002AF786039603B68EA
:103C80005A787B681B7E9A4203D03B685B78002B96
:103C900039D13B681B78802B15D0802B04DC012B9D
:103CA00007D0022B0AD02EE0812B11D0822B13D00B
:103CB00029E078680521FFF729FD24E078680421D0
:103CC000FFF724FD1FE078687F21FFF71FFD1AE052
:103CD000002001F04BF916E07B68D3F830117B68C7
:103CE000B3F834517B6893F85C417B68D3F83C218E
:103CF0007B68D3F840310092019378682A462346C6
:103D0000FFF79CFA00BF0837BD46B0BD80B400AFD6
:103D10001E4B00229A611D4A1D4B1B681D49A1FBC9
:103D20000313DB0B013B53611848194B1A68134608
:103D30001B019B1A5B0A184AA2FB0323D909144BE7
:103D40001A681346DB009B1ADB009B1A5B0A124AB7
:103D5000A2FB0323DB091B0219430D4B1A68134610
:103D60009B001344DA00D31A5B0A0B4AA2FB03231D
:103D7000DB091B040B430361084B00221A60074B4D
:103D80001B681846BD465DF8047B70478000200024
:103D900014000010819F5E16834B0400402D00101C
:103DA0002DE9F04387B000AF78600B467B80134667
:103DB0003B806B461E463A887B881344B3F57C6F84
:103DC00005DB534B534A1A60514B1B6899E0524A2A
:103DD000514BD3F8683F43F08053C2F8683F3B88AB
:103DE000DBB203F03F03FB75F97D0B46013B3B6102
:103DF000CAB24FF000034FEAC30949EA52794FEAC9
:103E0000C208CAB24FF00003DD0045EA5275D40083
:103E10000B460733DB08DB00ADEB030D6B460033CD
:103E2000FB60F868FB7D99B2FB7D9BB23A88D31AA0
:103E30009BB21A4600F072F80023BB820FE0364BAB
:103E400003221A6034493A88FB7DD31A4B60324909
:103E5000BB8AFA68D35C8B60BB8A0133BB82FB7D73
:103E60009BB2BA8A9A42EAD30023BB8240E02A4A34
:103E7000294BD3F8683F43F08063C2F8683F264B74
:103E800003221A6024493A88BB8A13444B602249B2
:103E9000BB8A7A6813441B788B60FB7D0133FB750A
:103EA000FB7D3F2B04D8BA8A7B88013B9A421CD108
:103EB00000BF194BD3F8603F03F08063002BF8D0AC
:103EC000154B06221A6000BF134BD3F8603F03F076
:103ED0008053002BF8D0104A0F4BD3F8683F43F0C3
:103EE0008053C2F8683F0023FB75BB8A0133BB8255
:103EF000BA8A7B889A42BAD3054B00221A60044BD7
:103F00001B68B54618461C37BD46BDE8F08300BFA8
:103F1000402D00100B0000168000200080B485B0FA
:103F200000AF78600B467B8013463B803A887B88E5
:103F30001344B3F57C6F05DD1F4B204A1A601E4BFE
:103F40001B6833E01E4A3B8853601D4A1C4BD3F864
:103F5000683F43F08063C2F8683F0023FB811CE0A8
:103F6000174B00221A6000BF154BD3F8603F03F0D7
:103F70008063002BF8D07B685A1C7A60104AD268A4
:103F8000D2B21A700E4A0E4BD3F8683F43F08063EA
:103F9000C2F8683FFB890133FB81FA897B889A422A
:103FA000DED3054B00221A60034B1B6818461437FA
:103FB000BD465DF8047B7047402D00100B000016D5
:103FC0008000200080B582B000AFD14B0022C3F842
:103FD0000021CF4ACE4BD3F8C43043F40063C2F87B
:103FE000C430CB4B41F21002C3F8DC21C94B012293
:103FF0001A60C84B00229A60C74AC74BD3F84031B9
:1040000043F4007343F00103C2F84031C24AC24B8B
:10401000D3F8443143F4007343F00103C2F8443150
:10402000BD4ABD4BD3F8483143F4007343F001035C
:10403000C2F84831B84AB84BD3F8503143F4007352
:1040400043F00103C2F85031B34AB34BD3F86031A7
:1040500043F4007343F00103C2F86031AE4AAE4B43
:10406000D3F8703143F4007343F00103C2F87031A8
:10407000A94AA94BD3F8743143F4007343F0010308
:10408000C2F87431A44AA44BD3F8803143F40073CE
:1040900043F00103C2F880319F4A9F4BD3F884312B
:1040A00043F4007343F00103C2F884319A4A9A4BF7
:1040B000D3F8883143F4007343F00103C2F8883128
:1040C000954A954BD3F88C3143F4007343F00103C8
:1040D000C2F88C31904A904BD3F8903143F400737E
:1040E00043F00103C2F890318B4A8B4BD3F89431E3
:1040F00043F4007343F00103C2F89431864A864BBF
:10410000D3F8983143F4007343F00103C2F89831B7
:10411000814A814BD3F89C3143F4007343F001038F
:10412000C2F89C317C4A7C4BD3F8A03143F4007335
:1041300043F00103C2F8A031774A774BD3F8A4319A
:1041400043F4007343F00103C2F8A431724A724B86
:10415000D3F8A83143F4007343F00103C2F8A83147
:104160006D4A6D4BD3F8AC3143F4007343F0010357
:10417000C2F8AC31684A684BD3F8B03143F40073ED
:1041800043F00103C2F8B031634A634BD3F8B43152
:1041900043F4007343F00103C2F8B4315E4A5E4B4E
:1041A000D3F8B83143F4007343F00103C2F8B831D7
:1041B000594A594BD3F8BC3143F4007343F001031F
:1041C000C2F8BC31544A544BD3F8003243F4007364
:1041D00043F00103C2F800324F4A4F4BD3F8043288
:1041E00043F4007343F00103C2F804324A4A4A4BD5
:1041F000D3F8083243F4007343F00103C2F80832E5
:10420000454A454BD3F80C3243F4007343F00103A5
:10421000C2F80C32404A404BD3F8103243F40073DA
:1042200043F00103C2F810323B4A3B4BD3F814323F
:1042300043F4007343F00103C2F81432364A364B9C
:10424000D3F8183243F4007343F00103C2F8183274
:10425000314A314BD3F81C3243F4007343F001036D
:10426000C2F81C322C4A2C4BD3F8203243F4007392
:1042700043F00103C2F82032274A274BD3F82432F7
:1042800043F4007343F00103C2F82432224A224B64
:10429000D3F8283243F4007343F00103C2F8283204
:1042A0001D4A1D4BD3F82C3243F4007343F0010335
:1042B000C2F82C32184A184BD3F8343243F4007346
:1042C00043F00103C2F83432134A134BD3F83832A7
:1042D00043F4007343F00103C2F838320E4A0E4B28
:1042E000D3F8643243F4007343F00103C2F864323C
:1042F000084B01229A62074B4FF42072C3F8002149
:10430000044B40F20332C3F80421024B032205E0C0
:1043100000C00F4000C0092000C002401A632C4BAF
:1043200006225A632A4B0A229A63294B0522DA6332
:10433000274B06221A64264B02225A64244B082279
:104340009A64234B0822DA64214B0A221A65204B17
:1043500002225A651E4B03229A65642001F07EFCFE
:104360001B4B40F283121A62C82001F077FC184BF5
:1043700040F203121A62164B02225A6200237B603B
:1043800002E07B6801337B607B687F2BF9D9104B9F
:1043900036225A620E4B83221A620E4B1B683B6018
:1043A0000B4B00221A623B68094A094BD3F80031D3
:1043B00043F40023C2F80031642001F04FFC064BA7
:1043C00000221A60044B1B6818460837BD4680BDA2
:1043D00000C00920009801A0402D001080B582B0D7
:1043E00000AF78607B68002B11D07B6823F07F42A0
:1043F0007B681B0E074811461A46FEF7C3FC7B6814
:1044000023F07F43262B02D90348FEF7BBFC083775
:10441000BD4680BD5C950000A095000080B582B0CF
:1044200000AF78607868FFF7D9FF0837BD4680BDD8
:1044300080B483B000AF0346FB71084997F9073099
:104440005B09FA7902F01F02012000FA02F241F83A
:1044500023200C37BD465DF8047B704700E100E087
:1044600080B584B000AF78600B46FB70786800219F
:1044700000F04AF9786800F071F9F860FB68002BE9
:1044800009D1114B114A1A600F4B1B681846FFF7F0
:10449000C5FF0E4B14E0FB681B687A6822F060428F
:1044A000012101FA02F21A43FB681A60FB7878686E
:1044B000194600F00DF8044B00221A60024B1B68ED
:1044C00018461037BD4680BD402D00100100000683
:1044D00080B584B000AF78600B46FB70FB78002B92
:1044E00014BF01230023FB70786800F037F9F860EF
:1044F000FB68002B09D1164B164A1A60144B1B6837
:104500001846FFF78BFF134B1EE0FB78002B0BD0F8
:10451000FB689B697A6822F06042012101FA02F28D
:104520001A43FB689A610AE0FB68DB697A6822F04B
:104530006042012101FA02F21A43FB68DA61044B7E
:1045400000221A60024B1B6818461037BD4680BD1A
:10455000402D00100100000680B584B000AF7860E7
:10456000786800F0FBF8F860FB68002B09D10F4B6E
:104570000F4A1A600D4B1B681846FFF74FFF0C4B94
:104580000FE0FB685B697A6822F06042012101FA62
:1045900002F25A40FB685A61044B00221A60034B36
:1045A0001B6818461037BD4680BD00BF402D001067
:1045B0000100000680B582B000AF7860044A7B68D5
:1045C00013602620FFF734FF0837BD4680BD00BFCB
:1045D000C000001090B583B000AF00237B602AE0DC
:1045E000374B9B6801217A6801FA02F21340002BD5
:1045F00008D1334B5B6801217A6801FA02F213405B
:10460000002B15D02F4B1B68002B11D02D4B1C6895
:1046100001F074FB02467B6810461946A047284902
:10462000274BDB6801207A6800FA02F21343CB6063
:104630007B6801337B60224B9B68002BD0D1204BE1
:104640005B68002BCCD100237B602CE01C4B9B6A69
:1046500001217A6801FA02F21340002B08D1184BAD
:104660005B6A01217A6801FA02F21340002B17D02D
:10467000144B1B68002B13D0124B1C6801F03EFB3F
:1046800002467B6803F1804310461946A0470C4957
:104690000B4BDB6A01207A6800FA02F21343CB620B
:1046A0007B6801337B60064B9B6A002BCED1044BA9
:1046B0005B6A002BCAD100BF00BF0C37BD4690BD5E
:1046C00080800240C000001080B483B000AF7860EA
:1046D0007B68094A934203D0084A934202D003E020
:1046E000074B02E0074B00E0002318460C37BD469D
:1046F0005DF8047B704700BF030000201F000040EE
:104700008CC002407CC1024080B586B000AF7860AA
:104710000B467B807B8823F48073FB827B8823F0AD
:104720002003BB82BB8A43F08003BB82BB8A83F435
:104730008073BB8200237B827B8823F440733B829F
:104740007B8843F08003FB817868FFF7BDFF02465A
:10475000FB8A136000BF1837BD4680BD80B483B0AC
:1047600000AF78607B6803F06043B3F1804F16D0F0
:10477000B3F1804F05D8002B0DD0B3F1005F0CD002
:1047800015E0B3F1004F0ED0B3F1204F0DD0B3F1CF
:10479000C04F06D00BE0094B0AE0094B08E0094B7B
:1047A00006E0094B04E0094B02E0094B00E000235E
:1047B00018460C37BD465DF8047B70470080092021
:1047C0002080092040800920608009208080092005
:1047D000A080092080B483B000AF6A4B40F207226A
:1047E000C3F80021674B40F20722C3F80821654B4C
:1047F00040F20722C3F81021624B40F20722C3F8AF
:104800000C21604B40F20722C3F814215D4B40F2AB
:1048100007221A615B4B40F207225A61594B40F262
:104820000722C3F87022574B40F20722C3F87422C4
:10483000544B40F20722C3F81821524B40F2072292
:10484000C3F81C214F4B40F20722C3F820214D4BE7
:1048500040F20722C3F824214A4B40F207229A6112
:10486000484B40F28732DA61464B40F20722C3F8E8
:10487000D020444B40F20722C3F8D420414B40F2F1
:104880000722C3F8D8203F4B40F20722C3F8DC20B0
:104890003C4B40F20722C3F8E0203A4B40F207229B
:1048A000C3F8E420374B40F287321A62354B40F2AE
:1048B00087325A62334B40F20722C3F83021314B22
:1048C00040F20722C3F834212E4B40F20722C3F8EE
:1048D000E8202C4B40F20722C3F8EC20294B40F291
:1048E0000722C3F8F020274B40F20722C3F8F42038
:1048F000254A264B1B689B092549A1FB0313DB0AAC
:10490000C2F8B831204A204BD3F8C43043F0010339
:10491000C2F8C4301F4B4FF020421A611D4B1E4A93
:104920001A601C4B1D4A5A601A4B1D4A9A60194B5B
:104930000922DA60174B40F62A029A610023FB80B5
:104940000BE0144AFB889BB28033002142F823100D
:10495000FB889BB201339BB2FB80FB889BB2FF2B91
:10496000EFD90C4A0B4B9B6943F0010393610D4B4C
:1049700000221A600B4B1B6818460C37BD465DF8C9
:10498000047B704700C0024000C00F4014000010BC
:104990002FE3BE0000800820C42F2757DF090D2019
:1049A00000381F07402D001080B582B000AF78603E
:1049B0007868FFF713FD0837BD4680BD80B485B029
:1049C00000AF786039600023BB8122E00823FB73CD
:1049D0007B685A1C7A601B781B029AB2BB895340D1
:1049E0009BB2BB81BB891BB2002B09DABB895B0080
:1049F0009BB283F4815383F001039BB2BB8102E03D
:104A0000BB895B00BB81FB7B013BFB73FB7B002B0A
:104A1000E8D13B68013B3B603B68002BD6DABB89A1
:104A200018461437BD465DF8047B704780B58AB0E0
:104A300000AF0948FEF7A6F9084B7B6272B639232E
:104A40003B6107F110013A467B6A084611469847D8
:104A50002837BD4680BD00BFF8950000F11FFF1F3D
:104A600090B585B000AF78603960474A7B681360C5
:104A7000464A3B6813603A687B68D31A0433FB608C
:104A8000FB68002B09DA424B424A1A60404B1B6814
:104A90001846FFF789FF3F4B72E0FB68B3F5004F04
:104AA00009DD3B4B3C4A1A60394B1B681846FFF73F
:104AB0007BFF394B64E0FB68B3F5805F03DD4FF4A7
:104AC0000043FB601AE0FB68B3F5806F03DD4FF431
:104AD0008053FB6012E0FB68B3F5007F03DD4FF409
:104AE0008063FB600AE0FB68B3F5807F03DD4FF471
:104AF0000073FB6002E04FF48073FB607B684FF053
:104B0000AA32DA60254B1A687B681A607B681C68D9
:104B10007B681B68184603F04FFB03462046194686
:104B2000FFF74CFF03461A467B681A811C4B1A6834
:104B30007B685A603B684FF0AA321A607A68FB685B
:104B40009BB2104619464FF4805200F089F8034694
:104B5000FB72FB7A002B05D10D4B00221A600C4B27
:104B60001B680DE0FB7A0F481946FEF70BF9084B5E
:104B70000D4A1A60064B1B681846FFF715FF0A4BD3
:104B800018461437BD4690BDC4000010C800001080
:104B9000402D00100A0000080B0000080000001063
:104BA000040000100C9600000C00000880B586B0D0
:104BB00000AF786039603A687B68D31A0433BB6011
:104BC0007B683B614FF48053FB60204A7B68136035
:104BD0001F4A3B68136000237B610CE0FB681A7876
:104BE0003B691A703B6901333B61FB680133FB6031
:104BF0007B6901337B617A69BB689A42EEDB7B6833
:104C0000DB68B3F1AA3F09D0124B134A1A60114B6B
:104C10001B681846FFF7C8FE0F4B13E03B681B6884
:104C2000B3F1AA3F09D00B4B0C4A1A60094B1B6821
:104C30001846FFF7B9FE094B04E0064B00221A6044
:104C4000044B1B6818461837BD4680BDC4000010D1
:104C5000C8000010402D00100D0000080E000008D4
:104C600080B590B000AFF8600B467A607B8103F0AE
:104C7000ADF84A4B7B6372B67B89B3F5007F0ED0EB
:104C8000B3F5007F03DCB3F5807F08D005E0B3F512
:104C9000806F04D0B3F5805F01D00C2379E000BFB2
:104CA0007B68B3F5803F0BD37B68DB0B0E33FB6374
:104CB0007A897B681344013BDB0B0E33BB6308E04E
:104CC0007B681B0BFB637A897B681344013B1B0BDE
:104CD000BB6332233B62FB6B7B62BB6BBB6207F146
:104CE000200107F110027B6B0846114698473B698B
:104CF000002B03D062B63B69DBB24AE034233B624F
:104D0000FB6B7B62BB6BBB62254B1B68254AA2FB1E
:104D100003239B09FB6207F1200107F110027B6B63
:104D20000846114698473B69002B03D062B63B69A1
:104D3000DBB22EE032233B62FB6B7B62BB6BBB6260
:104D400007F1200107F110027B6B084611469847D6
:104D50003B69002B03D062B63B69DBB219E0332319
:104D60003B627B687B62FB68BB627B89FB620C4BAE
:104D70001B680C4AA2FB03239B093B6307F120013C
:104D800007F110027B6B08461146984762B63B69F3
:104D9000DBB218464037BD4680BD00BFF11FFF1F84
:104DA00014000010D34D621080B500AF0C4B1B688F
:104DB000002B09D10B4B0C4A1A600A4B1B68184692
:104DC000FFF7F2FD084B08E0054B1A68074B1B681C
:104DD00010461946FFF744FE0346184680BD00BF43
:104DE000C4000010402D00100C000008C800001086
:104DF00080B500AF0C4B1B68002B09D10B4B0C4A44
:104E00001A600A4B1B681846FFF7CEFD084B08E0F6
:104E1000054B1A68074B1B6810461946FFF7C6FE7C
:104E20000346184680BD00BFC4000010402D00108E
:104E30000C000008C800001080B582B000AF3B4BEA
:104E40001B68002B09D13A4B3A4A1A60384B1B6851
:104E50001846FFF7A9FD374B64E0344B1B6800226E
:104E6000DA60354B1B6800221A60334B1B681A4608
:104E70002E4B1B68D31A04337B607B68002B09DA46
:104E80002B4B2E4A1A602A4B1B681846FFF78CFDE5
:104E90002A4B47E07B68B3F5805F09DD244B284A45
:104EA0001A60234B1B681846FFF77EFD244B39E040
:104EB0007B68B3F5806F03DD4FF480537B6012E0B5
:104EC0007B68B3F5007F03DD4FF480637B600AE00D
:104ED0007B68B3F5807F03DD4FF400737B6002E0F5
:104EE0004FF480737B60114B1B681A467B689BB242
:104EF000104619464FF48052FFF7B2FE0346FB708E
:104F0000FB78002B05D10A4B00221A60084B1B6866
:104F100008E0074B074A1A60054B1B681846FFF765
:104F200043FD044B18460837BD4680BDC400001041
:104F3000402D00100C000008C80000100A000008F6
:104F40000B00000880B400AFBFF34F8F0549054B3D
:104F5000DB6803F4E062044B1343CB60BFF34F8F75
:104F6000FEE700BF00ED00E00400FA0580B582B066
:104F700000AF0346FB71FB79002B05D0012000F048
:104F800011FF00F039FF01E0FFF7DCFF0837BD46F5
:104F900080BD00BF80B584B000AF786001F0B6FF7F
:104FA0000346FB6007F10C031846796801F07AFEAE
:104FB0001037BD4680BD00BF80B584B000AF7860BB
:104FC00039600B4B0B4A1A60094B1B681846FFF7F8
:104FD00005FA09483968FDF7D5FE4FF0280383F339
:104FE0001188BFF36F8FBFF34F8FFB60FEE700BFE9
:104FF000402D0010190000132096000080B483B0EB
:1050000000AF0346FB71044AFB7913700C37BD46B1
:105010005DF8047B704700BF0800001080B582B0C7
:1050200000AF0346FB71134B1B78012B02D0022B00
:105030000DD01BE0002000F0E7FC0346002B05D05C
:10504000FB790020194600F067FC0FE00EE00A4BE8
:105050001B78082B05D8FB790A2B02D0FB790D2B86
:1050600003D1054B00221A70FFE700BF0837BD4689
:1050700080BD00BF08000010CC00001080B584B0D7
:1050800000AF786039600023FB6009E0FB687A6854
:1050900013441B781846FFF7C1FFFB680133FB6020
:1050A000FA683B689A42F1D31037BD4680BD00BF15
:1050B00080B582B000AF78607868FFF78FF9083765
:1050C000BD4680BD80B584B000AF78603960124ABB
:1050D0007B6813603B68DAB20F4B1A710E4B0022EB
:1050E0005A710D4B00229A714FF4FA7000F0B6FD20
:1050F00007F10B030020194600F05AFCF860FB682A
:10510000002B00D005E0FB7A3F2B01D1FFF78EFC8E
:10511000EEE71037BD4680BDD000001080B400AF70
:10512000034B1B791846BD465DF8047B704700BFF2
:10513000D0000010F0B591B004AFAA4B1B68002B53
:1051400009D1A94BA94A1A60A74B1B681846FFF75B
:10515000AFFFA64B78E107F117030020194600F0D6
:1051600027FCB861BB69002B02D10120FFF746FF85
:10517000BB69002B06D000BF9B4B00221A609A4BE4
:105180001B6861E1974B5B79C72B0CD9954B0022CB
:105190005A71954B964A1A60934B1B681846FFF755
:1051A00087FF934B50E107F1170318460121FFF7E2
:1051B00065FFFB7D1B2B07D18E480621FFF75EFFA5
:1051C000884B00225A713EE1FB7D082B0BD1854BA9
:1051D0005B79002B06D0834B5B79013BDAB2814BC4
:1051E0005A7130E12FE1FB7D0D2B03D0FB7D0A2BA3
:1051F00040F01E810023BB627F48FDF7C3FD794B61
:105200005B79002B03D17D48FDF7BCFD1BE1754B9D
:105210005B791A46734B134400229A71002387F876
:1052200027300023FB6260E0FB6A002B31D06D4A1F
:10523000FB6A13449B79222B2BD197F8273083F0FC
:105240000103DBB2002B1CD0FB6A013B654A13440F
:105250009B79002B1DD1634AFB6A134400229A718B
:10526000BB6A013BFA6A01325E490A4406329B007E
:1052700007F130010B4443F8302C012387F8273025
:1052800007E0002387F82730564AFB6A13440022C0
:105290009A7197F8273083F00103DBB2002B21D0FD
:1052A000504AFB6A13449B79202B1BD14D4AFB6A61
:1052B000134400229A71BB6A032B13DCFB6A01338F
:1052C000484A134406331846FDF772FD03461A4652
:1052D000BB6A9B0007F130010B4443F8302CBB6ADA
:1052E0000133BB62FB6A0133FB623E4B5B791A46BA
:1052F000FB6A9A4298DC3B4B00225A710023FB77F1
:1053000000233B6235E0374B1A683B6A1B011344AC
:105310005B683B48194602F02DFF0346002B25D160
:10532000304B1A683B6A1B011344DB68002B1AD010
:105330002C4B1A683B6A1B011344DC6800F0DEFC4E
:10534000284B1A683B6A1B0113441B889E46BE6AA1
:105350003D687968BA68FB680091019202937146D2
:1053600032462B46A0470123FB7708E03B6A013316
:105370003B62FFF7D3FE02463B6A9A42C3DCFB7FE7
:1053800083F00103DBB2002B4ED000233B623EE0F2
:105390001C4A3B6A1B0113445B681948194602F01A
:1053A000E9FE0346002B2FD10123FB77154A3B6A08
:1053B0001B01134408335C6800F0A0FC114A3B6AEF
:1053C0001B0113441B889E46BE6A3D687968BA6813
:1053D000FB68009101920293714632462B46A0472A
:1053E00018E000BFD0000010402D00101500000B89
:1053F0001200000BD8980000E0980000E49800002C
:10540000D60000106C9900003B6A01333B623B6A96
:10541000052BBDD9FB7F83F00103DBB2002B03D04A
:105420000B480C49FDF7AEFC0B48FDF7ABFC0AE05E
:105430000A4B5B795A1CD1B2084A51711946FA7D60
:10544000064B0B449A7186E618463437BD46F0BDCC
:10545000E8980000D6000010E4980000D00000108A
:105460000CB480B582B000AF78603960FFF7DEFA27
:105470000837BD46BDE8804002B070470CB480B527
:1054800084B000AF786039601848FDF77BFC0023DA
:10549000FB600BE0164AFB681B0113445B68154870
:1054A0001946FDF76FFCFB680133FB60FB68052BB9
:1054B000F0D90023FB600CE00F4B1A68FB681B015E
:1054C00013445B680B481946FDF75CFCFB6801332D
:1054D000FB60FFF723FE0246FB689A42ECDC1037C4
:1054E000BD46BDE8804002B0704700BFE0980000B4
:1054F0006C99000004990000D00000100CB480B535
:1055000086B000AF7860396007F12403FB60FB6868
:105510001A1DFA601B683B6100237B6120E02A4B67
:105520001A687B691B0113445B683869194602F0ED
:1055300021FE0346002B10D1234B1A687B691B0107
:1055400013445968204B1A687B691B0113449B68FC
:105550001E481A46FDF716FC30E07B6901337B617B
:10556000194B1B791A467B699A42D8DC00237B6170
:105570001EE0174A7B691B0113445B6838691946B2
:1055800002F0F8FD0346002B0FD1114A7B691B0185
:10559000134459680E4A7B691B01134408331B6886
:1055A0000A481A46FDF7EEFB08E07B6901337B6190
:1055B0007B69052BDDD90748FDF7E4FB1837BD46AD
:1055C000BDE8804002B07047D00000100C99000088
:1055D0006C9900001C9900000CB480B584B000AF39
:1055E00078603960BB69002B02D10020FFF7BEFC58
:1055F00007F11C03FB60FB681A1DFA601B68002B97
:1056000003D00120FFF7B2FC02E00020FFF7AEFC60
:105610001037BD46BDE8804002B070470CB480B57D
:1056200082B000AF78603960FFF7BEFB0346002B05
:1056300002D10448FDF7A6FB0837BD46BDE880400F
:1056400002B07047489900000CB480B582B000AF3A
:1056500078603960FFF7CCFB0346002B02D1044889
:10566000FDF790FB0837BD46BDE8804002B07047AB
:105670005099000080B582B000AF78607868FEF77E
:10568000ADFE0837BD4680BD80B483B000AF034691
:10569000FB71084997F907305B09FA7902F01F029C
:1056A000012000FA02F241F823200C37BD465DF8D4
:1056B000047B704700E100E090B585B000AF034681
:1056C000FB71FB791C4A52F823301B78DBB2FB726A
:1056D000FA7913469B0013449B002833164A1A4458
:1056E00007F10B031046194600F018FAF860FB6842
:1056F00023F07F43002B04D0104B1B681846FEF7A5
:105700006DFEFB790C4A04339B0013445B68002B4D
:105710000ED0FB79084A04339B0013445C6800F008
:10572000EDFA0146FB7AFA79084611461A46A04777
:105730001437BD4690BD00BFA8010010402D0010D9
:1057400080B500AF0020FFF7B7FF80BD80B582B005
:1057500000AF0346FB71FB79002B09D0094B0A4AC5
:105760001A60084B1B681846FFF784FF064B05E0DC
:1057700000BF044B00221A60024B1B681846083712
:10578000BD4680BD402D00101800000E80B584B0CD
:1057900000AF0346FB71FB791846FFF7D7FF0246BF
:1057A000544B1A60534B1B68002B02D0514B1B68A3
:1057B0009BE002F00BFBFB794F4A04339B00134440
:1057C00000225A600023FB60FB79002B0FD1FA798D
:1057D00013469B0013449B002833474A1344184642
:1057E00046490822012300F06DF90323FB60FB7991
:1057F000002B71D1404B424A1A60424B34221A604E
:10580000404B34225A6040493F4BD3F8C430FA79B8
:105810000332012000FA02F21343C1F8C4303B4BBB
:105820001B683B4AA2FB03231B0DBB60FB79324A7A
:1058300052F82330FA79304951F82220127BD2B243
:1058400062F07F02D2B21A73FB792B4A52F82330EE
:10585000BA68D2B21A70FB79274A52F82330BA6874
:10586000120AD2B21A71FB79234A52F82330FA682D
:10587000D2B21A73FB79204A52F8233001225A60BF
:10588000FB791D4A52F8233001221A72FB791A4A19
:1058900052F82330802283F8302000BFFB79053393
:1058A000DBB2DBB25BB21846FFF7EEFE124B93F8A9
:1058B0008C30D9B2FB79012202FA03F3DBB20A463B
:1058C0001343DBB2DAB20C4B83F88C20094B002275
:1058D0001A60084B1B6808E0064B0E4A1A60054B1D
:1058E0001B681846FFF7C6FE0A4B18461037BD4620
:1058F00080BD00BF402D0010A8010010A0010010C5
:1059000000C0004000C0024000C00F40180000105E
:10591000C5B3A2911800000E80B582B000AF034657
:105920000A46FB711346BB71FB791846FFF70EFF61
:105930000346002B05D0FB791846FFF707FF034607
:105940002BE0184B93F88C301A46FB7942FA03F39C
:1059500003F00103002B09D1134B144A1A60124BB8
:105960001B681846FFF786FE104B16E000BFFB7958
:105970000C4A52F823301B7DDBB203F04003002BAE
:10598000F5D0FB79074A52F82330BA791A7000BF74
:10599000054B00221A60044B1B6818460837BD46A9
:1059A00080BD00BFA8010010402D00101500000EA2
:1059B00080B584B000AF03463960FB71FB791846AF
:1059C000FFF7C4FE0346002B05D0FB791846FFF70E
:1059D000BDFE034611E000F0A9FAFA7913469B00D8
:1059E00013449B002833074A13441846396800F0D3
:1059F000E5F8F86000F0B2FAFB6818461037BD46CB
:105A000080BD00BFA801001080B483B000AF034682
:105A1000FB710A4B93F88C301946FB79012202FA8C
:105A200003F30B40002B14BF01230023DBB2184605
:105A30000C37BD465DF8047B704700BFA80100101D
:105A400080B582B000AF78607868FEF7C7FC083791
:105A5000BD4680BD80B483B000AF03463960FB71A2
:105A600097F90730002B0BDA0D49FB7903F00F0390
:105A7000043B3A68D2B2D200D2B20B441A7609E0A3
:105A8000084997F907303A68D2B2D200D2B20B4433
:105A900083F800230C37BD465DF8047B704700BFD8
:105AA00000ED00E000E100E080B483B000AF78607A
:105AB000034A7B6813600C37BD465DF8047B704772
:105AC0003802001080B485B000AFF860B9601146AC
:105AD0001A460B46FB8013467B71FB68BA681A6056
:105AE000FB68FA889A80FB680022DA80FB687A7982
:105AF0001A72FB681A68FB681A61FB681A69FB680E
:105B0000DA60054B00221A60034B1B6818461437F5
:105B1000BD465DF8047B7047402D001080B485B011
:105B200000AF786039607B68DA887B689B889A422E
:105B300005D3204B204A1A601E4B1B6833E000231C
:105B4000FB730EE07B68DB68FA7B39680A441278E5
:105B50001A707B68DB685A1C7B68DA60FB7B013358
:105B6000FB737B681B7AFA7B9A42EBD37B68DA681B
:105B70007B681B687968898808467968097A01FB1F
:105B800000F10B449A4203D17B681A687B68DA60A3
:105B90007B68DB8801339AB27B68DA80054B002290
:105BA0001A60044B1B6818461437BD465DF8047B29
:105BB000704700BF402D00101200000F80B485B068
:105BC00000AF786039607B68DB88002B05D1214B02
:105BD000214A1A601F4B1B6836E03B68002B16D029
:105BE0000023FB730EE0FB7B3A6813447A6812696A
:105BF00012781A707B681B695A1C7B681A61FB7BE0
:105C00000133FB737B681B7AFA7B9A42EBD37B6888
:105C10001A697B681B687968898808467968097AF7
:105C200001FB00F10B449A4203D17B681A687B6840
:105C30001A617B68DB88013B9AB27B68DA80054B8E
:105C400000221A60034B1B6818461437BD465DF8E6
:105C5000047B7047402D00101700000F80B485B002
:105C600000AF0346FB80FB88FB8114E00023BB6090
:105C700003E000BFBB680133BB600B4B1B680B4AE2
:105C8000A2FB03231A0BBB689A42F2D8FB899BB292
:105C9000013B9BB2FB81FB899BB2002BE6D1143701
:105CA000BD465DF8047B70471400001073B2E745F1
:105CB00080B582B000AF03463960FB713B681F2B93
:105CC0000BD897F9073018463968FFF7C3FE094B20
:105CD00000221A60074B1B6808E0064B064A1A6050
:105CE000044B1B681846FFF7ABFE034B18460837FA
:105CF000BD4680BD402D00101600000F80B400AFDF
:105D0000034B1B681846BD465DF8047B704700BF17
:105D10003802001080B500AF0348FDF733F8642067
:105D2000FFF79CFF80BD00BF389A000080B500AF30
:105D30000348FDF727F86420FFF790FF80BD00BF00
:105D4000409A000080B500AF0348FDF71BF86420BF
:105D5000FFF784FF80BD00BF509A000080B500AF00
:105D60000348FDF70FF86420FFF778FF80BD00BF00
:105D7000609A000080B500AF0348FDF703F8642087
:105D8000FFF76CFF80BD00BF709A000080B500AFC8
:105D90000348FCF7F7FF6420FFF760FF80BD00BFFA
:105DA000809A000080B584B000AF786002F00EF8F1
:105DB0007B68104A02FB03F3FB60FB68B3F1807F52
:105DC00002D36FF07F43FB604FF08042FB6853606B
:105DD0004FF0804303221A7072B64FF08043AA221C
:105DE0001A724FF0804355221A7262B61037BD46C0
:105DF00080BD00BF48E8010080B400AF72B64FF02C
:105E0000804303221A704FF08043AA221A724FF087
:105E1000804303221A7062B6BD465DF8047B70476A
:105E200080B485B000AFF860B9607A60FB68043B6D
:105E3000FB60FB684FF080721A60FB68043BFB60FC
:105E4000BA68FB681A60FB68043BFB60094AFB68A0
:105E50001A60FB68143BFB607A68FB681A60FB6899
:105E6000203BFB60FB6818461437BD465DF8047B99
:105E7000704700BF795E000080B483B000AF4FF080
:105E8000280383F31188BFF36F8FBFF34F8F7B60BD
:105E9000FEE700BF0000000000000000000000005E
:105EA000074B19680868B0E8F00F80F30988BFF362
:105EB0006F8F4FF0000080F311884EF00D0E704789
:105EC00060290010AFF30080AFF30080AFF30080D3
:105ED00006480068006880F3088862B661B6BFF3C0
:105EE0004F8FBFF36F8F00DF00BF000008ED00E0B1
:105EF00080B500AF0B4A0B4B1B6843F4780313606B
:105F0000084A084B1B6843F07843136000F088F898
:105F1000054B00221A60FFF7DBFFFFF7ADFF002300
:105F2000184680BD20ED00E00C00001080B483B066
:105F300000AF4FF0280383F31188BFF36F8FBFF3D7
:105F40004F8F7B60044B1B680133034A13600C378F
:105F5000BD465DF8047B70470C00001080B483B030
:105F600000AF094B1B68013B074A1360064B1B68D7
:105F7000002B04D100237B607B6883F311880C37EE
:105F8000BD465DF8047B70470C0000100000000067
:105F9000EFF30980BFF36F8F0D4B1A6820E9F00F04
:105FA00010602DE908404FF0280080F3118801F0BF
:105FB0006DF84FF0000080F31188BDE808401968C3
:105FC0000868B0E8F00F80F30988BFF36F8F70475F
:105FD00060290010AFF30080AFF30080AFF30080C2
:105FE00080B582B000AF4FF0280383F31188BFF370
:105FF0006F8FBFF34F8F7B6000F098FF0346002B3D
:1060000003D0064B4FF080521A6000233B603B6880
:1060100083F311880837BD4680BD00BF04ED00E062
:1060200080B400AF074A084B1B680849A1FB031363
:106030009B09013B1360064B07221A60BD465DF8C1
:10604000047B704714E000E014000010D34D621090
:1060500010E000E080B588B000AF786000237B617D
:1060600000F0B8FE3E4B1B68002B04D100F0B8F8DE
:106070003B4B01221A607B68002B0ED008231A4686
:106080007B6813447B607B6803F00703002B04D01C
:106090007B6823F0070308337B607B68002B57D0B5
:1060A0007B6842F20772934252D82E4BBB612D4B54
:1060B0001B68FB6104E0FB69BB61FB691B68FB615A
:1060C000FB695A687B689A4203D2FB691B68002B04
:1060D000F1D1FB69244A93423AD0BB691B6808227C
:1060E00013447B61FB691A68BB691A60FB695A68D3
:1060F0007B68D31A08225200934222D9FA697B683E
:106100001344FB60FB695A687B68D21AFB685A60CB
:10611000FB697A685A60FB685B68BB60114B3B6146
:1061200002E03B691B683B613B691B685A68BB68BE
:106130009A42F6D33B691A68FB681A603B69FA68B1
:106140001A600A4B1A68FB695B68D31A074A136026
:1061500000F04EFE7B6918462037BD4680BD00BF6B
:106160005C2900104C290010542900101000001068
:1061700080B586B000AF78607B683B617B68002BA0
:1061800027D008235B423A6913443B613B69FB60BB
:1061900000F020FEFB685B68BB600F4B7B6102E098
:1061A0007B691B687B617B691B685A68BB689A4284
:1061B000F6D37B691A68FB681A607B69FA681A6013
:1061C000FB685A68054B1B681344044A136000F0CF
:1061D0000FFE1837BD4680BD4C290010100000107E
:1061E00080B483B000AF0F4B23F007037B600E4AEF
:1061F0007B6813600C4B00225A600C4B42F2087211
:106200005A600A4B00221A607B683B603B6842F28E
:1062100008725A603B68054A1A600C37BD465DF843
:10622000047B7047440200104C29001054290010D0
:1062300080B483B000AF78607B6803F108027B68AC
:106240005A607B684FF0FF329A607B6803F1080266
:106250007B68DA607B6803F108027B681A617B68FF
:1062600000221A600C37BD465DF8047B704700BF02
:1062700080B483B000AF78607B6800221A610C376D
:10628000BD465DF8047B704780B485B000AF786090
:1062900039607B685B68FB603B68FA685A60FB6842
:1062A0009A683B689A60FB689B683A685A60FB682A
:1062B0003A689A603B687A681A617B681B685A1C66
:1062C0007B681A601437BD465DF8047B704700BFD9
:1062D00080B485B000AF786039603B681B68BB60F4
:1062E000BB68B3F1FF3F03D17B681B69FB600CE027
:1062F0007B680833FB6002E0FB685B68FB60FB685F
:106300005B681A68BB689A42F6D9FB685A683B68B2
:106310005A603B685B683A689A603B68FA689A60C2
:10632000FB683A685A603B687A681A617B681B6848
:106330005A1C7B681A601437BD465DF8047B7047B1
:1063400080B485B000AF78607B681B69FB607B68B8
:106350005B687A6892689A607B689B687A68526822
:106360005A60FB685A687B689A4203D17B689A68D6
:10637000FB685A607B6800221A61FB681B685A1E22
:10638000FB681A60FB681B6818461437BD465DF849
:10639000047B704780B584B000AF786039607B685B
:1063A000FB60FFF7C3FDFB681A68FB68DB6BF968ED
:1063B000096C01FB03F31A44FB685A60FB68002276
:1063C0009A63FB681A68FB689A60FB681A68FB6846
:1063D000DB6B013BF968096C01FB03F31A44FB68B2
:1063E000DA60FB684FF0FF325A64FB684FF0FF320F
:1063F0009A643B68002B14D1FB681B69002B1AD0F0
:10640000FB681033184600F0C7FE0346002B12D07D
:106410000C4B4FF080521A60BFF34F8FBFF36F8F5A
:1064200009E0FB6810331846FFF702FFFB682433CE
:106430001846FFF7FDFEFFF791FD012318461037C0
:10644000BD4680BD04ED00E080B586B000AFF860C9
:10645000B9607A603B60BB68002B02D100237B618E
:1064600004E0FB68BA6802FB03F37B617B69543389
:106470001846FFF7EFFD38613B69002B04D03B69FC
:1064800003F154027B681A603B6918461837BD4611
:1064900080BD00BF80B586B000AFF860B9607A609B
:1064A0003B603B1DF868B9681A463B68FFF7CCFFB4
:1064B00078617B69002B18D0BB68002B03D17B6906
:1064C0007A691A6002E07A687B691A607B69FA6807
:1064D000DA637B69BA681A6478690121FFF75AFFA9
:1064E0007B6997F8202083F850207B69184618377D
:1064F000BD4680BD80B58AB000AFF860B9607A60F3
:106500003B6000237B62FB683B62FFF70FFD3B6A49
:106510009A6B3B6ADB6B9A4202D33B68022B29D110
:10652000386AB9683A6800F0AFF9F8613B6A5B6AAB
:10653000002B10D03B6A2433184600F02DFE034692
:10654000002B13D03D4B4FF080521A60BFF34F8F9A
:10655000BFF36F8F0AE0FB69002B07D0374B4FF07A
:1065600080521A60BFF34F8FBFF36F8FFFF7F6FCB7
:1065700001235FE07B68002B03D1FFF7EFFC0023D2
:1065800058E07B6A002B06D107F11403184600F08F
:1065900059FE01237B62FFF7E1FC00F01BFCFFF7D3
:1065A000C5FC3B6A5B6CB3F1FF3F02D13B6A002242
:1065B0005A643B6A9B6CB3F1FF3F02D13B6A0022F5
:1065C0009A64FFF7CBFC07F114023B1D10461946F5
:1065D00000F04EFE0346002B24D1386A00F04AFA40
:1065E0000346002B18D03B6A03F110027B6810466B
:1065F000194600F09FFD386A00F0DAF900F0F8FB68
:106600000346002B15D10D4B4FF080521A60BFF39B
:106610004F8FBFF36F8F0CE0386A00F0C9F900F0BC
:10662000E7FB72E7386A00F0C3F900F0E1FB0023F2
:1066300000E06AE718462837BD4680BD04ED00E05B
:1066400080B58AB000AFF860B9607A603B60FB68E3
:106650003B62EFF311824FF0280383F31188BFF3FD
:106660006F8FBFF34F8FBA617B61BB69FB613B6A80
:106670009A6B3B6ADB6B9A4202D33B68022B24D1B4
:10668000386AB9683A6800F0FFF83B6A9B6CB3F16E
:10669000FF3F12D13B6A5B6A002B13D03B6A243365
:1066A000184600F079FD0346002B0BD07B68002BC9
:1066B00008D07B6801221A6004E03B6A9B6C5A1C7C
:1066C0003B6A9A6401237B6201E000237B62FB69E1
:1066D0003B613B6983F311887B6A18462837BD46C6
:1066E00080BD00BF80B58AB000AFF860B9607A6045
:1066F0003B6000237B62FB683B62FFF717FC3B6A51
:106700009B6B002B47D03B6ADB68FB61386AB9683A
:1067100000F028F93B68002B22D13B6A9B6B5A1E84
:106720003B6A9A633B6A1B68002B04D101F044F872
:1067300002463B6A5A603B6A1B69002B27D03B6AC2
:106740001033184600F028FD0346002B1FD04D4B98
:106750004FF080521A60BFF34F8FBFF36F8F16E078
:106760003B6AFA69DA603B6A5B6A002B0FD03B6ACE
:106770002433184600F010FD0346002B07D0414B90
:106780004FF080521A60BFF34F8FBFF36F8FFFF748
:10679000E5FB012372E07B68002B03D1FFF7DEFBF2
:1067A00000236BE07B6A002B06D107F11403184627
:1067B00000F048FD01237B62FFF7D0FB00F00AFBED
:1067C000FFF7B4FB3B6A5B6CB3F1FF3F02D13B6A5E
:1067D00000225A643B6A9B6CB3F1FF3F02D13B6AD3
:1067E00000229A64FFF7BAFB07F114023B1D104622
:1067F000194600F03DFD0346002B31D1386A00F008
:1068000023F90346002B25D03B6A1B68002B08D1D7
:10681000FFF78CFB3B6A5B68184600F0EFFEFFF762
:106820009DFB3B6A03F124027B681046194600F089
:1068300081FC386A00F0BCF800F0DAFA0346002B5D
:106840001BD1104B4FF080521A60BFF34F8FBFF334
:106850006F8F12E0386A00F0ABF800F0C9FA4CE72D
:10686000386A00F0A5F800F0C3FA386A00F0ECF8D6
:106870000346002B01D0002300E03EE718462837EE
:10688000BD4680BD04ED00E080B586B000AFF86085
:10689000B9607A6000237B61FB681B6C002B0DD113
:1068A000FB681B68002B52D1FB685B68184600F040
:1068B0001DFF7861FB6800225A6048E07B68002B6E
:1068C0001AD1FB689A68FB681B6C1046B9681A46B7
:1068D00001F04AFCFB689A68FB681B6C1A44FB6871
:1068E0009A60FB689A68FB685B689A422FD3FB68E2
:1068F0001A68FB689A602AE0FB68DA68FB681B6C20
:106900001046B9681A4601F02FFCFB68DA68FB688C
:106910001B6C5B421A44FB68DA60FB68DA68FB6850
:106920001B689A4207D2FB685A68FB681B6C5B4283
:106930001A44FB68DA607B68022B08D1FB689B6B0A
:10694000002B04D0FB689B6B5A1EFB689A63FB68A4
:106950009B6B5A1CFB689A637B6918461837BD46C7
:1069600080BD00BF80B582B000AF786039607B68C1
:106970001B6C002B19D07B68DA687B681B6C1A448F
:106980007B68DA607B68DA687B685B689A4203D36D
:106990007B681A687B68DA607B68DA687B681B6CE6
:1069A000386811461A4601F0DFFB0837BD4680BD46
:1069B00080B582B000AF7860FFF7B8FA14E07B686A
:1069C0005B6A002B0AD07B682433184600F0E4FB96
:1069D0000346002B03D000F08FFC00E008E07B684A
:1069E0009B6C5A1E7B689A647B689B6C002BE6DC70
:1069F0007B684FF0FF329A64FFF7B0FAFFF796FA20
:106A000014E07B681B69002B0FD07B68103318469D
:106A100000F0C2FB0346002B01D000F06DFC7B6848
:106A20005B6C5A1E7B685A6400E003E07B685B6C19
:106A3000002BE6DC7B684FF0FF325A64FFF78EFADA
:106A40000837BD4680BD00BF80B584B000AF786018
:106A5000FFF76CFA7B689B6B002B02D10123FB6074
:106A600001E00023FB60FFF779FAFB681846103756
:106A7000BD4680BD80B584B000AF7860FFF756FAA0
:106A80007B689A6B7B68DB6B9A4202D10123FB60C7
:106A900001E00023FB60FFF761FAFB68184610373E
:106AA000BD4680BD80B485B000AF786039600023FA
:106AB000FB6014E00E4AFB6852F83330002B0BD118
:106AC0000B49FB683A6841F83320094AFB68DB0050
:106AD00013447A685A6005E0FB680133FB60FB6889
:106AE000092BE7D91437BD465DF8047B704700BF1A
:106AF000442D001080B586B000AFF860B9607A60B0
:106B0000FB687B61FFF712FA7B695B6CB3F1FF3FB7
:106B100002D17B6900225A647B699B6CB3F1FF3F11
:106B200002D17B6900229A64FFF718FA7B699B6B9C
:106B3000002B06D17B6924331846B9687A6800F0C7
:106B40000FFB7869FFF734FF1837BD4680BD00BFE3
:106B500080B58AB002AFF860B9603B601346FB8035
:106B6000FB881846396B7A6B00F0B4FCB861BB69DE
:106B7000002B6BD0BB691A6BFB8803F18043013B90
:106B80009B0013447B617B6923F007037B61FB88D7
:106B90000093B869B968BA6ABB6B00F0D1FB786939
:106BA000F9683A68FFF73CF90246BB691A60FB6A6C
:106BB000002B02D0FB6ABA691A60FFF7B7F9324BB3
:106BC0001B680133304A1360304B1B68002B09D11E
:106BD0002E4ABB6913602C4B1B68012B0FD100F0B0
:106BE00001FC0CE02A4B1B68002B08D1274B1B68CB
:106BF000DA6ABB6A9A4202D8244ABB691360254B01
:106C00001B680133234A1360224B1A68BB699A64DC
:106C1000BB69DB6A1A46012303FA02F21E4B1B68AA
:106C200013431D4A1360BB69DA6A13469B00134481
:106C30009B001A4A1A44BB69043310461946FFF7F1
:106C400023FB0123FB61FFF789F902E04FF0FF33DB
:106C5000FB61FB69012B11D10D4B1B68002B0DD083
:106C60000A4B1B68DA6ABB6A9A4207D20C4B4FF098
:106C700080521A60BFF34F8FBFF36F8FFB691846C6
:106C80002037BD4680BD00BF742A00106029001067
:106C9000802A0010902A00107C2A0010642900101D
:106CA00004ED00E080B586B000AF78603960002365
:106CB0007B6100F08FF8214B1B683B617B681A6891
:106CC0003B681344FB607B681A683B699A420BD9A6
:106CD0007B681A68FB689A4211D9FA683B699A4244
:106CE0000DD901237B610AE07B681A68FB689A4230
:106CF00003D8FA683B699A4201D901237B617B681A
:106D0000FA681A607B69002B06D0FA683B69D31ACF
:106D10001846002100F064FD00F06AF8B860BB6816
:106D2000002B07D1064B4FF080521A60BFF34F8FF4
:106D3000BFF36F8F1837BD4680BD00BF782A0010A3
:106D400004ED00E080B58CB006AF00233B6100236A
:106D5000FB6080237B817A8900230093174B01938A
:106D6000FB6802933B69039300230493144815497D
:106D70000023FFF7EDFE78617B69012B02D100F063
:106D800093FD78617B69012B14D14FF0280383F3C5
:106D90001188BFF36F8FBFF34F8F7B600A4B4FF0AB
:106DA000FF321A60094B01221A60094B00221A6057
:106DB000FFF79EF81837BD4680BD00BF982A001027
:106DC000117300008C9A0000942A0010802A001091
:106DD000782A001080B400AF044B1B680133034ACB
:106DE0001360BD465DF8047B704700BF9C2A00100D
:106DF00080B582B000AF00237B6000233B60FFF7CB
:106E000095F8394B1B68013B374A1360364B1B68BA
:106E1000002B62D1354B1B68002B5ED030E0344B29
:106E2000DB68DB687B607B6818331846FFF788FAFD
:106E30007B6804331846FFF783FA7B68DB6A1A46DF
:106E4000012303FA02F22B4B1B681343294A1360F8
:106E50007B68DA6A13469B0013449B00264A1A4457
:106E60007B68043310461946FFF70EFA7B68DA6A2E
:106E7000224B1B68DB6A9A4202D3214B01221A6023
:106E80001B4B1B68002BCAD17B68002B01D000F084
:106E900073FB1C4B1B68002B11D00CE000F046F874
:106EA0000346002B02D0164B01221A60154B1B68BB
:106EB000013B144A1360134B1B68002BEED1104B9F
:106EC0001B68002B09D001233B600F4B4FF0805211
:106ED0001A60BFF34F8FBFF36F8FFFF73FF83B6828
:106EE00018460837BD4680BD9C2A0010742A001041
:106EF000342A00107C2A0010642900106029001038
:106F0000882A0010842A001004ED00E080B483B0C9
:106F100000AF054B1B687B607B6818460C37BD468D
:106F20005DF8047B704700BF782A001080B586B0FA
:106F300000AF00237B614A4B1B68002B7FD1494B7C
:106F40001B680133474A1360464B1B683B613B6932
:106F5000002B10D1444B1B68FB60444B1B68424A1A
:106F60001360424AFB681360414B1B680133404A7F
:106F7000136000F001FB3F4B1B683A699A424FD304
:106F8000394B1B681B68002B01D1012300E0002353
:106F9000002B04D0374B4FF0FF321A6040E0324BE9
:106FA0001B68DB68DB68BB60BB685B687B603A6959
:106FB0007B689A4203D22F4A7B68136030E0BB683B
:106FC00004331846FFF7BCF9BB689B6A002B04D05A
:106FD000BB6818331846FFF7B3F9BB68DB6A1A467B
:106FE000012303FA02F2244B1B681343224A136065
:106FF000BB68DA6A13469B0013449B001F4A1A447D
:10700000BB68043310461946FFF73EF9BB68DA6ADD
:107010001B4B1B68DB6A9A4201D301237B61AFE7FC
:10702000174B1B68DA6A154913469B0013449B00F3
:107030000B441B68012B07D901237B6104E0114B32
:107040001B6801330F4A13600F4B1B68002B01D0E4
:1070500001237B617B6918461837BD4680BD00BFA0
:107060009C2A0010782A00102C2A0010302A0010C8
:107070008C2A0010942A00107C2A00106429001029
:1070800060290010842A0010882A001080B584B07E
:1070900000AF234B1B68002B03D0224B01221A6048
:1070A0003BE0204B00221A601F4B1B681A681E4BE6
:1070B0001B681B6B9A4208D81B4B1A681A4B1B683B
:1070C000343310461946FDF777FF184B1B687B6079
:1070D0007B68B3FA83F3FB70FB78C3F11F03FB609B
:1070E000FA6813469B0013449B00114A1344BB608B
:1070F000BB685B685A68BB685A60BB685A68BB6803
:1071000008339A4204D1BB685B685A68BB685A600E
:10711000BB685B68DB68044A13601037BD4680BDFE
:107120009C2A0010882A0010602900107C2A001078
:107130006429001080B582B000AF78603960074BD9
:107140001B68183378681946FFF7C2F838680121C0
:1071500000F046FB0837BD4680BD00BF6029001027
:1071600080B584B000AFF860B9607A60094B1B68E5
:107170001833F8681946FFF787F87B68002B02D0B0
:107180004FF0FF33BB60B868796800F029FB103717
:10719000BD4680BD6029001080B584B000AF786026
:1071A0007B68DB68DB68BB60BB6818331846FFF799
:1071B000C7F81E4B1B68002B1ED1BB680433184652
:1071C000FFF7BEF8BB68DB6A1A46012303FA02F236
:1071D000174B1B681343164A1360BB68DA6A1346E1
:1071E0009B0013449B00134A1A44BB6804331046A7
:1071F0001946FFF749F805E0BB6818330E481946F1
:10720000FFF742F8BB68DA6A0C4B1B68DB6A9A42EC
:1072100005D90123FB600A4B01221A6001E000231B
:10722000FB60FB6818461037BD4680BD9C2A0010E5
:107230007C2A001064290010342A001060290010F4
:10724000882A001080B483B000AF7860064B1A68BB
:107250007B681A60054B1A687B685A600C37BD461C
:107260005DF8047B704700BF8C2A0010782A00105C
:1072700080B584B000AF78603960FEF757FE1C4BD4
:107280001B68BB603B681B68B3F1FF3F02D1002362
:10729000FB6026E07B681A68164B1B689A4207D091
:1072A0007B685A68BB689A4202D80123FB6018E0E9
:1072B0007B685B68BA68D21A3B681B689A420ED238
:1072C0003B681A687B685968BB68CB1A1A443B68EC
:1072D0001A607868FFF7B6FF0023FB6001E0012326
:1072E000FB60FEF73BFEFB6818461037BD4680BDCD
:1072F000782A00108C2A001080B400AF034B0122C2
:107300001A60BD465DF8047B704700BF882A0010F4
:1073100080B582B000AF786000F0A2F8064B1B6821
:10732000012B07D9054B4FF080521A60BFF34F8FE6
:10733000BFF36F8FF0E700BF6429001004ED00E099
:1073400080B586B000AFF860B9607A603B6000231A
:107350007B6113E0BA687B6913441978FA687B692A
:10736000134430330A461A71BA687B6913441B7898
:10737000002B00D105E07B6901337B617B69132B16
:10738000E8D9FB68002283F847207B68072B01D9E6
:1073900007237B60FB687A68DA62FB687A681A65A3
:1073A000FB6800225A65FB6804331846FEF760FF4D
:1073B000FB6818331846FEF75BFFFB68FA681A6132
:1073C0007B68C3F10802FB689A61FB68FA685A623D
:1073D000FB6800229A65FB68002283F85C2018375E
:1073E000BD4680BD80B582B000AF00237B600CE05D
:1073F0007A6813469B0013449B00114A13441846B5
:10740000FEF716FF7B6801337B607B68072BEFD9A3
:107410000C48FEF70DFF0C48FEF70AFF0B48FEF77D
:1074200007FF0B48FEF704FF0A48FEF701FF0A4B6F
:10743000044A1A60094B044A1A600837BD4680BDE9
:1074400064290010042A0010182A0010342A0010A1
:10745000482A0010602A00102C2A0010302A001040
:1074600080B582B000AF28E0FFF7B4FC164B1B6874
:10747000002B0CBF01230023DBB27B60FFF7B8FCBD
:107480007B68002B19D1FEF751FD0F4BDB68DB68E1
:107490003B603B6804331846FEF752FF0B4B1B68FA
:1074A000013B0A4A13600A4B1B68013B084A136000
:1074B000FEF754FD386800F04FF8054B1B68002BB1
:1074C000D2D10837BD4680BD482A0010742A00106A
:1074D0005C2A001080B586B000AF0346B9607A60C0
:1074E000FB81BB68002B06D1FB899B001846FEF789
:1074F000B1FD034600E0BB683B613B69002B17D040
:107500007B68002B04D16020FEF7A4FD034600E059
:107510007B687B617B69002B03D07B693A691A63C6
:1075200008E0BB68002B05D13869FEF721FE01E0B9
:1075300000237B617B69002B08D07B691A6BFB8978
:107540009B001046A5211A4600F010FE7B691846E4
:107550001837BD4680BD00BF80B582B000AF7860EF
:107560007B681B6B1846FEF703FE7868FEF700FE8B
:107570000837BD4680BD00BF80B483B000AF0E4B5E
:107580001B681B68002B01D1012300E00023002BA6
:1075900004D00A4B4FF0FF321A6008E0064B1B681C
:1075A000DB68DB687B607B685B68044A13600C37D0
:1075B000BD465DF8047B70472C2A0010942A001009
:1075C00080B483B000AF0B4B1B68002B02D10123AA
:1075D0007B6008E0084B1B68002B02D102237B6014
:1075E00001E000237B607B6818460C37BD465DF8E0
:1075F000047B7047802A00109C2A001080B584B05C
:1076000000AF78607B68FB607B68002B64D0FB6810
:10761000DA6A334B1B68DB6A9A425DD2FB689B696E
:10762000002B06DB2E4B1B68DB6AC3F10802FB68EC
:107630009A61FB685969FB68DA6A13469B00134438
:107640009B00284A1344994201D1012300E0002302
:10765000002B3CD0FB6804331846FEF771FE03464E
:10766000002B15D1FB68DA6A1E4913469B001344B0
:107670009B000B441B68002B0AD1FB68DB6A1A468F
:1076800001239340DA43184B1B681340164A1360DA
:10769000134B1B68DA6AFB68DA62FB68DB6A1A461E
:1076A000012303FA02F2104B1B6813430E4A1360C6
:1076B000FB68DA6A13469B0013449B00094A1A448C
:1076C000FB68043310461946FEF7DEFD04E0044B68
:1076D0001B68DA6AFB68DA621037BD4680BD00BFFE
:1076E00060290010642900107C2A001080B584B045
:1076F00000AF78607B68BB600023FB607B68002B79
:1077000051D0BB685B6D5A1EBB685A65BB68DA6AAC
:10771000BB681B6D9A4246D0BB685B6D002B42D1A3
:10772000BB6804331846FEF70BFE0346002B15D149
:10773000BB68DA6A1E4913469B0013449B000B4446
:107740001B68002B0AD1BB68DB6A1A4601239340F1
:10775000DA43184B1B681340164A1360BB681A6D56
:10776000BB68DA62BB68DB6AC3F10802BB689A6176
:10777000BB68DB6A1A46012303FA02F20D4B1B6851
:1077800013430C4A1360BB68DA6A13469B00134428
:107790009B00074A1A44BB68043310461946FEF79B
:1077A00073FD0123FB60FB6818461037BD4680BDA2
:1077B000642900107C2A001080B400AF074B1B68BE
:1077C000002B04D0054B1B685A6D01325A65034BE0
:1077D0001B681846BD465DF8047B704760290010A1
:1077E00080B584B000AF78603960284B1B680433E3
:1077F0001846FEF7A5FD0346002B0BD1234B1B6853
:10780000DB6A1A4601239340DA43214B1B6813407D
:107810001F4A13607B68B3F1FF3F0AD13B68002B1E
:1078200007D01A4B1B6804331A481946FEF72CFD83
:1078300028E0194B1A687B681344FB60134B1B68E4
:10784000FA685A60144B1B68FA689A4209D2134BC3
:107850001A680E4B1B68043310461946FEF738FDB4
:1078600010E00F4B1A68094B1B6804331046194689
:10787000FEF72EFD0B4B1B68FA689A4202D2094AAA
:10788000FB6813601037BD4680BD00BF6029001043
:107890007C2A0010602A0010782A0010302A00107C
:1078A0002C2A0010942A001080B58AB006AF00235D
:1078B000FB600023BB6000237B6050237B8000F0D3
:1078C0004BFA0D4B1B68002B10D07A8802230093D3
:1078D000002301937B680293BB6803930023049306
:1078E000064807490023FFF733F9F860FB6818469C
:1078F0001037BD4680BD00BFD02A0010F5790000CA
:10790000949A000080B588B000AFF860B9607A60E2
:107910003B600023FB611D4B1B68002B30D0BB6814
:107920003B617B687B61FB68BB61BB68052B1CDC32
:10793000FFF746FE0346022B0BD1144B1A6807F1E2
:10794000100310461946BA6A0023FEF7D3FDF8610A
:1079500016E00E4B1A6807F1100310461946002274
:107960000023FEF7C7FDF8610AE0084B1A6807F12B
:107970001003104619463A680023FEF761FEF861CD
:10798000FB6918462037BD4680BD00BFD02A0010D5
:1079900080B586B002AF78603960154B1B68DB6834
:1079A000DB68FB60FB6804331846FEF7C9FCFB6824
:1079B000DB69012B15D1FB689A697B681344F86871
:1079C00019463A687B6800F0B9F80346002B08D0E6
:1079D00000230093F86800217A680023FFF792FFE4
:1079E000B860FB685B6AF86898471037BD4680BD91
:1079F000C82A001080B584B000AF786007F1080392
:107A0000184600F057F8F860BB68F868194600F0AF
:107A100003F800F0D5F8F1E780B584B000AF7860E6
:107A20003960FFF7D7F907F10803184600F066F848
:107A3000F860BB68002B31D13B68002B0AD17A6813
:107A4000FB689A4206D8FFF7D3F97868F968FFF720
:107A50009FFF25E03B68002B08D0134B1B681B6879
:107A6000002B0CBF01230023DBB23B600F4B1968D6
:107A70007A68FB68D31A084619463A68FFF73AF85D
:107A8000FFF7B6F90346002B0AD1094B4FF080529D
:107A90001A60BFF34F8FBFF36F8F01E0FFF7A8F9B4
:107AA0001037BD4680BD00BFCC2A0010D02A001080
:107AB00004ED00E080B485B000AF78600E4B1B6829
:107AC0001B68002B0CBF01230023DBB21A467B6826
:107AD0001A607B681B68002B05D1074B1B68DB68AD
