:1020000060FF0010612100002D68000041680000A1
:1020100055680000696800007D680000000000004D
:1020200000000000000000000000000081380000F7
:102030002521000000000000E138000025390000E3
:102040003121000031210000312100003121000048
:1020500031210000253A000031210000312100002B
:102060003121000031210000312100003121000028
:102070003121000091680000312100003121000071
:102080003121000031210000312100003121000008
:1020900031210000312100003121000031210000F8
:1020A00031210000293C00003121000031210000D5
:1020B00031210000312100003121000031210000D8
:1020C00031210000312100003121000031210000C8
:1020D0003121000031210000C559000031210000EC
:1020E0003121000034960100800000107C040000C3
:1020F00034960100000000200000000000050010E0
:10210000789100000000002000000000FEE700BF02
:10211000FEE700BFFEE700BFFEE700BFFEE700BF2F
:10212000FEE700BFFEE700BFFEE700BFFEE700BF1F
:10213000FEE700BF10B4002304E004680C60043321
:10214000043004319342F8D310BC7047002303E0FD
:1021500000220260043304308B42F9D3704700BF81
:1021600010B50E4B07E003F10C049A685968186823
:10217000FFF7E0FF23460A4A9342F4D306E01C46E9
:10218000596854F8080BFFF7E1FF2346054A9342CC
:10219000F5D300F04DF909F0A1FFFEE7E4200000BF
:1021A000FC2000000C2100009A4BD3F8043113F4FA
:1021B000807F4BD1974BD3F80C3113F0010F1BD11B
:1021C0009449D1F8042102F01F02934BB3FBF2F2C1
:1021D00092480260D1F8A82102F01F02B3FBF2F28C
:1021E0008F480260D1F8002102F001020132B3FBF6
:1021F000F2F38C4A1360A6E0864BD3F8A03113F0BB
:10220000400F07D10023854A1360854A1360854A31
:10221000136098E07F49D1F8042102F01F02824B3D
:10222000B3FBF2F27D480260D1F8A82102F01F0250
:10223000B3FBF2F27A480260D1F8002102F0010209
:102240000132B3FBF2F3774A13607CE0714BD3F8B1
:10225000883013F4807F07D10023704A1360704ADE
:102260001360704A13606EE06A4BD3F80C3113F0C0
:10227000010F2DD16748D0F8882002F01F02664B6D
:1022800002FB0331D0F8042102F01F02B1FBF2F28D
:1022900062490A60D0F8882002F01F0202FB033175
:1022A000D0F8A82102F01F02B1FBF2F25C490A60EB
:1022B000D0F8882002F01F0202FB0333D0F800217F
:1022C00002F001020132B3FBF2F3564A13603AE026
:1022D000504BD3F8A03113F0400F07D100234F4AE1
:1022E00013604F4A13604F4A13602CE04948D0F8FE
:1022F000882002F01F024C4B02FB0331D0F804216E
:1023000002F01F02B1FBF2F244490A60D0F88820C3
:1023100002F01F0202FB0331D0F8A82102F01F02D5
:10232000B1FBF2F23E490A60D0F8882002F01F02A9
:1023300002FB0333D0F8002102F001020132B3FBAB
:10234000F2F3384A1360334BD3F8083113F4807F2B
:1023500039D0304BD3F8083103F01F03042B06D0DB
:10236000062B04D05BBB0022304B1A607047294B10
:10237000D3F80C3113F0010F10D02649D1F8883072
:1023800003F01F02284B02FB0333D1F8082102F0AF
:102390001F02B3FBF2F3254A136070471D49D1F8C1
:1023A000883003F01F021C4B02FB0333D1F80821D5
:1023B00002F01F02B3FBF2F31C4A136070470022C5
:1023C0001A4B1A607047134BD3F8083113F4007F8F
:1023D0001BD0104BD3F80C3113F0010F0AD00D4B6A
:1023E000D3F8A83003F01F020F4B02FB03330F4A50
:1023F00013607047074BD3F8883003F01F02064B79
:1024000002FB0333094A136070470022074B1A602E
:10241000704700BF00C00F40001BB7008C000010C9
:102420008800001084000010002D31018000001091
:1024300031221C4BC3F8A0211A4BD3F8A03113F062
:10244000400FF9D0174B0122C3F80C210521C3F826
:102450008410C3F88020AA22C3F88C205522C3F828
:102460008C20104BD3F8883013F4806FF9D00D4BCB
:1024700040F20112C3F8042140F20122C3F80821FE
:102480000122C3F800210222C3F8A821064AC3F89A
:10249000C4204FF48072C3F8C82145F23A021A6092
:1024A000704700BF00C00F40DE872804074B23F0B1
:1024B0000703074A136000205060064A46F288511D
:1024C0005160106059601A60704700BF100500101D
:1024D00000050010986A001070B5044600F018FA64
:1024E000224B1B6823B9FFF7E1FF01221F4B1A6043
:1024F00034B1083414F0070F02D024F00704083474
:10250000621E46F286539A4228D819490B6801E0A8
:10251000194613465A68944202D91A68002AF7D11C
:10252000144A93421CD00D6808351A680A605A682C
:10253000121B102A0CD91E1972605C6074680C4959
:1025400000E011460A6850688442FAD832600E6092
:102550005968094A13685B1A136002E0002500E01D
:10256000002500F069FA284670BD00BFA06A00107F
:1025700000050010986A001090000010D0B170B5EE
:102580000546A0F1080600F0C3F955F8044C0A4AC4
:1025900000E01A46136859688C42FAD845F8083C9E
:1025A000166055F8043C054A11680B44136000F0AE
:1025B00043FA70BD704700BF000500109000001086
:1025C0000A4B1B681B680BB9012300E0002323B1F1
:1025D0004FF0FF32064B1A607047044B1B68DB68F4
:1025E000DB685A68024B1A60704700BFA86A001087
:1025F000986B001010B50446006BFFF7BFFF204634
:10260000FFF7BCFF10BD00BFF8B5074614460E46E5
:1026100021B98000FFF760FF054600E00D4665B177
:102620001CB96020FFF758FF04460CB1256305E094
:1026300026B92846FFF7A2FF00E0002424B1BA0023
:10264000A521206B0FF05CFE2046F8BD70B5044656
:102650001546002306E0C85CE21882F83400CA5C24
:1026600012B10133132BF6D9002384F84730072D1C
:1026700000D90725E562256500266665201D00F066
:1026800011FE04F1180000F00DFE2461C5F10805EB
:10269000A5616462A66584F85C6070BD38B50024ED
:1026A00007E004EB840293000E48184400F0EEFDAE
:1026B0000134072CF5D90C4D284600F0E7FD0B4CF2
:1026C000204600F0E3FD0A4800F0E0FD094800F074
:1026D000DDFD094800F0DAFD084B1D60084B1C6069
:1026E00038BD00BFCC6A0010A06B0010B46B0010A6
:1026F0007C6B0010B06A0010C86B0010A86A001054
:10270000C46A001038B504460D461D4B18680430E5
:1027100000F0F2FD50B91A4B1B68DA6A012303FA84
:1027200002F218490B6823EA02030B60B4F1FF3F81
:1027300007D135B1124B19680431134800F0B6FDCA
:1027400038BD124B1A6814440D4A126854601B6855
:102750009C4207D20E4B1868094B1968043100F0EF
:10276000B1FD38BD0B4B1868054B1968043100F0FA
:10277000A9FD094B1B689C4201D2074B1C6038BD68
:10278000786B0010DC6B0010C86B0010946B0010AD
:10279000C46A0010A86A0010986B00102DE9F04779
:1027A00082B080468A46164699460B9F0D9A0C9930
:1027B0003046FFF729FF00284BD00446036B06F193
:1027C0008045013D03EB850525F0070500960E9B2E
:1027D0000A9A5146FFF73AFF4A464146284601F019
:1027E0003DF8206007B13C6001F05CF8254A1368B1
:1027F00001331360244B1B683BB9234B1C601368E7
:10280000012B0DD1FFF74AFF0AE0204B1B683BB9B3
:102810001D4B1B68DB6A0A9A9A4201D31A4B1C6053
:102820001B4A136801331360A364E36A012505FAA8
:1028300003F018490A6802430A6003EB83039A0015
:10284000211D1548104400F031FD01F03BF82846E9
:1028500001E04FF0FF30012810D10C4B1B686BB129
:10286000094B1B68DB6A0A9A9A4207D94FF08052DB
:102870000A4B1A60BFF34F8FBFF36F8F02B0BDE8F2
:10288000F08700BF746B0010786B0010AC6A00100A
:102890009C6B0010DC6B0010CC6A001004ED00E0B3
:1028A00000B587B00023049303930293124A019268
:1028B0000093802211491248FFF770FF012801D1CF
:1028C00000F09AFB012813D14FF0280383F31188FD
:1028D000BFF36F8FBFF34F8F4FF0FF32094B1A607A
:1028E0000122094B1A600022084B1A6001F046F8D9
:1028F00007B05DF804FB00BF906B00109828010042
:10290000DD2B0000986B0010AC6A0010946B001077
:10291000024A136801331360704700BF6C6B0010EC
:10292000014B1868704700BF946B0010F8B5374B27
:102930001B68002B5DD1364B1A6801321A601F6884
:102940005FB9344A1168344B186810601960334A13
:10295000136801331360FFF733FE314B1B689F424E
:1029600003D200263AE0012600E00026294B1B682E
:102970001B680BB9012300E0002323B14FF0FF32A5
:10298000274B1A602AE0234B1B68DB68DC6863680E
:102990009F4202D2224A136020E0251D284600F003
:1029A000ABFCA36A1BB104F1180000F0A5FCE36ABC
:1029B000012202FA03F11B4802680A43026003EB9A
:1029C00083039A0029461848104400F06FFCE26A1D
:1029D000164B1B68DB6A9A42C5D2C7E7134B1B68CC
:1029E000DB6A03EB83039A000F4B9B58012B06D83D
:1029F00006E00F4A136801331360002600E0012649
:102A00000C4B1B6803B101263046F8BD6C6B0010FF
:102A1000946B0010A86A0010C46A0010A46A001029
:102A2000986B0010DC6B0010CC6A0010786B001003
:102A3000C86A0010E06B001038B500F033FF2F4B70
:102A40001A68013A1A601B68002B50D12C4B1B6886
:102A500033BB00244EE02B4BDB68DC6804F118002C
:102A600000F04AFC251D284600F046FCE36A0122DE
:102A700002FA03F1244802680A43026003EB83036D
:102A80009A0029462148104400F010FCE26A204BCD
:102A90001B68DB6A9A4204D301221E4B1A6000E0D5
:102AA0000024184B1B68002BD5D10CB1FFF788FD13
:102AB000194B1B6853B90DE0FFF738FF10B1012225
:102AC000144B1A60144A1368013B1360124B1B68C5
:102AD000002BF1D10F4B1B685BB14FF080520F4BB5
:102AE0001A60BFF34F8FBFF36F8F012402E0002401
:102AF00000E0002400F0E6FE204638BD6C6B0010BC
:102B0000746B00107C6B0010DC6B0010CC6A001042
:102B1000786B0010E06B0010C86A001004ED00E054
:102B200038B505460C46FFF7F3FE154B18682A68C2
:102B30001319904205D29A4209D9984209D300222A
:102B40000CE09A4207D8984207D3002206E0002200
:102B500004E0012202E0012200E001222B601AB110
:102B60000021181AFFF7CEFDFFF766FF38B94FF0C6
:102B70008052044B1A60BFF34F8FBFF36F8F38BD85
:102B8000946B001004ED00E010B51BE0FFF7C0FEF1
:102B90000F4B1C68FFF750FFA4B100F083FE0C4BF5
:102BA000DB68DC68201D00F0A7FB0A4A1368013BC4
:102BB0001360094A1368013B136000F083FE20464E
:102BC000FFF718FD044B1B68002BDFD110BD00BFC1
:102BD000B06A0010746B0010706B001008B5FFF73E
:102BE000D3FF064B1B68012BF9D94FF08052044BE1
:102BF0001A60BFF34F8FBFF36F8FF0E7CC6A0010FE
:102C000004ED00E038B51E4B1B681BB101221D4BC3
:102C10001A6038BD00221B4B1A601B4B1A681268E1
:102C20001B681B6B9A4205D8174B1868196834311A
:102C300004F016F8154B1B68B3FA83F3DBB2C3F14B
:102C40001F03134D9900CA18900028444268546825
:102C5000446019448A0008322A44944205D16068CD
:102C600003EB83018A002A44506003EB83039A003C
:102C7000074B1A445368DA68034B1A6038BD00BF2B
:102C80006C6B0010E06B0010786B0010DC6B0010B8
:102C9000CC6A001010B50C46044B1968183100F0CE
:102CA00011FB01212046FFF72DFD10BD786B0010B0
:102CB00038B50D461446064B1968183100F0F6FA7F
:102CC0000CB14FF0FF3521462846FFF71BFD38BDFC
:102CD000786B001038B5C368DC6804F11805284625
:102CE00000F00AFB134B1B68A3B9251D284600F012
:102CF00003FBE36A012202FA03F10F4802680A4368
:102D0000026003EB83039A0029460C48104400F04C
:102D1000CDFA03E029460A4800F0C8FAE26A094BF6
:102D20001B68DB6A9A4203D90120074B186038BD43
:102D3000002038BD6C6B0010DC6B0010CC6A0010FA
:102D40007C6B0010786B0010E06B0010034B1B686D
:102D50000360034B1B684360704700BFA46A001008
:102D6000946B001038B504460D4600F09BFD114BE6
:102D70001A682B68B3F1FF3F13D020680E49096829
:102D8000884202D061688A420DD26168501A83423B
:102D90000BD98A1A13442B602046FFF7D7FF002473
:102DA00004E0002402E0012400E0012400F08AFD98
:102DB000204638BD946B0010A46A00100122014B1C
:102DC0001A607047E06B0010054B1B6823B1054B80
:102DD0001B681BB902207047012070470020704714
:102DE000AC6A00106C6B001000284AD038B502465F
:102DF000C36A24490968C96A8B4241D281690029A2
:102E000005DB20490968C96AC1F10801816150697F
:102E100003EB830399001C4B1944884201D1012321
:102E200000E0002343B31446151D284600F064FA61
:102E300070B9E36A03EB83018A0013498A583AB9EF
:102E4000012202FA03F311490A6822EA03030B6024
:102E50000C4B1B68DB6AE362012202FA03F10B48A8
:102E600002680A43026003EB83039A00294606487E
:102E7000104400F01BFA38BD024B1B68DB6AD362BA
:102E800038BD7047786B0010CC6A0010DC6B001006
:102E9000002834D038B50346426D013A4265C06A15
:102EA000196D88422DD072BB1C461D1D284600F0AE
:102EB00023FA70B9E36A03EB83018A0013498A5845
:102EC0003AB9012202FA03F311490A6822EA03031C
:102ED0000B60236DE362C3F10802A261012404FACE
:102EE00003F00B490A6802430A6003EB83039A006C
:102EF00029460648104400F0D9F9204638BD002084
:102F00007047002038BD002038BD00BFCC6A0010DB
:102F1000DC6B0010054B1B6823B1044B1A68536D22
:102F200001335365014B1868704700BF786B001080
:102F3000064B1A681368B3FA83F35B09036013B98D
:102F4000D368186870470020704700BFE46B00101A
:102F500008B54160006191420AD8D21A83699A4249
:102F600011D2011D0A4B186800F0ACF9002008BD11
:102F70009A4201D2994208D2011D064B186800F00E
:102F8000A1F9002008BD012008BD012008BD00BF37
:102F9000186C0010E46B001030B583B000F082FCB8
:102FA0000F4B1B68C3B90F4D284600F06FF90E4C4C
:102FB000204600F06BF90D4B1D600D4B1C6000228C
:102FC000009213460C21022000F090FA044B186086
:102FD00010B1084900F0F4FB00F074FC03B030BD00
:102FE000146C0010E86B0010FC6B0010E46B001018
:102FF000186C0010A028010000B587B0FFF7CCFFC7
:10300000094B1B6863B1002304930393029301935C
:1030100002220092502205490548FFF7BFFB00E05D
:10302000002007B05DF804FB146C0010A828010014
:103030007532000030B585B0134C256805B31C46C9
:10304000019102920390052913DCFFF7BDFE0228CF
:1030500007D10023089A01A90B48006800F064FA20
:103060000FE000231A4601A90748006800F05CFA47
:1030700007E00023224601A9284600F0D3FA00E029
:10308000002005B030BD00BF146C001070B582B0D8
:103090001FE0DB681E68DC68251D284600F02CF95F
:1030A000636A20469847E369012B12D1A369334430
:1030B0009E4207D26360246129460C4B186800F0D9
:1030C00001F906E0002100910B4632462046FFF749
:1030D000B1FF064B1B681A68002ADAD1044A10684F
:1030E00002490860136002B070BD00BFE46B0010BD
:1030F000186C001038B50546FFF712FC0446074B64
:103100001B68984204D2FFF7C1FF01232B6001E046
:1031100000232B60014B1C60204638BD106C001052
:1031200070B582B005460E460E4B1B68DB68DC6846
:10313000201D00F0E1F8E369012B0ED1A1692B46B7
:10314000324629442046FFF703FF30B100210091A9
:103150000B462A462046FFF76DFF636A20469847D4
:1031600002B070BDE46B001070B582B006460C462C
:10317000FFF7CEFB01A8FFF7BDFF019B1BBB054678
:1031800044B9B04206D3FFF757FC29463046FFF753
:10319000C7FF1AE02CB10E4B1B681C68B4FA84F40C
:1031A00064092246711B0B4B186800F01DFBFFF7EA
:1031B00043FC50B94FF08052074B1A60BFF34F8F5A
:1031C000BFF36F8F01E0FFF737FC02B070BD00BFA7
:1031D000186C0010146C001004ED00E030B587B0DE
:1031E0003AE0039B002B37DB059C636913B1201D7C
:1031F00000F082F802A8FFF77DFF039B092B2BD874
:10320000DFE803F00505052A1E2705052A1E049997
:10321000A5690B46024629442046FFF799FED8B11E
:10322000636A20469847E369012B15D1A269002102
:1032300000910B46049802442046FFF7FBFE0BE08A
:103240000499A1610346024601442046FFF780FE2F
:1032500002E02046FFF792F900231A4603A904482A
:10326000006800F013FA0028BBD107B030BD00BFE2
:10327000146C001000B583B001A8FFF759FE019946
:10328000FFF772FFFFF7AAFFF6E700BF00F10803A0
:1032900043604FF0FF328260C3600361002303602C
:1032A000704700BF00230361704700BF43684B6055
:1032B0009A688A609A68516099600861036801336E
:1032C0000360704730B40D68B5F1FF3F01D102696A
:1032D00007E000F1080200E01A4653681C68A542A6
:1032E000FAD253684B6099608A6051600861036844
:1032F0000133036030BC70470369426881689160A4
:103300008268416851605A68904201D182685A606F
:1033100000220261186801381860704710B5044631
:1033200000F0C0FAA26BE36B9A4201D1012400E0E5
:10333000002400F0C7FA204610BD00BF10B50446B7
:1033400000F0B0FAA36B0BB9012400E0002400F0F8
:10335000B9FA204610BD00BF10B5144611B100FBEC
:1033600001F000E000205430FFF7B6F8034610B13A
:1033700000F154022260184610BD00BF38B5044663
:103380001546026C3AB903685BBB4068FFF780FDE5
:10339000002363602CE06DB980680EF0D7FEA26850
:1033A000236C1344A360626893421CD32368A36018
:1033B00000201DE0C0680EF0C9FE236C5B42E2688D
:1033C0001A44E26021688A4202D262681344E360D0
:1033D000022D0AD1A36B53B1A36B013BA363002061
:1033E00006E0002004E0002002E0002000E00020D1
:1033F000A36B0133A36338BD026C72B110B5C3680F
:103400001344C3604468A34201D30368C3600C46FD
:10341000C16820460EF09AFE10BD704710B50446F4
:1034200000F040FA0BE0636A63B104F12400FFF797
:1034300051FC08B1FFF7C2FCA36C013BA364A36C71
:10344000002BF0DC4FF0FF33A36400F03BFA00F0F8
:1034500029FA0BE0236963B104F11000FFF73AFC8D
:1034600008B1FFF7ABFC636C013B6364636C002B3A
:10347000F0DC4FF0FF33636400F024FA10BD00BFAE
:1034800038B504460D4600F00DFA2168E26B236C56
:1034900003FB021060600020A063A160013A02FB00
:1034A0000313E3604FF0FF336364A3647DB92369C2
:1034B000ABB104F11000FFF70DFC80B14FF080526A
:1034C000094B1A60BFF34F8FBFF36F8F07E004F112
:1034D0001000FFF7DBFE04F12400FFF7D7FE00F039
:1034E000F1F9012038BD00BF04ED00E070B582B0F5
:1034F00006460D4602AC44F8042D2246FFF72CFF89
:10350000044670B10DB9206001E0019B0360E663E1
:10351000256401212046FFF7B3FF9DF8183084F899
:103520005030204602B070BDF0B585B004460F465D
:1035300001921E46002500F0B5F9A26BE36B9A429A
:1035400001D3022E21D1324639462046FFF716FF1D
:10355000636A6BB104F12400FFF7BCFB88B14FF044
:1035600080522F4B1A60BFF34F8FBFF36F8F08E06D
:1035700038B14FF080522A4B1A60BFF34F8FBFF320
:103580006F8F00F09FF9012048E0019B1BB900F00C
:1035900099F9002042E01DB902A8FFF7D7FB0125E9
:1035A00000F090F9FFF7B4F900F07CF9636CB3F127
:1035B000FF3F01D100236364A36CB3F1FF3F01D14E
:1035C0000023A36400F07EF901A902A8FFF7CAFB5B
:1035D000F0B92046FFF7A2FEA0B1019904F1100056
:1035E000FFF758FB2046FFF719FFFFF725FA0028E1
:1035F000A1D14FF080520A4B1A60BFF34F8FBFF337
:103600006F8F98E72046FFF709FFFFF715FA92E75B
:103610002046FFF703FFFFF70FFA002005B0F0BDCB
:1036200004ED00E070B5EFF311854FF0280484F34A
:103630001188BFF36F8FBFF34F8F866BC46BA642A9
:1036400001D3022B18D1164604461A46FFF796FE00
:10365000A36CB3F1FF3F0AD1636A7BB104F124008C
:10366000FFF738FB60B16EB1012030600BE0A36C56
:103670000133A364012006E0002004E0012002E001
:10368000012000E0012085F3118870BDF0B585B000
:1036900004460F4601921E46002500F003F9A36B75
:1036A0008BB3E56839462046FFF7A6FEBEB9A36B8B
:1036B000013BA363236813B9FFF72CFC6060236907
:1036C000EBB104F11000FFF705FBC0B14FF08052E1
:1036D0003A4B1A60BFF34F8FBFF36F8F0FE0E56077
:1036E000636A63B104F12400FFF7F4FA38B14FF0D4
:1036F0008052324B1A60BFF34F8FBFF36F8F00F0D1
:10370000E1F8012057E0019B1BB900F0DBF8002035
:1037100051E01DB902A8FFF719FB012500F0D2F80E
:10372000FFF7F6F800F0BEF8636CB3F1FF3F01D18C
:1037300000236364A36CB3F1FF3F01D10023A364B2
:1037400000F0C0F801A902A8FFF70CFB38BB204627
:10375000FFF7F4FDE8B1236833B900F0A3F860681F
:10376000FFF742FB00F0AEF8019904F12400FFF7E7
:1037700091FA2046FFF752FEFFF75EF900288CD140
:103780004FF080520D4B1A60BFF34F8FBFF36F8F16
:1037900083E72046FFF742FEFFF74EF97DE720461C
:1037A000FFF73CFEFFF748F92046FFF7C7FD00286A
:1037B0003FF473AF002005B0F0BD00BF04ED00E0A2
:1037C00000230BE0074A52F8332032B9054A42F889
:1037D000331002EBC303586070470133092BF1D952
:1037E000704700BFA882001070B504460D4616460B
:1037F00000F058F8636CB3F1FF3F01D1002363641C
:10380000A36CB3F1FF3F01D10023A36400F05AF889
:10381000A36B2BB93246294604F12400FFF748FA7E
:103820002046FFF7FBFD70BD4FF0280383F311889E
:10383000BFF36F8FBFF34F8FFEE700BF06480068EE
:10384000006880F3088862B661B6BFF34F8FBFF39C
:103850006F8F00DF00BF000008ED00E04FF08073C5
:1038600040F8043C40F8081C034B40F80C3C40F87E
:10387000202C4038704700BF29380000FFFFFFFFB1
:10388000074B19680868B0E8F00F80F30988BFF3A8
:103890006F8F4FF0000080F311884EF00D0E7047CF
:1038A000786B00104FF0280383F31188BFF36F8FFC
:1038B000BFF34F8F024A136801331360704700BF94
:1038C00094000010034A1368013B13600BB983F3A3
:1038D0001188704794000010FFFFFFFFFFFFFFFFFC
:1038E000EFF30980BFF36F8F0D4B1A6820E9F00FDB
:1038F00010602DE908404FF0280080F31188FFF791
:1039000081F94FF0000080F31188BDE80840196884
:103910000868B0E8F00F80F30988BFF36F8F704735
:10392000786B001008B54FF0280383F31188BFF3BC
:103930006F8FBFF34F8FFEF7F9FF18B14FF0805232
:10394000024B1A60002383F3118808BD04ED00E0E8
:10395000064B1B68064AA2FB03239B09013B054A51
:1039600013600722044B1A60704700BF8C000010E0
:10397000D34D621014E000E010E000E008B5094B00
:103980001A6842F478021A601A6842F078421A60A3
:10399000FFF7DEFF0022044B1A60FFF74FFFFFF72F
:1039A00043FF00BF20ED00E09400001040B110B5CF
:1039B000054C064B1C60204603F026F9204610BD3E
:1039C0000020024B186070471800000E1084001091
:1039D00030B583B00446114850F824301B7802A952
:1039E00001F8013D04EB840293002833184402F0EF
:1039F000C5FD20F07F4018B1094B186803F004F9A9
:103A0000231D064A02EB83035D682DB102F008FF17
:103A10009DF807202146A84703B030BD286C001050
:103A20001084001008B50020FFF7D2FF08BD00BFCA
:103A3000F8B50546FFF7BAFF0446384B1860002872
:103A400069D1FEF7B1FB2B1D354A02EB830300223F
:103A50005A6065B905EB85039800283001230A22D6
:103A600030492F4E304402F07BFD032000E000205F
:103A7000002D4AD12A4B2C4A1A6002F5003231211E
:103A80009160D160294FD7F8C460E91C012202FA85
:103A900001F13143C7F8C41025490968254EA6FB3A
:103AA000016153F825703E7B46F080063E7353F863
:103AB0002560C1F30757377053F82560090F31713E
:103AC00053F82510C0B2087353F825104A6053F814
:103AD00025100A7253F82510802081F83000691DE6
:103AE000C9B248B2400901F01F0102FA01F1124EB9
:103AF00046F8201002FA05F593F88C20154383F858
:103B00008C500022054B1A6005E00C4C034B1C60E6
:103B1000204603F079F82046F8BD00BF108400105D
:103B2000286C00101C6C001000C0004000C00F404A
:103B300088000010C5B3A29100E100E01800000E5B
:103B400070B506460D46FFF731FF20B13046FFF74E
:103B50002DFF04461AE004460D4B93F88C003146C5
:103B6000304110F0010F06D10A4C0B4B1C6020466F
:103B700003F04AF80AE0064B53F821301A7D12F0A0
:103B8000400FF8D01D700022034B1A60204670BD14
:103B9000286C00101500000E1084001038B5044683
:103BA0000D46FFF703FF18B12046FFF7FFFE38BDB3
:103BB000FFF778FE04EB8404A00028302946044B6C
:103BC000184402F01FFD0446FFF77CFE204638BD76
:103BD000286C0010054B93F88C20012303FA00F0A9
:103BE000024214BF18460020704700BF286C001026
:103BF0000023036041608360704700BF00230360BF
:103C00008360704730B403460268114401608468E1
:103C1000621C826091FBF2F05D68AA4202DD091A23
:103C200019609C6030BC7047344BDB6813F00C0F9C
:103C30005CD0324A136823F00103136070472F4BA6
:103C40005C6A2F4A41F2D84154501B6AC3F30343C4
:103C500041F2DC415354082B03D9082141F2DC43E3
:103C6000D154264B1B6A002B02DA4FF0005100E0C2
:103C70000021234B03F5A7521160204A906A41F2BC
:103C8000D0415850D16A41F2D442995002F0B0FF6D
:103C900000F1AA5000F5B01084421AD10CE0184887
:103CA00004F5A6511031014400F5A750083002F088
:103CB00065FC0134E4B200E0002441F2DC43104A28
:103CC000D35C9C42EBD30D4A536843F0040353602A
:103CD0000DE00B4800F5A651103100F5A550083055
:103CE00002F04CFC0422054B5A6000E010B5034B77
:103CF0009B6813F0010FA2D110BD00BF004004402B
:103D0000B86C0010F0B40224C34B1C60002A40F0D1
:103D100028815D689FE0C14B53F82530070140F2D0
:103D2000FF72BA401340FB408B427AD9BA4B5B69B1
:103D30009B0806E05A1EB94C54F8226044F82360F0
:103D400013469D42F6D9B44B9A6804329A60DA68F9
:103D50000432DA601A6904321A615A6904325A610B
:103D6000A3F58043002243F8252053F8252022F4B0
:103D7000604243F8252053F8252043F8252053F8C6
:103D8000252022F0604243F8252053F8252042F0F8
:103D9000005243F8252053F825200C370124BC405D
:103DA00022EA040243F8252053F8252043F8252071
:103DB00053F8253010B96FF0805201E06FF4805253
:103DC0001340964A42F8253052F8253010B94FF08A
:103DD000805201E04FF480521A43904B43F8252063
:103DE00053F8252022F4FF6222F0070243F8252031
:103DF00053F82520C1F30A04224343F8252053F841
:103E0000252022F0FF6222F4E02243F8252053F817
:103E10002520834C04EA0144224343F82520012352
:103E200020E07E4B53F825301340FB40994211D1DE
:103E30007A4C54F8256007F10C03012202FA03F3CF
:103E400026EA030344F8253054F8253044F8253099
:103E5000134607E00135704B9B68B5EB930FFFF4F9
:103E60005AAF0023002B40F009816B4B5B699B0824
:103E700006E05A1E694C54F8226044F82360134649
:103E8000AB42F6DA644B9A6804329A60DA6804321C
:103E9000DA601A6904321A615A6904325A61A3F568
:103EA0008043002243F8252053F8252022F4604265
:103EB00043F8252053F8252043F8252053F82520E2
:103EC00022F0604243F8252053F8252042F00052AA
:103ED00043F8252053F82520040104F10C060124A1
:103EE000B44022EA040243F8252053F8252043F881
:103EF000252053F8253010B96FF0805201E06FF49F
:103F000080521340454A42F8253052F8253010B906
:103F10004FF0805201E04FF480521A433F4B43F878
:103F2000252053F8252022F4FF6222F0070243F8EF
:103F3000252053F82520C1F30A00024343F8252029
:103F400053F8252022F0FF6222F4E02243F82520D6
:103F500053F82520324800EA01410A4343F825205E
:103F60008CE02D4BDA6848E02C4B53F82230B0EB54
:103F7000537F01D0013240E0284B53F8223023F028
:103F80006043994231D2244B5B699B0806E05C1E7A
:103F9000224D55F8246045F8236023469A42F6D90D
:103FA0001D4B1C6904341C615C6904345C61A3F51D
:103FB0008043002443F8224053F8224024F0604418
:103FC00043F8224053F8224044EA407443F8224028
:103FD00053F8224004F0604443F8224053F8224052
:103FE0000C4343F8224001230FE00C4B53F82230DE
:103FF00023F06043994207D00132074B1B69B2EBB3
:10400000930FB1D3002300E00123002B36D1024BE4
:104010005B699B080DE000BF00C0034000800340C7
:104020000000FF075C1E194D55F8246045F8236019
:1040300023469342F6DA164B1C6904341C615C6912
:1040400004345C61A3F58043002443F8224053F814
:10405000224024F0604443F8224053F8224044EACE
:10406000407043F8220053F8220000F0604043F80B
:10407000220053F82200014343F822100020044B91
:104080001860044B1860F0BC704700BF008003400C
:1040900000C003401084001070B5314D1823142265
:1040A00005F1080105F5A550083002F059FA18236A
:1040B000C82205F5F47105F5A5501C3002F050FA40
:1040C00000246C60274AD2F8C43043F40053C2F88D
:1040D000C430254B01265E601E6003F5C0331A68AC
:1040E00032431A601A6822F0BE021A6005221A6171
:1040F0004FF000711D4A11604FF480125A615869E7
:104100001B4A11681B4AA2FB0112C2F3C9420243B7
:104110005A611A6822F001021A603346C82205F576
:10412000A7511C3105F5A750083002F019FA02F02A
:104130005FFD4FF0005200F1AA5101F5B011204689
:10414000FFF7E0FD0C4B02221A605C609C60DC60B3
:104150001C615C611C602E70084B1C60204670BDA9
:10416000B86C001000C00F4000C0024000E100E049
:104170008C00001083DE1B4300C00340108400103D
:1041800008B5024802F0FAF908BD00BF74810010BA
:10419000002840F0A48000B587B06946534802F07B
:1041A00017FA88B10020524B18609CE0514B9B6875
:1041B00013F0C00F08D04F4A136823F001031360B7
:1041C0004D484B4B18608EE04A4B5A6B029B9A420B
:1041D00004D1484AD26912F0040FE7D0454A526C24
:1041E000934204D1434AD26912F4806FDED0414A2F
:1041F000526D934213D13F4AD26912F4802FD5D029
:104200000DE03C4A926812F0C00F08D0394A13689A
:1042100023F0010313603848354B186063E0354ADA
:10422000D26902F0043222F08062002AE9D0314AD9
:10423000D26912F0040F15D09DF80C2012040499D5
:10424000B1F1005F02D14FF0004100E000211143C5
:10425000284A11635363009B9363019BD36321231B
:10426000536034E0234AD26912F4806F15D09DF870
:104270000C2012040499B1F1005F02D14FF000410B
:1042800000E0002111431B4A11645364009B9364B6
:10429000019BD3644123536019E0164AD26912F49A
:1042A000802F14D09DF80C2012040499B1F1005F06
:1042B00002D14FF0004100E0002111430D4A116589
:1042C0005365009B9365019BD36581235360002157
:1042D000064802F097F90020054B186003E0002023
:1042E000034B1860704707B05DF804FB7481001041
:1042F00010840010004004402A00000208B500EBC2
:104300008000830003F5A55308330248184402F0E7
:1043100079F908BDB86C001030B9064B9B6813F0F2
:10432000800F05D0032070470020034B18607047B2
:1043300000207047004004401084001008B501467A
:10434000014802F05FF908BDA081001008B5002007
:10435000FFF71EFF08BD00BF30B517490020886178
:10436000164B1B68164AA2FB0342D20B013A4A6164
:10437000C3EB0312520A134CA4FB0225C3EBC30286
:10438000C3EBC202520AA4FB02E2D209120242EAC1
:10439000D51203EB8303C3EBC3035B0AA4FB034304
:1043A000DB0942EA03430B614FF0A053C1F8683FB9
:1043B000054B186030BD00BF800020008C0000104D
:1043C000819F5E16834B0400108400105318B3F5D0
:1043D0007C6F03DD2348244B18607047F0B5164608
:1043E0000F464FF08054214BC3F8684F02F03F0353
:1043F00000222BE01D4C4FF08065C4F8685F032558
:104400002560B518656010F802E0C4F808E00133D3
:10441000DBB23F2B02D87C1EA24215D1134BD3F83E
:10442000603F13F0806FF9D0104B5D6006241C6074
:104430000E4BD3F8603F13F0805FF9D04FF08054FB
:104440000A4BC3F8684F0023013292B28A42D1D39B
:104450004FF0A052054BC3F8682F0020024B1860A4
:10446000F0BD00BF0B00001610840010800020007B
:104470005318B3F57C6F03DD1548164B1860704771
:1044800010B4154B5A604FF08062C3F8682F0022B9
:1044900012E00024104B1C600F4BD3F8603F13F068
:1044A000806FF9D00C4BDC6804704FF08064C3F867
:1044B000684F013292B201308A42EAD34FF0A052E3
:1044C000054BC3F8682F0020024B186010BC7047E2
:1044D0000B000016108400108000200070B582B020
:1044E000154B0230988000245C801C8001264FF61A
:1044F000FF7518E02244023A92B202210DF1060043
:10450000FFF7B6FFBDF806304BB19D4202D90A4A0B
:1045100054801D469E4202D2074A14801E46064B16
:104520009B881C44A4B2044B9A88C2F57B63083371
:104530009C42DFDD02B070BD8082001030B583B0D8
:104540003B4BB3F900209B881A4492B211B20B4442
:1045500040F6B874A34200DD0021354BB3F90230B8
:10456000994203D13348344B18605FE00446023A65
:1045700092B202210DF10600FFF77AFFBDF8063076
:1045800023B12B4B99881A880A441A80284AB2F919
:10459000003091880B4440F6B872934202DD00224D
:1045A000234B1A800239224B1A8889B22046FFF722
:1045B0000DFFBDF806204FF6FF739A4223D11AE093
:1045C0002244023A92B2022101A8FFF751FFBDF83E
:1045D00004301BB103F6B973ADF80430144DAA884A
:1045E0002244023A92B2022101A8FFF7EFFEAB8803
:1045F0001C44A4B200E000240D4B9A88C2F57B63F2
:1046000008339C42DCDDBDF80630013302A820F8F7
:10461000023D074AB2F9003092881A44023A92B237
:104620000221FFF7D3FE0020034B186003B030BD1A
:1046300080820010120000161084001010B582B0A5
:10464000044600238DF80730254AB2F902309288DB
:104650001A44023A92B2022101A8FFF709FFBDF8FD
:1046600004301BB91F48204B186036E03CB11C4B8E
:10467000998802395A8889B22046FFF7F9FE00234B
:10468000ADF804300EE0164BB3F902301A4492B282
:1046900001210DF10700FFF799FEBDF80430013349
:1046A000ADF804300E4B9B88BDF804209342EAD845
:1046B0000B4AB2F90010B2F9022091420AD01A4412
:1046C00012B207494A80134440F6B872934201DDA2
:1046D00000224A800020044B186002B010BD00BFC9
:1046E00080820010170000161084001030B583B0CF
:1046F00004460D46214AB2F9003092881A44023A23
:1047000092B202210DF10600FFF7B2FEBDF80630AD
:104710001BB91B481B4B18602EE0184BB3F9002047
:10472000ADF8065019E0154BB3F902309A4203D1A7
:104730001548144B18601FE0104B9888121A12B2DB
:10474000002A07DA40F6B87393FBF0F200FB12324E
:104750009A1A12B20139ADF80610BDF806100029F8
:10476000E1D1064B9988023992B289B22046FFF70F
:104770007FFE0020034B186003B030BD8082001024
:1047800017000016108400101200001608B528B19A
:104790000268117002680132026008BD084601F02B
:1047A000FDF908BD2DE9F04107460E46151E05DC52
:1047B0004FF0200814E00131013201E00A460021E7
:1047C00010780028F7D1A94201DA6D1A00E000251F
:1047D00013F0020F02D14FF0200801E04FF0300833
:1047E00013F0010F08D000240FE041463846FFF7D0
:1047F000CDFF0134013D00E00024002DF5DC04E094
:104800003846FFF7C3FF0134013631780029F7D16C
:1048100005E041463846FFF7B9FF0134013D002D60
:10482000F7DC2046BDE8F081F0B585B005460C9E6A
:1048300059B930238DF8043000238DF805300B9BD7
:104840000A9A01A9FFF7AEFF40E0084633B10A2AF1
:1048500006D1002906DA4842012704E0002702E0D9
:10486000002700E0002704AC002304F8013D0DE020
:10487000B0FBF2F302FB1303092B02DDA6F13A01B0
:104880000B44303304F8013DB0FBF2F00028EFD1C7
:10489000A7B10A9B63B10B9B13F0020F08D02D2127
:1048A0002846FFF773FF0A9B013B0A93012606E0A7
:1048B0002D2304F8013C013C002600E000260B9B60
:1048C0000A9A21462846FFF76DFF304405B0F0BD37
:1048D000F0B587B006460C461F46002583E0252B21
:1048E0007BD1621C6378002B00F08180252B73D074
:1048F0002D2B02D1A21C012300E00023144602E06C
:10490000013443F002032278302AF9D0002205E076
:1049100002EB820250003039421801342178A1F1B3
:104920003000C0B20928F3D9732908D13968043797
:1049300001B932493046FFF735FF054452E064299A
:1049400001D069290CD139680437612002900193A4
:10495000009201230A223046FFF766FF054441E03A
:1049600078290CD1396804376120029001930092B4
:10497000002310223046FFF757FF054432E0582944
:104980000CD1396804374120029001930092002332
:1049900010223046FFF748FF054423E075290CD16B
:1049A00039680437612002900193009200230A22A3
:1049B0003046FFF739FF054414E0632912D13978F6
:1049C00004378DF8141000218DF8151005A9304614
:1049D000FFF7E8FE054405E0144621783046FFF76E
:1049E000D5FE013501342378002B7FF478AF16B162
:1049F000336800221A70284607B0F0BDB0280100C5
:104A00000FB400B583B004AB53F8041B01934FF00F
:104A1000FF320020FFF75CFF03B05DF804EB04B049
:104A2000704700BF0EB400B584B0019005AB53F8D9
:104A3000041B03934FF0FF3201A8FFF749FF04B0B6
:104A40005DF804EB03B070470CB400B585B001907D
:104A500006AB53F8040B03930A46014601A8FFF77F
:104A600037FF05B05DF804EB02B07047F0B50024E5
:104A700026E0D0F8AC6104EB4407BD00AE467719E0
:104A8000755B8D421BD1FD7815F0C00F0DD043B181
:104A9000B9788A4205D2796805F03F0505FB021511
:104AA0001D60D0F8AC017044F0BDBD78954206D1D0
:104AB0000BB17A681A60D0F8AC017044F0BD0134D3
:104AC000B0F8B051AC42D4D30020F0BD30B587B0BF
:104AD0009DF82840002501950395049505958DF8CE
:104AE00000204A788DF801208A788DF80220CA7853
:104AF0008DF80320027E02F5B062029208228DF842
:104B00000C2053B916E01A1DE95C0DF1180E724421
:104B100002F8181C0133DBB201E01D460023A3425A
:104B2000F1D307E01A1D06A90A44002102F8181C57
:104B30000133DBB2032BF5D9694690F8D801FFF7B2
:104B40001FFB07B030BD00BF00B587B00023039343
:104B50000493059380238DF800304B788DF8013055
:104B60008B788DF80230CB788DF803308DF80420E7
:104B7000C2F307238DF80530C2F307438DF80630E2
:104B8000120E8DF80720037E8033029308238DF8E0
:104B90000C30694690F8D801FFF7F2FA07B05DF8DB
:104BA00004FB00BF83788B420DD310B582B04468FC
:104BB000C37803F03F031A4603FB014101A80DF03F
:104BC000C5FA019801E00020704702B010BD00BF97
:104BD00010B582B0019283788B420AD30B464468A9
:104BE000C07800F03F00024601A900FB03400DF031
:104BF000ADFA02B010BD00BF70B584B006460C46D9
:104C00004B78897803EB01210023E27889B2FFF722
:104C10002DFF28B9794A21463046FFF795FFEAE093
:104C200005462378402B38D1037A13F0010F05D1C4
:104C3000734A21463046FFF787FFDCE0C27812F066
:104C4000C00F22D0E178B9B1837899420ED80139EA
:104C500089B2FFF7A7FF04AB43F8040D04220092CA
:104C6000422221463046FFF731FFC4E0634A214625
:104C70003046FFF769FFBEE001230093831C422208
:104C800021463046FFF722FFB5E0436800924222FA
:104C900021463046FFF71AFFADE02F2B06D02B2B15
:104CA00004D0232B02D0222B40F0A0802B7A13F0CB
:104CB000020F00F095806378A27803EB022341F2A3
:104CC000030293422AD1E37843BB96F8E431B6F865
:104CD000E021D6F8DC1106F5EE7001F041FC00236E
:104CE0008DF80C3007E06B68002199549DF80C306A
:104CF00001338DF80C309DF80C20A978EB7803F087
:104D00003F0303FB01F39A42EDDB0123009303AB66
:104D1000602221463046FFF7D9FE6CE0EB7813F0B5
:104D2000C00F19D0E17819B14B1EAA78934205DB68
:104D3000344A21463046FFF707FF5CE001396268DC
:104D400089B22846FFF744FF0AE06A68191D615CD2
:104D5000D1540133DBB200E00023EA789342F4D36C
:104D600000230093602221463046FFF7AFFE6378B0
:104D7000A27803EB022341F21002934213D1E378AD
:104D8000012B10D16B681A78732A0CD15A78612ADA
:104D900009D19A78762A06D1DA78652A03D10022D9
:104DA0001A6001F0ABFE6378A27803EB022341F2B4
:104DB000110293421FD1E378012B1CD16B681A7842
:104DC0006C2A18D15A786F2A15D19A78612A12D193
:104DD000DA78642A0FD100221A6001F0A9FE0AE0F5
:104DE000094A21463046FFF7AFFE04E0074A214654
:104DF0003046FFF7A9FE04B070BD00BF00000206F8
:104E00000100010600000106020001060100040580
:104E100030B587B004460025C0F8F451C0F8AC1195
:104E2000A0F8B0217F2280F8B4210B9AC0F8B821F5
:104E30000C9AC0F8BC2180F8D8310A9BC0F8F03138
:104E4000007E01F0CDFE2A46294694F8D801FEF7EF
:104E500059FF2A46217E94F8D801FEF753FF2A46CF
:104E60004FF4C06194F8D801FEF74CFF217E2A462A
:104E700001F5C06194F8D801FEF744FF2A46616C41
:104E800094F8D801FEF73EFF2A46E16C94F8D80169
:104E9000FEF738FF2A46616D94F8D801FEF732FF1D
:104EA0002A46E16D94F8D801FEF72CFF2A46616E80
:104EB00094F8D801FEF726FF2A46E16E94F8D8014F
:104EC000FEF720FF2A46616F94F8D801FEF71AFF1B
:104ED0002A46E16F94F8D801FEF714FF2A46D4F869
:104EE000841094F8D801FEF70DFF04231A4604F14C
:104EF000080104F5EE7001F033FBA560E560256163
:104F000065612571A28CD4F8F0311A600095019585
:104F1000039504950595237E03F5E0630293012331
:104F20008DF80C30694694F8D801FFF729F9024B47
:104F30001D60284607B030BD108400102DE9F04FE9
:104F400085B0002505604FF47A7686848562022656
:104F500006634FF42607C7620E2707760562C56110
:104F60004FF4C37747644FF0FF0EC0F848E04FF4AA
:104F70000057A0F88C7080F88E50012780F88F7051
:104F800042F2010CA0F890C080F8925080F8937023
:104F900042F2020CA0F894C080F8965080F8977006
:104FA00042F2030CA0F898C080F89A5080F89B70E9
:104FB00042F2040CA0F89CC080F89E5080F89F60DC
:104FC00042F2050CA0F8A0C080F8A25080F8A360BF
:104FD000A0F8A45080F8A65080F8A750A0F8A850D8
:104FE00080F8AA5080F8AB5040F2862CC0F84CC034
:104FF000C0F850E042F2060CA0F8ACC080F8AE5009
:1050000080F8AF70A0F8B0C080F8B27080F8B370CC
:10501000A0F8B4C080F8B66080F8B770A0F8B8C047
:105020004FF0030880F8BA8080F8BB70A0F8BCC0CD
:105030004FF0040B80F8BEB080F8BF70A0F8C0C07D
:105040004FF0050A80F8C2A080F8C370A0F8C4C071
:105050004FF0060980F8C69080F8C770A0F8C8C065
:105060004FF0070C80F8CAC080F8CB7040F2871C64
:10507000C0F854C0C0F858E04FF4045CA0F8CCC0AD
:1050800080F8CE5080F8CF70A0F8D0C080F8D270F1
:1050900080F8D370A0F8D4C080F8D66080F8D770BC
:1050A000A0F8D8C080F8DA8080F8DB7042F2011CEA
:1050B000A0F8DCC080F8DE5080F8DF70A0F8E05087
:1050C00080F8E25080F8E350A0F8E45080F8E65011
:1050D00080F8E750A0F8E85080F8EA5080F8EB50EC
:1050E0004FF4C87CC0F85CC0C0F860E04FF4085CC6
:1050F000A0F8ECC080F8EE5080F8EF7042F2012C7E
:10510000A0F8F0C080F8F25080F8F37042F2022C60
:10511000A0F8F4C080F8F65080F8F760A0F8F850D6
:1051200080F8FA5080F8FB7042F2042CA0F8FCC022
:1051300080F8FE5080F8FF7042F2052CA0F800C104
:1051400080F8025180F80361A0F8045180F80651FC
:1051500080F80751A0F8085180F80A5180F80B51E7
:105160004FF4247CC0F864C0C0F868E042F2062C1A
:10517000A0F80CC180F80E5180F80F61A0F810C1A2
:1051800080F8127180F81361A0F814C180F81661DC
:1051900080F81761A0F818C180F81A8180F81B61A7
:1051A000A0F81C5180F81E5180F81F51A0F8205122
:1051B00080F8225180F82351A0F8245180F826511C
:1051C00080F82751A0F8285180F82A5180F82B51F7
:1051D0004FF46477C766C0F870E0A0F82CC180F87F
:1051E0002EB180F82F61A0F830C180F832A180F88C
:1051F0003361A0F834C180F8369180F83761A0F8A7
:1052000038C14FF0070780F83A7180F83B61A0F889
:105210003C5180F83E5180F83F51A0F8405180F851
:10522000425180F84351A0F8445180F8465180F82B
:105230004751A0F8485180F84A5180F84B5140F24C
:1052400083174767C0F878E04FF40C57A0F84C710B
:1052500080F84E5180F84F6142F20137A0F850714A
:1052600080F8525180F8536142F20237A0F854712D
:1052700080F8565180F8576142F20337A0F8587110
:1052800080F85A5180F85B61A0F85C5180F85E515B
:1052900080F85F51A0F8605180F8625180F8635146
:1052A000A0F8645180F8665180F86751A0F8685101
:1052B00080F86A5180F86B514FF4C277C767C0F825
:1052C00080E04FF41057A0F86C7180F86E5180F8B0
:1052D0006F6142F20147A0F8707180F8725180F856
:1052E000736142F20247A0F8747180F8765180F839
:1052F000776142F20347A0F8787180F87A5180F81C
:105300007B61A0F87C5180F87E5180F87F51A0F835
:10531000805180F8825180F88351A0F8845180F840
:10532000865180F88751A0F8885180F88A5180F81A
:105330008B514FF4CF77C0F88470C0F888E04FF4F9
:105340001457A0F88C7180F88E5180F88F61A0F806
:10535000905180F8925180F89351A0F8945180F8C0
:10536000965180F89751A0F8985180F89A5180F89A
:105370009B51A0F89C5180F89E5180F89F51A0F855
:10538000A05180F8A25180F8A351A0F8A45180F850
:10539000A65180F8A751A0F8A85180F8AA5180F82A
:1053A000AB51109C02940F9C01940E9C0094FFF74B
:1053B0002FFD284605B0BDE8F08F00BF90F8B4314E
:1053C000042B03D100208E4B186070472DE9F04765
:1053D0008CB08946054690F8D831002B00F0D48077
:1053E0008848874B186007E1297E089A02F07F03FE
:1053F000994201D0002B73D122F07F03802B4BD038
:10540000B3F5C06F02D0002B6AD10CE09DF82430B8
:10541000072B65D995F8B431042B61D006A928462D
:10542000FFF7EAFB5CE09DF819302A7E934201D039
:10543000002B55D19DF81830802B12D004D8012BA9
:1054400007D0022B09D04BE0812B0ED0822B10D03D
:1054500046E0052385F8B43142E0042385F8B431F1
:105460003EE07F2385F8B4313AE0002000F0E2FD11
:1054700036E095F8D831B5F8B021D5F8BC110291D5
:10548000D5F8B8110191D5F8F0110091D5F8AC110B
:105490002846FFF7BDFC23E095F8B431042B1FD05C
:1054A000D5F8BC41E4B19DF82430082B18D102F0A6
:1054B0007F0285F8C021BDF81830A5F8C231BDF8CB
:1054C0001A30A5F8C431BDF81C30A5F8C631BDF8B6
:1054D0001E30A5F8C83101F0A3F905F5E071A04729
:1054E00095F8B431052B48D144E0B04606F10803E5
:1054F00005EBC3035A68089B9A4238D133E004EBAA
:10550000C803223305EB8303998801B304EBC80376
:10551000223305EB83039A7993F807A00CAB0020A4
:1055200043F81C0D2846FFF7A1FA00B339469DF851
:10553000242007EB0A039A4219DB059820B1524652
:1055400006AB19440CF002FE5744FFB208E004EB2E
:10555000C803223305EB8303DB7943B11F44FFB259
:105560000134E4B201E000273C46072CC7D90136DC
:10557000F6B200E00026082EB7D9D5F8F4411CB1E8
:1055800001F04EF906A9A04706A995F8D801FEF743
:10559000B5FE00283FF428AFD5F8F011484600F0DA
:1055A000CDFFF0B195F8B4112A7E02F5E062002338
:1055B0000693079309930A930B938DF8181008929A
:1055C00001238DF8243095F8D801FEF7A5FE20B907
:1055D00006A995F8D801FEF7D3FDAA8CD5F8F031CD
:1055E0001A6095F8B431052B03D00020044B1860E5
:1055F00002E00020024B18600CB0BDE8F08700BF4D
:10560000108400100100000300B587B002F5C062ED
:1056100002920B788DF800304B888DF801301B0A10
:105620008DF802300B798DF803308B6801930823D5
:105630008DF80C30694690F8D801FEF7A1FD07B04F
:105640005DF804FB00B585B08DF80410079903914F
:10565000ADF806309DF818308DF8083001A9FFF735
:10566000D3FF05B05DF804FB294AD2F8C43043F4F7
:105670000073C2F8C430274B01221A7200221A6448
:105680009B8F9BB240F63402934204D94FF4FA62E6
:10569000204B9A8709E01F4B9B8F9BB2B3F5FA6FA3
:1056A00003D24FF4FA621B4B9A871A4B93F83830A7
:1056B000DBB20C2B03D90122164B83F83820154B93
:1056C00093F82C30DBB21F2B03D91F22114B83F828
:1056D0002C20104B93F82830DBB2182B03D9012271
:1056E0000C4B83F828200B4B93F82430DBB23B2B78
:1056F00003D90022074B83F82420064B93F820306F
:10570000DBB23B2B03D90022024B83F820207047E9
:1057100000C00F4000400240094B93F8282002715E
:1057200093F82420427193F8202082719A8F02808E
:1057300093F83820827093F82C30C370704700BF04
:10574000004002400B4B00221A72827983F820201D
:10575000427983F82420027983F82820C27883F8DC
:105760002C20827883F8382002889A8701221A72C6
:10577000704700BF0040024070B582B08D4B0025DD
:10578000C3F80051D3F8C42042F40062C3F8C42027
:1057900041F21002C3F8DC21874C01202060A56093
:1057A000A3F55023D3F8401140F201221143C3F86E
:1057B0004011D3F844111143C3F84411D3F84811F0
:1057C0001143C3F84811D3F850111143C3F85011D5
:1057D000D3F860111143C3F86011D3F8701111436D
:1057E000C3F87011D3F874111143C3F87411D3F8CE
:1057F00080111143C3F88011D3F884111143C3F809
:105800008411D3F888111143C3F88811D3F88C118F
:105810001143C3F88C11D3F890111143C3F89011C0
:10582000D3F894111143C3F89411D3F8981111438C
:10583000C3F89811D3F89C111143C3F89C11D3F805
:10584000A0111143C3F8A011D3F8A4111143C3F858
:10585000A411D3F8A8111143C3F8A811D3F8AC11BF
:105860001143C3F8AC11D3F8B0111143C3F8B01110
:10587000D3F8B4111143C3F8B411D3F8B8111143DC
:10588000C3F8B811D3F8BC111143C3F8BC11D3F855
:1058900000121143C3F80012D3F804121143C3F8E5
:1058A0000412D3F808121143C3F80812D3F80C12EB
:1058B0001143C3F80C12D3F810121143C3F810129D
:1058C000D3F814121143C3F81412D3F81812114369
:1058D000C3F81812D3F81C121143C3F81C12D3F8E2
:1058E00020121143C3F82012D3F824121143C3F835
:1058F0002412D3F828121143C3F82812D3F82C121B
:105900001143C3F82C12D3F834121143C3F83412E4
:10591000D3F838121143C3F83812D3F864120A438B
:10592000C3F86422A0624FF42073C4F8003140F23F
:105930000333C4F8043103232363062161630A227D
:10594000A2630520E0632164022666640821A16445
:10595000E16422656665A365642000F015FF40F2EE
:1059600083132362C82000F00FFF40F20313236269
:105970006662019502E0019B01330193019B7F2B3D
:10598000F9D90D4B36225A6283221A620B4A1268E9
:105990000092009A00241C62D3F8002142F40022F5
:1059A000C3F80021642000F0EFFE054B1C60204688
:1059B00002B070BD00C00F4000C00920009801A0D7
:1059C0001084001070B5002615E0214B9B6801245F
:1059D000B440234203D11E4B5B681C420AD01D4BCE
:1059E0001D683DB100F01CFF3146A847184AD36836
:1059F0001C43D4600136164B9B68002BE5D1144B39
:105A00005B68002BE1D1002516E0114B9B6A012455
:105A1000AC40234203D10E4B5B6A1C420BD00D4BB2
:105A20001E6846B100F0FCFE05F14001B047084A8F
:105A3000D36A1C43D4620135054B9B6A002BE4D129
:105A4000034B5B6A002BE0D100BF00BF70BD00BFFD
:105A500080800240888200102DE9F041284BD3F865
:105A6000C42042F02002C3F8C420D3F8C42042F07E
:105A70004002C3F8C420D3F8A8311BB90122204B3F
:105A8000C3F8A8211F4A0321C2F88C101E4D00261E
:105A90002E62EB6C43F48063EB64C2F8D4101B4CB1
:105AA0006662E36C43F40063E36402276F614FF4C2
:105AB0007A78C5F818807F232B65154B18680CF091
:105AC000C3F814490CF0CCF913490CF0C9F90CF0E7
:105AD000FFFAE8602E676B6843F009036B6067604C
:105AE000C4F818803F2323656761E0602667636818
:105AF00043F009036360094B1E603046BDE8F08146
:105B000000C00F4000C00240004001400080014042
:105B10008C00001000007A4400401C4610840010E5
:105B200010B586B000240094019402940394049468
:105B3000059401F05DF800F1AA5000F5B010029054
:105B4000144BD8888DF80C004FF000530493234673
:105B50000BE0104A1168128903FB02F2895C06AA65
:105B60001A4402F8181C0133DBB29AB28242F0D315
:105B70000020084BD8800422074B1A70FEF7CCFB9C
:105B800008B1052803D169460020FEF7F9FA06B0EE
:105B900010BD00BF98000010948200100F4B1B78BE
:105BA000CBB110B582B004460020FEF713F818B14F
:105BB000E1B20020FDF7C4FF02A901F8014D084C35
:105BC000204600F051FDE388082B01D1FFF7A8FF24
:105BD000012002B010BD0120704700BFA482001058
:105BE0009800001070B506460D46002403E0305DB5
:105BF000FFF7D4FF0134AC42F9D370BD084AD28814
:105C000062B108B5074B93F90030002B03DD1B1A76
:105C1000044A137008BDFFF783FF08BD704700BF3B
:105C20009800001094820010F0B4049D002800DA5F
:105C30000020002900DA0021B0F5487F24DCB1F50E
:105C4000F07F21DC8418B4F5487F01D9C0F5487293
:105C50000F46CC18B4F5F07F01D9C1F5F0733E467C
:105C60000FE00A490C684FF4C86101FB064101EBE3
:105C70004001002402E00D8001340231A242FAD832
:105C80000136D9198E42ECD3F0BC7047A400001045
:105C900010B584B0424B40F20722C3F80021C3F88C
:105CA0000821C3F81021C3F80C21C3F814211A618C
:105CB0005A61C3F87022C3F87422C3F81821C3F8DC
:105CC0001C21C3F82021C3F824219A6140F28731B6
:105CD000D961C3F8D020C3F8D420C3F8D820C3F8C2
:105CE000DC20C3F8E020C3F8E42019625962C3F84D
:105CF0003021C3F83421C3F8E820C3F8EC20C3F8FE
:105D0000F020C3F8F420274B1B689B09264AA2FB0E
:105D10000323DB0A254AC2F8B831D2F8C43043F075
:105D20000103C2F8C430224B4FF020421A61214ACD
:105D30001A60214A5A60214A9A600922DA6040F6C4
:105D40002C129A610023ADF80E300EE0BDF80E3033
:105D50009BB280330021164A42F82310BDF80E3062
:105D60009BB201339BB2ADF80E30BDF80E309BB242
:105D7000FF2BEBD90E4A936943F001039361002492
:105D800000944FF4F0734FF4487221462046FFF719
:105D90004BFF00F061F90A4B1C60204604B010BDB7
:105DA00000C002408C0000102FE3BE0000C00F4076
:105DB00000800820C42F2757DF090D2000381F0757
:105DC000108400102DE9F04F83B0074689469046B5
:105DD0001D460C9C0D9E00962346FFF725FF07EB02
:105DE000080004EB090AC4EB050B00965B4622464B
:105DF0005146001BFFF718FF00965B4622465146AE
:105E00003846FFF711FF09EB05010096234642468D
:105E1000091B3846FFF708FF03B0BDE8F08F00BF4D
:105E200070B505460C46804B5A6E22F087025A66C2
:105E30005A6E42F001025A66DA6D22F08702DA6584
:105E4000DA6D42F00102DA655A6E42F010025A66CB
:105E5000DA6D42F01002DA654FF4C0701866734ACA
:105E6000116841F080711160516921F080715161B8
:105E70009866136843F080631360536923F080636E
:105E800053610421084600F081F9C82800F3CA8054
:105E9000654B5A6E22F087025A665A6E42F0010232
:105EA0005A66DA6D22F08702DA65DA6D42F0010295
:105EB000DA654FF4C07018665C4A116841F0807171
:105EC0001160516941F0807151619866136843F027
:105ED00080631360536923F0806353610A210420B7
:105EE00000F054F9B0F5077F03DBB0F56C6F03DC0D
:105EF00004E04FF4077001E04FF46C604FF46C6203
:105F00004FF4077100F032FC4FF4487303FB00F0CC
:105F1000474E86FB0036C017C0EBA616424B9A6E62
:105F200022F4803222F087029A669A6E42F00102D1
:105F30009A661A6E22F087021A661A6E42F0010201
:105F40001A669A6E42F010029A661A6E42F01002B9
:105F50001A664FF4C0705866344A116841F00071F7
:105F60001160516921F000715161D865136843F4E3
:105F700000031360536943F4000353610A210820AE
:105F800000F004F9B0F5757F04DB40F69C439842BD
:105F900003DC04E04FF4757001E040F69C4040F6ED
:105FA0009C424FF4757100F0E1FBC0EB001043011F
:105FB0001F4A82FB0312DB17C3EBA21305B12E802D
:105FC00004B12380184B5A6E22F087025A665A6E2B
:105FD00042F001025A66DA6D22F08702DA65DA6D64
:105FE00042F00102DA655A6E42F010025A66DA6D2A
:105FF00042F01002DA654FF4C07018660B4A11685F
:1060000041F080711160516921F080715161986691
:10601000136843F080631360536923F08063536116
:10602000012070BD002070BD00C00240008009202A
:10603000D34D621058B9BFF34F8F0549CA6802F4B7
:10604000E062044B1343CB60BFF34F8FFEE7704712
:1060500000ED00E00400FA0508B52A4BDA6D22F0E5
:106060008702DA65DA6D42F00102DA651A6E22F013
:1060700087021A661A6E42F001021A665A6E22F000
:1060800087025A665A6E42F001025A669A6E22F4EC
:10609000803222F087029A669A6E42F001029A6676
:1060A000D3F8F82022F08702C3F8F820D3F8F820BC
:1060B00042F00302C3F8F820134AD2F8C43043F484
:1060C0008053C2F8C430FCF76FF810490868104BD1
:1060D0001A68104BA3FB02231B0D01331B029BB25A
:1060E00003430B600B6823F480330B600B6823F0D1
:1060F000E0630B600B6843F400130B600020064B59
:10610000186008BD00C0024000C00F4000400340BE
:106110008C000010819F5E161084001008B5431E8D
:10612000184205D0164800F06FFD4FF0FF3008BD53
:10613000144B1A6822F0FF021A601A6810431860A4
:106140001A6822F0E0621A601A6842F080721A60DF
:1061500007E04FF080520C4B1A60BFF34F8FBFF334
:106160006F8F084B1B6B13F4803FF2D0054A5368C6
:10617000C3F30263043352F82300C0F30B1008BDCD
:10618000040000010040034004ED00E0F8B50746BC
:106190000E460024254604E03846FFF7BFFF0544BD
:1061A0000134B442F8D3B5FBF6F0F8BD08B5044BA2
:1061B0001A68044B19680448FEF722FC08BD00BFAA
:1061C000AC000010A8000010B828010070B51E46F1
:1061D000002412E0184B1B6825012B4459683068D5
:1061E0000CF0DCF840B9144B1B681D44AA686968C0
:1061F0001248FEF705FC70BD01340F4B1B799C4221
:10620000E8DB002412E00E4B03EB04135D68294623
:1062100030680CF0C3F840B9094B03EB0414A268D2
:1062200029460648FEF7ECFB70BD0134052CEAD97F
:106230000448FEF7E5FB70BDF8820010CC28010091
:10624000642C0100DC28010010B51C4612B90020A6
:10625000FFF7F0FE23681BB10120FFF7EBFE10BD36
:106260000020FFF7E7FE10BD08B500F047FC10B9AD
:106270000148FEF7C5FB08BD0829010008B500F07C
:1062800057FC10B90148FEF7BBFB08BD10290100FF
:1062900008B5074B1860197100225A719A71054BA5
:1062A0001A68054B19680548FEF7AAFB08BD00BF30
:1062B000F8820010AC000010A80000101C2901009A
:1062C000014B1879704700BFF882001010B50F48D5
:1062D000FEF796FB002407E00D4B03EB041359680F
:1062E0000C48FEF78DFB0134052CF5D9002408E09D
:1062F000094B1B6803EB041359680648FEF780FB43
:106300000134FFF7DDFF8442F2DB10BD34290100C8
:10631000642C010030290100F88200102DE9F041C1
:1063200082B0784B1B683BB9774C784B1C60204699
:1063300000F06AFC2046E1E00DF107010020FDF7C6
:106340002DFC034620B10DF10700FDF7F7FF0346D2
:10635000002B40F0D0806B4B5B79C72B0AD9002211
:10636000684B5A716A4C694B1C60204600F04CFC2B
:106370002046C3E001210DF10700FFF733FC9DF833
:1063800007301B2B07D106216248FFF72BFC0022A8
:106390005C4B5A71D0E7082B07D15A4B5B79002B25
:1063A000CAD0013B574A5371C6E70D2B02D00A2BC6
:1063B00040F09A805848FEF723FB524B5B791BB99B
:1063C0005648FEF71DFBB7E74E4A134400249C7164
:1063D000254626463DE0F4B14A4B23449B79222BC7
:1063E00019D1A5B9631E474A13449B799BB9131968
:1063F0000021997106F1190102EBC1030220187105
:10640000631C1344063342F83130012503E03D4B51
:10641000234400259D71DDB93A4B23449B79202B01
:1064200016D1384B234400229A71082E10DC354FC8
:1064300006F11A0807EBC80301221A71A0183844A4
:106440000022114606300CF0DBF947F8380001361F
:1064500001342C4B5B799C42BDDB0024294B5C71E1
:1064600018E0284850F8063B25012B4459680BF0EA
:1064700095FF70B9234B1B682B44DC6884B100F096
:10648000CFF9204B53F8D01B3246495BA04701257A
:1064900007E00134FFF714FF8442E2DB002500E04F
:1064A0000125EDB9002414E01D4B03EB04135968DA
:1064B0001C480BF073FF58B9194D24012B19DF68E4
:1064C00000F0AEF9184B3246295BB847012502E0CF
:1064D0000134052CE8D91DB912491448FEF790FA89
:1064E0000E48FEF78DFA27E706494A79501C487195
:1064F0000A44937120E70020044B186002B0BDE805
:10650000F08100BFF88200101500000B108400100D
:106510001200000B382901003429010034830100E6
:10652000642C0100FE820010C88300104029010085
:10653000014B1860704700BF988200100B688342BF
:1065400003D31B1A0B6000207047B3F1FF3F04D048
:106550004FF0FF330B60012070470020704700BFF1
:10656000016082800022C28003720161C160024B1F
:106570001A601046704700BF10840010C2888388DC
:106580009A420CD31048114B18607047C268CC5C1B
:106590001470C2680132C2600133DBB201E010B492
:1065A0000023027A9342F1D3C4680168838802FB16
:1065B0000312944200D1C160C3880133C38000201C
:1065C000024B186010BC70471200000F10840010BE
:1065D000C3881BB909480A4B1860704731B909E0F4
:1065E0000269D25CCA5401331BB200E00023027A74
:1065F0009342F5DB0020024B186070471700000F34
:1066000010840010C3886BB91148124B1860704792
:1066100011B102691278CA54026901320261013370
:10662000DBB200E00023027A9342F1D310B4046994
:106630000168838802FB0312944200D10161C38880
:10664000013BC3800020034B186010BC704700BFA3
:106650001700000F1084001010B40024C4800381C0
:106660008280016010BC704738B5C388828893422D
:1066700003D30948094B186038BD044605680089F2
:10668000024600FB03500BF061FDE3880133E38019
:106690000020024B186038BD1200000F108400105B
:1066A00038B5C3881BB90B480B4B186038BD0D4675
:1066B000044641B10068013B21890A4603FB010100
:1066C00028460BF043FDE388013BE3800020024BAA
:1066D000186038BD1700000F10840010C3888B426B
:1066E00003D80C480C4B1860704770B50446056819
:1066F000028902FB01F01618591A01FB02F2A919CE
:1067000028440BF099FDE388013BE3800020024B15
:10671000186070BD2900000F1084001070B5044689
:106720000D46164601464FF07E500BF0DBF9294628
:106730000BF0E2FA0546314620460BF0DDFA014641
:1067400028460BF0D1F970BD08B5C0F57A7302FB8D
:1067500000F201FB0321044880FB0130C917C1EBA3
:10676000A0100BF075FA08BDD34D6210914208D00D
:10677000401A4FF47A7303FB00F3501A93FBF0F0C6
:1067800070470020704700BF82B0ADF8060016E0E9
:106790000023009303E000BF009B013300930B4BE9
:1067A0001B680B4AA2FB0323009AB2EB133FF2D300
:1067B000BDF806309BB2013B9BB2ADF80630BDF888
:1067C00006309BB2002BE3D102B070478C00001062
:1067D00073B2E7451F2914D8002806DA00F00F002D
:1067E000C900C9B20B4B195407E0C900C9B200F186
:1067F000604000F5614080F800130020064B1860EF
:10680000704710B5054C044B1C60204600F0FCF9A5
:10681000204610BD14ED00E0108400101600000F9B
:10682000014B1868704700BF9882001008B50348F4
:10683000FEF7E6F86420FFF7A7FF08BDDC2C010097
:1068400008B50348FEF7DCF86420FFF79DFF08BD9C
:10685000E42C010008B50348FEF7D2F86420FFF7E6
:1068600093FF08BDF42C010008B50348FEF7C8F8F3
:106870006420FFF789FF08BD042D010008B5034817
:10688000FEF7BEF86420FFF77FFF08BD142D01005E
:1068900008B50348FEF7B4F86420FFF775FF08BD9C
:1068A000242D010070B50E1A0436164B1860164BD5
:1068B000196004464FF48052002304E012F8015B93
:1068C00004F8015B0133B342F8DBC368B3F1AA3FBC
:1068D00007D00E4C0E4B1C60204600F095F9204668
:1068E00070BD0B68B3F1AA3F07D00A4C084B1C607F
:1068F000204600F089F9204670BD0020044B186046
:1069000070BD00BF9C820010A08200100D00000826
:10691000108400100E0000082DE9F0478AB0804670
:106920000C461646FBF740FC72B6B4F5007F0AD061
:1069300003D8B4F5807F5AD105E0B4F5806F02D05A
:10694000B4F5805F53D1B6F5803F06D3F70B0E3711
:10695000A519013DED0B0E3503E0370BA519013DDF
:106960002D0B322305930697079501A905A8224B05
:106970009847019B1BB162B69DF8040038E03423B0
:106980000593069707951D4B1B681D4AA2FB032321
:106990009B09089301A905A8174B9847019B1BB1B8
:1069A00062B69DF8040023E032230593069707950D
:1069B00001A905A8104B9847019B1BB162B69DF831
:1069C000040015E0332305930696CDF81C80089447
:1069D0000A4B1B680A4AA2FB03239B09099301A9DE
:1069E00005A8054B984762B69DF8040000E00C200E
:1069F0000AB0BDE8F08700BFF11FFF1F8C00001038
:106A0000D34D621070B5344B1860344B19600D1AB9
:106A10000435002306E0C45C03F5805212789442EA
:106A200004D10133AB42F6D3012300E000231BB1B4
:106A300000202B4B186070BD0E460446294629489D
:106A4000FDF7DEFF002D07DA274C254B1C602046A2
:106A500000F0DAF8204670BDB5F5004F07DD234C95
:106A60001F4B1C60204600F0CFF8204670BDB5F5E6
:106A7000805F0BDCB5F5806F0BDCB5F5007F0BDCC0
:106A8000B5F5807F0BDD4FF400710AE04FF4004153
:106A900007E04FF4805104E04FF4806101E04FF4CF
:106AA00080714FF0AA33E360114A12682260114AE4
:106AB0001268626033604FF480522046FFF72CFF6B
:106AC00010B9074B186070BD0B4C054B1C6020467D
:106AD00000F09AF8204670BD9C820010A082001041
:106AE00010840010302D01000A0000080B0000087F
:106AF000A8000010AC0000100C00000810B5084BF6
:106B0000186838B9074C084B1C60204600F07CF828
:106B1000204610BD054B1968FFF774FF10BD00BF7C
:106B20009C8200100C00000810840010A08200104D
:106B300010B5254B186838B9244C254B1C602046ED
:106B400000F062F8204610BD0022C260214B1B6895
:106B50001A601B1A043307D51F4C1D4B1C602046BE
:106B600000F052F8204610BDB3F5805F07DD1B4CE6
:106B7000174B1C60204600F047F8204610BDB3F5C7
:106B8000806F08DCB3F5007F08DCB3F5807F08DD9B
:106B90004FF4007107E04FF4805104E04FF480613E
:106BA00001E04FF480714FF48052FFF7B5FE10B949
:106BB000074B186010BD054C054B1C60204600F0CB
:106BC00023F8204610BD00BF9C8200100C00000876
:106BD00010840010A08200100A0000080B000008BA
:106BE000024B1B6803B11881704700BF9C820010E4
:106BF000044B1B680BB11889704741F208031888D1
:106C0000704700BF9C82001010B5044628B1020EE8
:106C100020F07F410248FDF7F3FE204610BD00BF83
:106C2000782D010010B582B00446FBF779FE02AB67
:106C300043F8040D21461846FBF772FF02B010BD61
:106C400008B50122054B1A700220FDF77FFB0220D8
:106C5000FEF7D4FF0220FFF7E5FFF5E7A48200105E
:106C600008B50C460848094B1860FFF7CDFF2146D0
:106C70000748FDF7C5FE4FF0280383F31188BFF3E3
:106C80006F8FBFF34F8FFEE71900001310840010C1
:106C9000B82D010000B587B0FFF74AFCFFF7DCF91B
:106CA0000020FCF7C5FEFDF7F7F9FEF765FDFEF7DE
:106CB000EFFFFEF7D1FEFDF74FFBFEF7D5FC0023FB
:106CC00004930393029301934FF6FF720092802284
:106CD00003490448FBF762FD07B05DF804FB00BF01
:106CE000C42D0100416C00002DE9F04F83B00588F0
:106CF0008368002B38D01C889B68002B32D01E88FC
:106D00009B686BB31F889B6843B3B3F800809B6894
:106D100013B3B3F800909B68DBB1B3F800A09B6895
:106D2000A3B1B3F800B09B686BB11A880192986860
:106D300028B1FFF7D9FF019A024493B20193019B56
:106D40009B441FFA8BFBDA441FFA8AFAD1441FFADC
:106D500089F9C8441FFA88F84744BFB23E44B6B226
:106D60003444A4B22544ADB2284603B0BDE8F08F48
:106D70002DE9F04F83B045888368002B38D05C88BC
:106D80009B68002B32D05E889B686BB35F889B68E2
:106D900043B3B3F802809B6813B3B3F802909B68C7
:106DA000DBB1B3F802A09B68A3B1B3F802B09B6853
:106DB0006BB15A880192986828B1FFF7D9FF019A00
:106DC000024493B20193019B9B441FFA8BFBDA446C
:106DD0001FFA8AFAD1441FFA89F9C8441FFA88F8C1
:106DE0004744BFB23E44B6B23444A4B22544ADB227
:106DF000284603B0BDE8F08F70B504460D46164630
:106E000003F0BAFB00232375E661A56170BD00BFE6
:106E1000837C002B00F0D7820B78022B07D1037DF7
:106E2000012B01D0012343740123037514E0052BCA
:106E300006D100230B7002230375012343740BE07A
:106E4000032B03D1037500230B7005E0037D0BB109
:106E50000123437400230375437C002B00F0B382AD
:106E60002DE9F04F8FB0037D1BB1C2691268059206
:106E700002E0C269126905921BB1C2699268079269
:106E800002E0C269926907921BB1C369DB6808938B
:106E900002E0C369DB690893044607888568002D12
:106EA00061D02E88AB68002B5BD0B3F800809B6864
:106EB000002B54D0B3F800909B68002B4CD0B3F853
:106EC00000A09B68002B44D0B3F800B09B68002B57
:106ED0003CD01A8806929B68002B33D01A880992FE
:106EE0009B68002B29D01A880A929B6803B31A88E2
:106EF0000B929B68BBB11A880C929B6873B11A887D
:106F00000D92986828B1FFF7EFFE0D9A024493B2F4
:106F10000D930C9B0D9A13449BB20C930B9B0C9AF4
:106F200013449BB20B930A9B0B9A13449BB20A9394
:106F3000099B0A9A13449BB20993069B099A13442E
:106F40009BB20693069B9B441FFA8BFBDA441FFA05
:106F50008AFAD1441FFA89F9C8441FFA88F84644CE
:106F6000B6B23744BFB206976788002D5DD06E88F1
:106F7000AB68002B57D05D889B68002B51D0B3F8CD
:106F800002809B68002B4AD0B3F802909B68002BCC
:106F900042D0B3F802A09B68002B3AD0B3F802B0FD
:106FA0009B68002B32D05A8809929B68002B29D00D
:106FB0005A880A929B6803B35A880B929B68BBB1AC
:106FC0005A880C929B6873B15A880D92986828B1C0
:106FD000FFF7CEFE0D9A024493B20D930C9B0D9ACF
:106FE00013449BB20C930B9B0C9A13449BB20B93D0
:106FF0000A9B0B9A13449BB20A93099B0A9A134467
:107000009BB20993099B9B441FFA8BFBDA441FFA3E
:107010008AFAD1441FFA89F9C8441FFA88F845440E
:10702000ADB22E44B6B23744BFB2B4F90420B4F9BD
:1070300006300599009139460698FEF7F5FD278838
:10704000A568002D61D02E88AB68002B5BD0B3F80B
:1070500000809B68002B54D0B3F800909B68002BF5
:107060004CD0B3F800A09B68002B44D0B3F800B01C
:107070009B68002B3CD01A8806929B68002B33D06B
:107080001A8809929B68002B29D01A880A929B685B
:1070900003B31A880B929B68BBB11A880C929B6849
:1070A00073B11A880D92986828B1FFF71DFE0D9AEA
:1070B000024493B20D930C9B0D9A13449BB20C9314
:1070C0000B9B0C9A13449BB20B930A9B0B9A134491
:1070D0009BB20A93099B0A9A13449BB20993069B9D
:1070E000099A13449BB20693069B9B441FFA8BFBA1
:1070F000DA441FFA8AFAD1441FFA89F9C8441FFA00
:1071000088F84644B6B23744BFB206976788002D68
:107110005DD06E88AB68002B57D05D889B68002BD4
:1071200051D0B3F802809B68002B4AD0B3F802908C
:107130009B68002B42D0B3F802A09B68002B3AD08A
:10714000B3F802B09B68002B32D05A8809929B6832
:10715000002B29D05A880A929B6803B35A880B9255
:107160009B68BBB15A880C929B6873B15A880D9288
:10717000986828B1FFF7FCFD0D9A024493B20D9375
:107180000C9B0D9A13449BB20C930B9B0C9A1344CB
:107190009BB20B930A9B0B9A13449BB20A93099BD5
:1071A0000A9A13449BB20993099B9B441FFA8BFBD9
:1071B000DA441FFA8AFAD1441FFA89F9C8441FFA3F
:1071C00088F84544ADB22E44B6B23744BFB2B4F9E4
:1071D0000420B4F906300799019101210091394644
:1071E0000698FEF7EFFD2688D4F80880B8F1000F66
:1071F00061D0B8F80050D8F80830002B59D01F885B
:107200009B68002B53D0B3F800909B68002B4CD0A8
:10721000B3F800A09B68002B44D0B3F800B09B6883
:10722000002B3CD01A8806929B68002B33D01A881A
:1072300007929B68002B29D01A8809929B6803B398
:107240001A880A929B68BBB11A880B929B6873B12B
:107250001A880C92986828B1FFF746FD0C9A0244F0
:1072600093B20C930B9B0C9A13449BB20B930A9B07
:107270000B9A13449BB20A93099B0A9A13449BB23C
:107280000993079B099A13449BB20793069B079A9D
:1072900013449BB20693069B9B441FFA8BFBDA4474
:1072A0001FFA8AFAD1441FFA89F94F44BFB23D440C
:1072B000ADB22E44B6B2B4F9045005EBD57506EB69
:1072C0006505ADB26688B8F1000F63D0B8F80270FA
:1072D000D8F80830002B5BD0B3F802809B68002BF5
:1072E00054D0B3F802909B68002B4CD0B3F802A0A6
:1072F0009B68002B44D0B3F802B09B68002B3CD0B5
:107300005A8806929B68002B33D05A8807929B6854
:10731000002B29D05A8809929B6803B35A880A9295
:107320009B68BBB15A880B929B6873B15A880C92C8
:10733000986828B1FFF71CFD0C9A024493B20C9395
:107340000B9B0C9A13449BB20B930A9B0B9A13440E
:107350009BB20A93099B0A9A13449BB20993079B19
:10736000099A13449BB20793069B079A13449BB256
:107370000693069B9B441FFA8BFBDA441FFA8AFA9A
:10738000D1441FFA89F9C8441FFA88F84744BFB2AC
:107390003E44B6B2B4F90610E3695A6A01EBD17102
:1073A00006EB61014FF07E530393A3690293059BA3
:1073B0000193089B0093122389B2284602F08EFAAB
:1073C0000FB0BDE8F08F70472DE9F04F83B04588CE
:1073D0008368002B38D05C889B68002B32D05E8895
:1073E0009B686BB35F889B6843B3B3F802809B686C
:1073F00013B3B3F802909B68DBB1B3F802A09B68AB
:10740000A3B1B3F802B09B686BB15A880192986837
:1074100028B1FFF7D9FF019A024493B20193019B6F
:107420009B441FFA8BFBDA441FFA8AFAD1441FFAF5
:1074300089F9C8441FFA88F84744BFB23E44B6B23F
:107440003444A4B22544ADB2284603B0BDE8F08F61
:107450002DE9F04F83B005888368002B38D01C8855
:107460009B68002B32D01E889B686BB31F889B687B
:1074700043B3B3F800809B6813B3B3F800909B68E4
:10748000DBB1B3F800A09B68A3B1B3F800B09B6870
:107490006BB11A880192986828B1FFF7D9FF019A59
:1074A000024493B20193019B9B441FFA8BFBDA4485
:1074B0001FFA8AFAD1441FFA89F9C8441FFA88F8DA
:1074C0004744BFB23E44B6B23444A4B22544ADB240
:1074D000284603B0BDE8F08F2DE9F04F8FB0044689
:1074E000C37F002B00F01481B0F90630312B01DC92
:1074F0003223C380B4F80080D4F80890B9F1000FAB
:107500004CD0B9F80050D9F80830002B43D01E8871
:107510009B68002B3DD01F889B68002B37D0B3F8A9
:1075200000A09B68002B30D0B3F800B09B68002B04
:1075300028D01A8805929B6803B31A8806929B6824
:10754000BBB11A8807929B6873B11A880892986831
:1075500028B1FFF77DFF089A024493B20893079B76
:10756000089A13449BB20793069B079A13449BB255
:107570000693059B069A13449BB20593059B9B4477
:107580001FFA8BFBDA441FFA8AFA5744BFB23E4413
:10759000B6B23544ADB2A8441FFA88F80FFA88F5A0
:1075A0006688B9F1000F51D0B9F80270D9F80830E7
:1075B000002B49D0B3F802909B68002B42D0B3F85F
:1075C00002A09B68002B3AD0B3F802B09B68002B56
:1075D00032D05A8805929B68002B29D05A8806928F
:1075E0009B6803B35A8807929B68BBB15A8808927C
:1075F0009B6873B15A880992986828B1FFF7E4FE36
:10760000099A024493B20993089B099A13449BB2C6
:107610000893079B089A13449BB20793069B079A0B
:1076200013449BB20693059B069A13449BB20593A1
:10763000059B9B441FFA8BFBDA441FFA8AFAD1445C
:107640001FFA89F94F44BFB23E44B6B2B4F90630CE
:1076500003EBD37306EB6306B6B2A6F119010FFA7A
:1076600081F9B4F90470E36A1B69009332233A4646
:1076700049462846FEF7D8FAE36A9B69019301233D
:10768000009332233A4649462846FEF79BFBB4F95D
:107690001620B4F91410B4F91800FFF767F8B4F91C
:1076A0000420333A002100B2FFF74EF80AF0EAFC5A
:1076B00000B22844E36A5B6800933023312209F169
:1076C00001010130FEF7B0FAA37F002B00F04C81DE
:1076D0000DF12C0A0A225146B4F918000AF034FDC3
:1076E000E36A5A6A07EBD77008EB60004FF07E51EF
:1076F0000391CDF808A06FF47F010191DB6900933D
:107700001223314680B202F0E9F84FF032082FE13F
:10771000B0F90430312B01DC322383802588D4F882
:107720000890B9F1000F4DD0B9F80060D9F80830D1
:10773000002B45D01F889B68002B3FD0B3F80080FA
:107740009B68002B38D0B3F800A09B68002B30D08A
:10775000B3F800B09B68002B28D01A8805929B686C
:1077600003B31A8806929B68BBB11A8807929B687C
:1077700073B11A880892986828B1FFF769FE089AD1
:10778000024493B20893079B089A13449BB2079351
:10779000069B079A13449BB20693059B069A1344D3
:1077A0009BB20593059B9B441FFA8BFBDA441FFA9F
:1077B0008AFAD0441FFA88F84744BFB23E44B6B2B2
:1077C0003544ADB2B4F9046006EBD67605EB660637
:1077D000B6B2A6F119052DB26788B9F1000F52D0E3
:1077E000B9F80280D9F80830002B4AD0B3F80290DB
:1077F0009B68002B42D0B3F802A09B68002B3AD0C4
:10780000B3F802B09B68002B32D05A8805929B686F
:10781000002B29D05A8806929B6803B35A88079296
:107820009B68BBB15A8808929B6873B15A880992C9
:10783000986828B1FFF7C8FD099A024493B20993EA
:10784000089B099A13449BB20893079B089A134418
:107850009BB20793069B079A13449BB20693059B22
:10786000069A13449BB20593059B9B441FFA8BFB1E
:10787000DA441FFA8AFAD1441FFA89F9C8441FFA78
:1078800088F84744BFB20FFA87F9B4F80680636AF4
:1078900033B1E36A5B6AB3F9063005339BB200E0AB
:1078A0000023C3EB08080FFA88F8AB46CA46E36A20
:1078B0001B6900934346322249462846FEF7B4F935
:1078C000E36A9B69019301230093434632224946B0
:1078D0002846FEF777FAB4F91620B4F91410B4F973
:1078E0001800FEF743FF00B2B4F90630333B626A7A
:1078F0002AB1E26A526AB2F90610053100E00021AD
:107900000022591AFEF720FF0AF0BCFB00B200EB80
:107910000A01E36A5B6800933123302201310BF1E5
:107920000100FEF781F9A37F0BB30DF12C0A0A22A7
:107930005146B4F918000AF007FCE36A5A6A08EBEA
:10794000D87107EB61014FF07E500390CDF808A08D
:107950006FF47F000190DB690093122389B23046F7
:1079600001F0BCFF322703E04FF0320800E032277D
:10797000E36A5A6A09EB0801053107EBD77705EB93
:1079800067004FF07E550395646A02946FF47F049C
:1079900001949B6A00930A2389B280B201F09EFF92
:1079A0000FB0BDE8F08F00BFF8B504460F4616468D
:1079B0001D4602F0E1FDA782E6822583AE4201DA90
:1079C000268302E0AF4200DD2783069BE3620123AA
:1079D000E377A377002384F8203063836362F8BDE4
:1079E000F8B50B78012B07D180F8203000230B70FD
:1079F000B0F9183083833DE0062B32D190F8202077
:107A00007AB3438BC67F0EB14A8803E0B1F90420F4
:107A1000524292B21A4414B24483B0F81CE0B0F956
:107A20001670B0F914507A1B02FB04F226B1B0F9BB
:107A30000440A4F1320303E0B0F90640A4F132039C
:107A400092FBF3F373441BB203839D4201DD058374
:107A500002E09F4200DA078300230B700123437486
:107A600008E03BB990F8203023B1002380F82030A3
:107A700043830B70437C1BB1037C0BB1FFF72CFDE0
:107A8000F8BD00BF70B504460E46154602F074FD01
:107A9000666100232383E561238063804FF448738C
:107AA000A3804FF4F073E380A3680BB101225A74F2
:107AB00001236374052104F12000FCF799F80521E6
:107AC00004F12C00FCF794F80223A38770BD00BFDB
:107AD00030B583B004460D4600230093ADF8043062
