:1020000060FF001061210000C15F0000D55F00008B
:10201000E95F0000FD5F00001160000000000000AB
:10202000000000000000000000000000B1380000C7
:102030002521000000000000113900005539000082
:102040003121000031210000312100003121000048
:1020500031210000553A00003121000031210000FB
:102060003121000031210000312100003121000028
:1020700031210000256000003121000031210000E5
:102080003121000031210000312100003121000008
:1020900031210000312100003121000031210000F8
:1020A00031210000213C00003121000031210000DD
:1020B00031210000312100003121000031210000D8
:1020C00031210000312100003121000031210000C8
:1020D0003121000031210000A55500003121000010
:1020E00031210000A4450100800000106C040000B4
:1020F000A44501000000002000000000F0040010D2
:10210000106200000000002000000000FEE700BF99
:10211000FEE700BFFEE700BFFEE700BFFEE700BF2F
:10212000FEE700BFFEE700BFFEE700BFFEE700BF1F
:10213000FEE700BF10B4002304E004680C60043321
:10214000043004319342F8D310BC7047002303E0FD
:1021500000220260043304308B42F9D3704700BF81
:1021600010B50E4B07E003F10C049A685968186823
:10217000FFF7E0FF23460A4A9342F4D306E01C46E9
:10218000596854F8080BFFF7E1FF2346054A9342CC
:10219000F5D300F04DF907F0A3F9FEE7E4200000C5
:1021A000FC2000000C2100009A4BD3F8043113F4FA
:1021B000807F4BD1974BD3F80C3113F0010F1BD11B
:1021C0009449D1F8042102F01F02934BB3FBF2F2C1
:1021D00092480260D1F8A82102F01F02B3FBF2F28C
:1021E0008F480260D1F8002102F001020132B3FBF6
:1021F000F2F38C4A1360A6E0864BD3F8A03113F0BB
:10220000400F07D10023854A1360854A1360854A31
:10221000136098E07F49D1F8042102F01F02824B3D
:10222000B3FBF2F27D480260D1F8A82102F01F0250
:10223000B3FBF2F27A480260D1F8002102F0010209
:102240000132B3FBF2F3774A13607CE0714BD3F8B1
:10225000883013F4807F07D10023704A1360704ADE
:102260001360704A13606EE06A4BD3F80C3113F0C0
:10227000010F2DD16748D0F8882002F01F02664B6D
:1022800002FB0331D0F8042102F01F02B1FBF2F28D
:1022900062490A60D0F8882002F01F0202FB033175
:1022A000D0F8A82102F01F02B1FBF2F25C490A60EB
:1022B000D0F8882002F01F0202FB0333D0F800217F
:1022C00002F001020132B3FBF2F3564A13603AE026
:1022D000504BD3F8A03113F0400F07D100234F4AE1
:1022E00013604F4A13604F4A13602CE04948D0F8FE
:1022F000882002F01F024C4B02FB0331D0F804216E
:1023000002F01F02B1FBF2F244490A60D0F88820C3
:1023100002F01F0202FB0331D0F8A82102F01F02D5
:10232000B1FBF2F23E490A60D0F8882002F01F02A9
:1023300002FB0333D0F8002102F001020132B3FBAB
:10234000F2F3384A1360334BD3F8083113F4807F2B
:1023500039D0304BD3F8083103F01F03042B06D0DB
:10236000062B04D05BBB0022304B1A607047294B10
:10237000D3F80C3113F0010F10D02649D1F8883072
:1023800003F01F02284B02FB0333D1F8082102F0AF
:102390001F02B3FBF2F3254A136070471D49D1F8C1
:1023A000883003F01F021C4B02FB0333D1F80821D5
:1023B00002F01F02B3FBF2F31C4A136070470022C5
:1023C0001A4B1A607047134BD3F8083113F4007F8F
:1023D0001BD0104BD3F80C3113F0010F0AD00D4B6A
:1023E000D3F8A83003F01F020F4B02FB03330F4A50
:1023F00013607047074BD3F8883003F01F02064B79
:1024000002FB0333094A136070470022074B1A602E
:10241000704700BF00C00F40001BB7008C000010C9
:102420008800001084000010002D31018000001091
:1024300031221C4BC3F8A0211A4BD3F8A03113F062
:10244000400FF9D0174B0122C3F80C210521C3F826
:102450008410C3F88020AA22C3F88C205522C3F828
:102460008C20104BD3F8883013F4806FF9D00D4BCB
:1024700040F20112C3F8042140F20122C3F80821FE
:102480000122C3F800210222C3F8A821064AC3F89A
:10249000C4204FF48072C3F8C82145F23A021A6092
:1024A000704700BF00C00F40DE872804074B23F0B1
:1024B0000703074A136000205060064A44F618617B
:1024C0005160106059601A60704700BF0405001029
:1024D000F00400101C53001070B5044600F018FA08
:1024E000224B1B6823B9FFF7E1FF01221F4B1A6043
:1024F00034B1083414F0070F02D024F00704083474
:10250000621E44F616639A4228D819490B6801E006
:10251000194613465A68944202D91A68002AF7D11C
:10252000144A93421CD00D6808351A680A605A682C
:10253000121B102A0CD91E1972605C6074680C4959
:1025400000E011460A6850688442FAD832600E6092
:102550005968094A13685B1A136002E0002500E01D
:10256000002500F069FA284670BD00BFF80400108D
:10257000F00400101C53001090000010D0B170B592
:102580000546A0F1080600F0C3F955F8044C0A4AC4
:1025900000E01A46136859688C42FAD845F8083C9E
:1025A000166055F8043C054A11680B44136000F0AE
:1025B00043FA70BD704700BFF00400109000001097
:1025C0000A4B1B681B680BB9012300E0002323B1F1
:1025D0004FF0FF32064B1A607047044B1B68DB68F4
:1025E000DB685A68024B1A60704700BF285300101E
:1025F0001854001010B50446006BFFF7BFFF2046CB
:10260000FFF7BCFF10BD00BFF8B5074614460E46E5
:1026100021B98000FFF760FF054600E00D4665B177
:102620001CB96020FFF758FF04460CB1256305E094
:1026300026B92846FFF7A2FF00E0002424B1BA0023
:10264000A521206B0BF028F92046F8BD70B5044693
:102650001546002306E0C85CE21882F83400CA5C24
:1026600012B10133132BF6D9002384F84730072D1C
:1026700000D90725E562256500266665201D00F066
:1026800011FE04F1180000F00DFE2461C5F10805EB
:10269000A5616462A66584F85C6070BD38B50024ED
:1026A00007E004EB840293000E48184400F0EEFDAE
:1026B0000134072CF5D90C4D284600F0E7FD0B4CF2
:1026C000204600F0E3FD0A4800F0E0FD094800F074
:1026D000DDFD094800F0DAFD084B1D60084B1C6069
:1026E00038BD00BF4C53001020540010345400106B
:1026F000FC530010305300104854001028530010B1
:102700004453001038B504460D461D4B186804307C
:1027100000F0F2FD50B91A4B1B68DA6A012303FA84
:1027200002F218490B6823EA02030B60B4F1FF3F81
:1027300007D135B1124B19680431134800F0B6FDCA
:1027400038BD124B1A6814440D4A126854601B6855
:102750009C4207D20E4B1868094B1968043100F0EF
:10276000B1FD38BD0B4B1868054B1968043100F0FA
:10277000A9FD094B1B689C4201D2074B1C6038BD68
:10278000F85300105C54001048540010145400100A
:102790004453001028530010185400102DE9F0473E
:1027A00082B080468A46164699460B9F0D9A0C9930
:1027B0003046FFF729FF00284BD00446036B06F193
:1027C0008045013D03EB850525F0070500960E9B2E
:1027D0000A9A5146FFF73AFF4A464146284601F019
:1027E00053F8206007B13C6001F074F8254A136883
:1027F00001331360244B1B683BB9234B1C601368E7
:10280000012B0DD1FFF74AFF0AE0204B1B683BB9B3
:102810001D4B1B68DB6A0A9A9A4201D31A4B1C6053
:102820001B4A136801331360A364E36A012505FAA8
:1028300003F018490A6802430A6003EB83039A0015
:10284000211D1548104400F031FD01F053F82846D1
:1028500001E04FF0FF30012810D10C4B1B686BB129
:10286000094B1B68DB6A0A9A9A4207D94FF08052DB
:102870000A4B1A60BFF34F8FBFF36F8F02B0BDE8F2
:10288000F08700BFF4530010F85300102C530010D1
:102890001C5400105C5400104C53001004ED00E078
:1028A00000B587B00023049303930293124A019268
:1028B0000093802211491248FFF770FF012801D1CF
:1028C00000F09AFB012813D14FF0280383F31188FD
:1028D000BFF36F8FBFF34F8F4FF0FF32094B1A607A
:1028E0000122094B1A600022084B1A6001F05EF8C1
:1028F00007B05DF804FB00BF1054001030DE00008C
:10290000DD2B0000185400102C530010145400103C
:10291000024A136801331360704700BFEC53001084
:10292000014B1868704700BF14540010F8B5374BBE
:102930001B68002B5DD1364B1A6801321A601F6884
:102940005FB9344A1168344B186810601960334A13
:10295000136801331360FFF733FE314B1B689F424E
:1029600003D200263AE0012600E00026294B1B682E
:102970001B680BB9012300E0002323B14FF0FF32A5
:10298000274B1A602AE0234B1B68DB68DC6863680E
:102990009F4202D2224A136020E0251D284600F003
:1029A000ABFCA36A1BB104F1180000F0A5FCE36ABC
:1029B000012202FA03F11B4802680A43026003EB9A
:1029C00083039A0029461848104400F06FFCE26A1D
:1029D000164B1B68DB6A9A42C5D2C7E7134B1B68CC
:1029E000DB6A03EB83039A000F4B9B58012B06D83D
:1029F00006E00F4A136801331360002600E0012649
:102A00000C4B1B6803B101263046F8BDEC53001097
:102A10001454001028530010445300102453001085
:102A2000185400105C5400104C530010F853001060
:102A3000485300106054001038B500F04BFF2F4B86
:102A40001A68013A1A601B68002B50D12C4B1B6886
:102A500033BB00244EE02B4BDB68DC6804F118002C
:102A600000F04AFC251D284600F046FCE36A0122DE
:102A700002FA03F1244802680A43026003EB83036D
:102A80009A0029462148104400F010FCE26A204BCD
:102A90001B68DB6A9A4204D301221E4B1A6000E0D5
:102AA0000024184B1B68002BD5D10CB1FFF788FD13
:102AB000194B1B6853B90DE0FFF738FF10B1012225
:102AC000144B1A60144A1368013B1360124B1B68C5
:102AD000002BF1D10F4B1B685BB14FF080520F4BB5
:102AE0001A60BFF34F8FBFF36F8F012402E0002401
:102AF00000E0002400F0FEFE204638BDEC5300103C
:102B0000F4530010FC5300105C5400104C530010A0
:102B1000F8530010605400104853001004ED00E01A
:102B200038B505460C46FFF7F3FE154B18682A68C2
:102B30001319904205D29A4209D9984209D300222A
:102B40000CE09A4207D8984207D3002206E0002200
:102B500004E0012202E0012200E001222B601AB110
:102B60000021181AFFF7CEFDFFF766FF38B94FF0C6
:102B70008052044B1A60BFF34F8FBFF36F8F38BD85
:102B80001454001004ED00E010B51BE0FFF7C0FE88
:102B90000F4B1C68FFF750FFA4B100F09BFE0C4BDD
:102BA000DB68DC68201D00F0A7FB0A4A1368013BC4
:102BB0001360094A1368013B136000F09BFE204636
:102BC000FFF718FD044B1B68002BDFD110BD00BFC1
:102BD00030530010F4530010F053001008B5FFF705
:102BE000D3FF064B1B68012BF9D94FF08052044BE1
:102BF0001A60BFF34F8FBFF36F8FF0E74C53001095
:102C000004ED00E038B51E4B1B681BB101221D4BC3
:102C10001A6038BD00221B4B1A601B4B1A681268E1
:102C20001B681B6B9A4205D8174B1868196834311A
:102C300003F0FAFB154B1B68B3FA83F3DBB2C3F165
:102C40001F03134D9900CA18900028444268546825
:102C5000446019448A0008322A44944205D16068CD
:102C600003EB83018A002A44506003EB83039A003C
:102C7000074B1A445368DA68034B1A6038BD00BF2B
:102C8000EC53001060540010F85300105C54001016
:102C90004C53001010B50C46044B1968183100F065
:102CA00011FB01212046FFF72DFD10BDF853001048
:102CB00038B50D461446064B1968183100F0F6FA7F
:102CC0000CB14FF0FF3521462846FFF71BFD38BDFC
:102CD000F853001038B5C368DC6804F118052846BD
:102CE00000F00AFB134B1B68A3B9251D284600F012
:102CF00003FBE36A012202FA03F10F4802680A4368
:102D0000026003EB83039A0029460C48104400F04C
:102D1000CDFA03E029460A4800F0C8FAE26A094BF6
:102D20001B68DB6A9A4203D90120074B186038BD43
:102D3000002038BDEC5300105C5400104C530010C0
:102D4000FC530010F853001060540010034B1B6834
:102D50000360034B1B684360704700BF245300109F
:102D60001454001038B504460D4600F0B3FD114B65
:102D70001A682B68B3F1FF3F13D020680E49096829
:102D8000884202D061688A420DD26168501A83423B
:102D90000BD98A1A13442B602046FFF7D7FF002473
:102DA00004E0002402E0012400E0012400F0A2FD80
:102DB000204638BD14540010245300100122014B4A
:102DC0001A60704760540010054B1B6823B1054B17
:102DD0001B681BB902207047012070470020704714
:102DE0002C530010EC53001000284AD038B502468E
:102DF000C36A24490968C96A8B4241D281690029A2
:102E000005DB20490968C96AC1F10801816150697F
:102E100003EB830399001C4B1944884201D1012321
:102E200000E0002343B31446151D284600F064FA61
:102E300070B9E36A03EB83018A0013498A583AB9EF
:102E4000012202FA03F311490A6822EA03030B6024
:102E50000C4B1B68DB6AE362012202FA03F10B48A8
:102E600002680A43026003EB83039A00294606487E
:102E7000104400F01BFA38BD024B1B68DB6AD362BA
:102E800038BD7047F85300104C5300105C540010CC
:102E9000002834D038B50346426D013A4265C06A15
:102EA000196D88422DD072BB1C461D1D284600F0AE
:102EB00023FA70B9E36A03EB83018A0013498A5845
:102EC0003AB9012202FA03F311490A6822EA03031C
:102ED0000B60236DE362C3F10802A261012404FACE
:102EE00003F00B490A6802430A6003EB83039A006C
:102EF00029460648104400F0D9F9204638BD002084
:102F00007047002038BD002038BD00BF4C53001072
:102F10005C540010054B1B6823B1044B1A68536DB9
:102F200001335365014B1868704700BFF853001018
:102F3000064B1A681368B3FA83F35B09036013B98D
:102F4000D368186870470020704700BF64540010B1
:102F500008B54160006191420AD8D21A83699A4249
:102F600011D2011D0A4B186800F0ACF9002008BD11
:102F70009A4201D2994208D2011D064B186800F00E
:102F8000A1F9002008BD012008BD012008BD00BF37
:102F9000985400106454001030B583B000F09AFCCF
:102FA0000F4B1B68C3B90F4D284600F06FF90E4C4C
:102FB000204600F06BF90D4B1D600D4B1C6000228C
:102FC000009213460C21022000F090FA044B186086
:102FD00010B1084900F00AFC00F08CFC03B030BDD1
:102FE00094540010685400107C5400106454001075
:102FF0009854001038DE000000B587B0FFF7CCFF12
:10300000094B1B6863B1002304930393029301935C
:1030100002220092502205490548FFF7BFFB00E05D
:10302000002007B05DF804FB9454001040DE00005F
:103030007532000030B585B0134C256805B31C46C9
:10304000019102920390052913DCFFF7BDFE0228CF
:1030500007D10023089A01A90B48006800F064FA20
:103060000FE000231A4601A90748006800F05CFA47
:1030700007E00023224601A9284600F0E9FA00E013
:10308000002005B030BD00BF9454001070B582B070
:103090001FE0DB681E68DC68251D284600F02CF95F
:1030A000636A20469847E369012B12D1A369334430
:1030B0009E4207D26360246129460C4B186800F0D9
:1030C00001F906E0002100910B4632462046FFF749
:1030D000B1FF064B1B681A68002ADAD1044A10684F
:1030E00002490860136002B070BD00BF6454001054
:1030F0009854001038B50546FFF712FC0446074BFC
:103100001B68984204D2FFF7C1FF01232B6001E046
:1031100000232B60014B1C60204638BD90540010EA
:1031200070B582B005460E460E4B1B68DB68DC6846
:10313000201D00F0E1F8E369012B0ED1A1692B46B7
:10314000324629442046FFF703FF30B100210091A9
:103150000B462A462046FFF76DFF636A20469847D4
:1031600002B070BD6454001070B582B006460C46C3
:10317000FFF7CEFB01A8FFF7BDFF019B1BBB054678
:1031800044B9B04206D3FFF757FC29463046FFF753
:10319000C7FF1AE02CB10E4B1B681C68B4FA84F40C
:1031A00064092246711B0B4B186800F033FBFFF7D4
:1031B00043FC50B94FF08052074B1A60BFF34F8F5A
:1031C000BFF36F8F01E0FFF737FC02B070BD00BFA7
:1031D000985400109454001004ED00E030B587B00E
:1031E0003AE0039B002B37DB059C636913B1201D7C
:1031F00000F082F802A8FFF77DFF039B092B2BD874
:10320000DFE803F00505052A1E2705052A1E049997
:10321000A5690B46024629442046FFF799FED8B11E
:10322000636A20469847E369012B15D1A269002102
:1032300000910B46049802442046FFF7FBFE0BE08A
:103240000499A1610346024601442046FFF780FE2F
:1032500002E02046FFF792F900231A4603A904482A
:10326000006800F029FA0028BBD107B030BD00BFCC
:103270009454001000B583B001A8FFF759FE0199DE
:10328000FFF772FFFFF7AAFFF6E700BF00F10803A0
:1032900043604FF0FF328260C3600361002303602C
:1032A000704700BF00230361704700BF43684B6055
:1032B0009A688A609A68516099600861036801336E
:1032C0000360704730B40D68B5F1FF3F01D102696A
:1032D00007E000F1080200E01A4653681C68A542A6
:1032E000FAD253684B6099608A6051600861036844
:1032F0000133036030BC70470369426881689160A4
:103300008268416851605A68904201D182685A606F
:1033100000220261186801381860704710B5044631
:1033200000F0D8FAA26BE36B9A4201D1012400E0CD
:10333000002400F0DFFA204610BD00BF10B504469F
:1033400000F0C8FAA36B0BB9012400E0002400F0E0
:10335000D1FA204610BD00BF10B5144611B100FBD4
:1033600001F000E000205430FFF7B6F8034610B13A
:1033700000F154022260184610BD00BF38B5044663
:103380001546026C3AB903685BBB4068FFF780FDE5
:10339000002363602CE06DB980680AF0A3F9A2688D
:1033A000236C1344A360626893421CD32368A36018
:1033B00000201DE0C0680AF095F9236C5B42E268CA
:1033C0001A44E26021688A4202D262681344E360D0
:1033D000022D0AD1A36B53B1A36B013BA363002061
:1033E00006E0002004E0002002E0002000E00020D1
:1033F000A36B0133A36338BD026C72B110B5C3680F
:103400001344C3604468A34201D30368C3600C46FD
:10341000C16820460AF066F910BD704710B5044631
:1034200000F058FA0BE0636A63B104F12400FFF77F
:1034300051FC08B1FFF7C2FCA36C013BA364A36C71
:10344000002BF0DC4FF0FF33A36400F053FA00F0E0
:1034500041FA0BE0236963B104F11000FFF73AFC75
:1034600008B1FFF7ABFC636C013B6364636C002B3A
:10347000F0DC4FF0FF33636400F03CFA10BD00BF96
:1034800038B504460D4600F025FA2168E26B236C3E
:1034900003FB021060600020A063A160013A02FB00
:1034A0000313E3604FF0FF336364A3647DB92369C2
:1034B000ABB104F11000FFF70DFC80B14FF080526A
:1034C000094B1A60BFF34F8FBFF36F8F07E004F112
:1034D0001000FFF7DBFE04F12400FFF7D7FE00F039
:1034E00009FA012038BD00BF04ED00E070B582B0DC
:1034F00006460D4602AC44F8042D2246FFF72CFF89
:10350000044670B10DB9206001E0019B0360E663E1
:10351000256401212046FFF7B3FF9DF8183084F899
:103520005030204602B070BDF0B585B004460F465D
:1035300001921E46002500F0CDF9A26BE36B9A4282
:1035400001D3022E21D1324639462046FFF716FF1D
:10355000636A6BB104F12400FFF7BCFB88B14FF044
:1035600080522F4B1A60BFF34F8FBFF36F8F08E06D
:1035700038B14FF080522A4B1A60BFF34F8FBFF320
:103580006F8F00F0B7F9012048E0019B1BB900F0F4
:10359000B1F9002042E01DB902A8FFF7D7FB0125D1
:1035A00000F0A8F9FFF7B4F900F094F9636CB3F1F7
:1035B000FF3F01D100236364A36CB3F1FF3F01D14E
:1035C0000023A36400F096F901A902A8FFF7CAFB43
:1035D000F0B92046FFF7A2FEA0B1019904F1100056
:1035E000FFF758FB2046FFF719FFFFF725FA0028E1
:1035F000A1D14FF080520A4B1A60BFF34F8FBFF337
:103600006F8F98E72046FFF709FFFFF715FA92E75B
:103610002046FFF703FFFFF70FFA002005B0F0BDCB
:1036200004ED00E010B582B000900B460022114678
:103630000120FFF75BFF044638B1002141600160C3
:10364000C1600B460A46FFF76FFF204602B010BD6F
:1036500070B5EFF311854FF0280484F31188BFF3A0
:103660006F8FBFF34F8F866BC46BA64201D3022BC3
:1036700018D1164604461A46FFF780FEA36CB3F134
:10368000FF3F0AD1636A7BB104F12400FFF722FBFC
:1036900060B16EB1012030600BE0A36C0133A36414
:1036A000012006E0002004E0012002E0012000E00B
:1036B000012085F3118870BDF0B585B004460F4632
:1036C00001921E46002500F005F9A36B8BB3E56857
:1036D00039462046FFF790FEBEB9A36B013BA363BA
:1036E000236813B9FFF716FC60602369EBB104F19E
:1036F0001000FFF7EFFAC0B14FF080523A4B1A605A
:10370000BFF34F8FBFF36F8F0FE0E560636A63B164
:1037100004F12400FFF7DEFA38B14FF08052324B4B
:103720001A60BFF34F8FBFF36F8F00F0E3F80120F3
:1037300057E0019B1BB900F0DDF8002051E01DB9F6
:1037400002A8FFF703FB012500F0D4F8FFF7E0F82B
:1037500000F0C0F8636CB3F1FF3F01D10023636454
:10376000A36CB3F1FF3F01D10023A36400F0C2F8C2
:1037700001A902A8FFF7F6FA38BB2046FFF7DEFDE5
:10378000E8B1236833B900F0A5F86068FFF72CFBB7
:1037900000F0B0F8019904F12400FFF77BFA20460D
:1037A000FFF73CFEFFF748F900288CD14FF080521C
:1037B0000D4B1A60BFF34F8FBFF36F8F83E7204627
:1037C000FFF72CFEFFF738F97DE72046FFF726FECE
:1037D000FFF732F92046FFF7B1FD00283FF473AF41
:1037E000002005B0F0BD00BF04ED00E000230BE0B9
:1037F000074A52F8332032B9054A42F8331002EB37
:10380000C303586070470133092BF1D9704700BFDB
:10381000D455001070B504460D46164600F05AF80F
:10382000636CB3F1FF3F01D100236364A36CB3F178
:10383000FF3F01D10023A36400F05CF8A36B2BB918
:103840003246294604F12400FFF732FA2046FFF7FA
:10385000E5FD70BD4FF0280383F31188BFF36F8F30
:10386000BFF34F8FFEE700BF06480068006880F393
:10387000088862B661B6BFF34F8FBFF36F8F00DF6A
:1038800000BF000008ED00E04FF0807340F8043CFA
:1038900040F8081C034B40F80C3C40F8202C403802
:1038A000704700BF55380000FFFFFFFFFFFFFFFF1D
:1038B000074B19680868B0E8F00F80F30988BFF378
:1038C0006F8F4FF0000080F311884EF00D0E70479F
:1038D000F85300104FF0280383F31188BFF36F8F64
:1038E000BFF34F8F024A136801331360704700BF64
:1038F00094000010034A1368013B13600BB983F373
:103900001188704794000010FFFFFFFFFFFFFFFFCB
:10391000EFF30980BFF36F8F0D4B1A6820E9F00FAA
:1039200010602DE908404FF0280080F31188FFF760
:1039300069F94FF0000080F31188BDE8084019686C
:103940000868B0E8F00F80F30988BFF36F8F704705
:10395000F853001008B54FF0280383F31188BFF324
:103960006F8FBFF34F8FFEF7E1FF18B14FF080521A
:10397000024B1A60002383F3118808BD04ED00E0B8
:10398000064B1B68064AA2FB03239B09013B054A21
:1039900013600722044B1A60704700BF8C000010B0
:1039A000D34D621014E000E010E000E008B5094BD0
:1039B0001A6842F478021A601A6842F078421A6073
:1039C000FFF7DEFF0022044B1A60FFF74DFFFFF701
:1039D00041FF00BF20ED00E09400001040B110B5A1
:1039E000054C064B1C60204602F0EEFC204610BD44
:1039F0000020024B186070471800000E3C57001062
:103A000030B583B00446114850F824301B7802A921
:103A100001F8013D04EB840293002833184402F0BE
:103A2000EBF920F07F4018B1094B186802F0CCFC8C
:103A3000231D064A02EB83035D682DB102F0BAFA3A
:103A40009DF807202146A84703B030BDA8540010B8
:103A50003C57001008B50020FFF7D2FF08BD00BF9B
:103A6000F8B50546FFF7BAFF0446384B1860002842
:103A700069D1FEF799FB2B1D354A02EB8303002227
:103A80005A6065B905EB85039800283001230A22A6
:103A900030492F4E304402F0A1F9032000E000200D
:103AA000002D4AD12A4B2C4A1A6002F500323421EB
:103AB00011605160294FD7F8C460E91C012202FA55
:103AC00001F13143C7F8C41025490968254EA6FB0A
:103AD000016153F825703E7B46F080063E7353F833
:103AE0002560C1F30757377053F82560090F31710E
:103AF00053F82510C0B2087353F825104A6053F8E4
:103B000025100A7253F82510802081F83000691DB5
:103B1000C9B248B2400901F01F0102FA01F1124E88
:103B200046F8201002FA05F593F88C20154383F827
:103B30008C500022054B1A6005E00C4C034B1C60B6
:103B4000204602F041FC2046F8BD00BF3C57001063
:103B5000A85400109C54001000C0004000C00F404A
:103B600088000010C5B3A29100E100E01800000E2B
:103B700070B506460D46FFF731FF20B13046FFF71E
:103B80002DFF04461AE004460D4B93F88C00314695
:103B9000304110F0010F06D10A4C0B4B1C6020463F
:103BA00002F012FC0AE0064B53F821301A7D12F0A5
:103BB000400FF8D01D700022034B1A60204670BDE4
:103BC000A85400101500000E3C57001038B50446EC
:103BD0000D46FFF703FF18B12046FFF7FFFE38BD83
:103BE000FFF778FE04EB8404A00028302946044B3C
:103BF000184402F02BF90446FFF77CFE204638BD3E
:103C0000A8540010054B93F88C20012303FA00F010
:103C1000024214BF18460020704700BFA85400108D
:103C200010B5234800F0BEFD3BE0224B596A224A02
:103C300011671B6AC3F3034382F87430082B03D95E
:103C400008221D4B83F874201A4B1B6A002B02DAE2
:103C50004FF0005200E00022174B9A67154A906A15
:103C60009866D26ADA66154800F09CFD002407E0E9
:103C7000114B234493F86810114800F093FD013470
:103C80000D4B93F874309C42F2DB0E4800F08AFD35
:103C9000094800F16801503002F0AEF80422054BEB
:103CA0005A60044B9B6813F0010FBED110BD00BFDA
:103CB00048DE0000004004403855001058DE000087
:103CC00074DE00000CDF000070B51E4C18230322C8
:103CD00004F1080104F1500002F080F80020606057
:103CE000194AD2F8C43043F40053C2F8C430174B19
:103CF00001255D601D6016490B682B430B600B6846
:103D000023F0BE030B600D614FF480134B614E69CD
:103D1000104B1A68104BA3FB0223DB0C013BC3F3CF
:103D2000090333434B610B6823F001030B600B4B1A
:103D300058609860D860186158612570084B186009
:103D400070BD00BF3855001000C00F4000C00240D9
:103D5000004004408C00001083DE1B4300C0034081
:103D60003C570010F0B40224954B1C60002A40F030
:103D700020815D689CE0934B53F82530070140F2A9
:103D8000FF72BA401340FB408B4277D98C4B5B6982
:103D90009B0806E05A1E8B4C54F8226044F82360BE
:103DA00013469D42F6D9864B9A6804329A60DA68C7
:103DB0000432DA601A6904321A615A6904325A61AB
:103DC000A3F5804353F8252022F4604243F82520D0
:103DD00053F8252043F8252053F8252022F060428F
:103DE00043F8252053F8252042F0005243F82520BF
:103DF00053F825200C370124BC4022EA040243F882
:103E0000252053F8252043F8252053F8253010B9F4
:103E10006FF0805201E06FF480521340694A42F81B
:103E2000253052F8253010B94FF0805201E04FF4A0
:103E300080521A43634B43F8252053F8252022F47F
:103E4000FF6222F0070243F8252053F82520C1F332
:103E50000A04224343F8252053F8252022F0FF626C
:103E600022F4E02243F8252053F82520564C04EA9A
:103E70000144224343F82520012320E0514B53F80D
:103E800025301340FB40994211D14E4C54F8256027
:103E900007F10C03012202FA03F326EA030344F8B4
:103EA000253054F8253044F82530134607E0013515
:103EB000434B9B68B5EB930FFFF45DAF0023002BE2
:103EC00077D13F4B5B699B0806E05A1E3D4C54F886
:103ED000226044F8236013469D42F6D9384B9A6815
:103EE00004329A60DA680432DA601A6904321A61BC
:103EF0005A6904325A61A3F5804353F8252022F40D
:103F0000604243F8252053F8252043F8252053F834
:103F1000252022F0604243F8252053F8252042F066
:103F2000005243F8252053F82520040104F10C0623
:103F30000124B44022EA040243F8252053F8252046
:103F400043F8252053F8253010B96FF0805201E076
:103F50006FF4805213401B4A42F8253052F8253046
:103F600010B94FF0805201E04FF480521A43154BC4
:103F700043F8252053F8252022F4FF6222F007029F
:103F800043F8252053F82520C1F30A00024343F8E3
:103F9000252053F8252022F0FF6222F4E02243F886
:103FA000252053F82520084800EA01410A4343F838
:103FB00025200020024B1860044B1860F0BC7047AD
:103FC00000C00340008003400000FF073C57001082
:103FD0000020014B186070473C570010002857D153
:103FE0002D4BDB6903F0043323F08063002BF7D003
:103FF000294BDB6913F0040F15D00A7B13040A69FF
:10400000B2F1005F02D14FF0004200E000221A43FB
:10401000214B1A638A685A630A689A634A68DA63AA
:1040200021225A6034E01C4BDB6913F4806F15D0F9
:104030000A7B13040A69B2F1005F02D14FF000421B
:1040400000E000221A43144B1A648A685A640A6812
:104050009A644A68DA6441225A6019E00E4BDB69BF
:1040600013F4802F14D00B7B1B040A69B2F1005F9C
:1040700002D14FF0004200E000221A43064B1A65BD
:104080008A685A650A689A654A68DA6581225A60C0
:104090000020024B18607047004004403C5700105D
:1040A00008B500EB8000830050330248184401F04B
:1040B000CDFE08BD3855001058B90A4B9B6813F067
:1040C000800F0AD1074B9B6813F0400F07D00420E4
:1040D00070470020044B1860704703207047002091
:1040E000704700BF004004403C570010704700BFBD
:1040F00030B5174900208861164B1B68164AA2FB91
:104100000342D20B013A4A61C3EB0312520A134C29
:10411000A4FB0225C3EBC302C3EBC202520AA4FBF9
:1041200002E2D209120242EAD51203EB8303C3EB87
:10413000C3035B0AA4FB0343DB0942EA03430B61AD
:104140004FF0A053C1F8683F054B186030BD00BF69
:10415000800020008C000010819F5E16834B0400BD
:104160003C5700105318B3F57C6F03DD2348244BF4
:1041700018607047F0B516460F464FF08054214B3B
:10418000C3F8684F02F03F0300222BE01D4C4FF0B4
:104190008065C4F8685F03252560B518656010F870
:1041A00002E0C4F808E00133DBB23F2B02D87C1EEA
:1041B000A24215D1134BD3F8603F13F0806FF9D0B2
:1041C000104B5D6006241C600E4BD3F8603F13F06B
:1041D000805FF9D04FF080540A4BC3F8684F00233A
:1041E000013292B28A42D1D34FF0A052054BC3F8AC
:1041F000682F0020024B1860F0BD00BF0B000016B6
:104200003C570010800020005318B3F57C6F03DD8D
:104210001548164B1860704710B4154B5A604FF094
:104220008062C3F8682F002212E00024104B1C604B
:104230000F4BD3F8603F13F0806FF9D00C4BDC6864
:1042400004704FF08064C3F8684F013292B20130BD
:104250008A42EAD34FF0A052054BC3F8682F0020E2
:10426000024B186010BC70470B0000163C57001042
:104270008000200070B582B0174B02309880002477
:104280005C801C8001264FF6FF751BE02244023A39
:1042900092B202210DF10600FFF7B6FFBDF806103D
:1042A00061B18D4202D90C4B5C800D468E4202D228
:1042B000094B1C800E46094800F074FA064B9B8897
:1042C0001C44A4B2044B9A88C2F57B630C339C4215
:1042D000DCDD02B070BD00BFB85500107CDE000010
:1042E00030B583B03B4BB3F900209B881A4492B29F
:1042F00011B20B4440F6BC74A34200DD0021354BE3
:10430000B3F90230994203D13348344B18605FE06F
:104310000446023A92B202210DF10600FFF774FF43
:10432000BDF8063023B12B4B99881A880A441A80AD
:10433000284AB2F9003091880B4440F6BC7293428F
:1043400002DD0022234B1A800239224B1A8889B2DF
:104350002046FFF707FFBDF806204FF6FF739A428D
:1043600023D11AE02244023A92B2022101A8FFF7B7
:104370004BFFBDF804301BB103F6BD73ADF804303C
:10438000144DAA882244023A92B2022101A8FFF7F2
:10439000E9FEAB881C44A4B200E000240D4B9A88CF
:1043A000C2F57B630C339C42DCDDBDF80630013383
:1043B00002A820F8023D074AB2F9003092881A4458
:1043C000023A92B20221FFF7CDFE0020034B1860A3
:1043D00003B030BDB8550010120000163C57001055
:1043E00010B582B0044600238DF80730254AB2F993
:1043F000023092881A44023A92B2022101A8FFF7D1
:1044000003FFBDF804301BB91F48204B186036E08D
:104410003CB11C4B998802395A8889B22046FFF773
:10442000F3FE0023ADF804300EE0164BB3F9023072
:104430001A4492B201210DF10700FFF793FEBDF877
:1044400004300133ADF804300E4B9B88BDF80420D6
:104450009342EAD80B4AB2F90010B2F90220914215
:104460000AD01A4412B207494A80134440F6BC727B
:10447000934201DD00224A800020044B186002B004
:1044800010BD00BFB8550010170000163C570010B3
:1044900030B583B004460D46214AB2F90030928807
:1044A0001A44023A92B202210DF10600FFF7ACFE67
:1044B000BDF806301BB91B481B4B18602EE0184B8B
:1044C000B3F90020ADF8065019E0154BB3F90230EE
:1044D0009A4203D11548144B18601FE0104B98887E
:1044E000121A12B2002A07DA40F6BC7393FBF0F2FC
:1044F00000FB12329A1A12B20139ADF80610BDF85B
:1045000006100029E1D1064B9988023992B289B28E
:104510002046FFF779FE0020034B186003B030BD42
:10452000B8550010170000163C5700101200001676
:1045300008B528B10268117002680132026008BD36
:10454000084601F0C5F808BD2DE9F04107460E46C2
:10455000151E05DC4FF0200814E00131013201E0A6
:104560000A46002110780028F7D1A94201DA6D1A15
:1045700000E0002513F0020F02D14FF0200801E007
:104580004FF0300813F0010F08D000240FE041462F
:104590003846FFF7CDFF0134013D00E00024002D37
:1045A000F5DC04E03846FFF7C3FF0134013631780B
:1045B0000029F7D105E041463846FFF7B9FF01343D
:1045C000013D002DF7DC2046BDE8F081F0B585B057
:1045D00005460C9E59B930238DF8043000238DF820
:1045E00005300B9B0A9A01A9FFF7AEFF40E0084691
:1045F00033B10A2A06D1002906DA4842012704E02D
:10460000002702E0002700E0002704AC002304F8A4
:10461000013D0DE0B0FBF2F302FB1303092B02DDB9
:10462000A6F13A010B44303304F8013DB0FBF2F03F
:104630000028EFD1A7B10A9B63B10B9B13F0020FC7
:1046400008D02D212846FFF773FF0A9B013B0A93F0
:10465000012606E02D2304F8013C013C002600E081
:1046600000260B9B0A9A21462846FFF76DFF30442F
:1046700005B0F0BDF0B587B006460C461F460025D4
:1046800083E0252B7BD1621C6378002B00F08180B6
:10469000252B73D02D2B02D1A21C012300E0002377
:1046A000144602E0013443F002032278302AF9D0A4
:1046B000002205E002EB820250003039421801343A
:1046C0002178A1F13000C0B20928F3D9732908D1AB
:1046D0003968043701B932493046FFF735FF0544E0
:1046E00052E0642901D069290CD13968043761206E
:1046F00002900193009201230A223046FFF766FFE1
:10470000054441E078290CD13968043761200290D2
:1047100001930092002310223046FFF757FF054413
:1047200032E058290CD139680437412002900193B6
:104730000092002310223046FFF748FF054423E093
:1047400075290CD1396804376120029001930092D9
:1047500000230A223046FFF739FF054414E063299D
:1047600012D1397804378DF8141000218DF8151006
:1047700005A93046FFF7E8FE054405E01446217818
:104780003046FFF7D5FE013501342378002B7FF446
:1047900078AF16B1336800221A70284607B0F0BD12
:1047A00088DE00000FB400B583B004AB53F8041BDF
:1047B00001934FF0FF320020FFF75CFF03B05DF87C
:1047C00004EB04B0704700BF0CB400B585B0019095
:1047D00006AB53F8040B03930A46014601A8FFF702
:1047E00049FF05B05DF804EB02B0704770B40023D8
:1047F00010E0D0F8305103EB4306B4002E192C5BC7
:104800008C4206D1F47814F0C00F08D1B4789442E9
:1048100005D00133B0F83441A342EAD30026304634
:1048200070BC704730B587B09DF8284000250195D1
:104830000395049505958DF800204A788DF80120A0
:104840008A788DF80220CA788DF80320027E02F55E
:10485000B062029208228DF80C2053B916E01A1D9E
:10486000E95C0DF1180E724402F8181C0133DBB23A
:1048700001E01D460023A342F1D307E01A1D06A95B
:104880000A44002102F8181C0133DBB2032BF5D9CE
:10489000694690F85C01FFF7A1FB07B030BD00BF8F
:1048A00000B587B0002303930493059380238DF80C
:1048B00000304B788DF801308B788DF80230CB7852
:1048C0008DF803308DF80420C2F307238DF80530EE
:1048D000C2F307438DF80630120E8DF80720037ED1
:1048E0008033029308238DF80C30694690F85C0100
:1048F000FFF774FB07B05DF804FB00BF10B582B092
:10490000019283788B420AD30B464468C07800F04A
:104910003F00024601A900FB034008F0E3FE02B09D
:1049200010BD00BF83788B420DD310B582B04468B0
:10493000C37803F03F031A4603FB014101A808F0C6
:10494000D1FE019801E00020704702B010BD00BF09
:104950002DE9F04385B006460C464F7891F8029059
:1049600007EB092194F80380424689B2FFF73EFF26
:1049700028B97C4A21463046FFF792FFEEE0054613
:104980002378402B3AD1037A13F0010F05D1764AF0
:1049900021463046FFF784FFE0E0C27812F0C00FF6
:1049A00024D0B8F1000F18D0837898450FD808F1BB
:1049B000FF3189B2FFF7B6FF04AB43F8040D0422C0
:1049C0000092422221463046FFF72CFFC6E0654A9E
:1049D00021463046FFF764FFC0E001230093831CAB
:1049E000422221463046FFF71DFFB7E043680092A0
:1049F000422221463046FFF715FFAFE02F2B06D0AD
:104A00002B2B04D0232B02D0222B40F0A2802B7A18
:104A100013F0020F00F0978007EB092741F2030320
:104A20009F422BD1B8F1000F28D196F86831B6F823
:104A30006421D6F8601106F5B07001F0CFF90023BB
:104A40008DF80C3007E06B68002199549DF80C300C
:104A500001338DF80C309DF80C20A978EB7803F029
:104A60003F0303FB01F39A42EDDB0123009303AB09
:104A7000602221463046FFF7D5FE6FE0EB7813F059
:104A8000C00F1CD0B8F1000F04D008F1FF33AA7892
:104A9000934205DB354A21463046FFF701FF5DE0D2
:104AA00008F1FF31626889B22846FFF727FF0AE064
:104AB0006A68191D615CD1540133DBB200E0002348
:104AC000EA789342F4D300230093602221463046D3
:104AD000FFF7A8FE6378A27803EB022341F21002ED
:104AE000934213D1E378012B10D16B681A78732AA3
:104AF0000CD15A78612A09D19A78762A06D1DA78C7
:104B0000652A03D100221A6001F0E0FB6378A278E5
:104B100003EB022341F2110293421FD1E378012BF0
:104B20001CD16B681A786C2A18D15A786F2A15D163
:104B30009A78612A12D1DA78642A0FD100221A6099
:104B400001F0DEFB0AE00A4A21463046FFF7A8FEE4
:104B500004E0084A21463046FFF7A2FE05B0BDE852
:104B6000F08300BF000002060100010600000106FC
:104B7000020001060100040500B583B0C27802F00E
:104B80003F02416801A808F0ADFD019803B05DF84F
:104B900004FB00BF30B587B004460B9DC0F8301150
:104BA000A0F834217F2280F838210A9AC0F83C21ED
:104BB000C0F8405180F85C31002211461846FFF7DA
:104BC000D1F80022217E94F85C01FFF7CBF8002297
:104BD0004FF4C06194F85C01FFF7C4F8217E002215
:104BE00001F5C06194F85C01FFF7BCF83DB100230A
:104BF00040F27F12802194F85C01FFF7E9F900226E
:104C0000D4F8E01094F85C01FFF7ACF80022D4F877
:104C1000E81094F85C01FFF7A5F804231A4604F1A4
:104C2000080104F5B07001F0D9F80025A560E56031
:104C3000256165612571A38CC4F8743100950195D7
:104C4000039504950595237E03F5E0630293012304
:104C50008DF80C30694694F85C01FFF7BFF9024B00
:104C60001D60284607B030BD3C57001070B582B0BB
:104C7000002505604FF47A71818485620222026307
:104C80004FF42603C3620D2303760562C56140F22B
:104C90008D134364FF23836441654FF48056A0F86D
:104CA000806080F8825080F8832041F20106A0F8ED
:104CB000846080F8865080F8872041F20206A0F8D0
:104CC000886080F88A5080F88B2041F20306A0F8B3
:104CD0008C6080F88E5080F88F20A0F8905080F87B
:104CE000925080F89350A0F8945080F8965080F835
:104CF0009750A0F8985080F89A5080F89B50A0F8F0
:104D00009C5080F89E5080F89F50734A8265C3651E
:104D10008166A0F8A05080F8A25080F8A350A0F8B7
:104D2000A45080F8A65080F8A750A0F8A85080F8AA
:104D3000AA5080F8AB50A0F8AC5080F8AE5080F884
:104D4000AF50A0F8B05080F8B25080F8B350A0F83F
:104D5000B45080F8B65080F8B750A0F8B85080F83A
:104D6000BA5080F8BB50A0F8BC5080F8BE5080F814
:104D7000BF5002F58072C2660367C167A0F8C050D9
:104D800080F8C25080F8C350A0F8C45080F8C650D4
:104D900080F8C750A0F8C85080F8CA5080F8CB50AF
:104DA000A0F8CC5080F8CE5080F8CF50A0F8D0506A
:104DB00080F8D25080F8D350A0F8D45080F8D65064
:104DC00080F8D750A0F8D85080F8DA5080F8DB503F
:104DD000A0F8DC5080F8DE5080F8DF50A2F5C072F9
:104DE000C0F8E020C0F8E430A0F8F05080F8F250AD
:104DF00080F8F350A0F8F45080F8F65080F8F7509F
:104E0000A0F8F85080F8FA5080F8FB50A0F8FC5059
:104E100080F8FE5080F8FF50A0F8005180F8025151
:104E200080F80351A0F8045180F8065180F807512A
:104E3000A0F8085180F80A5180F80B51A0F80C51E5
:104E400080F80E5180F80F5102F58072C0F8E8200A
:104E5000C0F8EC30A0F8105180F8125180F81351CE
:104E6000A0F8145180F8165180F81751A0F8185185
:104E700080F81A5180F81B51A0F81C5180F81E517F
:104E800080F81F51A0F8205180F8225180F823515A
:104E9000A0F8245180F8265180F82751A0F8285115
:104EA00080F82A5180F82B51A0F82C5180F82E510F
:104EB00080F82F5190F85C31B0F83421D0F83011DF
:104EC000D0F840610196D0F83C410094FFF762FEB3
:104ED000284602B070BD00BF8D02008080F83811F6
:104EE0000020014B186070473C57001090F8383193
:104EF000042B03D10020B74B1860704790F85C3149
:104F00001BB1B548B34B186070472DE9F04F8BB01B
:104F10000E46044604A91846FFF7C2F8AD4B1860C8
:104F2000002840F0BE80217E069A02F07F0399425D
:104F300001D0002B73D122F07F03802B4BD0B3F52F
:104F4000C06F02D0002B6AD10CE09DF81C30072BFB
:104F500065D994F83831042B61D004A92046FFF7B5
:104F6000F7FC5CE09DF81130227E934201D0002BCB
:104F700055D19DF81030802B14D004D8012B07D0C8
:104F8000022B0AD04BE0812B11D0822B13D046E0AC
:104F900005212046FFF7A2FF41E004212046FFF74C
:104FA0009DFF3CE07F212046FFF798FF37E000207F
:104FB00000F0A8FC33E094F85C31B4F83421D4F864
:104FC00040110191D4F83C110091D4F830112046E1
:104FD000FFF7E0FD23E094F83831042B1FD0D4F81C
:104FE0004051E5B19DF81C30082B18D102F07F022A
:104FF00084F84421BDF81030A4F84631BDF81230D1
:10500000A4F84831BDF81430A4F84A31BDF8163080
:10501000A4F84C3100F0CEFF04F5A271A84794F833
:105020003831052B3DD139E0AFB2002207F5A05150
:105030002046FFF7DBFB70B30021FFF773FC069BF4
:10504000984228D1002207F5B0512046FFF7CEFB49
:10505000814630B300273D461AE029464846FFF70F
:1050600061FCF0B1C0F3C40A5FFA8AF8C0F307220A
:10507000010C2046FFF7BAFB98B1D9F8041052464C
:105080003944406808F02EFB4744FFB20135EDB2C9
:10509000072DE2D905E00135EDB200E00025012D34
:1050A000C2D9D4F874319E4204D89B1BC4F8743121
:1050B000002304E04FF0FF33C4F874310123EBB157
:1050C00094F83811227E02F5E062002304930593E0
:1050D0000793089309938DF81010069201238DF819
:1050E0001C3094F85C01FEF7E7FF20B904A994F89E
:1050F0005C01FEF773FFA38CC4F8743194F8383167
:10510000052B00F092800020324B186096E0474655
:1051100008EB880304EB83035B6C002BC0F28080F8
:10512000069308EB880304EB83039B6CFF2B77D17A
:1051300008EB880304EB83031A6D32441A655B6D38
:105140009A426DD308EB880204EB820200231365B8
:105150001D469A465AE0D1460AEBC703203334F87D
:10516000231039B90AEBC703203304EB83039B7880
:10517000002B4ED009EBC703203304EB830393F8D5
:1051800002B05A462046FFF731FB18B92320114BD5
:10519000186053E0C27812F0C00F06D00BF1FF3157
:1051A00089B2FFF7BFFB039002E0FFF7E5FC039035
:1051B00009EBC703203304EB8303DB782B44082B74
:1051C00006DD09EBC703203304EB83030022DA700A
:1051D00000220FE03C570010010000036B1C0AA9DD
:1051E000114411F81C1C0AA8054405F8181C0132CA
:1051F000D2B2DDB209EBC703203304EB8303DB78C3
:105200009A42EBD30AF1010A5FFA8AFABAF1070F60
:10521000A1D98DF81C5004A994F85C01FEF7DEFEBC
:1052200008F101085FFA88F801E04FF00008B8F1D2
:10523000020F7FF66CAF0020024B18600BB0BDE888
:10524000F08F00BF3C570010294AD2F8C43043F415
:105250000073C2F8C430274B01221A7200221A646C
:105260009B8F9BB240F63402934204D94FF4FA620A
:10527000204B9A8709E01F4B9B8F9BB2B3F5FA6FC7
:1052800003D24FF4FA621B4B9A871A4B93F83830CB
:10529000DBB20C2B03D90122164B83F83820154BB7
:1052A00093F82C30DBB21F2B03D91F22114B83F84C
:1052B0002C20104B93F82830DBB2182B03D9012295
:1052C0000C4B83F828200B4B93F82430DBB23B2B9C
:1052D00003D90022074B83F82420064B93F8203093
:1052E000DBB23B2B03D90022024B83F8202070470E
:1052F00000C00F4000400240094B93F82820027183
:1053000093F82420427193F8202082719A8F0280B2
:1053100093F83820827093F82C30C370704700BF28
:10532000004002400B4B00221A72827983F8202041
:10533000427983F82420027983F82820C27883F800
:105340002C20827883F8382002889A8701221A72EA
:10535000704700BF0040024070B582B08D4B002501
:10536000C3F80051D3F8C42042F40062C3F8C4204B
:1053700041F21002C3F8DC21874C01202060A560B7
:10538000A3F55023D3F8401140F201221143C3F892
:105390004011D3F844111143C3F84411D3F8481114
:1053A0001143C3F84811D3F850111143C3F85011F9
:1053B000D3F860111143C3F86011D3F87011114391
:1053C000C3F87011D3F874111143C3F87411D3F8F2
:1053D00080111143C3F88011D3F884111143C3F82D
:1053E0008411D3F888111143C3F88811D3F88C11B4
:1053F0001143C3F88C11D3F890111143C3F89011E5
:10540000D3F894111143C3F89411D3F898111143B0
:10541000C3F89811D3F89C111143C3F89C11D3F829
:10542000A0111143C3F8A011D3F8A4111143C3F87C
:10543000A411D3F8A8111143C3F8A811D3F8AC11E3
:105440001143C3F8AC11D3F8B0111143C3F8B01134
:10545000D3F8B4111143C3F8B411D3F8B811114300
:10546000C3F8B811D3F8BC111143C3F8BC11D3F879
:1054700000121143C3F80012D3F804121143C3F809
:105480000412D3F808121143C3F80812D3F80C120F
:105490001143C3F80C12D3F810121143C3F81012C1
:1054A000D3F814121143C3F81412D3F8181211438D
:1054B000C3F81812D3F81C121143C3F81C12D3F806
:1054C00020121143C3F82012D3F824121143C3F859
:1054D0002412D3F828121143C3F82812D3F82C123F
:1054E0001143C3F82C12D3F834121143C3F8341209
:1054F000D3F838121143C3F83812D3F864120A43B0
:10550000C3F86422A0624FF42073C4F8003140F263
:105510000333C4F8043103232363062161630A22A1
:10552000A2630520E0632164022666640821A16469
:10553000E16422656665A365642000F0EFFC40F23B
:1055400083132362C82000F0E9FC40F203132362B6
:105550006662019502E0019B01330193019B7F2B61
:10556000F9D90D4B36225A6283221A620B4A12680D
:105570000092009A00241C62D3F8002142F4002219
:10558000C3F80021642000F0C9FC054B1C602046D4
:1055900002B070BD00C00F4000C00920009801A0FB
:1055A0003C57001070B5002615E0214B9B68012484
:1055B000B440234203D11E4B5B681C420AD01D4BF2
:1055C0001D683DB100F0F6FC3146A847184AD36883
:1055D0001C43D4600136164B9B68002BE5D1144B5D
:1055E0005B68002BE1D1002516E0114B9B6A01247A
:1055F000AC40234203D10E4B5B6A1C420BD00D4BD7
:105600001E6846B100F0D6FC05F14001B047084ADB
:10561000D36A1C43D4620135054B9B6A002BE4D14D
:10562000034B5B6A002BE0D100BF00BF70BD00BF21
:1056300080800240C055001038B51E4BD3F8C420FE
:1056400042F02002C3F8C420D3F8A8311BB90122CC
:10565000184BC3F8A821184A0321C2F88810174C28
:105660000025E561E36C43F40073E364C2F88C1039
:105670002562E36C43F48063E364022363614FF4C7
:105680007A73A3617F2323650D4B186807F0ACFD87
:105690000C4907F0B5FE0C4907F0B2FE07F0E8FF31
:1056A000E0602567636843F009036360074B1D6092
:1056B000284638BD00C00F4000C0024000400140F5
:1056C0008C00001000007A4400401C463C5700103B
:1056D000084B1B785BB110B504460020FEF792FA28
:1056E00018B1E1B20020FEF743FA012010BD0120FD
:1056F000704700BFD055001070B506460D46002417
:1057000003E0305DFFF7E4FF0134AC42F9D370BD34
:10571000F0B4049D002800DA0020002900DA0021FE
:10572000B0F5487F24DCB1F5F07F21DC8418B4F5B6
:10573000487F01D9C0F548720F46CC18B4F5F07F08
:1057400001D9C1F5F0733E460FE00A490C684FF4E9
:10575000486101FB064101EB8001002402E00D607D
:1057600001340431A242FAD80136D9198E42ECD361
:10577000F0BC70479800001010B584B0414B40F267
:105780000722C3F80021C3F80821C3F81021C3F889
:105790000C21C3F814211A615A61C3F87022C3F8AE
:1057A0007422C3F81821C3F81C21C3F82021C3F8C0
:1057B00024219A6140F28731D961C3F8D020C3F81F
:1057C000D420C3F8D820C3F8DC20C3F8E020C3F805
:1057D000E42019625962C3F83021C3F83421C3F8B8
:1057E000E820C3F8EC20C3F8F020C3F8F420264BDF
:1057F0001B689B09254AA2FB0323DB0A244AC2F843
:10580000B831D2F8C43043F00103C2F8C430214BA0
:105810004FF020421A61204A1A60204A5A60204AFA
:105820009A600922DA6040F62A129A610023ADF8E4
:105830000E300EE0BDF80E309BB280330021154AC9
:1058400042F82310BDF80E309BB201339BB2ADF885
:105850000E30BDF80E309BB2FF2BEBD90D4A936989
:1058600043F001039361002400944FF4F0734FF46C
:10587000487221462046FFF74BFF0A4B1C6020462A
:1058800004B010BD00C002408C0000102FE3BE0029
:1058900000C00F4000800820C42F2757DF090D20CB
:1058A00000381F073C5700102DE9F04F83B0074622
:1058B000894690461D460C9C0D9E00962346FFF798
:1058C00027FF07EB080004EB090AC4EB050B009661
:1058D0005B4622465146001BFFF71AFF00965B46C7
:1058E000224651463846FFF713FF09EB05010096A3
:1058F00023464246091B3846FFF70AFF03B0BDE8BE
:10590000F08F00BF58B9BFF34F8F0549CA6802F442
:10591000E062044B1343CB60BFF34F8FFEE7704749
:1059200000ED00E00400FA05024BD3F88001C0B29C
:10593000704700BF00C00F4008B5384BDA6D22F049
:105940008702DA65DA6D42F00102DA651A6E22F03A
:1059500087021A661A6E42F001021A665A6E22F027
:1059600087025A665A6E42F001025A669A6E22F413
:10597000803222F087029A669A6E42F001029A669D
:10598000D3F8F82022F08702C3F8F820D3F8F820E3
:1059900042F00302C3F8F820D3F8FC2022F087027B
:1059A000C3F8FC20D3F8FC2042F00302C3F8FC202B
:1059B0001A6B22F087021A631A6B42F003021A6311
:1059C0005A6B22F087025A635A6B42F003025A6301
:1059D000134AD2F8C43043F48053C2F8C430FCF701
:1059E000E3FB10490868104B1A68104BA3FB022315
:1059F0001B0D01331B029BB203430B600B6823F4A6
:105A000080330B600B6823F0E0630B600B6843F49A
:105A100000130B600020064B186008BD00C0024058
:105A200000C00F40004003408C000010819F5E16B4
:105A30003C57001008B5044B1A68044B1968044819
:105A4000FEF7B0FE08BD00BFA00000109C000010D3
:105A500090DE000070B51E46002412E0184B1B6853
:105A600025012B445968306807F064FF40B9144B96
:105A70001B681D44AA6869681248FEF793FE70BD52
:105A800001340F4B1B799C42E8DB002412E00E4BE3
:105A900003EB04135D682946306807F04BFF40B9FB
:105AA000094B03EB0414A26829460648FEF77AFE68
:105AB00070BD0134062CEAD90448FEF773FE70BDB0
:105AC00024560010A4DE0000C8E20000B4DE00008E
:105AD00010B51C4612B90020FFF714FF23681BB154
:105AE0000120FFF70FFF10BD0020FFF70BFF10BDD7
:105AF00008B500F0EBFB10B90148FEF753FE08BDF6
:105B0000E0DE000008B500F0FBFB10B90148FEF72D
:105B100049FE08BDE8DE000010B542B11C461888F9
:105B200000F046FC21680548FEF73CFE10BD00F081
:105B300047FC01460148FEF735FE10BD74340100F4
:105B400008B5074B1860197100225A719A71054BFC
:105B50001A68054B19680548FEF724FE08BD00BF0A
:105B600024560010A00000109C000010F4DE00007D
:105B7000014B1879704700BF2456001010B50F482C
:105B8000FEF710FE002407E00D4B03EB04135968E9
:105B90000C48FEF707FE0134062CF5D9002408E076
:105BA000094B1B6803EB041359680648FEF7FAFD1E
:105BB0000134FFF7DDFF8442F2DB10BD0CDF000093
:105BC000C8E2000008DF0000245600102DE9F04173
:105BD00082B0744B1B683BB9734C744B1C602046FD
:105BE00000F0F2FB2046DAE00DF107010020FDF79E
:105BF000EDFF002840F0D0806A4B5B79C72B0AD9B3
:105C00000022684B5A716A4C684B1C60204600F0B9
:105C1000DBFB2046C3E001210DF10700FFF76CFD1F
:105C20009DF807301B2B07D106216248FFF764FD62
:105C300000225C4B5A71D7E7082B07D1594B5B798F
:105C4000002BD1D0013B574A5371CDE70D2B02D029
:105C50000A2B40F09A805848FEF7A4FD514B5B791F
:105C60001BB95648FEF79EFDBEE74E4A134400247A
:105C70009C71254626463DE0F4B14A4B23449B796E
:105C8000222B19D1A5B9631E464A13449B799BB9AF
:105C900013190021997106F1190102EBC1030220C9
:105CA0001871631C1344063342F83130012503E0B8
:105CB0003C4B234400259D71DDB93A4B23449B792D
:105CC000202B16D1374B234400229A71082E10DC6A
:105CD000344F06F11A0807EBC80301221A71A01805
:105CE000384400221146063008F056F847F83800CC
:105CF000013601342B4B5B799C42BDDB0024294BE0
:105D00005C7118E0274850F8063B25012B44596880
:105D100007F010FE70B9234B1B682B44DC6884B17C
:105D200000F048F91F4B53F8D01B3246495BA0479F
:105D3000012507E00134FFF71BFF8442E2DB002569
:105D400000E00125EDB9002414E01D4B03EB041322
:105D500059681C4807F0EEFD58B9194D24012B195C
:105D6000DF6800F027F9184B3246295BB847012558
:105D700002E00134062CE8D91DB912491348FEF798
:105D800011FD0E48FEF70EFD2EE706494A79501C1C
:105D900048710A44937127E70020044B186002B051
:105DA000BDE8F081245600101500000B3C57001090
:105DB0001200000B10DF00000CDF000008380100AB
:105DC000C8E200002A560010F456001018DF000048
:105DD000014B1860704700BFC455001001608280FD
:105DE0000022C28003720161C160024B1A6010463A
:105DF000704700BF3C570010C28883889A420CD37A
:105E00001048114B18607047C268CC5C1470C268AF
:105E10000132C2600133DBB201E010B40023027A28
:105E20009342F1D3C4680168838802FB0312944251
:105E300000D1C160C3880133C3800020024B1860C9
:105E400010BC70471200000F3C57001010B4C388FC
:105E50001BB91248124B18601DE049B90CE00269E9
:105E60001278CA540269013202610133DBB200E0E8
:105E70000023027A9342F2D3016902688388047A8C
:105E800004FB0323994200D10261C388013BC38014
:105E90000020034B186010BC704700BF1700000FB4
:105EA0003C57001038B5C3888288934203D3094811
:105EB000094B186038BD044605680089024600FB9E
:105EC000035007F00FFCE3880133E3800020024B0E
:105ED000186038BD1200000F3C570010C3888B4279
:105EE00003D80C480C4B1860704770B50446056821
:105EF000028902FB01F01618591A01FB02F2A919D6
:105F0000284407F065FCE388013BE3800020024B56
:105F1000186070BD2900000F3C57001082B0ADF82A
:105F2000060016E00023009303E000BF009B01334E
:105F300000930B4B1B680B4AA2FB0323009AB2EBA6
:105F4000133FF2D3BDF806309BB2013B9BB2ADF8D4
:105F50000630BDF806309BB2002BE3D102B070478B
:105F60008C00001073B2E7451F2914D8002806DA08
:105F700000F00F00C900C9B20B4B195407E0C9006B
:105F8000C9B200F1604000F5614080F800130020C4
:105F9000064B1860704710B5054C044B1C6020463A
:105FA00000F012FA204610BD14ED00E03C5700103E
:105FB0001600000F014B1868704700BFC455001051
:105FC00008B50348FEF7EEFB6420FFF7A7FF08BD06
:105FD00050E3000008B50348FEF7E4FB6420FFF738
:105FE0009DFF08BD58E3000008B50348FEF7DAFB43
:105FF0006420FFF793FF08BD68E3000008B503487D
:10600000FEF7D0FB6420FFF789FF08BD78E30000AE
:1060100008B50348FEF7C6FB6420FFF77FFF08BD05
:1060200088E3000008B50348FEF7BCFB6420FFF7D7
:1060300075FF08BD98E3000010B4002314E0441C71
:10604000027883EA0223082213F4004F05D041F2BC
:10605000210080EA43039BB201E05B009BB2013A5E
:1060600012F0FF02F0D120460139E8D5184610BCE5
:10607000704700BF70B50E1A0436164B1860164BE9
:10608000196004464FF48052002304E012F8015BCB
:1060900004F8015B0133B342F8DBC368B3F1AA3FF4
:1060A00007D00E4C0E4B1C60204600F08DF92046A8
:1060B00070BD0B68B3F1AA3F07D00A4C084B1C60B7
:1060C000204600F081F9204670BD0020044B186086
:1060D00070BD00BFC8550010CC5500100D00000861
:1060E0003C5700100E0000082DE9F0478AB08046AA
:1060F0000C461646FCF758F872B6B4F5007F0AD085
:1061000003D8B4F5807F5AD105E0B4F5806F02D092
:10611000B4F5805F53D1B6F5803F06D3F70B0E3749
:10612000A519013DED0B0E3503E0370BA519013D17
:106130002D0B322305930697079501A905A8224B3D
:106140009847019B1BB162B69DF8040038E03423E8
:106150000593069707951D4B1B681D4AA2FB032359
:106160009B09089301A905A8174B9847019B1BB1F0
:1061700062B69DF8040023E0322305930697079545
:1061800001A905A8104B9847019B1BB162B69DF869
:10619000040015E0332305930696CDF81C8008947F
:1061A0000A4B1B680A4AA2FB03239B09099301A916
:1061B00005A8054B984762B69DF8040000E00C2046
:1061C0000AB0BDE8F08700BFF11FFF1F8C00001070
:1061D000D34D6210F8B505460E46334B1860334B6D
:1061E00019600C1A043421463148FEF7DBFA002C02
:1061F00007DA304C304B1C60204600F0E5F82046B2
:10620000F8BDB4F5004F07DD2C4C2B4B1C6020462D
:1062100000F0DAF82046F8BDB4F5805F0BDCB4F589
:10622000806F0BDCB4F5007F0BDCB4F5807F0BDDF9
:106230004FF400770AE04FF4004707E04FF480572F
:1062400004E04FF4806701E04FF480774FF0AA3309
:10625000EB601B4B1C682C602B89013B9BB24FF6FB
:10626000FD72934207D9204607F0A0FC0146204664
:10627000FFF7E2FE2881134B1B686B604FF0AA33D7
:1062800033604FF4805239462846FFF72DFF10B98E
:10629000094B1860F8BD0C4C074B1C60204600F001
:1062A00093F82046F8BD00BFC8550010CC5500102B
:1062B000A4E300000A0000083C5700100B0000088F
:1062C0009C000010A00000100C00000810B5084B46
:1062D000186838B9074C084B1C60204600F074F869
:1062E000204610BD054B1968FFF774FF10BD00BFB5
:1062F000C85500100C0000083C570010CC55001089
:1063000010B5254B186838B9244C254B1C60204625
:1063100000F05AF8204610BD0022C260214B1B68D5
:106320001A601B1A043307D51F4C1D4B1C602046F6
:1063300000F04AF8204610BDB3F5805F07DD1B4C26
:10634000174B1C60204600F03FF8204610BDB3F507
:10635000806F08DCB3F5007F08DCB3F5807F08DDD3
:106360004FF4007107E04FF4805104E04FF4806176
:1063700001E04FF480714FF48052FFF7B5FE10B981
:10638000074B186010BD054C054B1C60204600F003
:106390001BF8204610BD00BFC85500100C000008B7
:1063A0003C570010CC5500100A0000080B000008F4
:1063B000024B1B6803B11881704700BFC85500101D
:1063C00041F208031888704768B110B520F07F4487
:1063D000020E21460448FEF7E5F9282C02D90348AD
:1063E000FEF7E0F910BD7047E4E3000028E4000088
:1063F00010B582B00446FCF793FA02AB43F8040DE3
:1064000021461846FCF78CFB02B010BD08B50122EE
:10641000044B1A700220FDF769FE0220FFF7E8FF27
:10642000F8E700BFD055001008B50C460848094BE6
:106430001860FFF7C9FF21460748FEF7B3F94FF090
:10644000280383F31188BFF36F8FBFF34F8FFEE7ED
:10645000190000133C5700104CEE000000B587B047
:10646000FFF7B6FCFFF768FA0020FDF7F9FAFDF731
:106470002BFCFEF771FFFFF7DFF8FDF739FEFFF7A2
:106480007BF9FEF7E1FE002304930393029301934B
:106490004FF6FF720092802203490448FCF77EF910
:1064A00007B05DF804FB00BF58EE00000D6400006B
:1064B0002DE9F04F83B005888368002B38D01C8805
:1064C0009B68002B32D01E889B686BB31F889B682B
:1064D00043B3B3F800809B6813B3B3F800909B6894
:1064E000DBB1B3F800A09B68A3B1B3F800B09B6820
:1064F0006BB11A880192986828B1FFF7D9FF019A09
:10650000024493B20193019B9B441FFA8BFBDA4434
:106510001FFA8AFAD1441FFA89F9C8441FFA88F889
:106520004744BFB23E44B6B23444A4B22544ADB2EF
:10653000284603B0BDE8F08F2DE9F04F83B04588C1
:106540008368002B38D05C889B68002B32D05E8833
:106550009B686BB35F889B6843B3B3F802809B680A
:1065600013B3B3F802909B68DBB1B3F802A09B6849
:10657000A3B1B3F802B09B686BB15A8801929868D6
:1065800028B1FFF7D9FF019A024493B20193019B0E
:106590009B441FFA8BFBDA441FFA8AFAD1441FFA94
:1065A00089F9C8441FFA88F84744BFB23E44B6B2DE
:1065B0003444A4B22544ADB2284603B0BDE8F08F00
:1065C0002DE9F04F87B004460B78042B04D101214C
:1065D00001764369984708E0022B04D10221017635
:1065E0004369984701E000230376637C002B00F0A9
:1065F0001E81237E1BB1226AD2F8009002E0226A3B
:10660000D2F810901BB1226AD2F808B002E0226AD8
:10661000D2F818B01BB1236AD3F80CA002E0236AA9
:10662000D3F81CA02788A5680DB32E88AB68E3B10A
:10663000B3F800809B68B3B11A8804929B6873B169
:106640001A880592986828B1FFF732FF059A02442C
:1066500093B20593049B059A13449BB20493049B45
:1066600098441FFA88F84644B6B23744BFB204973C
:106670006788EDB16E88AB68C3B15D889B689BB1DC
:10668000B3F802809B686BB15A880592986828B16C
:10669000FFF752FF059A024493B20593059B984475
:1066A0001FFA88F84544ADB22E44B6B23744BFB2A3
:1066B000B4F90420B4F90630CDF8009039460498B6
:1066C000FFF726F82788A5680DB32E88AB68E3B1DD
:1066D000B3F800809B68B3B11A8804929B6873B1C9
:1066E0001A880592986828B1FFF7E2FE059A0244DD
:1066F00093B20593049B059A13449BB20493049BA5
:1067000098441FFA88F84644B6B23744BFB204979B
:106710006788EDB16E88AB68C3B15D889B689BB13B
:10672000B3F802809B686BB15A880592986828B1CB
:10673000FFF702FF059A024493B20593059B984424
:106740001FFA88F84544ADB22E44B6B23744BFB202
:10675000B4F90420B4F90630CDF804B00121009159
:1067600039460498FFF7A0F82688D4F80880B8F1D5
:10677000000F1FD0B8F80050D8F80830C3B11F88F8
:106780009B689BB1B3F800B09B686BB11A88049208
:10679000986828B1FFF78CFE049A024493B20493E0
:1067A000049B9B441FFA8BFB5F44BFB23D44ADB2D8
:1067B0002E44B6B2B4F9045005EBD57506EB650569
:1067C000ABB204936688B8F1000F1DD0B8F8027020
:1067D000D8F80830B3B1B3F802809B6883B1B3F83E
:1067E00002B09B684BB15D88986818B1FFF7A4FEB2
:1067F000284485B2AB441FFA8BFBD8441FFA88F8B3
:106800004744BFB23E44B6B2B4F90610236A5A6A8E
:1068100001EBD17106EB6101E3690293CDF80490BD
:10682000CDF800A0122389B2049801F085FC07B0CE
:10683000BDE8F08F2DE9F04F83B045888368002BC9
:1068400038D05C889B68002B32D05E889B686BB325
:106850005F889B6843B3B3F802809B6813B3B3F8B7
:1068600002909B68DBB1B3F802A09B68A3B1B3F8B8
:1068700002B09B686BB15A880192986828B1FFF703
:10688000D9FF019A024493B20193019B9B441FFAE2
:106890008BFBDA441FFA8AFAD1441FFA89F9C844FB
:1068A0001FFA88F84744BFB23E44B6B23444A4B29B
:1068B0002544ADB2284603B0BDE8F08F2DE9F04F76
:1068C00083B005888368002B38D01C889B68002B18
:1068D00032D01E889B686BB31F889B6843B3B3F8A4
:1068E00000809B6813B3B3F800909B68DBB1B3F8EA
:1068F00000A09B68A3B1B3F800B09B686BB11A8885
:106900000192986828B1FFF7D9FF019A024493B227
:106910000193019B9B441FFA8BFBDA441FFA8AFA0E
:10692000D1441FFA89F9C8441FFA88F84744BFB216
:106930003E44B6B23444A4B22544ADB2284603B0B6
:10694000BDE8F08F2DE9F04F8FB00446C37E002BD9
:1069500000F01B81B0F90630312B01DC3223C380FB
:106960002688D4F80890B9F1000F4DD0B9F800503E
:10697000D9F80830002B45D01F889B68002B3FD0EA
:10698000B3F800809B68002B38D0B3F800A09B6858
:10699000002B30D0B3F800B09B68002B28D01A88A9
:1069A00005929B6803B31A8806929B68BBB11A884C
:1069B00007929B6873B11A880892986828B1FFF70C
:1069C0007DFF089A024493B20893079B089A1344E8
:1069D0009BB20793069B079A13449BB20693059BB1
:1069E000069A13449BB20593059B9B441FFA8BFBAD
:1069F000DA441FFA8AFAD0441FFA88F84744BFB233
:106A00003D44ADB22E44B6B235B26788B9F1000F3D
:106A100052D0B9F80280D9F80830002B4AD0B3F828
:106A200002909B68002B42D0B3F802A09B68002B19
:106A30003AD0B3F802B09B68002B32D05A88059246
:106A40009B68002B29D05A8806929B6803B35A880A
:106A500007929B68BBB15A8808929B6873B15A88A9
:106A60000992986828B1FFF7E5FE099A024493B2AB
:106A70000993089B099A13449BB20893079B089AB1
:106A800013449BB20793069B079A13449BB2069349
:106A9000059B069A13449BB20593059B9B441FFAE2
:106AA0008BFBDA441FFA8AFAD1441FFA89F9C844E9
:106AB0001FFA88F84744BFB20FFA87F9B4F9048087
:106AC000236A1B6900933223424649462846FEF753
:106AD0001FFE236A9B6901930123009332234246E0
:106AE00049462846FEF7E0FEB4F91800B4F9142030
:106AF000B4F916309A420AD0801A4FF47A7101FB29
:106B000000F09B1A90FBF3F006F072FB00E000200F
:106B100006F088FD00B2B4F90430333B03FB00F308
:106B2000884880FB0320DB17C3EBA01006F060FB56
:106B300006F078FD00B22844236A5B680093302396
:106B4000312209F101010130FEF7E2FDA37E002BA5
:106B500000F037810BAD0A222946B4F9180006F07F
:106B6000BFFD236A5A6A07F1190108EBD87806EBD2
:106B7000680002954FF0FF340194DB690093122303
:106B800089B280B201F0D8FA1BE1B0F90430312BA0
:106B900001DC322383802588D4F80890B9F1000FF6
:106BA0004DD0B9F80060D9F80830002B45D01F88C7
:106BB0009B68002B3FD0B3F800809B68002B38D037
:106BC000B3F800A09B68002B30D0B3F800B09B68EE
:106BD000002B28D01A8805929B6803B31A88069266
:106BE0009B68BBB11A8807929B6873B11A88089298
:106BF000986828B1FFF762FE089A024493B208939E
:106C0000079B089A13449BB20793069B079A134469
:106C10009BB20693059B069A13449BB20593059B72
:106C20009B441FFA8BFBDA441FFA8AFAD0441FFAFE
:106C300088F84744BFB23E44B6B23544ADB22FB235
:106C40006688B9F1000F52D0B9F80280D9F808303F
:106C5000002B4AD0B3F802909B68002B42D0B3F8C7
:106C600002A09B68002B3AD0B3F802B09B68002BBF
:106C700032D05A8805929B68002B29D05A880692F8
:106C80009B6803B35A8807929B68BBB15A880892E5
:106C90009B6873B15A880992986828B1FFF7CAFDBA
:106CA000099A024493B20993089B099A13449BB230
:106CB0000893079B089A13449BB20793069B079A75
:106CC00013449BB20693059B069A13449BB205930B
:106CD000059B9B441FFA8BFBDA441FFA8AFAD144C6
:106CE0001FFA89F9C8441FFA88F84644B6B20FFA69
:106CF00086F8B4F90690236A1B6900934B4632224A
:106D000041463846FEF704FD236A9B69019301233F
:106D100000934B46322241463846FEF7C5FDB4F992
:106D20001800B4F91420B4F916309A420CD0801A25
:106D30004FF47A7101FB00F09B1A90FBF3F006F020
:106D400057FA02E0D34D6210002006F06BFC00B24F
:106D5000B4F90630333BC0F57A7000FB03F31A48F0
:106D600080FB0320DB17C3EBA01006F041FA06F00E
:106D700059FC00B200EB0801236A5B6800933123E1
:106D800030220131781CFEF7C3FCA37ECBB10BAFE0
:106D90000A223946B4F9180006F0A2FC236A5A6A9E
:106DA00009EBD97906EB690105F1190002974FF05B
:106DB000FF340194DB690093122389B280B201F0A1
:106DC000BBF90FB0BDE8F08FD34D621008B5437C1E
:106DD0001BB1037C0BB1FFF7B5FD08BD10B4002358
:106DE000038043808360C360012404744474416160
:106DF0000383C2614FF4487383804FF4F073C38000
:106E000010BC704700B583B08AB2694600F0DEF866
:106E100003B05DF804FB00BF2DE9F04F83B0058897
:106E20008368002B38D01C889B68002B32D01E88CA
:106E30009B686BB31F889B6843B3B3F800809B6863
:106E400013B3B3F800909B68DBB1B3F800A09B6864
:106E5000A3B1B3F800B09B686BB11A88019298682F
:106E600028B1FFF7D9FF019A024493B20193019B25
:106E70009B441FFA8BFBDA441FFA8AFAD1441FFAAB
:106E800089F9C8441FFA88F84744BFB23E44B6B2F5
:106E90003444A4B22544ADB2284603B0BDE8F08F17
:106EA0002DE9F04F83B045888368002B38D05C888B
:106EB0009B68002B32D05E889B686BB35F889B68B1
:106EC00043B3B3F802809B6813B3B3F802909B6896
:106ED000DBB1B3F802A09B68A3B1B3F802B09B6822
:106EE0006BB15A880192986828B1FFF7D9FF019ACF
:106EF000024493B20193019B9B441FFA8BFBDA443B
:106F00001FFA8AFAD1441FFA89F9C8441FFA88F88F
:106F10004744BFB23E44B6B23444A4B22544ADB2F5
:106F2000284603B0BDE8F08F2DE9F04782B0044653
:106F300007888568EDB12E88AB68C3B1B3F80080CF
:106F40009B6893B1B3F800A09B685BB1B3F8009065
:106F5000986820B1FFF760FF48441FFA80F9D144D8
:106F60001FFA89FAD0441FFA88F84644B6B23E4464
:106F7000B7B2B8466788DDB16E88AB68B3B15D88DB
:106F80009B688BB1B3F802A09B685BB1B3F8029029
:106F9000986820B1FFF784FF48441FFA80F9D14474
:106FA0001FFA89FA5544ADB23544AEB23E44B7B289
:106FB000B4F90420B4F90630E169096A0091394650
:106FC0004046FEF7A5FB02B0BDE8F0872DE9F04191
:106FD00005460E461746437C9BB1FFF7A5FF0023ED
:106FE0000AE06A6952F82320916809B101204874C7
:106FF000012151740B449BB22A8B9342F1D300239D
:107000006B74002411E06B694FEA840853F8240084
:10701000037C1BB1C3683A46314698476B6953F805
:10702000083000225A740134A4B22B8B9C42EAD35C
:10703000BDE8F0812DE9F04F83B005888368002B0F
:1070400038D01C889B68002B32D01E889B686BB39D
:107050001F889B6843B3B3F800809B6813B3B3F8F1
:1070600000909B68DBB1B3F800A09B68A3B1B3F8B4
:1070700000B09B686BB11A880192986828B1FFF73D
:10708000D9FF019A024493B20193019B9B441FFADA
:107090008BFBDA441FFA8AFAD1441FFA89F9C844F3
:1070A0001FFA88F84744BFB23E44B6B23444A4B293
:1070B0002544ADB2284603B0BDE8F08F2DE9F04F6E
:1070C00083B045888368002B38D05C889B68002B90
:1070D00032D05E889B686BB35F889B6843B3B3F81C
:1070E00002809B6813B3B3F802909B68DBB1B3F8DE
:1070F00002A09B68A3B1B3F802B09B686BB15A8839
:107100000192986828B1FFF7D9FF019A024493B21F
:107110000193019B9B441FFA8BFBDA441FFA8AFA06
:10712000D1441FFA89F9C8441FFA88F84744BFB20E
:107130003E44B6B23444A4B22544ADB2284603B0AE
:10714000BDE8F08F2DE9F04F91B0054604888668C0
:10715000002E61D03788B368002B5BD0B3F8008075
:107160009B68002B54D0B3F800909B68002B4CD048
:10717000B3F800A09B68002B44D0B3F800B09B6824
:10718000002B3CD01A8805929B68002B33D01A88BC
:1071900006929B68002B29D01A8807929B6803B33C
:1071A0001A8808929B68BBB11A8809929B6873B1D0
:1071B0001A880A92986828B1FFF73CFF0A9A02449D
:1071C00093B20A93099B0A9A13449BB20993089BB2
:1071D000099A13449BB20893079B089A13449BB2E5
:1071E0000793069B079A13449BB20693059B069A46
:1071F00013449BB20593059B9B441FFA8BFBDA4417
:107200001FFA8AFAD1441FFA89F9C8441FFA88F88C
:107210004744BFB23C44A4B224B26F88002E61D070
:10722000B6F80280B368002B5AD05E889B68002BAA
:1072300053D0B3F802909B68002B4CD0B3F802A057
:107240009B68002B44D0B3F802B09B68002B3CD065
:107250005A8805929B68002B33D05A8806929B6807
:10726000002B29D05A8807929B6803B35A8808924A
:107270009B68BBB15A8809929B6873B15A880A927D
:10728000986828B1FFF71AFF0A9A024493B20A934A
:10729000099B0A9A13449BB20993089B099A1344C9
:1072A0009BB20893079B089A13449BB20793069BD3
:1072B000079A13449BB20693059B069A13449BB20C
:1072C0000593059B9B441FFA8BFBDA441FFA8AFA4D
:1072D000D1441FFA89F94E44B6B2B0441FFA88F877
:1072E0004744BFB20FFA87FA4FF00008CDF81C8070
:1072F000CDF81880059742E06B6A4FEA880BEA697F
:10730000516A53F8280001F063F90A3006B2952E4D
:1073100000DC96262B8D994529D0EB691B690093DB
:107320003223324651462046FEF7F2F9EB699B695B
:107330000193012300933223721C51462046FEF72D
:10734000B3FAEB69D5F824E05A6A05991931601D42
:107350005EF80B7002974FF0FF3ECDF804E0DB695A
:107360000093112389B280B200F0E6FE01E0079697
:107370000694264434B208F101080FFA88F8C14691
:107380002B8C9845B8DB059F05940AF131030893CF
:107390002E88AB68002B63D01C889B68002B5DD0C7
:1073A000B3F800809B68002B56D0B3F800909B6820
:1073B000002B4ED0B3F800B09B68002B46D01A8843
:1073C00009929B68002B3DD01A880A929B68002B7B
:1073D00033D01A880B929B68002B29D01A880C9204
:1073E0009B6803B31A880D929B68BBB11A880E92F2
:1073F0009B6873B11A880F92986828B1FFF71AFE3C
:107400000F9A024493B20F930E9B0F9A13449BB2B0
:107410000E930D9B0E9A13449BB20D930C9B0D9AE9
:1074200013449BB20C930B9B0C9A13449BB20B938B
:107430000A9B0B9A13449BB20A93099B0A9A134422
:107440009BB20993099B5B441FFA83FBD9441FFA43
:1074500089F9C8441FFA88F84444A4B22644B6B255
:10746000B5F904203244EB699B6900930123059828
:10747000121A0899FEF74CF9EB691B680093322346
:10748000079C22465146069E3046FEF741F9EB69BD
:107490009B6800930123224651463046FEF738F997
:1074A000EB699B6800933223012251463046FEF778
:1074B0002FF9EB699B680093322301225146204645
:1074C0003044FEF725F9EB696C6A2D8D5A6A07F195
:1074D00019013046053054F8254002944FF0FF342E
:1074E0000194DB680093112389B280B200F024FE7E
:1074F00011B0BDE8F08F00BF38B50446457CFFF7FA
:1075000065FD3DB1E36A13B1218D204698472046C1
:10751000FFF718FE38BD00BF2DE9F04F83B0058896
:107520008368002B38D01C889B68002B32D01E88C3
:107530009B686BB31F889B6843B3B3F800809B685C
:1075400013B3B3F800909B68DBB1B3F800A09B685D
:10755000A3B1B3F800B09B686BB11A880192986828
:1075600028B1FFF7D9FF019A024493B20193019B1E
:107570009B441FFA8BFBDA441FFA8AFAD1441FFAA4
:1075800089F9C8441FFA88F84744BFB23E44B6B2EE
:107590003444A4B22544ADB2284603B0BDE8F08F10
:1075A0002DE9F04F83B045888368002B38D05C8884
:1075B0009B68002B32D05E889B686BB35F889B68AA
:1075C00043B3B3F802809B6813B3B3F802909B688F
:1075D000DBB1B3F802A09B68A3B1B3F802B09B681B
:1075E0006BB15A880192986828B1FFF7D9FF019AC8
:1075F000024493B20193019B9B441FFA8BFBDA4434
:107600001FFA8AFAD1441FFA89F9C8441FFA88F888
:107610004744BFB23E44B6B23444A4B22544ADB2EE
:10762000284603B0BDE8F08F2DE9F04F87B004463F
:10763000457C002343740B78033BDBB2012B05D858
:1076400090F8243083F0010380F824302046FEF7C0
:10765000B7FF002D00F0208194F824301BB1226A7E
:10766000D2F8009002E0226AD2F810901BB1236A8F
:10767000D3F808B002E0236AD3F818B0237E1BB118
:10768000236AD3F80CA002E0236AD3F81CA0278851
:10769000A5680DB32E88AB68E3B1B3F800809B6892
:1076A000B3B11A8804929B6873B11A8805929868DE
:1076B00028B1FFF731FF059A024493B20593049B6A
:1076C000059A13449BB20493049B98441FFA88F8CC
:1076D0004644B6B23744BFB204976788EDB16E88AE
:1076E000AB68C3B15D889B689BB1B3F802809B68AF
:1076F0006BB15A880592986828B1FFF751FF059A37
:10770000024493B20593059B98441FFA88F84544B8
:10771000ADB22E44B6B23744BFB2B4F90420B4F9C6
:107720000630CDF8009039460498FDF7F1FF278820
:10773000A5680DB32E88AB68E3B1B3F800809B68F1
:10774000B3B11A8804929B6873B11A88059298683D
:1077500028B1FFF7E1FE059A024493B20593049B1A
:10776000059A13449BB20493049B98441FFA88F82B
:107770004644B6B23744BFB204976788EDB16E880D
:10778000AB68C3B15D889B689BB1B3F802809B680E
:107790006BB15A880592986828B1FFF701FF059AE6
:1077A000024493B20593059B98441FFA88F8454418
:1077B000ADB22E44B6B23744BFB2B4F90420B4F926
:1077C0000630CDF804B00121009139460498FEF747
:1077D0006BF82688D4F80880B8F1000F1FD0B8F8ED
:1077E0000050D8F80830C3B11F889B689BB1B3F82C
:1077F00000B09B686BB11A880492986828B1FFF7B3
:107800008BFE049A024493B20493049B9B441FFA98
:107810008BFB5F44BFB23D44ADB22E44B6B2B4F967
:10782000045005EBD57506EB6505ABB2049366888D
:10783000B8F1000F1DD0B8F80270D8F80830B3B115
:10784000B3F802809B6883B1B3F802B09B684BB178
:107850005D88986818B1FFF7A3FE284485B2AB4451
:107860001FFA8BFBD8441FFA88F84744BFB23E4446
:10787000B6B2B4F90610236A5A6A01EBD17106EB6D
:107880006101E3690293CDF80490CDF800A01223C2
:1078900089B2049800F050FC07B0BDE8F08F00BF3B
:1078A0002DE9F04F83B005888368002B38D01C8801
:1078B0009B68002B32D01E889B686BB31F889B6827
:1078C00043B3B3F800809B6813B3B3F800909B6890
:1078D000DBB1B3F800A09B68A3B1B3F800B09B681C
:1078E0006BB11A880192986828B1FFF7D9FF019A05
:1078F000024493B20193019B9B441FFA8BFBDA4431
:107900001FFA8AFAD1441FFA89F9C8441FFA88F885
:107910004744BFB23E44B6B23444A4B22544ADB2EB
:10792000284603B0BDE8F08F2DE9F04F83B04588BD
:107930008368002B38D05C889B68002B32D05E882F
:107940009B686BB35F889B6843B3B3F802809B6806
:1079500013B3B3F802909B68DBB1B3F802A09B6845
:10796000A3B1B3F802B09B686BB15A8801929868D2
:1079700028B1FFF7D9FF019A024493B20193019B0A
:107980009B441FFA8BFBDA441FFA8AFAD1441FFA90
:1079900089F9C8441FFA88F84744BFB23E44B6B2DA
:1079A0003444A4B22544ADB2284603B0BDE8F08FFC
:1079B0002DE9F04F8DB08146038805938468002C33
:1079C00068D02588A368002B60D01E889B68002B98
:1079D0005AD01F889B68002B54D0B3F800809B6856
:1079E000002B4DD0B3F800B09B68002B45D0B3F806
:1079F00000A09B68002B3CD01A8804929B68002B47
:107A000033D01A8806929B68002B29D01A880792D7
:107A10009B6803B31A8808929B68BBB11A880992C5
:107A20009B6873B11A880A92986828B1FFF738FFEB
:107A30000A9A024493B20A93099B0A9A13449BB28E
:107A40000993089B099A13449BB20893079B089AD1
:107A500013449BB20793069B079A13449BB2069369
:107A6000049B069A13449BB20493049B9A441FFA06
:107A70008AFA0BEB0A031FFA83FBD8441FFA88F833
:107A80004744BFB23E44B6B23544ADB2059B2B4429
:107A90009BB20593BDF914300693B9F802A0002CEF
:107AA00064D06588A368002B5DD05C889B68002B40
:107AB00057D05E889B68002B51D05F889B68002B55
:107AC0004BD0B3F802809B68002B44D0B3F802B0CF
:107AD0009B68002B3CD05A8804929B68002B33D0C3
