:1020000060FF00106121000051650000656500005F
:10201000796500008D650000A165000000000000EA
:1020200000000000000000000000000081380000F7
:102030002521000000000000E138000025390000E3
:102040003121000031210000312100003121000048
:1020500031210000253A000031210000312100002B
:102060003121000031210000312100003121000028
:1020700031210000B5650000312100003121000050
:102080003121000031210000312100003121000008
:1020900031210000312100003121000031210000F8
:1020A00031210000293C00003121000031210000D5
:1020B00031210000312100003121000031210000D8
:1020C00031210000312100003121000031210000C8
:1020D0003121000031210000CD57000031210000E6
:1020E0003121000018770100800000106C0400000E
:1020F000187701000000002000000000F00400102C
:10210000586600000000002000000000FEE700BF4D
:10211000FEE700BFFEE700BFFEE700BFFEE700BF2F
:10212000FEE700BFFEE700BFFEE700BFFEE700BF1F
:10213000FEE700BF10B4002304E004680C60043321
:10214000043004319342F8D310BC7047002303E0FD
:1021500000220260043304308B42F9D3704700BF81
:1021600010B50E4B07E003F10C049A685968186823
:10217000FFF7E0FF23460A4A9342F4D306E01C46E9
:10218000596854F8080BFFF7E1FF2346054A9342CC
:10219000F5D300F04DF908F069FEFEE7E4200000F9
:1021A000FC2000000C2100009A4BD3F8043113F4FA
:1021B000807F4BD1974BD3F80C3113F0010F1BD11B
:1021C0009449D1F8042102F01F02934BB3FBF2F2C1
:1021D00092480260D1F8A82102F01F02B3FBF2F28C
:1021E0008F480260D1F8002102F001020132B3FBF6
:1021F000F2F38C4A1360A6E0864BD3F8A03113F0BB
:10220000400F07D10023854A1360854A1360854A31
:10221000136098E07F49D1F8042102F01F02824B3D
:10222000B3FBF2F27D480260D1F8A82102F01F0250
:10223000B3FBF2F27A480260D1F8002102F0010209
:102240000132B3FBF2F3774A13607CE0714BD3F8B1
:10225000883013F4807F07D10023704A1360704ADE
:102260001360704A13606EE06A4BD3F80C3113F0C0
:10227000010F2DD16748D0F8882002F01F02664B6D
:1022800002FB0331D0F8042102F01F02B1FBF2F28D
:1022900062490A60D0F8882002F01F0202FB033175
:1022A000D0F8A82102F01F02B1FBF2F25C490A60EB
:1022B000D0F8882002F01F0202FB0333D0F800217F
:1022C00002F001020132B3FBF2F3564A13603AE026
:1022D000504BD3F8A03113F0400F07D100234F4AE1
:1022E00013604F4A13604F4A13602CE04948D0F8FE
:1022F000882002F01F024C4B02FB0331D0F804216E
:1023000002F01F02B1FBF2F244490A60D0F88820C3
:1023100002F01F0202FB0331D0F8A82102F01F02D5
:10232000B1FBF2F23E490A60D0F8882002F01F02A9
:1023300002FB0333D0F8002102F001020132B3FBAB
:10234000F2F3384A1360334BD3F8083113F4807F2B
:1023500039D0304BD3F8083103F01F03042B06D0DB
:10236000062B04D05BBB0022304B1A607047294B10
:10237000D3F80C3113F0010F10D02649D1F8883072
:1023800003F01F02284B02FB0333D1F8082102F0AF
:102390001F02B3FBF2F3254A136070471D49D1F8C1
:1023A000883003F01F021C4B02FB0333D1F80821D5
:1023B00002F01F02B3FBF2F31C4A136070470022C5
:1023C0001A4B1A607047134BD3F8083113F4007F8F
:1023D0001BD0104BD3F80C3113F0010F0AD00D4B6A
:1023E000D3F8A83003F01F020F4B02FB03330F4A50
:1023F00013607047074BD3F8883003F01F02064B79
:1024000002FB0333094A136070470022074B1A602E
:10241000704700BF00C00F40001BB7008C000010C9
:102420008800001084000010002D31018000001091
:1024300031221C4BC3F8A0211A4BD3F8A03113F062
:10244000400FF9D0174B0122C3F80C210521C3F826
:102450008410C3F88020AA22C3F88C205522C3F828
:102460008C20104BD3F8883013F4806FF9D00D4BCB
:1024700040F20112C3F8042140F20122C3F80821FE
:102480000122C3F800210222C3F8A821064AC3F89A
:10249000C4204FF48072C3F8C82145F23A021A6092
:1024A000704700BF00C00F40DE872804074B23F0B1
:1024B0000703074A136000205060064A44F618617B
:1024C0005160106059601A60704700BF0405001029
:1024D000F00400101C53001070B5044600F018FA08
:1024E000224B1B6823B9FFF7E1FF01221F4B1A6043
:1024F00034B1083414F0070F02D024F00704083474
:10250000621E44F616639A4228D819490B6801E006
:10251000194613465A68944202D91A68002AF7D11C
:10252000144A93421CD00D6808351A680A605A682C
:10253000121B102A0CD91E1972605C6074680C4959
:1025400000E011460A6850688442FAD832600E6092
:102550005968094A13685B1A136002E0002500E01D
:10256000002500F069FA284670BD00BFF80400108D
:10257000F00400101C53001090000010D0B170B592
:102580000546A0F1080600F0C3F955F8044C0A4AC4
:1025900000E01A46136859688C42FAD845F8083C9E
:1025A000166055F8043C054A11680B44136000F0AE
:1025B00043FA70BD704700BFF00400109000001097
:1025C0000A4B1B681B680BB9012300E0002323B1F1
:1025D0004FF0FF32064B1A607047044B1B68DB68F4
:1025E000DB685A68024B1A60704700BF285300101E
:1025F0001854001010B50446006BFFF7BFFF2046CB
:10260000FFF7BCFF10BD00BFF8B5074614460E46E5
:1026100021B98000FFF760FF054600E00D4665B177
:102620001CB96020FFF758FF04460CB1256305E094
:1026300026B92846FFF7A2FF00E0002424B1BA0023
:10264000A521206B0EF0DEF92046F8BD70B50446DA
:102650001546002306E0C85CE21882F83400CA5C24
:1026600012B10133132BF6D9002384F84730072D1C
:1026700000D90725E562256500266665201D00F066
:1026800011FE04F1180000F00DFE2461C5F10805EB
:10269000A5616462A66584F85C6070BD38B50024ED
:1026A00007E004EB840293000E48184400F0EEFDAE
:1026B0000134072CF5D90C4D284600F0E7FD0B4CF2
:1026C000204600F0E3FD0A4800F0E0FD094800F074
:1026D000DDFD094800F0DAFD084B1D60084B1C6069
:1026E00038BD00BF4C53001020540010345400106B
:1026F000FC530010305300104854001028530010B1
:102700004453001038B504460D461D4B186804307C
:1027100000F0F2FD50B91A4B1B68DA6A012303FA84
:1027200002F218490B6823EA02030B60B4F1FF3F81
:1027300007D135B1124B19680431134800F0B6FDCA
:1027400038BD124B1A6814440D4A126854601B6855
:102750009C4207D20E4B1868094B1968043100F0EF
:10276000B1FD38BD0B4B1868054B1968043100F0FA
:10277000A9FD094B1B689C4201D2074B1C6038BD68
:10278000F85300105C54001048540010145400100A
:102790004453001028530010185400102DE9F0473E
:1027A00082B080468A46164699460B9F0D9A0C9930
:1027B0003046FFF729FF00284BD00446036B06F193
:1027C0008045013D03EB850525F0070500960E9B2E
:1027D0000A9A5146FFF73AFF4A464146284601F019
:1027E0003DF8206007B13C6001F05CF8254A1368B1
:1027F00001331360244B1B683BB9234B1C601368E7
:10280000012B0DD1FFF74AFF0AE0204B1B683BB9B3
:102810001D4B1B68DB6A0A9A9A4201D31A4B1C6053
:102820001B4A136801331360A364E36A012505FAA8
:1028300003F018490A6802430A6003EB83039A0015
:10284000211D1548104400F031FD01F03BF82846E9
:1028500001E04FF0FF30012810D10C4B1B686BB129
:10286000094B1B68DB6A0A9A9A4207D94FF08052DB
:102870000A4B1A60BFF34F8FBFF36F8F02B0BDE8F2
:10288000F08700BFF4530010F85300102C530010D1
:102890001C5400105C5400104C53001004ED00E078
:1028A00000B587B00023049303930293124A019268
:1028B0000093802211491248FFF770FF012801D1CF
:1028C00000F09AFB012813D14FF0280383F31188FD
:1028D000BFF36F8FBFF34F8F4FF0FF32094B1A607A
:1028E0000122094B1A600022084B1A6001F046F8D9
:1028F00007B05DF804FB00BF105400109C0F0100EE
:10290000DD2B0000185400102C530010145400103C
:10291000024A136801331360704700BFEC53001084
:10292000014B1868704700BF14540010F8B5374BBE
:102930001B68002B5DD1364B1A6801321A601F6884
:102940005FB9344A1168344B186810601960334A13
:10295000136801331360FFF733FE314B1B689F424E
:1029600003D200263AE0012600E00026294B1B682E
:102970001B680BB9012300E0002323B14FF0FF32A5
:10298000274B1A602AE0234B1B68DB68DC6863680E
:102990009F4202D2224A136020E0251D284600F003
:1029A000ABFCA36A1BB104F1180000F0A5FCE36ABC
:1029B000012202FA03F11B4802680A43026003EB9A
:1029C00083039A0029461848104400F06FFCE26A1D
:1029D000164B1B68DB6A9A42C5D2C7E7134B1B68CC
:1029E000DB6A03EB83039A000F4B9B58012B06D83D
:1029F00006E00F4A136801331360002600E0012649
:102A00000C4B1B6803B101263046F8BDEC53001097
:102A10001454001028530010445300102453001085
:102A2000185400105C5400104C530010F853001060
:102A3000485300106054001038B500F033FF2F4B9E
:102A40001A68013A1A601B68002B50D12C4B1B6886
:102A500033BB00244EE02B4BDB68DC6804F118002C
:102A600000F04AFC251D284600F046FCE36A0122DE
:102A700002FA03F1244802680A43026003EB83036D
:102A80009A0029462148104400F010FCE26A204BCD
:102A90001B68DB6A9A4204D301221E4B1A6000E0D5
:102AA0000024184B1B68002BD5D10CB1FFF788FD13
:102AB000194B1B6853B90DE0FFF738FF10B1012225
:102AC000144B1A60144A1368013B1360124B1B68C5
:102AD000002BF1D10F4B1B685BB14FF080520F4BB5
:102AE0001A60BFF34F8FBFF36F8F012402E0002401
:102AF00000E0002400F0E6FE204638BDEC53001054
:102B0000F4530010FC5300105C5400104C530010A0
:102B1000F8530010605400104853001004ED00E01A
:102B200038B505460C46FFF7F3FE154B18682A68C2
:102B30001319904205D29A4209D9984209D300222A
:102B40000CE09A4207D8984207D3002206E0002200
:102B500004E0012202E0012200E001222B601AB110
:102B60000021181AFFF7CEFDFFF766FF38B94FF0C6
:102B70008052044B1A60BFF34F8FBFF36F8F38BD85
:102B80001454001004ED00E010B51BE0FFF7C0FE88
:102B90000F4B1C68FFF750FFA4B100F083FE0C4BF5
:102BA000DB68DC68201D00F0A7FB0A4A1368013BC4
:102BB0001360094A1368013B136000F083FE20464E
:102BC000FFF718FD044B1B68002BDFD110BD00BFC1
:102BD00030530010F4530010F053001008B5FFF705
:102BE000D3FF064B1B68012BF9D94FF08052044BE1
:102BF0001A60BFF34F8FBFF36F8FF0E74C53001095
:102C000004ED00E038B51E4B1B681BB101221D4BC3
:102C10001A6038BD00221B4B1A601B4B1A681268E1
:102C20001B681B6B9A4205D8174B1868196834311A
:102C300003F0AEFE154B1B68B3FA83F3DBB2C3F1AE
:102C40001F03134D9900CA18900028444268546825
:102C5000446019448A0008322A44944205D16068CD
:102C600003EB83018A002A44506003EB83039A003C
:102C7000074B1A445368DA68034B1A6038BD00BF2B
:102C8000EC53001060540010F85300105C54001016
:102C90004C53001010B50C46044B1968183100F065
:102CA00011FB01212046FFF72DFD10BDF853001048
:102CB00038B50D461446064B1968183100F0F6FA7F
:102CC0000CB14FF0FF3521462846FFF71BFD38BDFC
:102CD000F853001038B5C368DC6804F118052846BD
:102CE00000F00AFB134B1B68A3B9251D284600F012
:102CF00003FBE36A012202FA03F10F4802680A4368
:102D0000026003EB83039A0029460C48104400F04C
:102D1000CDFA03E029460A4800F0C8FAE26A094BF6
:102D20001B68DB6A9A4203D90120074B186038BD43
:102D3000002038BDEC5300105C5400104C530010C0
:102D4000FC530010F853001060540010034B1B6834
:102D50000360034B1B684360704700BF245300109F
:102D60001454001038B504460D4600F09BFD114B7D
:102D70001A682B68B3F1FF3F13D020680E49096829
:102D8000884202D061688A420DD26168501A83423B
:102D90000BD98A1A13442B602046FFF7D7FF002473
:102DA00004E0002402E0012400E0012400F08AFD98
:102DB000204638BD14540010245300100122014B4A
:102DC0001A60704760540010054B1B6823B1054B17
:102DD0001B681BB902207047012070470020704714
:102DE0002C530010EC53001000284AD038B502468E
:102DF000C36A24490968C96A8B4241D281690029A2
:102E000005DB20490968C96AC1F10801816150697F
:102E100003EB830399001C4B1944884201D1012321
:102E200000E0002343B31446151D284600F064FA61
:102E300070B9E36A03EB83018A0013498A583AB9EF
:102E4000012202FA03F311490A6822EA03030B6024
:102E50000C4B1B68DB6AE362012202FA03F10B48A8
:102E600002680A43026003EB83039A00294606487E
:102E7000104400F01BFA38BD024B1B68DB6AD362BA
:102E800038BD7047F85300104C5300105C540010CC
:102E9000002834D038B50346426D013A4265C06A15
:102EA000196D88422DD072BB1C461D1D284600F0AE
:102EB00023FA70B9E36A03EB83018A0013498A5845
:102EC0003AB9012202FA03F311490A6822EA03031C
:102ED0000B60236DE362C3F10802A261012404FACE
:102EE00003F00B490A6802430A6003EB83039A006C
:102EF00029460648104400F0D9F9204638BD002084
:102F00007047002038BD002038BD00BF4C53001072
:102F10005C540010054B1B6823B1044B1A68536DB9
:102F200001335365014B1868704700BFF853001018
:102F3000064B1A681368B3FA83F35B09036013B98D
:102F4000D368186870470020704700BF64540010B1
:102F500008B54160006191420AD8D21A83699A4249
:102F600011D2011D0A4B186800F0ACF9002008BD11
:102F70009A4201D2994208D2011D064B186800F00E
:102F8000A1F9002008BD012008BD012008BD00BF37
:102F9000985400106454001030B583B000F082FCE7
:102FA0000F4B1B68C3B90F4D284600F06FF90E4C4C
:102FB000204600F06BF90D4B1D600D4B1C6000228C
:102FC000009213460C21022000F090FA044B186086
:102FD00010B1084900F0F4FB00F074FC03B030BD00
:102FE00094540010685400107C5400106454001075
:102FF00098540010A40F010000B587B0FFF7CCFF74
:10300000094B1B6863B1002304930393029301935C
:1030100002220092502205490548FFF7BFFB00E05D
:10302000002007B05DF804FB94540010AC0F0100C1
:103030007532000030B585B0134C256805B31C46C9
:10304000019102920390052913DCFFF7BDFE0228CF
:1030500007D10023089A01A90B48006800F064FA20
:103060000FE000231A4601A90748006800F05CFA47
:1030700007E00023224601A9284600F0D3FA00E029
:10308000002005B030BD00BF9454001070B582B070
:103090001FE0DB681E68DC68251D284600F02CF95F
:1030A000636A20469847E369012B12D1A369334430
:1030B0009E4207D26360246129460C4B186800F0D9
:1030C00001F906E0002100910B4632462046FFF749
:1030D000B1FF064B1B681A68002ADAD1044A10684F
:1030E00002490860136002B070BD00BF6454001054
:1030F0009854001038B50546FFF712FC0446074BFC
:103100001B68984204D2FFF7C1FF01232B6001E046
:1031100000232B60014B1C60204638BD90540010EA
:1031200070B582B005460E460E4B1B68DB68DC6846
:10313000201D00F0E1F8E369012B0ED1A1692B46B7
:10314000324629442046FFF703FF30B100210091A9
:103150000B462A462046FFF76DFF636A20469847D4
:1031600002B070BD6454001070B582B006460C46C3
:10317000FFF7CEFB01A8FFF7BDFF019B1BBB054678
:1031800044B9B04206D3FFF757FC29463046FFF753
:10319000C7FF1AE02CB10E4B1B681C68B4FA84F40C
:1031A00064092246711B0B4B186800F01DFBFFF7EA
:1031B00043FC50B94FF08052074B1A60BFF34F8F5A
:1031C000BFF36F8F01E0FFF737FC02B070BD00BFA7
:1031D000985400109454001004ED00E030B587B00E
:1031E0003AE0039B002B37DB059C636913B1201D7C
:1031F00000F082F802A8FFF77DFF039B092B2BD874
:10320000DFE803F00505052A1E2705052A1E049997
:10321000A5690B46024629442046FFF799FED8B11E
:10322000636A20469847E369012B15D1A269002102
:1032300000910B46049802442046FFF7FBFE0BE08A
:103240000499A1610346024601442046FFF780FE2F
:1032500002E02046FFF792F900231A4603A904482A
:10326000006800F013FA0028BBD107B030BD00BFE2
:103270009454001000B583B001A8FFF759FE0199DE
:10328000FFF772FFFFF7AAFFF6E700BF00F10803A0
:1032900043604FF0FF328260C3600361002303602C
:1032A000704700BF00230361704700BF43684B6055
:1032B0009A688A609A68516099600861036801336E
:1032C0000360704730B40D68B5F1FF3F01D102696A
:1032D00007E000F1080200E01A4653681C68A542A6
:1032E000FAD253684B6099608A6051600861036844
:1032F0000133036030BC70470369426881689160A4
:103300008268416851605A68904201D182685A606F
:1033100000220261186801381860704710B5044631
:1033200000F0C0FAA26BE36B9A4201D1012400E0E5
:10333000002400F0C7FA204610BD00BF10B50446B7
:1033400000F0B0FAA36B0BB9012400E0002400F0F8
:10335000B9FA204610BD00BF10B5144611B100FBEC
:1033600001F000E000205430FFF7B6F8034610B13A
:1033700000F154022260184610BD00BF38B5044663
:103380001546026C3AB903685BBB4068FFF780FDE5
:10339000002363602CE06DB980680DF059FAA268D3
:1033A000236C1344A360626893421CD32368A36018
:1033B00000201DE0C0680DF04BFA236C5B42E26810
:1033C0001A44E26021688A4202D262681344E360D0
:1033D000022D0AD1A36B53B1A36B013BA363002061
:1033E00006E0002004E0002002E0002000E00020D1
:1033F000A36B0133A36338BD026C72B110B5C3680F
:103400001344C3604468A34201D30368C3600C46FD
:10341000C16820460DF01CFA10BD704710B5044677
:1034200000F040FA0BE0636A63B104F12400FFF797
:1034300051FC08B1FFF7C2FCA36C013BA364A36C71
:10344000002BF0DC4FF0FF33A36400F03BFA00F0F8
:1034500029FA0BE0236963B104F11000FFF73AFC8D
:1034600008B1FFF7ABFC636C013B6364636C002B3A
:10347000F0DC4FF0FF33636400F024FA10BD00BFAE
:1034800038B504460D4600F00DFA2168E26B236C56
:1034900003FB021060600020A063A160013A02FB00
:1034A0000313E3604FF0FF336364A3647DB92369C2
:1034B000ABB104F11000FFF70DFC80B14FF080526A
:1034C000094B1A60BFF34F8FBFF36F8F07E004F112
:1034D0001000FFF7DBFE04F12400FFF7D7FE00F039
:1034E000F1F9012038BD00BF04ED00E070B582B0F5
:1034F00006460D4602AC44F8042D2246FFF72CFF89
:10350000044670B10DB9206001E0019B0360E663E1
:10351000256401212046FFF7B3FF9DF8183084F899
:103520005030204602B070BDF0B585B004460F465D
:1035300001921E46002500F0B5F9A26BE36B9A429A
:1035400001D3022E21D1324639462046FFF716FF1D
:10355000636A6BB104F12400FFF7BCFB88B14FF044
:1035600080522F4B1A60BFF34F8FBFF36F8F08E06D
:1035700038B14FF080522A4B1A60BFF34F8FBFF320
:103580006F8F00F09FF9012048E0019B1BB900F00C
:1035900099F9002042E01DB902A8FFF7D7FB0125E9
:1035A00000F090F9FFF7B4F900F07CF9636CB3F127
:1035B000FF3F01D100236364A36CB3F1FF3F01D14E
:1035C0000023A36400F07EF901A902A8FFF7CAFB5B
:1035D000F0B92046FFF7A2FEA0B1019904F1100056
:1035E000FFF758FB2046FFF719FFFFF725FA0028E1
:1035F000A1D14FF080520A4B1A60BFF34F8FBFF337
:103600006F8F98E72046FFF709FFFFF715FA92E75B
:103610002046FFF703FFFFF70FFA002005B0F0BDCB
:1036200004ED00E070B5EFF311854FF0280484F34A
:103630001188BFF36F8FBFF34F8F866BC46BA642A9
:1036400001D3022B18D1164604461A46FFF796FE00
:10365000A36CB3F1FF3F0AD1636A7BB104F124008C
:10366000FFF738FB60B16EB1012030600BE0A36C56
:103670000133A364012006E0002004E0012002E001
:10368000012000E0012085F3118870BDF0B585B000
:1036900004460F4601921E46002500F003F9A36B75
:1036A0008BB3E56839462046FFF7A6FEBEB9A36B8B
:1036B000013BA363236813B9FFF72CFC6060236907
:1036C000EBB104F11000FFF705FBC0B14FF08052E1
:1036D0003A4B1A60BFF34F8FBFF36F8F0FE0E56077
:1036E000636A63B104F12400FFF7F4FA38B14FF0D4
:1036F0008052324B1A60BFF34F8FBFF36F8F00F0D1
:10370000E1F8012057E0019B1BB900F0DBF8002035
:1037100051E01DB902A8FFF719FB012500F0D2F80E
:10372000FFF7F6F800F0BEF8636CB3F1FF3F01D18C
:1037300000236364A36CB3F1FF3F01D10023A364B2
:1037400000F0C0F801A902A8FFF70CFB38BB204627
:10375000FFF7F4FDE8B1236833B900F0A3F860681F
:10376000FFF742FB00F0AEF8019904F12400FFF7E7
:1037700091FA2046FFF752FEFFF75EF900288CD140
:103780004FF080520D4B1A60BFF34F8FBFF36F8F16
:1037900083E72046FFF742FEFFF74EF97DE720461C
:1037A000FFF73CFEFFF748F92046FFF7C7FD00286A
:1037B0003FF473AF002005B0F0BD00BF04ED00E0A2
:1037C00000230BE0074A52F8332032B9054A42F889
:1037D000331002EBC303586070470133092BF1D952
:1037E000704700BF6857001070B504460D46164676
:1037F00000F058F8636CB3F1FF3F01D1002363641C
:10380000A36CB3F1FF3F01D10023A36400F05AF889
:10381000A36B2BB93246294604F12400FFF748FA7E
:103820002046FFF7FBFD70BD4FF0280383F311889E
:10383000BFF36F8FBFF34F8FFEE700BF06480068EE
:10384000006880F3088862B661B6BFF34F8FBFF39C
:103850006F8F00DF00BF000008ED00E04FF08073C5
:1038600040F8043C40F8081C034B40F80C3C40F87E
:10387000202C4038704700BF29380000FFFFFFFFB1
:10388000074B19680868B0E8F00F80F30988BFF3A8
:103890006F8F4FF0000080F311884EF00D0E7047CF
:1038A000F85300104FF0280383F31188BFF36F8F94
:1038B000BFF34F8F024A136801331360704700BF94
:1038C00094000010034A1368013B13600BB983F3A3
:1038D0001188704794000010FFFFFFFFFFFFFFFFFC
:1038E000EFF30980BFF36F8F0D4B1A6820E9F00FDB
:1038F00010602DE908404FF0280080F31188FFF791
:1039000081F94FF0000080F31188BDE80840196884
:103910000868B0E8F00F80F30988BFF36F8F704735
:10392000F853001008B54FF0280383F31188BFF354
:103930006F8FBFF34F8FFEF7F9FF18B14FF0805232
:10394000024B1A60002383F3118808BD04ED00E0E8
:10395000064B1B68064AA2FB03239B09013B054A51
:1039600013600722044B1A60704700BF8C000010E0
:10397000D34D621014E000E010E000E008B5094B00
:103980001A6842F478021A601A6842F078421A60A3
:10399000FFF7DEFF0022044B1A60FFF74FFFFFF72F
:1039A00043FF00BF20ED00E09400001040B110B5CF
:1039B000054C064B1C60204602F0B8FF204610BDA7
:1039C0000020024B186070471800000ED0580010FD
:1039D00030B583B00446114850F824301B7802A952
:1039E00001F8013D04EB840293002833184402F0EF
:1039F000CBFC20F07F4018B1094B186802F096FF0D
:103A0000231D064A02EB83035D682DB102F09AFD87
:103A10009DF807202146A84703B030BDA8540010E8
:103A2000D058001008B50020FFF7D2FF08BD00BF36
:103A3000F8B50546FFF7BAFF0446384B1860002872
:103A400069D1FEF7B1FB2B1D354A02EB830300223F
:103A50005A6065B905EB85039800283001230A22D6
:103A600030492F4E304402F081FC032000E000205A
:103A7000002D4AD12A4B2C4A1A6002F5003231211E
:103A80009160D160294FD7F8C460E91C012202FA85
:103A900001F13143C7F8C41025490968254EA6FB3A
:103AA000016153F825703E7B46F080063E7353F863
:103AB0002560C1F30757377053F82560090F31713E
:103AC00053F82510C0B2087353F825104A6053F814
:103AD00025100A7253F82510802081F83000691DE6
:103AE000C9B248B2400901F01F0102FA01F1124EB9
:103AF00046F8201002FA05F593F88C20154383F858
:103B00008C500022054B1A6005E00C4C034B1C60E6
:103B1000204602F00BFF2046F8BD00BFD058001031
:103B2000A85400109C54001000C0004000C00F407A
:103B300088000010C5B3A29100E100E01800000E5B
:103B400070B506460D46FFF731FF20B13046FFF74E
:103B50002DFF04461AE004460D4B93F88C003146C5
:103B6000304110F0010F06D10A4C0B4B1C6020466F
:103B700002F0DCFE0AE0064B53F821301A7D12F009
:103B8000400FF8D01D700022034B1A60204670BD14
:103B9000A85400101500000ED058001038B5044687
:103BA0000D46FFF703FF18B12046FFF7FFFE38BDB3
:103BB000FFF778FE04EB8404A00028302946044B6C
:103BC000184402F00BFC0446FFF77CFE204638BD8B
:103BD000A8540010054B93F88C20012303FA00F041
:103BE000024214BF18460020704700BFA8540010BE
:103BF0000023036041608360704700BF00230360BF
:103C00008360704730B403460268114401608468E1
:103C1000621C826091FBF2F05D68AA4202DD091A23
:103C200019609C6030BC70472E4BDB6813F00C0FA2
:103C300051D02C4A136823F0010313607047294BBD
:103C40005C6A294AC2F818411B6AC3F3034382F82D
:103C50001C31082B03D90822234B83F81C21214B4C
:103C60001B6A002B02DA4FF0005200E000221E4BCC
:103C7000C3F820211B4A916AC3F81011D26AC3F815
:103C8000142102F047FE00F1AA5000F5B010844262
:103C900017D10AE0144804F58871014400F59470C6
:103CA00002F072FB0134E4B200E000240E4B93F802
:103CB0001C319C42EED30B4A536843F0040353601B
:103CC0000AE0094800F58871F83002F05DFB042233
:103CD000044B5A6000E010B5024B9B6813F0010FD3
:103CE000ADD110BD0040044038550010F0B402249E
:103CF000BE4B1C60002A40F022815D689CE0BC4BFA
:103D000053F82530070140F2FF72BA401340FB40E0
:103D10008B4277D9B54B5B699B0806E05A1EB44CC1
:103D200054F8226044F8236013469D42F6D9AF4B05
:103D30009A6804329A60DA680432DA601A690432E6
:103D40001A615A6904325A61A3F5804353F8252059
:103D500022F4604243F8252053F8252043F825201B
:103D600053F8252022F0604243F8252053F82520FF
:103D700042F0005243F8252053F825200C37012447
:103D8000BC4022EA040243F8252053F8252043F8DA
:103D9000252053F8253010B96FF0805201E06FF400
:103DA00080521340924A42F8253052F8253010B91B
:103DB0004FF0805201E04FF480521A438C4B43F88D
:103DC000252053F8252022F4FF6222F0070243F851
:103DD000252053F82520C1F30A04224343F8252067
:103DE00053F8252022F0FF6222F4E02243F8252038
:103DF00053F825207F4C04EA0144224343F8252050
:103E0000012320E07A4B53F825301340FB409942C0
:103E100011D1774C54F8256007F10C03012202FA06
:103E200003F326EA030344F8253054F8253044F818
:103E30002530134607E001356C4B9B68B5EB930FBB
:103E4000FFF45DAF0023002B40F0FF80674B5B6900
:103E50009B0806E05A1E664C54F8226044F8236022
:103E60001346AB42F6DA614B9A6804329A60DA681C
:103E70000432DA601A6904321A615A6904325A61EA
:103E8000A3F5804353F8252022F4604243F825200F
:103E900053F8252043F8252053F8252022F06042CE
:103EA00043F8252053F8252042F0005243F82520FE
:103EB00053F82520040104F10C060124B44022EA41
:103EC000040243F8252053F8252043F8252053F811
:103ED000253010B96FF0805201E06FF4805213402A
:103EE000434A42F8253052F8253010B94FF080523D
:103EF00001E04FF480521A433D4B43F8252053F81C
:103F0000252022F4FF6222F0070243F8252053F80F
:103F10002520C1F30A00024343F8252053F8252049
:103F200022F0FF6222F4E02243F8252053F82520F6
:103F3000304800EA01410A4343F8252085E02B4B35
:103F4000DA6845E02A4B53F82230B0EB537F01D0BA
:103F500001323DE0264B53F8223023F06043994272
:103F60002ED2224B5B699B0806E05C1E204D55F863
:103F7000246045F8236023469A42F6D91B4B1C69FE
:103F800004341C615C6904345C61A3F5804353F81C
:103F9000224024F0604443F8224053F8224044EA8F
:103FA000407443F8224053F8224004F0604443F840
:103FB000224053F822400C4343F8224001230FE0F3
:103FC0000B4B53F8223023F06043994207D0013263
:103FD000064B1B69B2EB930FB4D3002300E001231F
:103FE0009BBB024B5B699B080DE000BF00C0034018
:103FF000008003400000FF075C1E174D55F8246049
:1040000045F8236023469342F6DA144B1C690434C6
:104010001C615C6904345C61A3F5804353F8224061
:1040200024F0604443F8224053F8224044EA4070B0
:1040300043F8220053F8220000F0604043F82200C9
:1040400053F82200014343F822100020034B18606C
:10405000034B1860F0BC70470080034000C0034071
:10406000D058001070B52B4D18230A2205F1080115
:1040700005F1F80002F07AF900246C60264AD2F8C3
:10408000C43043F40053C2F8C430244B01265E60B0
:104090001E6003F5C0331A6832431A601A6822F0B2
:1040A000BE021A6005221A614FF000711C4A1160AD
:1040B0004FF480125A6158691A4A11681A4AA2FBD1
:1040C0000112C2F3C94202435A611A6822F0010286
:1040D0001A603346C82205F59E7105F5947002F00A
:1040E00045F902F017FC4FF0005200F1AA5101F51A
:1040F000B0112046FFF7FAFD0C4B02221A605C60FB
:104100009C60DC601C615C611C602E70084B1C6054
:10411000204670BD3855001000C00F4000C002405E
:1041200000E100E08C00001083DE1B4300C0034070
:10413000D05800100020014B18607047D058001074
:1041400058B18AE0474B9B6813F0C00F05D0454A31
:10415000136823F00103136027E0424B5A6B8B680E
:104160009A4204D13F4AD26912F0040FEAD03D4A84
:10417000526C934204D13B4AD26912F4806FE1D071
:10418000384A526D934210D1364BDB6913F4802FBD
:10419000D8D00AE0334B9B6813F0C00F05D0314AEA
:1041A000136823F00103136007E02E4BDB6903F073
:1041B000043323F08063002BECD02A4BDB6913F02F
:1041C000040F15D00A7B13040A69B2F1005F02D113
:1041D0004FF0004200E000221A43224B1A638A6823
:1041E0005A630A689A634A68DA6321225A6034E0A3
:1041F0001C4BDB6913F4806F15D00A7B13040A692A
:10420000B2F1005F02D14FF0004200E000221A43F9
:10421000144B1A648A685A640A689A644A68DA64B1
:1042200041225A6019E00F4BDB6913F4802F14D040
:104230000B7B1B040A69B2F1005F02D14FF0004210
:1042400000E000221A43074B1A658A685A650A681B
:104250009A654A68DA6581225A600020024B18602C
:10426000704700BF00400440D058001008B500EB74
:1042700080008300F8330248184402F0AFF808BD0C
:104280003855001030B9064B9B6813F0800F05D0ED
:10429000032070470020034B1860704700207047D0
:1042A00000400440D0580010704700BF08B50146D8
:1042B000014802F093F808BD6056001030B5174968
:1042C00000208861164B1B68164AA2FB0342D20BE2
:1042D000013A4A61C3EB0312520A134CA4FB0225B4
:1042E000C3EBC302C3EBC202520AA4FB02E2D2092F
:1042F000120242EAD51203EB8303C3EBC3035B0A4A
:10430000A4FB0343DB0942EA03430B614FF0A053D4
:10431000C1F8683F054B186030BD00BF8000200029
:104320008C000010819F5E16834B0400D058001053
:104330005318B3F57C6F03DD2348244B1860704796
:10434000F0B516460F464FF08054214BC3F8684F26
:1043500002F03F0300222BE01D4C4FF08065C4F8B3
:10436000685F03252560B518656010F802E0C4F8A1
:1043700008E00133DBB23F2B02D87C1EA24215D1EC
:10438000134BD3F8603F13F0806FF9D0104B5D6092
:1043900006241C600E4BD3F8603F13F0805FF9D009
:1043A0004FF080540A4BC3F8684F0023013292B299
:1043B0008A42D1D34FF0A052054BC3F8682F00209A
:1043C000024B1860F0BD00BF0B000016D058001063
:1043D000800020005318B3F57C6F03DD1548164BA1
:1043E0001860704710B4154B5A604FF08062C3F8E4
:1043F000682F002212E00024104B1C600F4BD3F8F2
:10440000603F13F0806FF9D00C4BDC6804704FF004
:104410008064C3F8684F013292B201308A42EAD315
:104420004FF0A052054BC3F8682F0020024B1860D4
:1044300010BC70470B000016D05800108000200000
:1044400070B582B0154B0230988000245C801C80CF
:1044500001264FF6FF7518E02244023A92B202217B
:104460000DF10600FFF7B6FFBDF806304BB19D42D7
:1044700002D90A4A54801D469E4202D2074A14803D
:104480001E46064B9B881C44A4B2044B9A88C2F576
:104490007B6308339C42DFDD02B070BD40570010E3
:1044A00030B583B03B4BB3F900209B881A4492B2DD
:1044B00011B20B4440F6B874A34200DD0021354B25
:1044C000B3F90230994203D13348344B18605FE0AE
:1044D0000446023A92B202210DF10600FFF77AFF7C
:1044E000BDF8063023B12B4B99881A880A441A80EC
:1044F000284AB2F9003091880B4440F6B8729342D2
:1045000002DD0022234B1A800239224B1A8889B21D
:104510002046FFF70DFFBDF806204FF6FF739A42C5
:1045200023D11AE02244023A92B2022101A8FFF7F5
:1045300051FFBDF804301BB103F6B973ADF8043078
:10454000144DAA882244023A92B2022101A8FFF730
:10455000EFFEAB881C44A4B200E000240D4B9A8807
:10456000C2F57B6308339C42DCDDBDF806300133C5
:1045700002A820F8023D074AB2F9003092881A4496
:10458000023A92B20221FFF7D3FE0020034B1860DB
:1045900003B030BD4057001012000016D058001074
:1045A00010B582B0044600238DF80730254AB2F9D1
:1045B000023092881A44023A92B2022101A8FFF70F
:1045C00009FFBDF804301BB91F48204B186036E0C6
:1045D0003CB11C4B998802395A8889B22046FFF7B2
:1045E000F9FE0023ADF804300EE0164BB3F90230AB
:1045F0001A4492B201210DF10700FFF799FEBDF8B0
:1046000004300133ADF804300E4B9B88BDF8042014
:104610009342EAD80B4AB2F90010B2F90220914253
:104620000AD01A4412B207494A80134440F6B872BD
:10463000934201DD00224A800020044B186002B042
:1046400010BD00BF4057001017000016D0580010D2
:1046500030B583B004460D46214AB2F90030928845
:104660001A44023A92B202210DF10600FFF7B2FE9F
:10467000BDF806301BB91B481B4B18602EE0184BC9
:10468000B3F90020ADF8065019E0154BB3F902302C
:104690009A4203D11548144B18601FE0104B9888BC
:1046A000121A12B2002A07DA40F6B87393FBF0F23E
:1046B00000FB12329A1A12B20139ADF80610BDF899
:1046C00006100029E1D1064B9988023992B289B2CD
:1046D0002046FFF77FFE0020034B186003B030BD7B
:1046E0004057001017000016D05800101200001696
:1046F00008B528B10268117002680132026008BD75
:10470000084601F04FF908BD2DE9F04107460E4675
:10471000151E05DC4FF0200814E00131013201E0E4
:104720000A46002110780028F7D1A94201DA6D1A53
:1047300000E0002513F0020F02D14FF0200801E045
:104740004FF0300813F0010F08D000240FE041466D
:104750003846FFF7CDFF0134013D00E00024002D75
:10476000F5DC04E03846FFF7C3FF01340136317849
:104770000029F7D105E041463846FFF7B9FF01347B
:10478000013D002DF7DC2046BDE8F081F0B585B095
:1047900005460C9E59B930238DF8043000238DF85E
:1047A00005300B9B0A9A01A9FFF7AEFF40E00846CF
:1047B00033B10A2A06D1002906DA4842012704E06B
:1047C000002702E0002700E0002704AC002304F8E3
:1047D000013D0DE0B0FBF2F302FB1303092B02DDF8
:1047E000A6F13A010B44303304F8013DB0FBF2F07E
:1047F0000028EFD1A7B10A9B63B10B9B13F0020F06
:1048000008D02D212846FFF773FF0A9B013B0A932E
:10481000012606E02D2304F8013C013C002600E0BF
:1048200000260B9B0A9A21462846FFF76DFF30446D
:1048300005B0F0BDF0B587B006460C461F46002512
:1048400083E0252B7BD1621C6378002B00F08180F4
:10485000252B73D02D2B02D1A21C012300E00023B5
:10486000144602E0013443F002032278302AF9D0E2
:10487000002205E002EB8202500030394218013478
:104880002178A1F13000C0B20928F3D9732908D1E9
:104890003968043701B932493046FFF735FF05441E
:1048A00052E0642901D069290CD1396804376120AC
:1048B00002900193009201230A223046FFF766FF1F
:1048C000054441E078290CD1396804376120029011
:1048D00001930092002310223046FFF757FF054452
:1048E00032E058290CD139680437412002900193F5
:1048F0000092002310223046FFF748FF054423E0D2
:1049000075290CD139680437612002900193009217
:1049100000230A223046FFF739FF054414E06329DB
:1049200012D1397804378DF8141000218DF8151044
:1049300005A93046FFF7E8FE054405E01446217856
:104940003046FFF7D5FE013501342378002B7FF484
:1049500078AF16B1336800221A70284607B0F0BD50
:10496000B40F01000FB400B583B004AB53F8041BBF
:1049700001934FF0FF320020FFF75CFF03B05DF8BA
:1049800004EB04B0704700BF0CB400B585B00190D3
:1049900006AB53F8040B03930A46014601A8FFF740
:1049A00049FF05B05DF804EB02B0704770B4002316
:1049B00010E0D0F8305103EB4306B4002E192C5B05
:1049C0008C4206D1F47814F0C00F08D1B478944228
:1049D00005D00133B0F83441A342EAD30026304673
:1049E00070BC704730B587B09DF828400025019510
:1049F0000395049505958DF800204A788DF80120DF
:104A00008A788DF80220CA788DF80320027E02F59C
:104A1000B062029208228DF80C2053B916E01A1DDC
:104A2000E95C0DF1180E724402F8181C0133DBB278
:104A300001E01D460023A342F1D307E01A1D06A999
:104A40000A44002102F8181C0133DBB2032BF5D90C
:104A5000694690F85C01FFF773FB07B030BD00BFFB
:104A600000B587B0002303930493059380238DF84A
:104A700000304B788DF801308B788DF80230CB7890
:104A80008DF803308DF80420C2F307238DF805302C
:104A9000C2F307438DF80630120E8DF80720037E0F
:104AA0008033029308238DF80C30694690F85C013E
:104AB000FFF746FB07B05DF804FB00BF10B582B0FE
:104AC000019283788B420AD30B464468C07800F089
:104AD0003F00024601A900FB03400BF0B9FE02B003
:104AE00010BD00BF83788B420DD310B582B04468EF
:104AF000C37803F03F031A4603FB014101A80BF002
:104B0000A7FE019801E00020704702B010BD00BF71
:104B10002DE9F04385B006460C464F7891F8029097
:104B200007EB092194F80380424689B2FFF73EFF64
:104B300028B97C4A21463046FFF792FFEEE0054651
:104B40002378402B3AD1037A13F0010F05D1764A2E
:104B500021463046FFF784FFE0E0C27812F0C00F34
:104B600024D0B8F1000F18D0837898450FD808F1F9
:104B7000FF3189B2FFF7B6FF04AB43F8040D0422FE
:104B80000092422221463046FFF72CFFC6E0654ADC
:104B900021463046FFF764FFC0E001230093831CE9
:104BA000422221463046FFF71DFFB7E043680092DE
:104BB000422221463046FFF715FFAFE02F2B06D0EB
:104BC0002B2B04D0232B02D0222B40F0A2802B7A57
:104BD00013F0020F00F0978007EB092741F203035F
:104BE0009F422BD1B8F1000F28D196F86831B6F862
:104BF0006421D6F8601106F5B07001F0B7FB002310
:104C00008DF80C3007E06B68002199549DF80C304A
:104C100001338DF80C309DF80C20A978EB7803F067
:104C20003F0303FB01F39A42EDDB0123009303AB47
:104C3000602221463046FFF7D5FE6FE0EB7813F097
:104C4000C00F1CD0B8F1000F04D008F1FF33AA78D0
:104C5000934205DB354A21463046FFF701FF5DE010
:104C600008F1FF31626889B22846FFF727FF0AE0A2
:104C70006A68191D615CD1540133DBB200E0002386
:104C8000EA789342F4D30023009360222146304611
:104C9000FFF7A8FE6378A27803EB022341F210022B
:104CA000934213D1E378012B10D16B681A78732AE1
:104CB0000CD15A78612A09D19A78762A06D1DA7805
:104CC000652A03D100221A6001F0AAFD6378A27858
:104CD00003EB022341F2110293421FD1E378012B2F
:104CE0001CD16B681A786C2A18D15A786F2A15D1A2
:104CF0009A78612A12D1DA78642A0FD100221A60D8
:104D000001F0A8FD0AE00A4A21463046FFF7A8FE56
:104D100004E0084A21463046FFF7A2FE05B0BDE890
:104D2000F08300BF0000020601000106000001063A
:104D3000020001060100040500B583B0C27802F04C
:104D40003F02416801A80BF083FD019803B05DF8B4
:104D500004FB00BF30B587B004460C9DC0F830118D
:104D6000A0F834217F2280F838210B9AC0F83C212A
:104D7000C0F8405180F85C310A9BC0F87431007E65
:104D800001F0C0FD0022114694F85C01FEF7AEFF71
:104D90000022217E94F85C01FEF7A8FF00224FF468
:104DA000C06194F85C01FEF7A1FF217E002201F5AD
:104DB000C06194F85C01FEF799FF3DB1002340F219
:104DC0007F12802194F85C01FFF7B4F90022D4F837
:104DD000E01094F85C01FEF789FF0022D4F8E81097
:104DE00094F85C01FEF782FF04231A4604F10801DF
:104DF00004F5B07001F0BAFA0025A560E560256100
:104E000065612571A28CD4F874311A600095019502
:104E1000039504950595237E03F5E0630293012332
:104E20008DF80C30694694F85C01FFF789F9024B64
:104E30001D60284607B030BDD058001070B584B052
:104E4000002505604FF47A71818485620223036333
:104E50004FF42602C2620E2202760562C5619B4AA9
:104E60004264FF22826441654FF48056A0F880605E
:104E700080F8825080F8833041F20106A0F8846007
:104E800080F8865080F8873041F20206A0F88860EA
:104E900080F88A5080F88B3041F20306A0F88C60CD
:104EA00080F88E5080F88F30A0F8905080F89250A3
:104EB00080F89350A0F8945080F8965080F897505E
:104EC000A0F8985080F89A5080F89B50A0F89C5019
:104ED00080F89E5080F89F507D4B8365C265816647
:104EE000A0F8A05080F8A25080F8A350A0F8A450D9
:104EF00080F8A65080F8A750A0F8A85080F8AA50D3
:104F000080F8AB50A0F8AC5080F8AE5080F8AF50AD
:104F1000A0F8B05080F8B25080F8B350A0F8B45068
:104F200080F8B65080F8B750A0F8B85080F8BA5062
:104F300080F8BB50A0F8BC5080F8BE5080F8BF503D
:104F400003F58073C3660267C167A0F8C05080F89C
:104F5000C25080F8C350A0F8C45080F8C65080F802
:104F6000C750A0F8C85080F8CA5080F8CB50A0F8BD
:104F7000CC5080F8CE5080F8CF50A0F8D05080F8B8
:104F8000D25080F8D350A0F8D45080F8D65080F892
:104F9000D750A0F8D85080F8DA5080F8DB50A0F84D
:104FA000DC5080F8DE5080F8DF504FF4C373C0F857
:104FB000E030C0F8E42042F21003A0F8F03080F8AE
:104FC000F250012380F8F33042F21101A0F8F410FE
:104FD00080F8F65080F8F73042F21201A0F8F8108D
:104FE00080F8FA5080F8FB3042F21301A0F8FC1070
:104FF00080F8FE5080F8FF3042F21401A0F8001152
:1050000080F8025180F80331A0F8045180F806516D
:1050100080F80751A0F8085180F80A5180F80B5128
:10502000A0F80C5180F80E5180F80F5140F2871112
:10503000C0F8E810C0F8EC2042F22002A0F81021DD
:1050400080F8125180F8133142F22102A0F81421A5
:1050500080F8165180F8173142F22202A0F8182188
:1050600080F81A5180F81B31A0F81C5180F81E51AD
:1050700080F81F51A0F8205180F8225180F8235168
:10508000A0F8245180F8265180F82751A0F8285123
:1050900080F82A5180F82B51A0F82C5180F82E511D
:1050A00080F82F5190F85C31B0F83421D0F83011ED
:1050B000D0F840610296D0F83C610196D0F8744176
:1050C0000094FFF747FE284604B070BD8E010080B3
:1050D0008E02008090F83831042B03D10020B54BAC
:1050E000186070472DE9F04F8DB00D46044690F8DA
:1050F0005C31002B00F0BD80AF48AE4B18608DE1F5
:10510000207E089A02F07F03984201D0002B73D1D1
:1051100022F07F03802B4BD0B3F5C06F02D0002B61
:105120006AD10CE09DF82430072B65D994F838310A
:10513000042B61D006A92046FFF7EAFC5CE09DF84D
:105140001930227E934201D0002B55D19DF81830A2
:10515000802B12D004D8012B07D0022B09D04BE0B2
:10516000812B0ED0822B10D046E0052384F83831F5
:1051700042E0042384F838313EE07F2384F838315C
:105180003AE0002000F06EFE36E094F85C31B4F8AE
:105190003421D4F840110291D4F83C110191D4F893
:1051A00074110091D4F830112046FFF7D3FD23E0AD
:1051B00094F83831042B1FD0D4F84061E6B19DF843
:1051C0002430082B18D102F07F0284F84421BDF866
:1051D0001830A4F84631BDF81A30A4F84831BDF8AB
:1051E0001C30A4F84A31BDF81E30A4F84C3101F04F
:1051F000A9F904F5A271B04794F83831052B38D1DC
:1052000034E0B94607F11C0354F83320089B9A4256
:1052100029D123E006EBC9033C3334F8231011B342
:1052200006EBC9033C3304EB830393F803A09A789D
:105230002046FFF7BBFBB0B19DF8241008EB0A0233
:10524000914210DB524606A9414440680BF000FB36
:10525000D0445FFA88F80136F6B202E04FF0000859
:105260004646072ED6D90137FFB200E00027012FAE
:10527000C7D906A994F85C01FEF7F8FF00283FF4AF
:105280003FAFD4F8742113689D4203D85B1B1360B1
:10529000002303E04FF0FF3313600123F3B194F8D0
:1052A0003811227E02F5E0620023069307930993EA
:1052B0000A930B938DF81810089201238DF824306F
:1052C00094F85C01FEF7DEFF20B906A994F85C01B2
:1052D000FEF736FFA28CD4F874311A6094F8383196
:1052E000052B00F092800020324B186096E0474674
:1052F00008EB880304EB83035B6C002BC0F2808017
:10530000089308EB880304EB83039B6CFF2B77D196
:1053100008EB880304EB83031A6D2A441A655B6D5E
:105320009A426DD308EB880204EB820200231365D6
:105330001E469A465AE0D1460AEBC703203334F89A
:10534000231039B90AEBC703203304EB83039B789E
:10535000002B4ED009EBC703203304EB830393F8F3
:1053600002B05A462046FFF721FB18B92320114B03
:10537000186053E0C27812F0C00F06D00BF1FF3175
:1053800089B2FFF7AFFB059002E0FFF7D5FC05906F
:1053900009EBC703203304EB8303DB783344082B8A
:1053A00006DD09EBC703203304EB83030022DA7028
:1053B00000220FE0D058001001000003731C0CA95C
:1053C000114411F81C1C0CA8064406F8181C0132E4
:1053D000D2B2DEB209EBC703203304EB8303DB78E0
:1053E0009A42EBD30AF1010A5FFA8AFABAF1070F7F
:1053F000A1D98DF8246006A994F85C01FEF7A0FEFF
:1054000008F101085FFA88F801E04FF00008B8F1F0
:10541000020F7FF66CAF0020024B18600DB0BDE8A4
:10542000F08F00BFD058001000B587B002F5C06201
:1054300002920B788DF800304B888DF801301B0AF2
:105440008DF802300B798DF803308B6801930823B7
:105450008DF80C30694690F85C01FEF771FE002073
:10546000024B186007B05DF804FB00BFD058001075
:10547000294AD2F8C43043F40073C2F8C430274B31
:1054800001221A7200221A649B8F9BB240F63402EA
:10549000934204D94FF4FA62204B9A8709E01F4BDC
:1054A0009B8F9BB2B3F5FA6F03D24FF4FA621B4B9A
:1054B0009A871A4B93F83830DBB20C2B03D90122B0
:1054C000164B83F83820154B93F82C30DBB21F2B8A
:1054D00003D91F22114B83F82C20104B93F828304E
:1054E000DBB2182B03D901220C4B83F828200B4B7D
:1054F00093F82430DBB23B2B03D90022074B83F80F
:105500002420064B93F82030DBB23B2B03D900223A
:10551000024B83F82020704700C00F40004002403B
:10552000094B93F82820027193F82420427193F8D4
:10553000202082719A8F028093F83820827093F82D
:105540002C30C370704700BF004002400B4B00225C
:105550001A72827983F82020427983F82420027914
:1055600083F82820C27883F82C20827883F83820AA
:1055700002889A8701221A72704700BF00400240D9
:1055800070B582B08D4B0025C3F80051D3F8C4200C
:1055900042F40062C3F8C42041F21002C3F8DC21D7
:1055A000874C01202060A560A3F55023D3F840115B
:1055B00040F201221143C3F84011D3F844111143C2
:1055C000C3F84411D3F848111143C3F84811D3F874
:1055D00050111143C3F85011D3F860111143C3F8AF
:1055E0006011D3F870111143C3F87011D3F874111E
:1055F0001143C3F87411D3F880111143C3F880111B
:10560000D3F884111143C3F88411D3F888111143DE
:10561000C3F88811D3F88C111143C3F88C11D3F857
:1056200090111143C3F89011D3F894111143C3F8AA
:105630009411D3F898111143C3F89811D3F89C1121
:105640001143C3F89C11D3F8A0111143C3F8A01162
:10565000D3F8A4111143C3F8A411D3F8A81111432E
:10566000C3F8A811D3F8AC111143C3F8AC11D3F8A7
:10567000B0111143C3F8B011D3F8B4111143C3F8FA
:10568000B411D3F8B8111143C3F8B811D3F8BC1151
:105690001143C3F8BC11D3F800121143C3F8001230
:1056A000D3F804121143C3F80412D3F808121143BB
:1056B000C3F80812D3F80C121143C3F80C12D3F834
:1056C00010121143C3F81012D3F814121143C3F887
:1056D0001412D3F818121143C3F81812D3F81C127D
:1056E0001143C3F81C12D3F820121143C3F820123F
:1056F000D3F824121143C3F82412D3F8281211430B
:10570000C3F82812D3F82C121143C3F82C12D3F883
:1057100034121143C3F83412D3F838121143C3F8CA
:105720003812D3F864120A43C3F86422A0624FF41B
:105730002073C4F8003140F20333C4F8043103236A
:105740002363062161630A22A2630520E0632164CA
:10575000022666640821A164E16422656665A3658A
:10576000642000F0A3FE40F283132362C82000F0FF
:105770009DFE40F2031323626662019502E0019BE5
:1057800001330193019B7F2BF9D90D4B36225A62CD
:1057900083221A620B4A12680092009A00241C624B
:1057A000D3F8002142F40022C3F80021642000F065
:1057B0007DFE054B1C60204602B070BD00C00F404E
:1057C00000C00920009801A0D058001070B5002634
:1057D00015E0214B9B680124B440234203D11E4BAA
:1057E0005B681C420AD01D4B1D683DB100F0AAFE4B
:1057F0003146A847184AD3681C43D4600136164B7B
:105800009B68002BE5D1144B5B68002BE1D1002590
:1058100016E0114B9B6A0124AC40234203D10E4B8E
:105820005B6A1C420BD00D4B1E6846B100F08AFE2D
:1058300005F14001B047084AD36A1C43D4620135E0
:10584000054B9B6A002BE4D1034B5B6A002BE0D134
:1058500000BF00BF70BD00BF8080024048570010ED
:105860002DE9F041284BD3F8C42042F02002C3F8C0
:10587000C420D3F8C42042F04002C3F8C420D3F8B7
:10588000A8311BB90122204BC3F8A8211F4A0321CC
:10589000C2F88C101E4D00262E62EB6C43F4806320
:1058A000EB64C2F8D4101B4C6662E36C43F40063F3
:1058B000E36402276F614FF47A78C5F818807F237C
:1058C0002B65154B18680AF041FD14490AF04AFE91
:1058D00013490AF047FE0AF07DFFE8602E676B6807
:1058E00043F009036B606760C4F818803F232365A9
:1058F0006761E0602667636843F009036360094BF2
:105900001E603046BDE8F08100C00F4000C002407C
:1059100000400140008001408C00001000007A44EB
:1059200000401C46D058001010B586B000240094EA
:105930000194029403940494059400F0EBFF00F1A9
:10594000AA5000F5B0100290144BD8888DF80C00C6
:105950004FF00053049323460BE0104A116812895C
:1059600003FB02F2895C06AA1A4402F8181C0133F0
:10597000DBB29AB28242F0D30020084BD8800422D6
:10598000074B1A70FEF77EFC08B1052803D1694663
:105990000020FEF7D5FB06B010BD00BF9800001038
:1059A000545700100F4B1B78CBB110B582B0044692
:1059B0000020FEF70FF918B1E1B20020FEF7C0F8A1
:1059C00002A901F8014D084C204600F033FDE388A0
:1059D000082B01D1FFF7A8FF012002B010BD012064
:1059E000704700BF645700109800001070B506465D
:1059F0000D46002403E0305DFFF7D4FF0134AC42D4
:105A0000F9D370BD084AD28862B108B5074B93F943
:105A10000030002B03DD1B1A044A137008BDFFF78A
:105A200083FF08BD704700BF980000105457001056
:105A3000F0B4049D002800DA0020002900DA0021DB
:105A4000B0F5487F24DCB1F5F07F21DC8418B4F593
:105A5000487F01D9C0F548720F46CC18B4F5F07FE5
:105A600001D9C1F5F0733E460FE00A490C684FF4C6
:105A7000C86101FB064101EB4001002402E00D80FA
:105A800001340231A242FAD80136D9198E42ECD340
:105A9000F0BC7047A400001010B584B0424B40F237
:105AA0000722C3F80021C3F80821C3F81021C3F866
:105AB0000C21C3F814211A615A61C3F87022C3F88B
:105AC0007422C3F81821C3F81C21C3F82021C3F89D
:105AD00024219A6140F28731D961C3F8D020C3F8FC
:105AE000D420C3F8D820C3F8DC20C3F8E020C3F8E2
:105AF000E42019625962C3F83021C3F83421C3F895
:105B0000E820C3F8EC20C3F8F020C3F8F420274BBA
:105B10001B689B09264AA2FB0323DB0A254AC2F81D
:105B2000B831D2F8C43043F00103C2F8C430224B7C
:105B30004FF020421A61214A1A60214A5A60214AD4
:105B40009A600922DA6040F62C129A610023ADF8BF
:105B50000E300EE0BDF80E309BB280330021164AA5
:105B600042F82310BDF80E309BB201339BB2ADF862
:105B70000E30BDF80E309BB2FF2BEBD90E4A936965
:105B800043F001039361002400944FF4F0734FF449
:105B9000487221462046FFF74BFF00F075F90A4B8B
:105BA0001C60204604B010BD00C002408C000010F4
:105BB0002FE3BE0000C00F4000800820C42F2757ED
:105BC000DF090D2000381F07D05800102DE9F04FD5
:105BD00083B00746894690461D460C9C0D9E009654
:105BE0002346FFF725FF07EB080004EB090AC4EB87
:105BF000050B00965B4622465146001BFFF718FF37
:105C000000965B46224651463846FFF711FF09EBE6
:105C10000501009623464246091B3846FFF708FF58
:105C200003B0BDE8F08F00BF70B505460C46864B4B
:105C30005A6E22F087025A665A6E42F001025A6684
:105C4000DA6D22F08702DA65DA6D42F00102DA6578
:105C50005A6E42F010025A66DA6D42F01002DA65AE
:105C60004FF4C0701866794A116841F08071116074
:105C7000516921F0807151619866136843F0806327
:105C80001360536923F0806353610421084600F0D8
:105C900095F9C82800F3D6806B4B5A6E22F0870224
:105CA0005A665A6E42F001025A66DA6D22F0870295
:105CB000DA65DA6D42F00102DA654FF4C0701866F9
:105CC000624A116841F080711160516941F0807140
:105CD00051619866136843F080631360536923F041
:105CE000806353610A21042000F068F9B0F5077F52
:105CF00003DBB0F56C6F03DC04E04FF4077001E0E8
:105D00004FF46C60A0F507704FF47A7303FB00F357
:105D10004F4880FB0320DB17C3EBA0100AF01AFBEF
:105D20004C490AF06BFB4C490AF01CFC0AF02CFDB4
:105D30000646454B9A6E22F4803222F087029A661C
:105D40009A6E42F001029A661A6E22F087021A6673
:105D50001A6E42F001021A669A6E42F010029A66BA
:105D60001A6E42F010021A664FF4C0705866374A35
:105D7000116841F000711160516921F000715161A9
:105D8000D865136843F400031360536943F40003B8
:105D900053610A21082000F011F9B0F5757F04DB8A
:105DA00040F69C43984203DC04E04FF4757001E038
:105DB00040F69C40A0F575704FF47A7303FB00F336
:105DC000264880FB0320DB17C3EBA0100AF0C2FAC1
:105DD00023490AF013FB20490AF0C4FB0AF0D4FC63
:105DE0002E802080184B5A6E22F087025A665A6E17
:105DF00042F001025A66DA6D22F08702DA65DA6D46
:105E000042F00102DA655A6E42F010025A66DA6D0B
:105E100042F01002DA654FF4C07018660B4A116840
:105E200041F080711160516921F080715161986673
:105E3000136843F080631360536923F080635361F8
:105E4000012070BD002070BD00C00240008009200C
:105E5000712310050000484400007A4429CB49070B
:105E60000000F04358B9BFF34F8F0549CA6802F4E8
:105E7000E062044B1343CB60BFF34F8FFEE77047E4
:105E800000ED00E00400FA0508B52A4BDA6D22F0B7
:105E90008702DA65DA6D42F00102DA651A6E22F0E5
:105EA00087021A661A6E42F001021A665A6E22F0D2
:105EB00087025A665A6E42F001025A669A6E22F4BE
:105EC000803222F087029A669A6E42F001029A6648
:105ED000D3F8F82022F08702C3F8F820D3F8F8208E
:105EE00042F00302C3F8F820134AD2F8C43043F456
:105EF0008053C2F8C430FCF757F910490868104BBA
:105F00001A68104BA3FB02231B0D01331B029BB22B
:105F100003430B600B6823F480330B600B6823F0A2
:105F2000E0630B600B6843F400130B600020064B2A
:105F3000186008BD00C0024000C00F400040034090
:105F40008C000010819F5E16D058001008B5431ECB
:105F5000184205D0164800F0E9FC4FF0FF3008BDAC
:105F6000144B1A6822F0FF021A601A681043186076
:105F70001A6822F0E0621A601A6842F080721A60B1
:105F800007E04FF080520C4B1A60BFF34F8FBFF306
:105F90006F8F084B1B6B13F4803FF2D0054A536898
:105FA000C3F30263043352F82300C0F30B1008BD9F
:105FB000040000010040034004ED00E0F8B507468E
:105FC0000E460024254604E03846FFF7BFFF05448F
:105FD0000134B442F8D3B5FBF6F0F8BD08B5044B74
:105FE0001A68044B19680448FEF7BCFC08BD00BFE2
:105FF000AC000010A8000010BC0F010070B51E46D8
:10600000002412E0184B1B6825012B4459683068A6
:106010000AF046FD40B9144B1B681D44AA68696824
:106020001248FEF79FFC70BD01340F4B1B799C4258
:10603000E8DB002412E00E4B03EB04135D682946F5
:1060400030680AF02DFD40B9094B03EB0414A26837
:1060500029460648FEF786FC70BD0134052CEAD9B6
:106060000448FEF77FFC70BDB8570010D00F010048
:1060700068130100E00F010010B51C4612B90020A2
:10608000FFF7F0FE23681BB10120FFF7EBFE10BD08
:106090000020FFF7E7FE10BD08B500F0C1FB10B906
:1060A0000148FEF75FFC08BD0C10010008B500F0C8
:1060B000D1FB10B90148FEF755FC08BD14100100D2
:1060C00008B5074B1860197100225A719A71054B77
:1060D0001A68054B19680548FEF744FC08BD00BF67
:1060E000B8570010AC000010A800001020100100EC
:1060F000014B1879704700BFB857001010B50F4812
:10610000FEF730FC002407E00D4B03EB0413596845
:106110000C48FEF727FC0134052CF5D9002408E0D3
:10612000094B1B6803EB041359680648FEF71AFC79
:106130000134FFF7DDFF8442F2DB10BD38100100AF
:106140006813010034100100B85700102DE9F04128
:1061500082B0784B1B683BB9774C784B1C6020466B
:1061600000F0E4FB2046E1E00DF107010020FDF71F
:1061700015FD034620B10DF10700FEF797F8034621
:10618000002B40F0D0806B4B5B79C72B0AD90022E3
:10619000684B5A716A4C694B1C60204600F0C6FB84
:1061A0002046C3E001210DF10700FFF71FFC9DF819
:1061B00007301B2B07D106216248FFF717FC00228E
:1061C0005C4B5A71D0E7082B07D15A4B5B79002BF7
:1061D000CAD0013B574A5371C6E70D2B02D00A2B98
:1061E00040F09A805848FEF7BDFB524B5B791BB9D3
:1061F0005648FEF7B7FBB7E74E4A134400249C719C
:10620000254626463DE0F4B14A4B23449B79222B98
:1062100019D1A5B9631E474A13449B799BB9131939
:106220000021997106F1190102EBC10302201871D6
:10623000631C1344063342F83130012503E03D4B23
:10624000234400259D71DDB93A4B23449B79202BD3
:1062500016D1384B234400229A71082E10DC354F9A
:1062600006F11A0807EBC80301221A71A018384476
:106270000022114606300AF045FE47F83800013684
:1062800001342C4B5B799C42BDDB0024294B5C71B3
:1062900018E0284850F8063B25012B4459680AF0BD
:1062A000FFFB70B9234B1B682B44DC6884B100F002
:1062B00049F9204B53F8D01B3246495BA0470125D2
:1062C00007E00134FFF714FF8442E2DB002500E021
:1062D0000125EDB9002414E01D4B03EB04135968AC
:1062E0001C480AF0DDFB58B9194D24012B19DF6851
:1062F00000F028F9184B3246295BB847012502E027
:106300000134052CE8D91DB912491448FEF72AFBBF
:106310000E48FEF727FB27E706494A79501C4871CB
:106320000A44937120E70020044B186002B0BDE8D6
:10633000F08100BFB85700101500000BD0580010B6
:106340001200000B3C10010038100100C868010069
:1063500068130100BE570010885800104410010057
:10636000014B1860704700BF5857001001608280D1
:106370000022C28003720161C160024B1A601046A4
:10638000704700BFD0580010C28883889A420CD34F
:106390001048114B18607047C268CC5C1470C2681A
:1063A0000132C2600133DBB201E010B40023027A93
:1063B0009342F1D3C4680168838802FB03129442BC
:1063C00000D1C160C3880133C3800020024B186034
:1063D00010BC70471200000FD058001010B4C388D2
:1063E0001BB91248124B18601DE049B90CE0026954
:1063F0001278CA540269013202610133DBB200E053
:106400000023027A9342F2D3016902688388047AF6
:1064100004FB0323994200D10261C388013BC3807E
:106420000020034B186010BC704700BF1700000F1E
:10643000D058001038B5C3888288934203D30948E6
:10644000094B186038BD044605680089024600FB08
:1064500003500AF0FDF9E3880133E3800020024B8A
:10646000186038BD1200000FD0580010C3888B424E
:1064700003D80C480C4B1860704770B5044605688B
:10648000028902FB01F01618591A01FB02F2A91940
:1064900028440AF053FAE388013BE3800020024BD2
:1064A000186070BD2900000FD058001082B0ADF800
:1064B000060016E00023009303E000BF009B0133B9
:1064C00000930B4B1B680B4AA2FB0323009AB2EB11
:1064D000133FF2D3BDF806309BB2013B9BB2ADF83F
:1064E0000630BDF806309BB2002BE3D102B07047F6
:1064F0008C00001073B2E7451F2914D8002806DA73
:1065000000F00F00C900C9B20B4B195407E0C900D5
:10651000C9B200F1604000F5614080F8001300202E
:10652000064B1860704710B5054C044B1C602046A4
:1065300000F0FCF9204610BD14ED00E0D05800102A
:106540001600000F014B1868704700BF5857001025
:1065500008B50348FEF706FA6420FFF7A7FF08BD59
:10656000E013010008B50348FEF7FCF96420FFF7CB
:106570009DFF08BDE813010008B50348FEF7F2F9D6
:106580006420FFF793FF08BDF813010008B5034826
:10659000FEF7E8F96420FFF789FF08BD0814010041
:1065A00008B50348FEF7DEF96420FFF77FFF08BD5A
:1065B0001814010008B50348FEF7D4F96420FFF76A
:1065C00075FF08BD2814010070B50E1A0436164B6D
:1065D0001860164B196004464FF48052002304E003
:1065E00012F8015B04F8015B0133B342F8DBC368C6
:1065F000B3F1AA3F07D00E4C0E4B1C60204600F0B2
:1066000095F9204670BD0B68B3F1AA3F07D00A4C3C
:10661000084B1C60204600F089F9204670BD002020
:10662000044B186070BD00BF5C570010605700102D
:106630000D000008D05800100E0000082DE9F047AA
:106640008AB080460C461646FBF7AEFD72B6B4F52E
:10665000007F0AD003D8B4F5807F5AD105E0B4F5A5
:10666000806F02D0B4F5805F53D1B6F5803F06D37A
:10667000F70B0E37A519013DED0B0E3503E0370B77
:10668000A519013D2D0B322305930697079501A906
:1066900005A8224B9847019B1BB162B69DF80400E8
:1066A00038E034230593069707951D4B1B681D4A58
:1066B000A2FB03239B09089301A905A8174B984740
:1066C000019B1BB162B69DF8040023E032230593C1
:1066D0000697079501A905A8104B9847019B1BB188
:1066E00062B69DF8040015E0332305930696CDF8B5
:1066F0001C8008940A4B1B680A4AA2FB03239B09CF
:10670000099301A905A8054B984762B69DF80400B6
:1067100000E00C200AB0BDE8F08700BFF11FFF1FAA
:106720008C000010D34D621070B5344B1860344BA0
:1067300019600D1A0435002306E0C45C03F580528D
:106740001278944204D10133AB42F6D3012300E026
:1067500000231BB100202B4B186070BD0E46044671
:1067600029462948FEF7FEF8002D07DA274C254B6D
:106770001C60204600F0DAF8204670BDB5F5004FE9
:1067800007DD234C1F4B1C60204600F0CFF820464D
:1067900070BDB5F5805F0BDCB5F5806F0BDCB5F532
:1067A000007F0BDCB5F5807F0BDD4FF400710AE054
:1067B0004FF4004107E04FF4805104E04FF4806152
:1067C00001E04FF480714FF0AA33E360114A126880
:1067D0002260114A1268626033604FF48052204692
:1067E000FFF72CFF10B9074B186070BD0B4C054B21
:1067F0001C60204600F09AF8204670BD5C570010DF
:1068000060570010D0580010341401000A0000082E
:106810000B000008A8000010AC0000100C000008DD
:1068200010B5084B186838B9074C084B1C60204657
:1068300000F07CF8204610BD054B1968FFF774FF87
:1068400010BD00BF5C5700100C000008D0580010AD
:106850006057001010B5254B186838B9244C254BEB
:106860001C60204600F062F8204610BD0022C26085
:10687000214B1B681A601B1A043307D51F4C1D4B94
:106880001C60204600F052F8204610BDB3F5805F32
:1068900007DD1B4C174B1C60204600F047F82046D4
:1068A00010BDB3F5806F08DCB3F5007F08DCB3F5ED
:1068B000807F08DD4FF4007107E04FF4805104E061
:1068C0004FF4806101E04FF480714FF48052FFF784
:1068D000B5FE10B9074B186010BD054C054B1C6088
:1068E000204600F023F8204610BD00BF5C57001082
:1068F0000C000008D0580010605700100A00000873
:106900000B000008024B1B6803B11881704700BFE1
:106910005C570010044B1B680BB11889704741F29B
:1069200008031888704700BF5C57001068B110B5A5
:1069300020F07F44020E21460448FEF713F8282C6D
:1069400002D90348FEF70EF810BD70477C14010011
:10695000C014010010B582B00446FBF7E1FF02ABA2
:1069600043F8040D21461846FCF7DAF802B010BDD2
:1069700008B50122054B1A700220FDF795FC022094
:10698000FFF740F80220FFF7E5FFF5E76457001036
:1069900008B50C460848094B1860FFF7C7FF2146A9
:1069A0000748FDF7DFFF4FF0280383F31188BFF39B
:1069B0006F8FBFF34F8FFEE719000013D058001000
:1069C000E41E010000B587B0FFF7CAFCFFF75CFAD0
:1069D0000020FDF72DF8FDF745FBFEF7D1FDFFF791
:1069E0005BF8FEF73DFFFDF769FCFEF741FD002374
:1069F00004930393029301934FF6FF720092802257
:106A000003490448FBF7CAFE07B05DF804FB00BF6A
:106A1000F01E0100716900002DE9F04F83B0058878
:106A20008368002B38D01C889B68002B32D01E88CE
:106A30009B686BB31F889B6843B3B3F800809B6867
:106A400013B3B3F800909B68DBB1B3F800A09B6868
:106A5000A3B1B3F800B09B686BB11A880192986833
:106A600028B1FFF7D9FF019A024493B20193019B29
:106A70009B441FFA8BFBDA441FFA8AFAD1441FFAAF
:106A800089F9C8441FFA88F84744BFB23E44B6B2F9
:106A90003444A4B22544ADB2284603B0BDE8F08F1B
:106AA0002DE9F04F83B045888368002B38D05C888F
:106AB0009B68002B32D05E889B686BB35F889B68B5
:106AC00043B3B3F802809B6813B3B3F802909B689A
:106AD000DBB1B3F802A09B68A3B1B3F802B09B6826
:106AE0006BB15A880192986828B1FFF7D9FF019AD3
:106AF000024493B20193019B9B441FFA8BFBDA443F
:106B00001FFA8AFAD1441FFA89F9C8441FFA88F893
:106B10004744BFB23E44B6B23444A4B22544ADB2F9
:106B2000284603B0BDE8F08F70B504460D46164602
:106B300002F0A4FE00232375E661A56170BD00BFCD
:106B4000837C002B00F0D4820B78022B07D1037DCD
:106B5000012B01D0012343740123037514E0052B9D
:106B600006D100230B7002230375012343740BE04D
:106B7000032B03D1037500230B7005E0037D0BB1DC
:106B80000123437400230375437C002B00F0B08283
:106B90002DE9F04F8FB0037D1BB1C26912680592D9
:106BA00002E0C269126905921BB1C269926807923C
:106BB00002E0C269926907921BB1C369DB6808935E
:106BC00002E0C369DB690893044607888568002DE5
:106BD00061D02E88AB68002B5BD0B3F800809B6837
:106BE000002B54D0B3F800909B68002B4CD0B3F826
:106BF00000A09B68002B44D0B3F800B09B68002B2A
:106C00003CD01A8806929B68002B33D01A880992D0
:106C10009B68002B29D01A880A929B6803B31A88B4
:106C20000B929B68BBB11A880C929B6873B11A884F
:106C30000D92986828B1FFF7EFFE0D9A024493B2C7
:106C40000D930C9B0D9A13449BB20C930B9B0C9AC7
:106C500013449BB20B930A9B0B9A13449BB20A9367
:106C6000099B0A9A13449BB20993069B099A134401
:106C70009BB20693069B9B441FFA8BFBDA441FFAD8
:106C80008AFAD1441FFA89F9C8441FFA88F84644A1
:106C9000B6B23744BFB206976788002D5DD06E88C4
:106CA000AB68002B57D05D889B68002B51D0B3F8A0
:106CB00002809B68002B4AD0B3F802909B68002B9F
:106CC00042D0B3F802A09B68002B3AD0B3F802B0D0
:106CD0009B68002B32D05A8809929B68002B29D0E0
:106CE0005A880A929B6803B35A880B929B68BBB17F
:106CF0005A880C929B6873B15A880D92986828B193
:106D0000FFF7CEFE0D9A024493B20D930C9B0D9AA1
:106D100013449BB20C930B9B0C9A13449BB20B93A2
:106D20000A9B0B9A13449BB20A93099B0A9A134439
:106D30009BB20993099B9B441FFA8BFBDA441FFA11
:106D40008AFAD1441FFA89F9C8441FFA88F84544E1
:106D5000ADB22E44B6B23744BFB2B4F90420B4F990
:106D600006300599009139460698FEF761FE27889E
:106D7000A568002D61D02E88AB68002B5BD0B3F8DE
:106D800000809B68002B54D0B3F800909B68002BC8
:106D90004CD0B3F800A09B68002B44D0B3F800B0EF
:106DA0009B68002B3CD01A8806929B68002B33D03E
:106DB0001A8809929B68002B29D01A880A929B682E
:106DC00003B31A880B929B68BBB11A880C929B681C
:106DD00073B11A880D92986828B1FFF71DFE0D9ABD
:106DE000024493B20D930C9B0D9A13449BB20C93E7
:106DF0000B9B0C9A13449BB20B930A9B0B9A134464
:106E00009BB20A93099B0A9A13449BB20993069B6F
:106E1000099A13449BB20693069B9B441FFA8BFB73
:106E2000DA441FFA8AFAD1441FFA89F9C8441FFAD2
:106E300088F84644B6B23744BFB206976788002D3B
:106E40005DD06E88AB68002B57D05D889B68002BA7
:106E500051D0B3F802809B68002B4AD0B3F802905F
:106E60009B68002B42D0B3F802A09B68002B3AD05D
:106E7000B3F802B09B68002B32D05A8809929B6805
:106E8000002B29D05A880A929B6803B35A880B9228
:106E90009B68BBB15A880C929B6873B15A880D925B
:106EA000986828B1FFF7FCFD0D9A024493B20D9348
:106EB0000C9B0D9A13449BB20C930B9B0C9A13449E
:106EC0009BB20B930A9B0B9A13449BB20A93099BA8
:106ED0000A9A13449BB20993099B9B441FFA8BFBAC
:106EE000DA441FFA8AFAD1441FFA89F9C8441FFA12
:106EF00088F84544ADB22E44B6B23744BFB2B4F9B7
:106F00000420B4F906300799019101210091394616
:106F10000698FEF75BFE2688D4F80880B8F1000FCB
:106F200061D0B8F80050D8F80830002B59D01F882D
:106F30009B68002B53D0B3F800909B68002B4CD07B
:106F4000B3F800A09B68002B44D0B3F800B09B6856
:106F5000002B3CD01A8806929B68002B33D01A88ED
:106F600007929B68002B29D01A8809929B6803B36B
:106F70001A880A929B68BBB11A880B929B6873B1FE
:106F80001A880C92986828B1FFF746FD0C9A0244C3
:106F900093B20C930B9B0C9A13449BB20B930A9BDA
:106FA0000B9A13449BB20A93099B0A9A13449BB20F
:106FB0000993079B099A13449BB20793069B079A70
:106FC00013449BB20693069B9B441FFA8BFBDA4447
:106FD0001FFA8AFAD1441FFA89F94F44BFB23D44DF
:106FE000ADB22E44B6B2B4F9045005EBD57506EB3C
:106FF0006505ADB26688B8F1000F63D0B8F80270CD
:10700000D8F80830002B5BD0B3F802809B68002BC7
:1070100054D0B3F802909B68002B4CD0B3F802A078
:107020009B68002B44D0B3F802B09B68002B3CD087
:107030005A8806929B68002B33D05A8807929B6827
:10704000002B29D05A8809929B6803B35A880A9268
:107050009B68BBB15A880B929B6873B15A880C929B
:10706000986828B1FFF71CFD0C9A024493B20C9368
:107070000B9B0C9A13449BB20B930A9B0B9A1344E1
:107080009BB20A93099B0A9A13449BB20993079BEC
:10709000099A13449BB20793069B079A13449BB229
:1070A0000693069B9B441FFA8BFBDA441FFA8AFA6D
:1070B000D1441FFA89F9C8441FFA88F84744BFB27F
:1070C0003E44B6B2B4F90610E3695A6A01EBD171D5
:1070D00006EB6101A3690293059B0193089B009352
:1070E000122389B2284601F03FFF0FB0BDE8F08FB0
:1070F000704700BF2DE9F04F83B045888368002BAF
:1071000038D05C889B68002B32D05E889B686BB35C
:107110005F889B6843B3B3F802809B6813B3B3F8EE
:1071200002909B68DBB1B3F802A09B68A3B1B3F8EF
:1071300002B09B686BB15A880192986828B1FFF73A
:10714000D9FF019A024493B20193019B9B441FFA19
:107150008BFBDA441FFA8AFAD1441FFA89F9C84432
:107160001FFA88F84744BFB23E44B6B23444A4B2D2
:107170002544ADB2284603B0BDE8F08F2DE9F04FAD
:1071800083B005888368002B38D01C889B68002B4F
:1071900032D01E889B686BB31F889B6843B3B3F8DB
:1071A00000809B6813B3B3F800909B68DBB1B3F821
:1071B00000A09B68A3B1B3F800B09B686BB11A88BC
:1071C0000192986828B1FFF7D9FF019A024493B25F
:1071D0000193019B9B441FFA8BFBDA441FFA8AFA46
:1071E000D1441FFA89F9C8441FFA88F84744BFB24E
:1071F0003E44B6B23444A4B22544ADB2284603B0EE
:10720000BDE8F08F2DE9F04F8FB00446C37F002B0F
:1072100000F02881B0F90630312B01DC3223C38025
:107220002788D4F80890B9F1000F4DD0B9F8005074
:10723000D9F80830002B45D01E889B68002B3FD022
:10724000B3F800809B68002B38D0B3F800A09B688F
:10725000002B30D0B3F800B09B68002B28D01A88E0
:1072600005929B6803B31A8806929B68BBB11A8883
:1072700007929B6873B11A880892986828B1FFF743
:107280007DFF089A024493B20893079B089A13441F
:107290009BB20793069B079A13449BB20693059BE8
:1072A000069A13449BB20593059B9B441FFA8BFBE4
:1072B000DA441FFA8AFAD0441FFA88F84644B6B274
:1072C0003544ADB22F44BFB23DB26688B9F1000F6C
:1072D00052D0B9F80280D9F80830002B4AD0B3F860
:1072E00002909B68002B42D0B3F802A09B68002B51
:1072F0003AD0B3F802B09B68002B32D05A8805927E
:107300009B68002B29D05A8806929B6803B35A8841
:1073100007929B68BBB15A8808929B6873B15A88E0
:107320000992986828B1FFF7E5FE099A024493B2E2
:107330000993089B099A13449BB20893079B089AE8
:1073400013449BB20793069B079A13449BB2069380
:10735000059B069A13449BB20593059B9B441FFA19
:107360008BFBDA441FFA8AFAD1441FFA89F9C84420
:107370001FFA88F84644B6B2B4F9063003EBD3736B
:1073800006EB6306B6B2A6F119010FFA81FAB4F959
:107390000490A846D346E36A1B69009332234A4609
:1073A00051462846FEF744FBE36A9B69019301239B
:1073B000009332234A4651462846FEF707FCB4F9AB
:1073C0001800B4F91420B4F916309A420AD0801A81
:1073D0004FF47A7101FB00F09B1A90FBF3F008F078
:1073E000B9FF00E0002009F0CFF900B2B4F9043091
:1073F000333B03FB00F39E4880FB0320DB17C3EB0A
:10740000A01008F0A7FF09F0BFF900B24044E36AFA
:107410005B680093302331220BF101010130FEF74C
:1074200007FBA37F002B00F061810DF12C080A22DD
:107430004146B4F9180009F009FAE36A5A6A09EBFF
:10744000D97007EB6000CDF808806FF47F010191DF
:10745000DB6900931223314680B201F085FD4FF0C5
:10746000320848E1B0F90430312B01DC322383804B
:107470002588D4F80890B9F1000F4DD0B9F8006014
:10748000D9F80830002B45D01F889B68002B3FD0CF
:10749000B3F800809B68002B38D0B3F800A09B683D
:1074A000002B30D0B3F800B09B68002B28D01A888E
:1074B00005929B6803B31A8806929B68BBB11A8831
:1074C00007929B6873B11A880892986828B1FFF7F1
:1074D00055FE089A024493B20893079B089A1344F6
:1074E0009BB20793069B079A13449BB20693059B96
:1074F000069A13449BB20593059B9B441FFA8BFB92
:10750000DA441FFA8AFAD0441FFA88F84744BFB217
:107510003E44B6B23544ADB2B4F9046006EBD6765B
:1075200005EB6606B6B2A6F119052DB26788B9F16A
:10753000000F52D0B9F80280D9F80830002B4AD099
:10754000B3F802909B68002B42D0B3F802A09B686E
:10755000002B3AD0B3F802B09B68002B32D05A8887
:1075600005929B68002B29D05A8806929B6803B32A
:107570005A8807929B68BBB15A8808929B6873B17E
:107580005A880992986828B1FFF7B4FD099A024415
:1075900093B20993089B099A13449BB20893079BE3
:1075A000089A13449BB20793069B079A13449BB215
:1075B0000693059B069A13449BB20593059B9B4437
:1075C0001FFA8BFBDA441FFA8AFAD1441FFA89F9B1
:1075D000C8441FFA88F84744BFB20FFA87FAB4F8D4
:1075E0000680636A33B1E36A5B6AB3F90630053338
:1075F0009BB200E00023C3EB08080FFA88F8AB4603
:10760000D146E36A1B69009343463222514628461D
:10761000FEF70EFAE36A9B69019301230093434648
:10762000322251462846FEF7D1FAB4F91800B4F9CF
:107630001420B4F916309A420AD0801A4FF47A71A5
:1076400001FB00F09B1A90FBF3F008F083FE00E0D2
:10765000002009F099F800B2B4F90630A3F1330222
:10766000636A3BB1E36A5B6AB3F90630053302E053
:10767000D34D62100023D31AC0F57A7000FB03F3D8
:10768000294880FB0320DB17C3EBA01008F062FE43
:1076900009F07AF800B200EB0901E36A5B68009335
:1076A0003123302201310BF10100FEF7C1F9A37F34
:1076B000FBB10DF12C090A224946B4F9180009F072
:1076C000C5F8E36A5A6A08EBD87107EB6101CDF897
:1076D00008906FF47F000190DB690093122389B258
:1076E000304601F041FC4FF0320904E04FF032081F
:1076F00001E04FF03209E36A5A6A0AEB08010531EA
:1077000009EBD97905EB6900646A02946FF47F0490
:1077100001949B6A00930A2389B280B201F024FC91
:107720000FB0BDE8F08F00BFD34D6210F8B504462E
:107730000F4616461D4602F0A1F8A782E682258371
:10774000AE4201DA268302E0AF4200DD2783069BCA
:10775000E3620123E377A377002384F82030638377
:107760006362F8BDF8B50B78012B07D180F82030A3
:1077700000230B70B0F9183083833DE0062B32D123
:1077800090F820207AB3438BC67F0EB14A8803E07D
:10779000B1F90420524292B21A4414B24483B0F8B0
:1077A0001CE0B0F91670B0F914507A1B02FB04F219
:1077B00026B1B0F90440A4F1320303E0B0F9064069
:1077C000A4F1320392FBF3F373441BB203839D4293
:1077D00001DD058302E09F4200DA078300230B707E
:1077E0000123437408E03BB990F8203023B1002313
:1077F00080F8203043830B70437C1BB1037C0BB1BA
:10780000FFF700FDF8BD00BF70B504460E461546F3
:1078100002F034F8666100232383E56123806380EE
:107820004FF44873A3804FF4F073E380A3680BB167
:1078300001225A7401236374052104F12000FCF72E
:10784000D7F9052104F12C00FCF7D2F90223A38714
:1078500070BD00BF30B583B004460D4600230093D1
:10786000ADF8043001A90DF10200FEF7DDF90028A2
:107870005FD0BDF9021004F12000FCF7C3F9ADF8A8
:107880000200BDF9041004F12C00FCF7BBF900B2B2
:10789000ADF80400B4F93C30022B09D1BDF9023037
:1078A0002387608701238DF800300023A3875EE0E3
:1078B0005BBBB4F93800BDF90230C01A08F0AAFF6A
:1078C000142808DCB4F93A00BDF90430C01A08F0F5
:1078D000A1FF142815DD06238DF80030BDF9021034
:1078E000BDF90420B4F93830CB1AADF80230B4F940
:1078F0003A30D31AADF80430218762870123A38779
:1079000035E002238DF8003031E0012B2FD1BDF995
:10791000022006238DF80030B4F93830D31AADF8C0
:107920000230B4F93A30C31AADF8043022876087C8
:107930001DE0B4F93C30022B19D0B4F93820ADF871
:107940000220B4F93A20ADF804201BB905238DF8C4
:10795000003002E004238DF8003004F12000FCF731
:107960004DF904F12C00FCF749F90223A387AAB2D0
:107970006946204600F0DCF803B030BD2DE9F04F39
:1079800083B005888368002B38D01C889B68002B47
:1079900032D01E889B686BB31F889B6843B3B3F8D3
:1079A00000809B6813B3B3F800909B68DBB1B3F819
:1079B00000A09B68A3B1B3F800B09B686BB11A88B4
:1079C0000192986828B1FFF7D9FF019A024493B257
:1079D0000193019B9B441FFA8BFBDA441FFA8AFA3E
:1079E000D1441FFA89F9C8441FFA88F84744BFB246
:1079F0003E44B6B23444A4B22544ADB2284603B0E6
:107A0000BDE8F08F2DE9F04F83B045888368002BE7
:107A100038D05C889B68002B32D05E889B686BB343
:107A20005F889B6843B3B3F802809B6813B3B3F8D5
:107A300002909B68DBB1B3F802A09B68A3B1B3F8D6
:107A400002B09B686BB15A880192986828B1FFF721
:107A5000D9FF019A024493B20193019B9B441FFA00
:107A60008BFBDA441FFA8AFAD1441FFA89F9C84419
:107A70001FFA88F84744BFB23E44B6B23444A4B2B9
:107A80002544ADB2284603B0BDE8F08F2DE9F0479C
:107A900082B0044607888568EDB12E88AB68C3B113
:107AA000B3F800809B6893B1B3F800A09B685BB10A
:107AB000B3F80090986820B1FFF760FF48441FFAC0
:107AC00080F9D1441FFA89FAD0441FFA88F8464455
:107AD000B6B23E44B7B2B8466788DDB16E88AB68CF
